{
	"Gradebook.sol": {
		"Gradebook": {
			"abi": [
				{
					"inputs": [],
					"stateMutability": "nonpayable",
					"type": "constructor"
				},
				{
					"anonymous": false,
					"inputs": [
						{
							"indexed": true,
							"internalType": "uint256",
							"name": "_id",
							"type": "uint256"
						}
					],
					"name": "assignmentCreationEvent",
					"type": "event"
				},
				{
					"anonymous": false,
					"inputs": [
						{
							"indexed": true,
							"internalType": "uint256",
							"name": "_id",
							"type": "uint256"
						}
					],
					"name": "gradeEntryEvent",
					"type": "event"
				},
				{
					"inputs": [
						{
							"internalType": "string",
							"name": "_name",
							"type": "string"
						},
						{
							"internalType": "uint256",
							"name": "_max_score",
							"type": "uint256"
						}
					],
					"name": "addAssignment",
					"outputs": [
						{
							"internalType": "uint256",
							"name": "",
							"type": "uint256"
						}
					],
					"stateMutability": "nonpayable",
					"type": "function"
				},
				{
					"inputs": [
						{
							"internalType": "string",
							"name": "_student",
							"type": "string"
						},
						{
							"internalType": "uint256",
							"name": "_assignment",
							"type": "uint256"
						},
						{
							"internalType": "uint256",
							"name": "_score",
							"type": "uint256"
						}
					],
					"name": "addGrade",
					"outputs": [],
					"stateMutability": "nonpayable",
					"type": "function"
				},
				{
					"inputs": [
						{
							"internalType": "uint256",
							"name": "",
							"type": "uint256"
						}
					],
					"name": "assignment_names",
					"outputs": [
						{
							"internalType": "string",
							"name": "",
							"type": "string"
						}
					],
					"stateMutability": "view",
					"type": "function"
				},
				{
					"inputs": [
						{
							"internalType": "address",
							"name": "_ta",
							"type": "address"
						}
					],
					"name": "designateTA",
					"outputs": [],
					"stateMutability": "nonpayable",
					"type": "function"
				},
				{
					"inputs": [
						{
							"internalType": "string",
							"name": "_student",
							"type": "string"
						}
					],
					"name": "getAverage",
					"outputs": [
						{
							"internalType": "uint256",
							"name": "",
							"type": "uint256"
						}
					],
					"stateMutability": "view",
					"type": "function"
				},
				{
					"inputs": [],
					"name": "instructor",
					"outputs": [
						{
							"internalType": "address",
							"name": "",
							"type": "address"
						}
					],
					"stateMutability": "view",
					"type": "function"
				},
				{
					"inputs": [
						{
							"internalType": "uint256",
							"name": "",
							"type": "uint256"
						}
					],
					"name": "max_scores",
					"outputs": [
						{
							"internalType": "uint256",
							"name": "",
							"type": "uint256"
						}
					],
					"stateMutability": "view",
					"type": "function"
				},
				{
					"inputs": [],
					"name": "num_assignments",
					"outputs": [
						{
							"internalType": "uint256",
							"name": "",
							"type": "uint256"
						}
					],
					"stateMutability": "view",
					"type": "function"
				},
				{
					"inputs": [],
					"name": "requestTAAccess",
					"outputs": [],
					"stateMutability": "nonpayable",
					"type": "function"
				},
				{
					"inputs": [
						{
							"internalType": "uint256",
							"name": "",
							"type": "uint256"
						},
						{
							"internalType": "string",
							"name": "",
							"type": "string"
						}
					],
					"name": "scores",
					"outputs": [
						{
							"internalType": "uint256",
							"name": "",
							"type": "uint256"
						}
					],
					"stateMutability": "view",
					"type": "function"
				},
				{
					"inputs": [
						{
							"internalType": "bytes4",
							"name": "interfaceId",
							"type": "bytes4"
						}
					],
					"name": "supportsInterface",
					"outputs": [
						{
							"internalType": "bool",
							"name": "",
							"type": "bool"
						}
					],
					"stateMutability": "pure",
					"type": "function"
				},
				{
					"inputs": [
						{
							"internalType": "address",
							"name": "",
							"type": "address"
						}
					],
					"name": "tas",
					"outputs": [
						{
							"internalType": "bool",
							"name": "",
							"type": "bool"
						}
					],
					"stateMutability": "view",
					"type": "function"
				}
			],
			"devdoc": {
				"kind": "dev",
				"methods": {},
				"version": 1
			},
			"evm": {
				"assembly": "    /* \"Gradebook.sol\":99:2569  contract Gradebook is IGradebook{... */\n  mstore(0x40, 0x80)\n    /* \"Gradebook.sol\":460:514  constructor() {... */\n  callvalue\n  dup1\n  iszero\n  tag_1\n  jumpi\n  0x00\n  dup1\n  revert\ntag_1:\n  pop\n    /* \"Gradebook.sol\":497:507  msg.sender */\n  caller\n    /* \"Gradebook.sol\":484:494  instructor */\n  0x05\n  0x00\n    /* \"Gradebook.sol\":484:507  instructor = msg.sender */\n  0x0100\n  exp\n  dup2\n  sload\n  dup2\n  0xffffffffffffffffffffffffffffffffffffffff\n  mul\n  not\n  and\n  swap1\n  dup4\n  0xffffffffffffffffffffffffffffffffffffffff\n  and\n  mul\n  or\n  swap1\n  sstore\n  pop\n    /* \"Gradebook.sol\":99:2569  contract Gradebook is IGradebook{... */\n  dataSize(sub_0)\n  dup1\n  dataOffset(sub_0)\n  0x00\n  codecopy\n  0x00\n  return\nstop\n\nsub_0: assembly {\n        /* \"Gradebook.sol\":99:2569  contract Gradebook is IGradebook{... */\n      mstore(0x40, 0x80)\n      callvalue\n      dup1\n      iszero\n      tag_1\n      jumpi\n      0x00\n      dup1\n      revert\n    tag_1:\n      pop\n      jumpi(tag_2, lt(calldatasize, 0x04))\n      shr(0xe0, calldataload(0x00))\n      dup1\n      0x77ca2947\n      gt\n      tag_15\n      jumpi\n      dup1\n      0x77ca2947\n      eq\n      tag_9\n      jumpi\n      dup1\n      0x7fc29673\n      eq\n      tag_10\n      jumpi\n      dup1\n      0x9cfeb679\n      eq\n      tag_11\n      jumpi\n      dup1\n      0xa30254e7\n      eq\n      tag_12\n      jumpi\n      dup1\n      0xc7a9f77b\n      eq\n      tag_13\n      jumpi\n      dup1\n      0xdfd68b91\n      eq\n      tag_14\n      jumpi\n      jump(tag_2)\n    tag_15:\n      dup1\n      0x01ffc9a7\n      eq\n      tag_3\n      jumpi\n      dup1\n      0x077f3b02\n      eq\n      tag_4\n      jumpi\n      dup1\n      0x53acf883\n      eq\n      tag_5\n      jumpi\n      dup1\n      0x65dd2f69\n      eq\n      tag_6\n      jumpi\n      dup1\n      0x71ae413d\n      eq\n      tag_7\n      jumpi\n      dup1\n      0x7241d75f\n      eq\n      tag_8\n      jumpi\n    tag_2:\n      0x00\n      dup1\n      revert\n        /* \"Gradebook.sol\":2394:2562  function supportsInterface(bytes4 interfaceId) external pure returns (bool) {... */\n    tag_3:\n      tag_16\n      0x04\n      dup1\n      calldatasize\n      sub\n      dup2\n      add\n      swap1\n      tag_17\n      swap2\n      swap1\n      tag_18\n      jump\t// in\n    tag_17:\n      tag_19\n      jump\t// in\n    tag_16:\n      mload(0x40)\n      tag_20\n      swap2\n      swap1\n      tag_21\n      jump\t// in\n    tag_20:\n      mload(0x40)\n      dup1\n      swap2\n      sub\n      swap1\n      return\n        /* \"Gradebook.sol\":1866:2289  function addAssignment(string memory _name, uint _max_score) public override returns (uint) {... */\n    tag_4:\n      tag_22\n      0x04\n      dup1\n      calldatasize\n      sub\n      dup2\n      add\n      swap1\n      tag_23\n      swap2\n      swap1\n      tag_24\n      jump\t// in\n    tag_23:\n      tag_25\n      jump\t// in\n    tag_22:\n      mload(0x40)\n      tag_26\n      swap2\n      swap1\n      tag_27\n      jump\t// in\n    tag_26:\n      mload(0x40)\n      dup1\n      swap2\n      sub\n      swap1\n      return\n        /* \"Gradebook.sol\":356:413  mapping (uint => string) public override assignment_names */\n    tag_5:\n      tag_28\n      0x04\n      dup1\n      calldatasize\n      sub\n      dup2\n      add\n      swap1\n      tag_29\n      swap2\n      swap1\n      tag_30\n      jump\t// in\n    tag_29:\n      tag_31\n      jump\t// in\n    tag_28:\n      mload(0x40)\n      tag_32\n      swap2\n      swap1\n      tag_33\n      jump\t// in\n    tag_32:\n      mload(0x40)\n      dup1\n      swap2\n      sub\n      swap1\n      return\n        /* \"Gradebook.sol\":560:1082  function getAverage(string memory _student) public override view returns (uint) {... */\n    tag_6:\n      tag_34\n      0x04\n      dup1\n      calldatasize\n      sub\n      dup2\n      add\n      swap1\n      tag_35\n      swap2\n      swap1\n      tag_36\n      jump\t// in\n    tag_35:\n      tag_37\n      jump\t// in\n    tag_34:\n      mload(0x40)\n      tag_38\n      swap2\n      swap1\n      tag_27\n      jump\t// in\n    tag_38:\n      mload(0x40)\n      dup1\n      swap2\n      sub\n      swap1\n      return\n        /* \"Gradebook.sol\":419:453  address public override instructor */\n    tag_7:\n      tag_39\n      tag_40\n      jump\t// in\n    tag_39:\n      mload(0x40)\n      tag_41\n      swap2\n      swap1\n      tag_42\n      jump\t// in\n    tag_41:\n      mload(0x40)\n      dup1\n      swap2\n      sub\n      swap1\n      return\n        /* \"Gradebook.sol\":1363:1860  function addGrade(string memory _student, uint _assignment, uint _score) public override {... */\n    tag_8:\n      tag_43\n      0x04\n      dup1\n      calldatasize\n      sub\n      dup2\n      add\n      swap1\n      tag_44\n      swap2\n      swap1\n      tag_45\n      jump\t// in\n    tag_44:\n      tag_46\n      jump\t// in\n    tag_43:\n      stop\n        /* \"Gradebook.sol\":230:295  mapping (uint => mapping(string => uint) ) public override scores */\n    tag_9:\n      tag_47\n      0x04\n      dup1\n      calldatasize\n      sub\n      dup2\n      add\n      swap1\n      tag_48\n      swap2\n      swap1\n      tag_49\n      jump\t// in\n    tag_48:\n      tag_50\n      jump\t// in\n    tag_47:\n      mload(0x40)\n      tag_51\n      swap2\n      swap1\n      tag_27\n      jump\t// in\n    tag_51:\n      mload(0x40)\n      dup1\n      swap2\n      sub\n      swap1\n      return\n        /* \"Gradebook.sol\":2295:2377  function requestTAAccess() public override {... */\n    tag_10:\n      tag_52\n      tag_53\n      jump\t// in\n    tag_52:\n      stop\n        /* \"Gradebook.sol\":1088:1351  function designateTA (address _ta) public override{... */\n    tag_11:\n      tag_54\n      0x04\n      dup1\n      calldatasize\n      sub\n      dup2\n      add\n      swap1\n      tag_55\n      swap2\n      swap1\n      tag_56\n      jump\t// in\n    tag_55:\n      tag_57\n      jump\t// in\n    tag_54:\n      stop\n        /* \"Gradebook.sol\":179:224  mapping (address => bool) public override tas */\n    tag_12:\n      tag_58\n      0x04\n      dup1\n      calldatasize\n      sub\n      dup2\n      add\n      swap1\n      tag_59\n      swap2\n      swap1\n      tag_56\n      jump\t// in\n    tag_59:\n      tag_60\n      jump\t// in\n    tag_58:\n      mload(0x40)\n      tag_61\n      swap2\n      swap1\n      tag_21\n      jump\t// in\n    tag_61:\n      mload(0x40)\n      dup1\n      swap2\n      sub\n      swap1\n      return\n        /* \"Gradebook.sol\":137:173  uint public override num_assignments */\n    tag_13:\n      tag_62\n      tag_63\n      jump\t// in\n    tag_62:\n      mload(0x40)\n      tag_64\n      swap2\n      swap1\n      tag_27\n      jump\t// in\n    tag_64:\n      mload(0x40)\n      dup1\n      swap2\n      sub\n      swap1\n      return\n        /* \"Gradebook.sol\":301:350  mapping (uint => uint) public override max_scores */\n    tag_14:\n      tag_65\n      0x04\n      dup1\n      calldatasize\n      sub\n      dup2\n      add\n      swap1\n      tag_66\n      swap2\n      swap1\n      tag_30\n      jump\t// in\n    tag_66:\n      tag_67\n      jump\t// in\n    tag_65:\n      mload(0x40)\n      tag_68\n      swap2\n      swap1\n      tag_27\n      jump\t// in\n    tag_68:\n      mload(0x40)\n      dup1\n      swap2\n      sub\n      swap1\n      return\n        /* \"Gradebook.sol\":2394:2562  function supportsInterface(bytes4 interfaceId) external pure returns (bool) {... */\n    tag_19:\n        /* \"Gradebook.sol\":2464:2468  bool */\n      0x00\n        /* \"Gradebook.sol\":2502:2530  type(IGradebook).interfaceId */\n      0x1c95926d00000000000000000000000000000000000000000000000000000000\n        /* \"Gradebook.sol\":2487:2530  interfaceId == type(IGradebook).interfaceId */\n      not(0xffffffffffffffffffffffffffffffffffffffffffffffffffffffff)\n      and\n        /* \"Gradebook.sol\":2487:2498  interfaceId */\n      dup3\n        /* \"Gradebook.sol\":2487:2530  interfaceId == type(IGradebook).interfaceId */\n      not(0xffffffffffffffffffffffffffffffffffffffffffffffffffffffff)\n      and\n      eq\n        /* \"Gradebook.sol\":2487:2559  interfaceId == type(IGradebook).interfaceId || interfaceId == 0x01ffc9a7 */\n      dup1\n      tag_70\n      jumpi\n      pop\n        /* \"Gradebook.sol\":2549:2559  0x01ffc9a7 */\n      0x01ffc9a7\n        /* \"Gradebook.sol\":2534:2559  interfaceId == 0x01ffc9a7 */\n      0xe0\n      shl\n        /* \"Gradebook.sol\":2534:2545  interfaceId */\n      dup3\n        /* \"Gradebook.sol\":2534:2559  interfaceId == 0x01ffc9a7 */\n      not(0xffffffffffffffffffffffffffffffffffffffffffffffffffffffff)\n      and\n      eq\n        /* \"Gradebook.sol\":2487:2559  interfaceId == type(IGradebook).interfaceId || interfaceId == 0x01ffc9a7 */\n    tag_70:\n        /* \"Gradebook.sol\":2480:2559  return interfaceId == type(IGradebook).interfaceId || interfaceId == 0x01ffc9a7 */\n      swap1\n      pop\n        /* \"Gradebook.sol\":2394:2562  function supportsInterface(bytes4 interfaceId) external pure returns (bool) {... */\n      swap2\n      swap1\n      pop\n      jump\t// out\n        /* \"Gradebook.sol\":1866:2289  function addAssignment(string memory _name, uint _max_score) public override returns (uint) {... */\n    tag_25:\n        /* \"Gradebook.sol\":1952:1956  uint */\n      0x00\n        /* \"Gradebook.sol\":1990:2000  instructor */\n      0x05\n      0x00\n      swap1\n      sload\n      swap1\n      0x0100\n      exp\n      swap1\n      div\n      0xffffffffffffffffffffffffffffffffffffffff\n      and\n        /* \"Gradebook.sol\":1976:2000  msg.sender == instructor */\n      0xffffffffffffffffffffffffffffffffffffffff\n      and\n        /* \"Gradebook.sol\":1976:1986  msg.sender */\n      caller\n        /* \"Gradebook.sol\":1976:2000  msg.sender == instructor */\n      0xffffffffffffffffffffffffffffffffffffffff\n      and\n      eq\n        /* \"Gradebook.sol\":1976:2019  msg.sender == instructor || tas[msg.sender] */\n      dup1\n      tag_72\n      jumpi\n      pop\n        /* \"Gradebook.sol\":2004:2007  tas */\n      0x01\n        /* \"Gradebook.sol\":2004:2019  tas[msg.sender] */\n      0x00\n        /* \"Gradebook.sol\":2008:2018  msg.sender */\n      caller\n        /* \"Gradebook.sol\":2004:2019  tas[msg.sender] */\n      0xffffffffffffffffffffffffffffffffffffffff\n      and\n      0xffffffffffffffffffffffffffffffffffffffff\n      and\n      dup2\n      mstore\n      0x20\n      add\n      swap1\n      dup2\n      mstore\n      0x20\n      add\n      0x00\n      keccak256\n      0x00\n      swap1\n      sload\n      swap1\n      0x0100\n      exp\n      swap1\n      div\n      0xff\n      and\n        /* \"Gradebook.sol\":1976:2019  msg.sender == instructor || tas[msg.sender] */\n    tag_72:\n        /* \"Gradebook.sol\":1968:2067  require(msg.sender == instructor || tas[msg.sender], \"caller must be instructor or designated TA!\") */\n      tag_73\n      jumpi\n      mload(0x40)\n      0x08c379a000000000000000000000000000000000000000000000000000000000\n      dup2\n      mstore\n      0x04\n      add\n      tag_74\n      swap1\n      tag_75\n      jump\t// in\n    tag_74:\n      mload(0x40)\n      dup1\n      swap2\n      sub\n      swap1\n      revert\n    tag_73:\n        /* \"Gradebook.sol\":2113:2118  _name */\n      dup3\n        /* \"Gradebook.sol\":2077:2093  assignment_names */\n      0x04\n        /* \"Gradebook.sol\":2077:2110  assignment_names[num_assignments] */\n      0x00\n        /* \"Gradebook.sol\":2094:2109  num_assignments */\n      dup1\n      sload\n        /* \"Gradebook.sol\":2077:2110  assignment_names[num_assignments] */\n      dup2\n      mstore\n      0x20\n      add\n      swap1\n      dup2\n      mstore\n      0x20\n      add\n      0x00\n      keccak256\n        /* \"Gradebook.sol\":2077:2118  assignment_names[num_assignments] = _name */\n      swap1\n      dup2\n      tag_76\n      swap2\n      swap1\n      tag_77\n      jump\t// in\n    tag_76:\n      pop\n        /* \"Gradebook.sol\":2158:2168  _max_score */\n      dup2\n        /* \"Gradebook.sol\":2128:2138  max_scores */\n      0x03\n        /* \"Gradebook.sol\":2128:2155  max_scores[num_assignments] */\n      0x00\n        /* \"Gradebook.sol\":2139:2154  num_assignments */\n      dup1\n      sload\n        /* \"Gradebook.sol\":2128:2155  max_scores[num_assignments] */\n      dup2\n      mstore\n      0x20\n      add\n      swap1\n      dup2\n      mstore\n      0x20\n      add\n      0x00\n      keccak256\n        /* \"Gradebook.sol\":2128:2168  max_scores[num_assignments] = _max_score */\n      dup2\n      swap1\n      sstore\n      pop\n        /* \"Gradebook.sol\":2207:2222  num_assignments */\n      sload(0x00)\n        /* \"Gradebook.sol\":2183:2223  assignmentCreationEvent(num_assignments) */\n      0x1e5500ede7ec81cd4d6537a1a618f3424510f89d03c2252ee7c80e60a1278b67\n      mload(0x40)\n      mload(0x40)\n      dup1\n      swap2\n      sub\n      swap1\n      log2\n        /* \"Gradebook.sol\":2233:2248  num_assignments */\n      0x00\n      dup1\n        /* \"Gradebook.sol\":2233:2250  num_assignments++ */\n      dup2\n      sload\n      dup1\n      swap3\n      swap2\n      swap1\n      tag_78\n      swap1\n      tag_79\n      jump\t// in\n    tag_78:\n      swap2\n      swap1\n      pop\n      sstore\n      pop\n        /* \"Gradebook.sol\":2267:2282  num_assignments */\n      sload(0x00)\n        /* \"Gradebook.sol\":2260:2282  return num_assignments */\n      swap1\n      pop\n        /* \"Gradebook.sol\":1866:2289  function addAssignment(string memory _name, uint _max_score) public override returns (uint) {... */\n      swap3\n      swap2\n      pop\n      pop\n      jump\t// out\n        /* \"Gradebook.sol\":356:413  mapping (uint => string) public override assignment_names */\n    tag_31:\n      mstore(0x20, 0x04)\n      dup1\n      0x00\n      mstore\n      keccak256(0x00, 0x40)\n      0x00\n      swap2\n      pop\n      swap1\n      pop\n      dup1\n      sload\n      tag_80\n      swap1\n      tag_81\n      jump\t// in\n    tag_80:\n      dup1\n      0x1f\n      add\n      0x20\n      dup1\n      swap2\n      div\n      mul\n      0x20\n      add\n      mload(0x40)\n      swap1\n      dup2\n      add\n      0x40\n      mstore\n      dup1\n      swap3\n      swap2\n      swap1\n      dup2\n      dup2\n      mstore\n      0x20\n      add\n      dup3\n      dup1\n      sload\n      tag_82\n      swap1\n      tag_81\n      jump\t// in\n    tag_82:\n      dup1\n      iszero\n      tag_83\n      jumpi\n      dup1\n      0x1f\n      lt\n      tag_84\n      jumpi\n      0x0100\n      dup1\n      dup4\n      sload\n      div\n      mul\n      dup4\n      mstore\n      swap2\n      0x20\n      add\n      swap2\n      jump(tag_83)\n    tag_84:\n      dup3\n      add\n      swap2\n      swap1\n      0x00\n      mstore\n      keccak256(0x00, 0x20)\n      swap1\n    tag_85:\n      dup2\n      sload\n      dup2\n      mstore\n      swap1\n      0x01\n      add\n      swap1\n      0x20\n      add\n      dup1\n      dup4\n      gt\n      tag_85\n      jumpi\n      dup3\n      swap1\n      sub\n      0x1f\n      and\n      dup3\n      add\n      swap2\n    tag_83:\n      pop\n      pop\n      pop\n      pop\n      pop\n      dup2\n      jump\t// out\n        /* \"Gradebook.sol\":560:1082  function getAverage(string memory _student) public override view returns (uint) {... */\n    tag_37:\n        /* \"Gradebook.sol\":634:638  uint */\n      0x00\n        /* \"Gradebook.sol\":650:661  uint points */\n      dup1\n        /* \"Gradebook.sol\":664:665  0 */\n      0x00\n        /* \"Gradebook.sol\":650:665  uint points = 0 */\n      swap1\n      pop\n        /* \"Gradebook.sol\":675:685  uint total */\n      0x00\n        /* \"Gradebook.sol\":699:709  uint index */\n      dup1\n        /* \"Gradebook.sol\":723:740  uint assign_count */\n      0x00\n        /* \"Gradebook.sol\":759:1031  while (index < num_assignments) {... */\n    tag_87:\n        /* \"Gradebook.sol\":774:789  num_assignments */\n      sload(0x00)\n        /* \"Gradebook.sol\":766:771  index */\n      dup3\n        /* \"Gradebook.sol\":766:789  index < num_assignments */\n      lt\n        /* \"Gradebook.sol\":759:1031  while (index < num_assignments) {... */\n      iszero\n      tag_88\n      jumpi\n        /* \"Gradebook.sol\":805:815  uint score */\n      0x00\n        /* \"Gradebook.sol\":818:824  scores */\n      0x02\n        /* \"Gradebook.sol\":818:831  scores[index] */\n      0x00\n        /* \"Gradebook.sol\":825:830  index */\n      dup5\n        /* \"Gradebook.sol\":818:831  scores[index] */\n      dup2\n      mstore\n      0x20\n      add\n      swap1\n      dup2\n      mstore\n      0x20\n      add\n      0x00\n      keccak256\n        /* \"Gradebook.sol\":832:840  _student */\n      dup8\n        /* \"Gradebook.sol\":818:841  scores[index][_student] */\n      mload(0x40)\n      tag_89\n      swap2\n      swap1\n      tag_90\n      jump\t// in\n    tag_89:\n      swap1\n      dup2\n      mstore\n      0x20\n      add\n      mload(0x40)\n      dup1\n      swap2\n      sub\n      swap1\n      keccak256\n      sload\n        /* \"Gradebook.sol\":805:841  uint score = scores[index][_student] */\n      swap1\n      pop\n        /* \"Gradebook.sol\":867:868  0 */\n      0x00\n        /* \"Gradebook.sol\":859:864  score */\n      dup2\n        /* \"Gradebook.sol\":859:868  score > 0 */\n      gt\n        /* \"Gradebook.sol\":855:997  if (score > 0) {... */\n      iszero\n      tag_91\n      jumpi\n        /* \"Gradebook.sol\":904:905  1 */\n      0x01\n        /* \"Gradebook.sol\":888:905  assign_count += 1 */\n      dup3\n      tag_92\n      swap2\n      swap1\n      tag_93\n      jump\t// in\n    tag_92:\n      swap2\n      pop\n        /* \"Gradebook.sol\":932:942  max_scores */\n      0x03\n        /* \"Gradebook.sol\":932:949  max_scores[index] */\n      0x00\n        /* \"Gradebook.sol\":943:948  index */\n      dup5\n        /* \"Gradebook.sol\":932:949  max_scores[index] */\n      dup2\n      mstore\n      0x20\n      add\n      swap1\n      dup2\n      mstore\n      0x20\n      add\n      0x00\n      keccak256\n      sload\n        /* \"Gradebook.sol\":923:949  total += max_scores[index] */\n      dup5\n      tag_94\n      swap2\n      swap1\n      tag_93\n      jump\t// in\n    tag_94:\n      swap4\n      pop\n        /* \"Gradebook.sol\":977:982  score */\n      dup1\n        /* \"Gradebook.sol\":967:982  points += score */\n      dup6\n      tag_95\n      swap2\n      swap1\n      tag_93\n      jump\t// in\n    tag_95:\n      swap5\n      pop\n        /* \"Gradebook.sol\":855:997  if (score > 0) {... */\n    tag_91:\n        /* \"Gradebook.sol\":1019:1020  1 */\n      0x01\n        /* \"Gradebook.sol\":1010:1020  index += 1 */\n      dup4\n      tag_96\n      swap2\n      swap1\n      tag_93\n      jump\t// in\n    tag_96:\n      swap3\n      pop\n        /* \"Gradebook.sol\":791:1031  {... */\n      pop\n        /* \"Gradebook.sol\":759:1031  while (index < num_assignments) {... */\n      jump(tag_87)\n    tag_88:\n        /* \"Gradebook.sol\":1071:1074  100 */\n      0x64\n        /* \"Gradebook.sol\":1056:1068  assign_count */\n      dup2\n        /* \"Gradebook.sol\":1047:1053  points */\n      dup6\n        /* \"Gradebook.sol\":1047:1068  points / assign_count */\n      tag_97\n      swap2\n      swap1\n      tag_98\n      jump\t// in\n    tag_97:\n        /* \"Gradebook.sol\":1047:1074  points / assign_count * 100 */\n      tag_99\n      swap2\n      swap1\n      tag_100\n      jump\t// in\n    tag_99:\n        /* \"Gradebook.sol\":1040:1074  return points / assign_count * 100 */\n      swap5\n      pop\n      pop\n      pop\n      pop\n      pop\n        /* \"Gradebook.sol\":560:1082  function getAverage(string memory _student) public override view returns (uint) {... */\n      swap2\n      swap1\n      pop\n      jump\t// out\n        /* \"Gradebook.sol\":419:453  address public override instructor */\n    tag_40:\n      0x05\n      0x00\n      swap1\n      sload\n      swap1\n      0x0100\n      exp\n      swap1\n      div\n      0xffffffffffffffffffffffffffffffffffffffff\n      and\n      dup2\n      jump\t// out\n        /* \"Gradebook.sol\":1363:1860  function addGrade(string memory _student, uint _assignment, uint _score) public override {... */\n    tag_46:\n        /* \"Gradebook.sol\":1484:1494  instructor */\n      0x05\n      0x00\n      swap1\n      sload\n      swap1\n      0x0100\n      exp\n      swap1\n      div\n      0xffffffffffffffffffffffffffffffffffffffff\n      and\n        /* \"Gradebook.sol\":1470:1494  msg.sender == instructor */\n      0xffffffffffffffffffffffffffffffffffffffff\n      and\n        /* \"Gradebook.sol\":1470:1480  msg.sender */\n      caller\n        /* \"Gradebook.sol\":1470:1494  msg.sender == instructor */\n      0xffffffffffffffffffffffffffffffffffffffff\n      and\n      eq\n        /* \"Gradebook.sol\":1470:1513  msg.sender == instructor || tas[msg.sender] */\n      dup1\n      tag_102\n      jumpi\n      pop\n        /* \"Gradebook.sol\":1498:1501  tas */\n      0x01\n        /* \"Gradebook.sol\":1498:1513  tas[msg.sender] */\n      0x00\n        /* \"Gradebook.sol\":1502:1512  msg.sender */\n      caller\n        /* \"Gradebook.sol\":1498:1513  tas[msg.sender] */\n      0xffffffffffffffffffffffffffffffffffffffff\n      and\n      0xffffffffffffffffffffffffffffffffffffffff\n      and\n      dup2\n      mstore\n      0x20\n      add\n      swap1\n      dup2\n      mstore\n      0x20\n      add\n      0x00\n      keccak256\n      0x00\n      swap1\n      sload\n      swap1\n      0x0100\n      exp\n      swap1\n      div\n      0xff\n      and\n        /* \"Gradebook.sol\":1470:1513  msg.sender == instructor || tas[msg.sender] */\n    tag_102:\n        /* \"Gradebook.sol\":1462:1561  require(msg.sender == instructor || tas[msg.sender], \"caller must be instructor or designated TA!\") */\n      tag_103\n      jumpi\n      mload(0x40)\n      0x08c379a000000000000000000000000000000000000000000000000000000000\n      dup2\n      mstore\n      0x04\n      add\n      tag_104\n      swap1\n      tag_75\n      jump\t// in\n    tag_104:\n      mload(0x40)\n      dup1\n      swap2\n      sub\n      swap1\n      revert\n    tag_103:\n        /* \"Gradebook.sol\":1594:1595  0 */\n      0x00\n        /* \"Gradebook.sol\":1579:1590  _assignment */\n      dup3\n        /* \"Gradebook.sol\":1579:1595  _assignment >= 0 */\n      lt\n      iszero\n        /* \"Gradebook.sol\":1579:1628  _assignment >= 0 && _assignment < num_assignments */\n      dup1\n      iszero\n      tag_105\n      jumpi\n      pop\n        /* \"Gradebook.sol\":1613:1628  num_assignments */\n      sload(0x00)\n        /* \"Gradebook.sol\":1599:1610  _assignment */\n      dup3\n        /* \"Gradebook.sol\":1599:1628  _assignment < num_assignments */\n      lt\n        /* \"Gradebook.sol\":1579:1628  _assignment >= 0 && _assignment < num_assignments */\n    tag_105:\n        /* \"Gradebook.sol\":1571:1660  require(_assignment >= 0 && _assignment < num_assignments, \"assignment ID must be valid\") */\n      tag_106\n      jumpi\n      mload(0x40)\n      0x08c379a000000000000000000000000000000000000000000000000000000000\n      dup2\n      mstore\n      0x04\n      add\n      tag_107\n      swap1\n      tag_108\n      jump\t// in\n    tag_107:\n      mload(0x40)\n      dup1\n      swap2\n      sub\n      swap1\n      revert\n    tag_106:\n        /* \"Gradebook.sol\":1688:1698  max_scores */\n      0x03\n        /* \"Gradebook.sol\":1688:1711  max_scores[_assignment] */\n      0x00\n        /* \"Gradebook.sol\":1699:1710  _assignment */\n      dup4\n        /* \"Gradebook.sol\":1688:1711  max_scores[_assignment] */\n      dup2\n      mstore\n      0x20\n      add\n      swap1\n      dup2\n      mstore\n      0x20\n      add\n      0x00\n      keccak256\n      sload\n        /* \"Gradebook.sol\":1678:1684  _score */\n      dup2\n        /* \"Gradebook.sol\":1678:1711  _score <= max_scores[_assignment] */\n      gt\n      iszero\n        /* \"Gradebook.sol\":1670:1762  require(_score <= max_scores[_assignment], \"score must be lower than or equal to max score\") */\n      tag_109\n      jumpi\n      mload(0x40)\n      0x08c379a000000000000000000000000000000000000000000000000000000000\n      dup2\n      mstore\n      0x04\n      add\n      tag_110\n      swap1\n      tag_111\n      jump\t// in\n    tag_110:\n      mload(0x40)\n      dup1\n      swap2\n      sub\n      swap1\n      revert\n    tag_109:\n        /* \"Gradebook.sol\":1793:1804  _assignment */\n      dup2\n        /* \"Gradebook.sol\":1777:1805  gradeEntryEvent(_assignment) */\n      0xef2ac44e203202a0e5ecc9974197e85354c58fc899e46eaa72f8aed9aa0b701d\n      mload(0x40)\n      mload(0x40)\n      dup1\n      swap2\n      sub\n      swap1\n      log2\n        /* \"Gradebook.sol\":1847:1853  _score */\n      dup1\n        /* \"Gradebook.sol\":1815:1821  scores */\n      0x02\n        /* \"Gradebook.sol\":1815:1834  scores[_assignment] */\n      0x00\n        /* \"Gradebook.sol\":1822:1833  _assignment */\n      dup5\n        /* \"Gradebook.sol\":1815:1834  scores[_assignment] */\n      dup2\n      mstore\n      0x20\n      add\n      swap1\n      dup2\n      mstore\n      0x20\n      add\n      0x00\n      keccak256\n        /* \"Gradebook.sol\":1835:1843  _student */\n      dup5\n        /* \"Gradebook.sol\":1815:1844  scores[_assignment][_student] */\n      mload(0x40)\n      tag_112\n      swap2\n      swap1\n      tag_90\n      jump\t// in\n    tag_112:\n      swap1\n      dup2\n      mstore\n      0x20\n      add\n      mload(0x40)\n      dup1\n      swap2\n      sub\n      swap1\n      keccak256\n        /* \"Gradebook.sol\":1815:1853  scores[_assignment][_student] = _score */\n      dup2\n      swap1\n      sstore\n      pop\n        /* \"Gradebook.sol\":1363:1860  function addGrade(string memory _student, uint _assignment, uint _score) public override {... */\n      pop\n      pop\n      pop\n      jump\t// out\n        /* \"Gradebook.sol\":230:295  mapping (uint => mapping(string => uint) ) public override scores */\n    tag_50:\n      mstore(0x20, 0x02)\n      dup2\n      0x00\n      mstore\n      keccak256(0x00, 0x40)\n      dup2\n      dup1\n      mload\n      0x20\n      dup2\n      add\n      dup3\n      add\n      dup1\n      mload\n      dup5\n      dup3\n      mstore\n      0x20\n      dup4\n      add\n      0x20\n      dup6\n      add\n      keccak256\n      dup2\n      dup4\n      mstore\n      dup1\n      swap6\n      pop\n      pop\n      pop\n      pop\n      pop\n      pop\n      0x00\n      swap2\n      pop\n      swap2\n      pop\n      pop\n      sload\n      dup2\n      jump\t// out\n        /* \"Gradebook.sol\":2295:2377  function requestTAAccess() public override {... */\n    tag_53:\n        /* \"Gradebook.sol\":2366:2370  true */\n      0x01\n        /* \"Gradebook.sol\":2348:2351  tas */\n      dup1\n        /* \"Gradebook.sol\":2348:2363  tas[msg.sender] */\n      0x00\n        /* \"Gradebook.sol\":2352:2362  msg.sender */\n      caller\n        /* \"Gradebook.sol\":2348:2363  tas[msg.sender] */\n      0xffffffffffffffffffffffffffffffffffffffff\n      and\n      0xffffffffffffffffffffffffffffffffffffffff\n      and\n      dup2\n      mstore\n      0x20\n      add\n      swap1\n      dup2\n      mstore\n      0x20\n      add\n      0x00\n      keccak256\n      0x00\n        /* \"Gradebook.sol\":2348:2370  tas[msg.sender] = true */\n      0x0100\n      exp\n      dup2\n      sload\n      dup2\n      0xff\n      mul\n      not\n      and\n      swap1\n      dup4\n      iszero\n      iszero\n      mul\n      or\n      swap1\n      sstore\n      pop\n        /* \"Gradebook.sol\":2295:2377  function requestTAAccess() public override {... */\n      jump\t// out\n        /* \"Gradebook.sol\":1088:1351  function designateTA (address _ta) public override{... */\n    tag_57:\n        /* \"Gradebook.sol\":1170:1180  instructor */\n      0x05\n      0x00\n      swap1\n      sload\n      swap1\n      0x0100\n      exp\n      swap1\n      div\n      0xffffffffffffffffffffffffffffffffffffffff\n      and\n        /* \"Gradebook.sol\":1156:1180  msg.sender == instructor */\n      0xffffffffffffffffffffffffffffffffffffffff\n      and\n        /* \"Gradebook.sol\":1156:1166  msg.sender */\n      caller\n        /* \"Gradebook.sol\":1156:1180  msg.sender == instructor */\n      0xffffffffffffffffffffffffffffffffffffffff\n      and\n      eq\n        /* \"Gradebook.sol\":1148:1218  require(msg.sender == instructor, \"only instructor can designate TAs\") */\n      tag_115\n      jumpi\n      mload(0x40)\n      0x08c379a000000000000000000000000000000000000000000000000000000000\n      dup2\n      mstore\n      0x04\n      add\n      tag_116\n      swap1\n      tag_117\n      jump\t// in\n    tag_116:\n      mload(0x40)\n      dup1\n      swap2\n      sub\n      swap1\n      revert\n    tag_115:\n        /* \"Gradebook.sol\":1340:1344  true */\n      0x01\n        /* \"Gradebook.sol\":1329:1332  tas */\n      dup1\n        /* \"Gradebook.sol\":1329:1337  tas[_ta] */\n      0x00\n        /* \"Gradebook.sol\":1333:1336  _ta */\n      dup4\n        /* \"Gradebook.sol\":1329:1337  tas[_ta] */\n      0xffffffffffffffffffffffffffffffffffffffff\n      and\n      0xffffffffffffffffffffffffffffffffffffffff\n      and\n      dup2\n      mstore\n      0x20\n      add\n      swap1\n      dup2\n      mstore\n      0x20\n      add\n      0x00\n      keccak256\n      0x00\n        /* \"Gradebook.sol\":1329:1344  tas[_ta] = true */\n      0x0100\n      exp\n      dup2\n      sload\n      dup2\n      0xff\n      mul\n      not\n      and\n      swap1\n      dup4\n      iszero\n      iszero\n      mul\n      or\n      swap1\n      sstore\n      pop\n        /* \"Gradebook.sol\":1088:1351  function designateTA (address _ta) public override{... */\n      pop\n      jump\t// out\n        /* \"Gradebook.sol\":179:224  mapping (address => bool) public override tas */\n    tag_60:\n      mstore(0x20, 0x01)\n      dup1\n      0x00\n      mstore\n      keccak256(0x00, 0x40)\n      0x00\n      swap2\n      pop\n      sload\n      swap1\n      0x0100\n      exp\n      swap1\n      div\n      0xff\n      and\n      dup2\n      jump\t// out\n        /* \"Gradebook.sol\":137:173  uint public override num_assignments */\n    tag_63:\n      sload(0x00)\n      dup2\n      jump\t// out\n        /* \"Gradebook.sol\":301:350  mapping (uint => uint) public override max_scores */\n    tag_67:\n      mstore(0x20, 0x03)\n      dup1\n      0x00\n      mstore\n      keccak256(0x00, 0x40)\n      0x00\n      swap2\n      pop\n      swap1\n      pop\n      sload\n      dup2\n      jump\t// out\n        /* \"#utility.yul\":7:82   */\n    tag_118:\n        /* \"#utility.yul\":40:46   */\n      0x00\n        /* \"#utility.yul\":73:75   */\n      0x40\n        /* \"#utility.yul\":67:76   */\n      mload\n        /* \"#utility.yul\":57:76   */\n      swap1\n      pop\n        /* \"#utility.yul\":7:82   */\n      swap1\n      jump\t// out\n        /* \"#utility.yul\":88:205   */\n    tag_119:\n        /* \"#utility.yul\":197:198   */\n      0x00\n        /* \"#utility.yul\":194:195   */\n      dup1\n        /* \"#utility.yul\":187:199   */\n      revert\n        /* \"#utility.yul\":211:328   */\n    tag_120:\n        /* \"#utility.yul\":320:321   */\n      0x00\n        /* \"#utility.yul\":317:318   */\n      dup1\n        /* \"#utility.yul\":310:322   */\n      revert\n        /* \"#utility.yul\":334:483   */\n    tag_121:\n        /* \"#utility.yul\":370:377   */\n      0x00\n        /* \"#utility.yul\":410:476   */\n      0xffffffff00000000000000000000000000000000000000000000000000000000\n        /* \"#utility.yul\":403:408   */\n      dup3\n        /* \"#utility.yul\":399:477   */\n      and\n        /* \"#utility.yul\":388:477   */\n      swap1\n      pop\n        /* \"#utility.yul\":334:483   */\n      swap2\n      swap1\n      pop\n      jump\t// out\n        /* \"#utility.yul\":489:609   */\n    tag_122:\n        /* \"#utility.yul\":561:584   */\n      tag_183\n        /* \"#utility.yul\":578:583   */\n      dup2\n        /* \"#utility.yul\":561:584   */\n      tag_121\n      jump\t// in\n    tag_183:\n        /* \"#utility.yul\":554:559   */\n      dup2\n        /* \"#utility.yul\":551:585   */\n      eq\n        /* \"#utility.yul\":541:603   */\n      tag_184\n      jumpi\n        /* \"#utility.yul\":599:600   */\n      0x00\n        /* \"#utility.yul\":596:597   */\n      dup1\n        /* \"#utility.yul\":589:601   */\n      revert\n        /* \"#utility.yul\":541:603   */\n    tag_184:\n        /* \"#utility.yul\":489:609   */\n      pop\n      jump\t// out\n        /* \"#utility.yul\":615:752   */\n    tag_123:\n        /* \"#utility.yul\":660:665   */\n      0x00\n        /* \"#utility.yul\":698:704   */\n      dup2\n        /* \"#utility.yul\":685:705   */\n      calldataload\n        /* \"#utility.yul\":676:705   */\n      swap1\n      pop\n        /* \"#utility.yul\":714:746   */\n      tag_186\n        /* \"#utility.yul\":740:745   */\n      dup2\n        /* \"#utility.yul\":714:746   */\n      tag_122\n      jump\t// in\n    tag_186:\n        /* \"#utility.yul\":615:752   */\n      swap3\n      swap2\n      pop\n      pop\n      jump\t// out\n        /* \"#utility.yul\":758:1085   */\n    tag_18:\n        /* \"#utility.yul\":816:822   */\n      0x00\n        /* \"#utility.yul\":865:867   */\n      0x20\n        /* \"#utility.yul\":853:862   */\n      dup3\n        /* \"#utility.yul\":844:851   */\n      dup5\n        /* \"#utility.yul\":840:863   */\n      sub\n        /* \"#utility.yul\":836:868   */\n      slt\n        /* \"#utility.yul\":833:952   */\n      iszero\n      tag_188\n      jumpi\n        /* \"#utility.yul\":871:950   */\n      tag_189\n      tag_119\n      jump\t// in\n    tag_189:\n        /* \"#utility.yul\":833:952   */\n    tag_188:\n        /* \"#utility.yul\":991:992   */\n      0x00\n        /* \"#utility.yul\":1016:1068   */\n      tag_190\n        /* \"#utility.yul\":1060:1067   */\n      dup5\n        /* \"#utility.yul\":1051:1057   */\n      dup3\n        /* \"#utility.yul\":1040:1049   */\n      dup6\n        /* \"#utility.yul\":1036:1058   */\n      add\n        /* \"#utility.yul\":1016:1068   */\n      tag_123\n      jump\t// in\n    tag_190:\n        /* \"#utility.yul\":1006:1068   */\n      swap2\n      pop\n        /* \"#utility.yul\":962:1078   */\n      pop\n        /* \"#utility.yul\":758:1085   */\n      swap3\n      swap2\n      pop\n      pop\n      jump\t// out\n        /* \"#utility.yul\":1091:1181   */\n    tag_124:\n        /* \"#utility.yul\":1125:1132   */\n      0x00\n        /* \"#utility.yul\":1168:1173   */\n      dup2\n        /* \"#utility.yul\":1161:1174   */\n      iszero\n        /* \"#utility.yul\":1154:1175   */\n      iszero\n        /* \"#utility.yul\":1143:1175   */\n      swap1\n      pop\n        /* \"#utility.yul\":1091:1181   */\n      swap2\n      swap1\n      pop\n      jump\t// out\n        /* \"#utility.yul\":1187:1296   */\n    tag_125:\n        /* \"#utility.yul\":1268:1289   */\n      tag_193\n        /* \"#utility.yul\":1283:1288   */\n      dup2\n        /* \"#utility.yul\":1268:1289   */\n      tag_124\n      jump\t// in\n    tag_193:\n        /* \"#utility.yul\":1263:1266   */\n      dup3\n        /* \"#utility.yul\":1256:1290   */\n      mstore\n        /* \"#utility.yul\":1187:1296   */\n      pop\n      pop\n      jump\t// out\n        /* \"#utility.yul\":1302:1512   */\n    tag_21:\n        /* \"#utility.yul\":1389:1393   */\n      0x00\n        /* \"#utility.yul\":1427:1429   */\n      0x20\n        /* \"#utility.yul\":1416:1425   */\n      dup3\n        /* \"#utility.yul\":1412:1430   */\n      add\n        /* \"#utility.yul\":1404:1430   */\n      swap1\n      pop\n        /* \"#utility.yul\":1440:1505   */\n      tag_195\n        /* \"#utility.yul\":1502:1503   */\n      0x00\n        /* \"#utility.yul\":1491:1500   */\n      dup4\n        /* \"#utility.yul\":1487:1504   */\n      add\n        /* \"#utility.yul\":1478:1484   */\n      dup5\n        /* \"#utility.yul\":1440:1505   */\n      tag_125\n      jump\t// in\n    tag_195:\n        /* \"#utility.yul\":1302:1512   */\n      swap3\n      swap2\n      pop\n      pop\n      jump\t// out\n        /* \"#utility.yul\":1518:1635   */\n    tag_126:\n        /* \"#utility.yul\":1627:1628   */\n      0x00\n        /* \"#utility.yul\":1624:1625   */\n      dup1\n        /* \"#utility.yul\":1617:1629   */\n      revert\n        /* \"#utility.yul\":1641:1758   */\n    tag_127:\n        /* \"#utility.yul\":1750:1751   */\n      0x00\n        /* \"#utility.yul\":1747:1748   */\n      dup1\n        /* \"#utility.yul\":1740:1752   */\n      revert\n        /* \"#utility.yul\":1764:1866   */\n    tag_128:\n        /* \"#utility.yul\":1805:1811   */\n      0x00\n        /* \"#utility.yul\":1856:1858   */\n      0x1f\n        /* \"#utility.yul\":1852:1859   */\n      not\n        /* \"#utility.yul\":1847:1849   */\n      0x1f\n        /* \"#utility.yul\":1840:1845   */\n      dup4\n        /* \"#utility.yul\":1836:1850   */\n      add\n        /* \"#utility.yul\":1832:1860   */\n      and\n        /* \"#utility.yul\":1822:1860   */\n      swap1\n      pop\n        /* \"#utility.yul\":1764:1866   */\n      swap2\n      swap1\n      pop\n      jump\t// out\n        /* \"#utility.yul\":1872:2052   */\n    tag_129:\n        /* \"#utility.yul\":1920:1997   */\n      0x4e487b7100000000000000000000000000000000000000000000000000000000\n        /* \"#utility.yul\":1917:1918   */\n      0x00\n        /* \"#utility.yul\":1910:1998   */\n      mstore\n        /* \"#utility.yul\":2017:2021   */\n      0x41\n        /* \"#utility.yul\":2014:2015   */\n      0x04\n        /* \"#utility.yul\":2007:2022   */\n      mstore\n        /* \"#utility.yul\":2041:2045   */\n      0x24\n        /* \"#utility.yul\":2038:2039   */\n      0x00\n        /* \"#utility.yul\":2031:2046   */\n      revert\n        /* \"#utility.yul\":2058:2339   */\n    tag_130:\n        /* \"#utility.yul\":2141:2168   */\n      tag_201\n        /* \"#utility.yul\":2163:2167   */\n      dup3\n        /* \"#utility.yul\":2141:2168   */\n      tag_128\n      jump\t// in\n    tag_201:\n        /* \"#utility.yul\":2133:2139   */\n      dup2\n        /* \"#utility.yul\":2129:2169   */\n      add\n        /* \"#utility.yul\":2271:2277   */\n      dup2\n        /* \"#utility.yul\":2259:2269   */\n      dup2\n        /* \"#utility.yul\":2256:2278   */\n      lt\n        /* \"#utility.yul\":2235:2253   */\n      0xffffffffffffffff\n        /* \"#utility.yul\":2223:2233   */\n      dup3\n        /* \"#utility.yul\":2220:2254   */\n      gt\n        /* \"#utility.yul\":2217:2279   */\n      or\n        /* \"#utility.yul\":2214:2302   */\n      iszero\n      tag_202\n      jumpi\n        /* \"#utility.yul\":2282:2300   */\n      tag_203\n      tag_129\n      jump\t// in\n    tag_203:\n        /* \"#utility.yul\":2214:2302   */\n    tag_202:\n        /* \"#utility.yul\":2322:2332   */\n      dup1\n        /* \"#utility.yul\":2318:2320   */\n      0x40\n        /* \"#utility.yul\":2311:2333   */\n      mstore\n        /* \"#utility.yul\":2101:2339   */\n      pop\n        /* \"#utility.yul\":2058:2339   */\n      pop\n      pop\n      jump\t// out\n        /* \"#utility.yul\":2345:2474   */\n    tag_131:\n        /* \"#utility.yul\":2379:2385   */\n      0x00\n        /* \"#utility.yul\":2406:2426   */\n      tag_205\n      tag_118\n      jump\t// in\n    tag_205:\n        /* \"#utility.yul\":2396:2426   */\n      swap1\n      pop\n        /* \"#utility.yul\":2435:2468   */\n      tag_206\n        /* \"#utility.yul\":2463:2467   */\n      dup3\n        /* \"#utility.yul\":2455:2461   */\n      dup3\n        /* \"#utility.yul\":2435:2468   */\n      tag_130\n      jump\t// in\n    tag_206:\n        /* \"#utility.yul\":2345:2474   */\n      swap2\n      swap1\n      pop\n      jump\t// out\n        /* \"#utility.yul\":2480:2788   */\n    tag_132:\n        /* \"#utility.yul\":2542:2546   */\n      0x00\n        /* \"#utility.yul\":2632:2650   */\n      0xffffffffffffffff\n        /* \"#utility.yul\":2624:2630   */\n      dup3\n        /* \"#utility.yul\":2621:2651   */\n      gt\n        /* \"#utility.yul\":2618:2674   */\n      iszero\n      tag_208\n      jumpi\n        /* \"#utility.yul\":2654:2672   */\n      tag_209\n      tag_129\n      jump\t// in\n    tag_209:\n        /* \"#utility.yul\":2618:2674   */\n    tag_208:\n        /* \"#utility.yul\":2692:2721   */\n      tag_210\n        /* \"#utility.yul\":2714:2720   */\n      dup3\n        /* \"#utility.yul\":2692:2721   */\n      tag_128\n      jump\t// in\n    tag_210:\n        /* \"#utility.yul\":2684:2721   */\n      swap1\n      pop\n        /* \"#utility.yul\":2776:2780   */\n      0x20\n        /* \"#utility.yul\":2770:2774   */\n      dup2\n        /* \"#utility.yul\":2766:2781   */\n      add\n        /* \"#utility.yul\":2758:2781   */\n      swap1\n      pop\n        /* \"#utility.yul\":2480:2788   */\n      swap2\n      swap1\n      pop\n      jump\t// out\n        /* \"#utility.yul\":2794:2940   */\n    tag_133:\n        /* \"#utility.yul\":2891:2897   */\n      dup3\n        /* \"#utility.yul\":2886:2889   */\n      dup2\n        /* \"#utility.yul\":2881:2884   */\n      dup4\n        /* \"#utility.yul\":2868:2898   */\n      calldatacopy\n        /* \"#utility.yul\":2932:2933   */\n      0x00\n        /* \"#utility.yul\":2923:2929   */\n      dup4\n        /* \"#utility.yul\":2918:2921   */\n      dup4\n        /* \"#utility.yul\":2914:2930   */\n      add\n        /* \"#utility.yul\":2907:2934   */\n      mstore\n        /* \"#utility.yul\":2794:2940   */\n      pop\n      pop\n      pop\n      jump\t// out\n        /* \"#utility.yul\":2946:3371   */\n    tag_134:\n        /* \"#utility.yul\":3024:3029   */\n      0x00\n        /* \"#utility.yul\":3049:3115   */\n      tag_213\n        /* \"#utility.yul\":3065:3114   */\n      tag_214\n        /* \"#utility.yul\":3107:3113   */\n      dup5\n        /* \"#utility.yul\":3065:3114   */\n      tag_132\n      jump\t// in\n    tag_214:\n        /* \"#utility.yul\":3049:3115   */\n      tag_131\n      jump\t// in\n    tag_213:\n        /* \"#utility.yul\":3040:3115   */\n      swap1\n      pop\n        /* \"#utility.yul\":3138:3144   */\n      dup3\n        /* \"#utility.yul\":3131:3136   */\n      dup2\n        /* \"#utility.yul\":3124:3145   */\n      mstore\n        /* \"#utility.yul\":3176:3180   */\n      0x20\n        /* \"#utility.yul\":3169:3174   */\n      dup2\n        /* \"#utility.yul\":3165:3181   */\n      add\n        /* \"#utility.yul\":3214:3217   */\n      dup5\n        /* \"#utility.yul\":3205:3211   */\n      dup5\n        /* \"#utility.yul\":3200:3203   */\n      dup5\n        /* \"#utility.yul\":3196:3212   */\n      add\n        /* \"#utility.yul\":3193:3218   */\n      gt\n        /* \"#utility.yul\":3190:3302   */\n      iszero\n      tag_215\n      jumpi\n        /* \"#utility.yul\":3221:3300   */\n      tag_216\n      tag_127\n      jump\t// in\n    tag_216:\n        /* \"#utility.yul\":3190:3302   */\n    tag_215:\n        /* \"#utility.yul\":3311:3365   */\n      tag_217\n        /* \"#utility.yul\":3358:3364   */\n      dup5\n        /* \"#utility.yul\":3353:3356   */\n      dup3\n        /* \"#utility.yul\":3348:3351   */\n      dup6\n        /* \"#utility.yul\":3311:3365   */\n      tag_133\n      jump\t// in\n    tag_217:\n        /* \"#utility.yul\":3030:3371   */\n      pop\n        /* \"#utility.yul\":2946:3371   */\n      swap4\n      swap3\n      pop\n      pop\n      pop\n      jump\t// out\n        /* \"#utility.yul\":3391:3731   */\n    tag_135:\n        /* \"#utility.yul\":3447:3452   */\n      0x00\n        /* \"#utility.yul\":3496:3499   */\n      dup3\n        /* \"#utility.yul\":3489:3493   */\n      0x1f\n        /* \"#utility.yul\":3481:3487   */\n      dup4\n        /* \"#utility.yul\":3477:3494   */\n      add\n        /* \"#utility.yul\":3473:3500   */\n      slt\n        /* \"#utility.yul\":3463:3585   */\n      tag_219\n      jumpi\n        /* \"#utility.yul\":3504:3583   */\n      tag_220\n      tag_126\n      jump\t// in\n    tag_220:\n        /* \"#utility.yul\":3463:3585   */\n    tag_219:\n        /* \"#utility.yul\":3621:3627   */\n      dup2\n        /* \"#utility.yul\":3608:3628   */\n      calldataload\n        /* \"#utility.yul\":3646:3725   */\n      tag_221\n        /* \"#utility.yul\":3721:3724   */\n      dup5\n        /* \"#utility.yul\":3713:3719   */\n      dup3\n        /* \"#utility.yul\":3706:3710   */\n      0x20\n        /* \"#utility.yul\":3698:3704   */\n      dup7\n        /* \"#utility.yul\":3694:3711   */\n      add\n        /* \"#utility.yul\":3646:3725   */\n      tag_134\n      jump\t// in\n    tag_221:\n        /* \"#utility.yul\":3637:3725   */\n      swap2\n      pop\n        /* \"#utility.yul\":3453:3731   */\n      pop\n        /* \"#utility.yul\":3391:3731   */\n      swap3\n      swap2\n      pop\n      pop\n      jump\t// out\n        /* \"#utility.yul\":3737:3814   */\n    tag_136:\n        /* \"#utility.yul\":3774:3781   */\n      0x00\n        /* \"#utility.yul\":3803:3808   */\n      dup2\n        /* \"#utility.yul\":3792:3808   */\n      swap1\n      pop\n        /* \"#utility.yul\":3737:3814   */\n      swap2\n      swap1\n      pop\n      jump\t// out\n        /* \"#utility.yul\":3820:3942   */\n    tag_137:\n        /* \"#utility.yul\":3893:3917   */\n      tag_224\n        /* \"#utility.yul\":3911:3916   */\n      dup2\n        /* \"#utility.yul\":3893:3917   */\n      tag_136\n      jump\t// in\n    tag_224:\n        /* \"#utility.yul\":3886:3891   */\n      dup2\n        /* \"#utility.yul\":3883:3918   */\n      eq\n        /* \"#utility.yul\":3873:3936   */\n      tag_225\n      jumpi\n        /* \"#utility.yul\":3932:3933   */\n      0x00\n        /* \"#utility.yul\":3929:3930   */\n      dup1\n        /* \"#utility.yul\":3922:3934   */\n      revert\n        /* \"#utility.yul\":3873:3936   */\n    tag_225:\n        /* \"#utility.yul\":3820:3942   */\n      pop\n      jump\t// out\n        /* \"#utility.yul\":3948:4087   */\n    tag_138:\n        /* \"#utility.yul\":3994:3999   */\n      0x00\n        /* \"#utility.yul\":4032:4038   */\n      dup2\n        /* \"#utility.yul\":4019:4039   */\n      calldataload\n        /* \"#utility.yul\":4010:4039   */\n      swap1\n      pop\n        /* \"#utility.yul\":4048:4081   */\n      tag_227\n        /* \"#utility.yul\":4075:4080   */\n      dup2\n        /* \"#utility.yul\":4048:4081   */\n      tag_137\n      jump\t// in\n    tag_227:\n        /* \"#utility.yul\":3948:4087   */\n      swap3\n      swap2\n      pop\n      pop\n      jump\t// out\n        /* \"#utility.yul\":4093:4747   */\n    tag_24:\n        /* \"#utility.yul\":4171:4177   */\n      0x00\n        /* \"#utility.yul\":4179:4185   */\n      dup1\n        /* \"#utility.yul\":4228:4230   */\n      0x40\n        /* \"#utility.yul\":4216:4225   */\n      dup4\n        /* \"#utility.yul\":4207:4214   */\n      dup6\n        /* \"#utility.yul\":4203:4226   */\n      sub\n        /* \"#utility.yul\":4199:4231   */\n      slt\n        /* \"#utility.yul\":4196:4315   */\n      iszero\n      tag_229\n      jumpi\n        /* \"#utility.yul\":4234:4313   */\n      tag_230\n      tag_119\n      jump\t// in\n    tag_230:\n        /* \"#utility.yul\":4196:4315   */\n    tag_229:\n        /* \"#utility.yul\":4382:4383   */\n      0x00\n        /* \"#utility.yul\":4371:4380   */\n      dup4\n        /* \"#utility.yul\":4367:4384   */\n      add\n        /* \"#utility.yul\":4354:4385   */\n      calldataload\n        /* \"#utility.yul\":4412:4430   */\n      0xffffffffffffffff\n        /* \"#utility.yul\":4404:4410   */\n      dup2\n        /* \"#utility.yul\":4401:4431   */\n      gt\n        /* \"#utility.yul\":4398:4515   */\n      iszero\n      tag_231\n      jumpi\n        /* \"#utility.yul\":4434:4513   */\n      tag_232\n      tag_120\n      jump\t// in\n    tag_232:\n        /* \"#utility.yul\":4398:4515   */\n    tag_231:\n        /* \"#utility.yul\":4539:4602   */\n      tag_233\n        /* \"#utility.yul\":4594:4601   */\n      dup6\n        /* \"#utility.yul\":4585:4591   */\n      dup3\n        /* \"#utility.yul\":4574:4583   */\n      dup7\n        /* \"#utility.yul\":4570:4592   */\n      add\n        /* \"#utility.yul\":4539:4602   */\n      tag_135\n      jump\t// in\n    tag_233:\n        /* \"#utility.yul\":4529:4602   */\n      swap3\n      pop\n        /* \"#utility.yul\":4325:4612   */\n      pop\n        /* \"#utility.yul\":4651:4653   */\n      0x20\n        /* \"#utility.yul\":4677:4730   */\n      tag_234\n        /* \"#utility.yul\":4722:4729   */\n      dup6\n        /* \"#utility.yul\":4713:4719   */\n      dup3\n        /* \"#utility.yul\":4702:4711   */\n      dup7\n        /* \"#utility.yul\":4698:4720   */\n      add\n        /* \"#utility.yul\":4677:4730   */\n      tag_138\n      jump\t// in\n    tag_234:\n        /* \"#utility.yul\":4667:4730   */\n      swap2\n      pop\n        /* \"#utility.yul\":4622:4740   */\n      pop\n        /* \"#utility.yul\":4093:4747   */\n      swap3\n      pop\n      swap3\n      swap1\n      pop\n      jump\t// out\n        /* \"#utility.yul\":4753:4871   */\n    tag_139:\n        /* \"#utility.yul\":4840:4864   */\n      tag_236\n        /* \"#utility.yul\":4858:4863   */\n      dup2\n        /* \"#utility.yul\":4840:4864   */\n      tag_136\n      jump\t// in\n    tag_236:\n        /* \"#utility.yul\":4835:4838   */\n      dup3\n        /* \"#utility.yul\":4828:4865   */\n      mstore\n        /* \"#utility.yul\":4753:4871   */\n      pop\n      pop\n      jump\t// out\n        /* \"#utility.yul\":4877:5099   */\n    tag_27:\n        /* \"#utility.yul\":4970:4974   */\n      0x00\n        /* \"#utility.yul\":5008:5010   */\n      0x20\n        /* \"#utility.yul\":4997:5006   */\n      dup3\n        /* \"#utility.yul\":4993:5011   */\n      add\n        /* \"#utility.yul\":4985:5011   */\n      swap1\n      pop\n        /* \"#utility.yul\":5021:5092   */\n      tag_238\n        /* \"#utility.yul\":5089:5090   */\n      0x00\n        /* \"#utility.yul\":5078:5087   */\n      dup4\n        /* \"#utility.yul\":5074:5091   */\n      add\n        /* \"#utility.yul\":5065:5071   */\n      dup5\n        /* \"#utility.yul\":5021:5092   */\n      tag_139\n      jump\t// in\n    tag_238:\n        /* \"#utility.yul\":4877:5099   */\n      swap3\n      swap2\n      pop\n      pop\n      jump\t// out\n        /* \"#utility.yul\":5105:5434   */\n    tag_30:\n        /* \"#utility.yul\":5164:5170   */\n      0x00\n        /* \"#utility.yul\":5213:5215   */\n      0x20\n        /* \"#utility.yul\":5201:5210   */\n      dup3\n        /* \"#utility.yul\":5192:5199   */\n      dup5\n        /* \"#utility.yul\":5188:5211   */\n      sub\n        /* \"#utility.yul\":5184:5216   */\n      slt\n        /* \"#utility.yul\":5181:5300   */\n      iszero\n      tag_240\n      jumpi\n        /* \"#utility.yul\":5219:5298   */\n      tag_241\n      tag_119\n      jump\t// in\n    tag_241:\n        /* \"#utility.yul\":5181:5300   */\n    tag_240:\n        /* \"#utility.yul\":5339:5340   */\n      0x00\n        /* \"#utility.yul\":5364:5417   */\n      tag_242\n        /* \"#utility.yul\":5409:5416   */\n      dup5\n        /* \"#utility.yul\":5400:5406   */\n      dup3\n        /* \"#utility.yul\":5389:5398   */\n      dup6\n        /* \"#utility.yul\":5385:5407   */\n      add\n        /* \"#utility.yul\":5364:5417   */\n      tag_138\n      jump\t// in\n    tag_242:\n        /* \"#utility.yul\":5354:5417   */\n      swap2\n      pop\n        /* \"#utility.yul\":5310:5427   */\n      pop\n        /* \"#utility.yul\":5105:5434   */\n      swap3\n      swap2\n      pop\n      pop\n      jump\t// out\n        /* \"#utility.yul\":5440:5539   */\n    tag_140:\n        /* \"#utility.yul\":5492:5498   */\n      0x00\n        /* \"#utility.yul\":5526:5531   */\n      dup2\n        /* \"#utility.yul\":5520:5532   */\n      mload\n        /* \"#utility.yul\":5510:5532   */\n      swap1\n      pop\n        /* \"#utility.yul\":5440:5539   */\n      swap2\n      swap1\n      pop\n      jump\t// out\n        /* \"#utility.yul\":5545:5714   */\n    tag_141:\n        /* \"#utility.yul\":5629:5640   */\n      0x00\n        /* \"#utility.yul\":5663:5669   */\n      dup3\n        /* \"#utility.yul\":5658:5661   */\n      dup3\n        /* \"#utility.yul\":5651:5670   */\n      mstore\n        /* \"#utility.yul\":5703:5707   */\n      0x20\n        /* \"#utility.yul\":5698:5701   */\n      dup3\n        /* \"#utility.yul\":5694:5708   */\n      add\n        /* \"#utility.yul\":5679:5708   */\n      swap1\n      pop\n        /* \"#utility.yul\":5545:5714   */\n      swap3\n      swap2\n      pop\n      pop\n      jump\t// out\n        /* \"#utility.yul\":5720:5966   */\n    tag_142:\n        /* \"#utility.yul\":5801:5802   */\n      0x00\n        /* \"#utility.yul\":5811:5924   */\n    tag_246:\n        /* \"#utility.yul\":5825:5831   */\n      dup4\n        /* \"#utility.yul\":5822:5823   */\n      dup2\n        /* \"#utility.yul\":5819:5832   */\n      lt\n        /* \"#utility.yul\":5811:5924   */\n      iszero\n      tag_248\n      jumpi\n        /* \"#utility.yul\":5910:5911   */\n      dup1\n        /* \"#utility.yul\":5905:5908   */\n      dup3\n        /* \"#utility.yul\":5901:5912   */\n      add\n        /* \"#utility.yul\":5895:5913   */\n      mload\n        /* \"#utility.yul\":5891:5892   */\n      dup2\n        /* \"#utility.yul\":5886:5889   */\n      dup5\n        /* \"#utility.yul\":5882:5893   */\n      add\n        /* \"#utility.yul\":5875:5914   */\n      mstore\n        /* \"#utility.yul\":5847:5849   */\n      0x20\n        /* \"#utility.yul\":5844:5845   */\n      dup2\n        /* \"#utility.yul\":5840:5850   */\n      add\n        /* \"#utility.yul\":5835:5850   */\n      swap1\n      pop\n        /* \"#utility.yul\":5811:5924   */\n      jump(tag_246)\n    tag_248:\n        /* \"#utility.yul\":5958:5959   */\n      0x00\n        /* \"#utility.yul\":5949:5955   */\n      dup5\n        /* \"#utility.yul\":5944:5947   */\n      dup5\n        /* \"#utility.yul\":5940:5956   */\n      add\n        /* \"#utility.yul\":5933:5960   */\n      mstore\n        /* \"#utility.yul\":5782:5966   */\n      pop\n        /* \"#utility.yul\":5720:5966   */\n      pop\n      pop\n      pop\n      jump\t// out\n        /* \"#utility.yul\":5972:6349   */\n    tag_143:\n        /* \"#utility.yul\":6060:6063   */\n      0x00\n        /* \"#utility.yul\":6088:6127   */\n      tag_250\n        /* \"#utility.yul\":6121:6126   */\n      dup3\n        /* \"#utility.yul\":6088:6127   */\n      tag_140\n      jump\t// in\n    tag_250:\n        /* \"#utility.yul\":6143:6214   */\n      tag_251\n        /* \"#utility.yul\":6207:6213   */\n      dup2\n        /* \"#utility.yul\":6202:6205   */\n      dup6\n        /* \"#utility.yul\":6143:6214   */\n      tag_141\n      jump\t// in\n    tag_251:\n        /* \"#utility.yul\":6136:6214   */\n      swap4\n      pop\n        /* \"#utility.yul\":6223:6288   */\n      tag_252\n        /* \"#utility.yul\":6281:6287   */\n      dup2\n        /* \"#utility.yul\":6276:6279   */\n      dup6\n        /* \"#utility.yul\":6269:6273   */\n      0x20\n        /* \"#utility.yul\":6262:6267   */\n      dup7\n        /* \"#utility.yul\":6258:6274   */\n      add\n        /* \"#utility.yul\":6223:6288   */\n      tag_142\n      jump\t// in\n    tag_252:\n        /* \"#utility.yul\":6313:6342   */\n      tag_253\n        /* \"#utility.yul\":6335:6341   */\n      dup2\n        /* \"#utility.yul\":6313:6342   */\n      tag_128\n      jump\t// in\n    tag_253:\n        /* \"#utility.yul\":6308:6311   */\n      dup5\n        /* \"#utility.yul\":6304:6343   */\n      add\n        /* \"#utility.yul\":6297:6343   */\n      swap2\n      pop\n        /* \"#utility.yul\":6064:6349   */\n      pop\n        /* \"#utility.yul\":5972:6349   */\n      swap3\n      swap2\n      pop\n      pop\n      jump\t// out\n        /* \"#utility.yul\":6355:6668   */\n    tag_33:\n        /* \"#utility.yul\":6468:6472   */\n      0x00\n        /* \"#utility.yul\":6506:6508   */\n      0x20\n        /* \"#utility.yul\":6495:6504   */\n      dup3\n        /* \"#utility.yul\":6491:6509   */\n      add\n        /* \"#utility.yul\":6483:6509   */\n      swap1\n      pop\n        /* \"#utility.yul\":6555:6564   */\n      dup2\n        /* \"#utility.yul\":6549:6553   */\n      dup2\n        /* \"#utility.yul\":6545:6565   */\n      sub\n        /* \"#utility.yul\":6541:6542   */\n      0x00\n        /* \"#utility.yul\":6530:6539   */\n      dup4\n        /* \"#utility.yul\":6526:6543   */\n      add\n        /* \"#utility.yul\":6519:6566   */\n      mstore\n        /* \"#utility.yul\":6583:6661   */\n      tag_255\n        /* \"#utility.yul\":6656:6660   */\n      dup2\n        /* \"#utility.yul\":6647:6653   */\n      dup5\n        /* \"#utility.yul\":6583:6661   */\n      tag_143\n      jump\t// in\n    tag_255:\n        /* \"#utility.yul\":6575:6661   */\n      swap1\n      pop\n        /* \"#utility.yul\":6355:6668   */\n      swap3\n      swap2\n      pop\n      pop\n      jump\t// out\n        /* \"#utility.yul\":6674:7183   */\n    tag_36:\n        /* \"#utility.yul\":6743:6749   */\n      0x00\n        /* \"#utility.yul\":6792:6794   */\n      0x20\n        /* \"#utility.yul\":6780:6789   */\n      dup3\n        /* \"#utility.yul\":6771:6778   */\n      dup5\n        /* \"#utility.yul\":6767:6790   */\n      sub\n        /* \"#utility.yul\":6763:6795   */\n      slt\n        /* \"#utility.yul\":6760:6879   */\n      iszero\n      tag_257\n      jumpi\n        /* \"#utility.yul\":6798:6877   */\n      tag_258\n      tag_119\n      jump\t// in\n    tag_258:\n        /* \"#utility.yul\":6760:6879   */\n    tag_257:\n        /* \"#utility.yul\":6946:6947   */\n      0x00\n        /* \"#utility.yul\":6935:6944   */\n      dup3\n        /* \"#utility.yul\":6931:6948   */\n      add\n        /* \"#utility.yul\":6918:6949   */\n      calldataload\n        /* \"#utility.yul\":6976:6994   */\n      0xffffffffffffffff\n        /* \"#utility.yul\":6968:6974   */\n      dup2\n        /* \"#utility.yul\":6965:6995   */\n      gt\n        /* \"#utility.yul\":6962:7079   */\n      iszero\n      tag_259\n      jumpi\n        /* \"#utility.yul\":6998:7077   */\n      tag_260\n      tag_120\n      jump\t// in\n    tag_260:\n        /* \"#utility.yul\":6962:7079   */\n    tag_259:\n        /* \"#utility.yul\":7103:7166   */\n      tag_261\n        /* \"#utility.yul\":7158:7165   */\n      dup5\n        /* \"#utility.yul\":7149:7155   */\n      dup3\n        /* \"#utility.yul\":7138:7147   */\n      dup6\n        /* \"#utility.yul\":7134:7156   */\n      add\n        /* \"#utility.yul\":7103:7166   */\n      tag_135\n      jump\t// in\n    tag_261:\n        /* \"#utility.yul\":7093:7166   */\n      swap2\n      pop\n        /* \"#utility.yul\":6889:7176   */\n      pop\n        /* \"#utility.yul\":6674:7183   */\n      swap3\n      swap2\n      pop\n      pop\n      jump\t// out\n        /* \"#utility.yul\":7189:7315   */\n    tag_144:\n        /* \"#utility.yul\":7226:7233   */\n      0x00\n        /* \"#utility.yul\":7266:7308   */\n      0xffffffffffffffffffffffffffffffffffffffff\n        /* \"#utility.yul\":7259:7264   */\n      dup3\n        /* \"#utility.yul\":7255:7309   */\n      and\n        /* \"#utility.yul\":7244:7309   */\n      swap1\n      pop\n        /* \"#utility.yul\":7189:7315   */\n      swap2\n      swap1\n      pop\n      jump\t// out\n        /* \"#utility.yul\":7321:7417   */\n    tag_145:\n        /* \"#utility.yul\":7358:7365   */\n      0x00\n        /* \"#utility.yul\":7387:7411   */\n      tag_264\n        /* \"#utility.yul\":7405:7410   */\n      dup3\n        /* \"#utility.yul\":7387:7411   */\n      tag_144\n      jump\t// in\n    tag_264:\n        /* \"#utility.yul\":7376:7411   */\n      swap1\n      pop\n        /* \"#utility.yul\":7321:7417   */\n      swap2\n      swap1\n      pop\n      jump\t// out\n        /* \"#utility.yul\":7423:7541   */\n    tag_146:\n        /* \"#utility.yul\":7510:7534   */\n      tag_266\n        /* \"#utility.yul\":7528:7533   */\n      dup2\n        /* \"#utility.yul\":7510:7534   */\n      tag_145\n      jump\t// in\n    tag_266:\n        /* \"#utility.yul\":7505:7508   */\n      dup3\n        /* \"#utility.yul\":7498:7535   */\n      mstore\n        /* \"#utility.yul\":7423:7541   */\n      pop\n      pop\n      jump\t// out\n        /* \"#utility.yul\":7547:7769   */\n    tag_42:\n        /* \"#utility.yul\":7640:7644   */\n      0x00\n        /* \"#utility.yul\":7678:7680   */\n      0x20\n        /* \"#utility.yul\":7667:7676   */\n      dup3\n        /* \"#utility.yul\":7663:7681   */\n      add\n        /* \"#utility.yul\":7655:7681   */\n      swap1\n      pop\n        /* \"#utility.yul\":7691:7762   */\n      tag_268\n        /* \"#utility.yul\":7759:7760   */\n      0x00\n        /* \"#utility.yul\":7748:7757   */\n      dup4\n        /* \"#utility.yul\":7744:7761   */\n      add\n        /* \"#utility.yul\":7735:7741   */\n      dup5\n        /* \"#utility.yul\":7691:7762   */\n      tag_146\n      jump\t// in\n    tag_268:\n        /* \"#utility.yul\":7547:7769   */\n      swap3\n      swap2\n      pop\n      pop\n      jump\t// out\n        /* \"#utility.yul\":7775:8574   */\n    tag_45:\n        /* \"#utility.yul\":7862:7868   */\n      0x00\n        /* \"#utility.yul\":7870:7876   */\n      dup1\n        /* \"#utility.yul\":7878:7884   */\n      0x00\n        /* \"#utility.yul\":7927:7929   */\n      0x60\n        /* \"#utility.yul\":7915:7924   */\n      dup5\n        /* \"#utility.yul\":7906:7913   */\n      dup7\n        /* \"#utility.yul\":7902:7925   */\n      sub\n        /* \"#utility.yul\":7898:7930   */\n      slt\n        /* \"#utility.yul\":7895:8014   */\n      iszero\n      tag_270\n      jumpi\n        /* \"#utility.yul\":7933:8012   */\n      tag_271\n      tag_119\n      jump\t// in\n    tag_271:\n        /* \"#utility.yul\":7895:8014   */\n    tag_270:\n        /* \"#utility.yul\":8081:8082   */\n      0x00\n        /* \"#utility.yul\":8070:8079   */\n      dup5\n        /* \"#utility.yul\":8066:8083   */\n      add\n        /* \"#utility.yul\":8053:8084   */\n      calldataload\n        /* \"#utility.yul\":8111:8129   */\n      0xffffffffffffffff\n        /* \"#utility.yul\":8103:8109   */\n      dup2\n        /* \"#utility.yul\":8100:8130   */\n      gt\n        /* \"#utility.yul\":8097:8214   */\n      iszero\n      tag_272\n      jumpi\n        /* \"#utility.yul\":8133:8212   */\n      tag_273\n      tag_120\n      jump\t// in\n    tag_273:\n        /* \"#utility.yul\":8097:8214   */\n    tag_272:\n        /* \"#utility.yul\":8238:8301   */\n      tag_274\n        /* \"#utility.yul\":8293:8300   */\n      dup7\n        /* \"#utility.yul\":8284:8290   */\n      dup3\n        /* \"#utility.yul\":8273:8282   */\n      dup8\n        /* \"#utility.yul\":8269:8291   */\n      add\n        /* \"#utility.yul\":8238:8301   */\n      tag_135\n      jump\t// in\n    tag_274:\n        /* \"#utility.yul\":8228:8301   */\n      swap4\n      pop\n        /* \"#utility.yul\":8024:8311   */\n      pop\n        /* \"#utility.yul\":8350:8352   */\n      0x20\n        /* \"#utility.yul\":8376:8429   */\n      tag_275\n        /* \"#utility.yul\":8421:8428   */\n      dup7\n        /* \"#utility.yul\":8412:8418   */\n      dup3\n        /* \"#utility.yul\":8401:8410   */\n      dup8\n        /* \"#utility.yul\":8397:8419   */\n      add\n        /* \"#utility.yul\":8376:8429   */\n      tag_138\n      jump\t// in\n    tag_275:\n        /* \"#utility.yul\":8366:8429   */\n      swap3\n      pop\n        /* \"#utility.yul\":8321:8439   */\n      pop\n        /* \"#utility.yul\":8478:8480   */\n      0x40\n        /* \"#utility.yul\":8504:8557   */\n      tag_276\n        /* \"#utility.yul\":8549:8556   */\n      dup7\n        /* \"#utility.yul\":8540:8546   */\n      dup3\n        /* \"#utility.yul\":8529:8538   */\n      dup8\n        /* \"#utility.yul\":8525:8547   */\n      add\n        /* \"#utility.yul\":8504:8557   */\n      tag_138\n      jump\t// in\n    tag_276:\n        /* \"#utility.yul\":8494:8557   */\n      swap2\n      pop\n        /* \"#utility.yul\":8449:8567   */\n      pop\n        /* \"#utility.yul\":7775:8574   */\n      swap3\n      pop\n      swap3\n      pop\n      swap3\n      jump\t// out\n        /* \"#utility.yul\":8580:9234   */\n    tag_49:\n        /* \"#utility.yul\":8658:8664   */\n      0x00\n        /* \"#utility.yul\":8666:8672   */\n      dup1\n        /* \"#utility.yul\":8715:8717   */\n      0x40\n        /* \"#utility.yul\":8703:8712   */\n      dup4\n        /* \"#utility.yul\":8694:8701   */\n      dup6\n        /* \"#utility.yul\":8690:8713   */\n      sub\n        /* \"#utility.yul\":8686:8718   */\n      slt\n        /* \"#utility.yul\":8683:8802   */\n      iszero\n      tag_278\n      jumpi\n        /* \"#utility.yul\":8721:8800   */\n      tag_279\n      tag_119\n      jump\t// in\n    tag_279:\n        /* \"#utility.yul\":8683:8802   */\n    tag_278:\n        /* \"#utility.yul\":8841:8842   */\n      0x00\n        /* \"#utility.yul\":8866:8919   */\n      tag_280\n        /* \"#utility.yul\":8911:8918   */\n      dup6\n        /* \"#utility.yul\":8902:8908   */\n      dup3\n        /* \"#utility.yul\":8891:8900   */\n      dup7\n        /* \"#utility.yul\":8887:8909   */\n      add\n        /* \"#utility.yul\":8866:8919   */\n      tag_138\n      jump\t// in\n    tag_280:\n        /* \"#utility.yul\":8856:8919   */\n      swap3\n      pop\n        /* \"#utility.yul\":8812:8929   */\n      pop\n        /* \"#utility.yul\":8996:8998   */\n      0x20\n        /* \"#utility.yul\":8985:8994   */\n      dup4\n        /* \"#utility.yul\":8981:8999   */\n      add\n        /* \"#utility.yul\":8968:9000   */\n      calldataload\n        /* \"#utility.yul\":9027:9045   */\n      0xffffffffffffffff\n        /* \"#utility.yul\":9019:9025   */\n      dup2\n        /* \"#utility.yul\":9016:9046   */\n      gt\n        /* \"#utility.yul\":9013:9130   */\n      iszero\n      tag_281\n      jumpi\n        /* \"#utility.yul\":9049:9128   */\n      tag_282\n      tag_120\n      jump\t// in\n    tag_282:\n        /* \"#utility.yul\":9013:9130   */\n    tag_281:\n        /* \"#utility.yul\":9154:9217   */\n      tag_283\n        /* \"#utility.yul\":9209:9216   */\n      dup6\n        /* \"#utility.yul\":9200:9206   */\n      dup3\n        /* \"#utility.yul\":9189:9198   */\n      dup7\n        /* \"#utility.yul\":9185:9207   */\n      add\n        /* \"#utility.yul\":9154:9217   */\n      tag_135\n      jump\t// in\n    tag_283:\n        /* \"#utility.yul\":9144:9217   */\n      swap2\n      pop\n        /* \"#utility.yul\":8939:9227   */\n      pop\n        /* \"#utility.yul\":8580:9234   */\n      swap3\n      pop\n      swap3\n      swap1\n      pop\n      jump\t// out\n        /* \"#utility.yul\":9240:9362   */\n    tag_147:\n        /* \"#utility.yul\":9313:9337   */\n      tag_285\n        /* \"#utility.yul\":9331:9336   */\n      dup2\n        /* \"#utility.yul\":9313:9337   */\n      tag_145\n      jump\t// in\n    tag_285:\n        /* \"#utility.yul\":9306:9311   */\n      dup2\n        /* \"#utility.yul\":9303:9338   */\n      eq\n        /* \"#utility.yul\":9293:9356   */\n      tag_286\n      jumpi\n        /* \"#utility.yul\":9352:9353   */\n      0x00\n        /* \"#utility.yul\":9349:9350   */\n      dup1\n        /* \"#utility.yul\":9342:9354   */\n      revert\n        /* \"#utility.yul\":9293:9356   */\n    tag_286:\n        /* \"#utility.yul\":9240:9362   */\n      pop\n      jump\t// out\n        /* \"#utility.yul\":9368:9507   */\n    tag_148:\n        /* \"#utility.yul\":9414:9419   */\n      0x00\n        /* \"#utility.yul\":9452:9458   */\n      dup2\n        /* \"#utility.yul\":9439:9459   */\n      calldataload\n        /* \"#utility.yul\":9430:9459   */\n      swap1\n      pop\n        /* \"#utility.yul\":9468:9501   */\n      tag_288\n        /* \"#utility.yul\":9495:9500   */\n      dup2\n        /* \"#utility.yul\":9468:9501   */\n      tag_147\n      jump\t// in\n    tag_288:\n        /* \"#utility.yul\":9368:9507   */\n      swap3\n      swap2\n      pop\n      pop\n      jump\t// out\n        /* \"#utility.yul\":9513:9842   */\n    tag_56:\n        /* \"#utility.yul\":9572:9578   */\n      0x00\n        /* \"#utility.yul\":9621:9623   */\n      0x20\n        /* \"#utility.yul\":9609:9618   */\n      dup3\n        /* \"#utility.yul\":9600:9607   */\n      dup5\n        /* \"#utility.yul\":9596:9619   */\n      sub\n        /* \"#utility.yul\":9592:9624   */\n      slt\n        /* \"#utility.yul\":9589:9708   */\n      iszero\n      tag_290\n      jumpi\n        /* \"#utility.yul\":9627:9706   */\n      tag_291\n      tag_119\n      jump\t// in\n    tag_291:\n        /* \"#utility.yul\":9589:9708   */\n    tag_290:\n        /* \"#utility.yul\":9747:9748   */\n      0x00\n        /* \"#utility.yul\":9772:9825   */\n      tag_292\n        /* \"#utility.yul\":9817:9824   */\n      dup5\n        /* \"#utility.yul\":9808:9814   */\n      dup3\n        /* \"#utility.yul\":9797:9806   */\n      dup6\n        /* \"#utility.yul\":9793:9815   */\n      add\n        /* \"#utility.yul\":9772:9825   */\n      tag_148\n      jump\t// in\n    tag_292:\n        /* \"#utility.yul\":9762:9825   */\n      swap2\n      pop\n        /* \"#utility.yul\":9718:9835   */\n      pop\n        /* \"#utility.yul\":9513:9842   */\n      swap3\n      swap2\n      pop\n      pop\n      jump\t// out\n        /* \"#utility.yul\":9848:10078   */\n    tag_149:\n        /* \"#utility.yul\":9988:10022   */\n      0x63616c6c6572206d75737420626520696e7374727563746f72206f7220646573\n        /* \"#utility.yul\":9984:9985   */\n      0x00\n        /* \"#utility.yul\":9976:9982   */\n      dup3\n        /* \"#utility.yul\":9972:9986   */\n      add\n        /* \"#utility.yul\":9965:10023   */\n      mstore\n        /* \"#utility.yul\":10057:10070   */\n      0x69676e6174656420544121000000000000000000000000000000000000000000\n        /* \"#utility.yul\":10052:10054   */\n      0x20\n        /* \"#utility.yul\":10044:10050   */\n      dup3\n        /* \"#utility.yul\":10040:10055   */\n      add\n        /* \"#utility.yul\":10033:10071   */\n      mstore\n        /* \"#utility.yul\":9848:10078   */\n      pop\n      jump\t// out\n        /* \"#utility.yul\":10084:10450   */\n    tag_150:\n        /* \"#utility.yul\":10226:10229   */\n      0x00\n        /* \"#utility.yul\":10247:10314   */\n      tag_295\n        /* \"#utility.yul\":10311:10313   */\n      0x2b\n        /* \"#utility.yul\":10306:10309   */\n      dup4\n        /* \"#utility.yul\":10247:10314   */\n      tag_141\n      jump\t// in\n    tag_295:\n        /* \"#utility.yul\":10240:10314   */\n      swap2\n      pop\n        /* \"#utility.yul\":10323:10416   */\n      tag_296\n        /* \"#utility.yul\":10412:10415   */\n      dup3\n        /* \"#utility.yul\":10323:10416   */\n      tag_149\n      jump\t// in\n    tag_296:\n        /* \"#utility.yul\":10441:10443   */\n      0x40\n        /* \"#utility.yul\":10436:10439   */\n      dup3\n        /* \"#utility.yul\":10432:10444   */\n      add\n        /* \"#utility.yul\":10425:10444   */\n      swap1\n      pop\n        /* \"#utility.yul\":10084:10450   */\n      swap2\n      swap1\n      pop\n      jump\t// out\n        /* \"#utility.yul\":10456:10875   */\n    tag_75:\n        /* \"#utility.yul\":10622:10626   */\n      0x00\n        /* \"#utility.yul\":10660:10662   */\n      0x20\n        /* \"#utility.yul\":10649:10658   */\n      dup3\n        /* \"#utility.yul\":10645:10663   */\n      add\n        /* \"#utility.yul\":10637:10663   */\n      swap1\n      pop\n        /* \"#utility.yul\":10709:10718   */\n      dup2\n        /* \"#utility.yul\":10703:10707   */\n      dup2\n        /* \"#utility.yul\":10699:10719   */\n      sub\n        /* \"#utility.yul\":10695:10696   */\n      0x00\n        /* \"#utility.yul\":10684:10693   */\n      dup4\n        /* \"#utility.yul\":10680:10697   */\n      add\n        /* \"#utility.yul\":10673:10720   */\n      mstore\n        /* \"#utility.yul\":10737:10868   */\n      tag_298\n        /* \"#utility.yul\":10863:10867   */\n      dup2\n        /* \"#utility.yul\":10737:10868   */\n      tag_150\n      jump\t// in\n    tag_298:\n        /* \"#utility.yul\":10729:10868   */\n      swap1\n      pop\n        /* \"#utility.yul\":10456:10875   */\n      swap2\n      swap1\n      pop\n      jump\t// out\n        /* \"#utility.yul\":10881:11061   */\n    tag_151:\n        /* \"#utility.yul\":10929:11006   */\n      0x4e487b7100000000000000000000000000000000000000000000000000000000\n        /* \"#utility.yul\":10926:10927   */\n      0x00\n        /* \"#utility.yul\":10919:11007   */\n      mstore\n        /* \"#utility.yul\":11026:11030   */\n      0x22\n        /* \"#utility.yul\":11023:11024   */\n      0x04\n        /* \"#utility.yul\":11016:11031   */\n      mstore\n        /* \"#utility.yul\":11050:11054   */\n      0x24\n        /* \"#utility.yul\":11047:11048   */\n      0x00\n        /* \"#utility.yul\":11040:11055   */\n      revert\n        /* \"#utility.yul\":11067:11387   */\n    tag_81:\n        /* \"#utility.yul\":11111:11117   */\n      0x00\n        /* \"#utility.yul\":11148:11149   */\n      0x02\n        /* \"#utility.yul\":11142:11146   */\n      dup3\n        /* \"#utility.yul\":11138:11150   */\n      div\n        /* \"#utility.yul\":11128:11150   */\n      swap1\n      pop\n        /* \"#utility.yul\":11195:11196   */\n      0x01\n        /* \"#utility.yul\":11189:11193   */\n      dup3\n        /* \"#utility.yul\":11185:11197   */\n      and\n        /* \"#utility.yul\":11216:11234   */\n      dup1\n        /* \"#utility.yul\":11206:11287   */\n      tag_301\n      jumpi\n        /* \"#utility.yul\":11272:11276   */\n      0x7f\n        /* \"#utility.yul\":11264:11270   */\n      dup3\n        /* \"#utility.yul\":11260:11277   */\n      and\n        /* \"#utility.yul\":11250:11277   */\n      swap2\n      pop\n        /* \"#utility.yul\":11206:11287   */\n    tag_301:\n        /* \"#utility.yul\":11334:11336   */\n      0x20\n        /* \"#utility.yul\":11326:11332   */\n      dup3\n        /* \"#utility.yul\":11323:11337   */\n      lt\n        /* \"#utility.yul\":11303:11321   */\n      dup2\n        /* \"#utility.yul\":11300:11338   */\n      sub\n        /* \"#utility.yul\":11297:11381   */\n      tag_302\n      jumpi\n        /* \"#utility.yul\":11353:11371   */\n      tag_303\n      tag_151\n      jump\t// in\n    tag_303:\n        /* \"#utility.yul\":11297:11381   */\n    tag_302:\n        /* \"#utility.yul\":11118:11387   */\n      pop\n        /* \"#utility.yul\":11067:11387   */\n      swap2\n      swap1\n      pop\n      jump\t// out\n        /* \"#utility.yul\":11393:11534   */\n    tag_152:\n        /* \"#utility.yul\":11442:11446   */\n      0x00\n        /* \"#utility.yul\":11465:11468   */\n      dup2\n        /* \"#utility.yul\":11457:11468   */\n      swap1\n      pop\n        /* \"#utility.yul\":11488:11491   */\n      dup2\n        /* \"#utility.yul\":11485:11486   */\n      0x00\n        /* \"#utility.yul\":11478:11492   */\n      mstore\n        /* \"#utility.yul\":11522:11526   */\n      0x20\n        /* \"#utility.yul\":11519:11520   */\n      0x00\n        /* \"#utility.yul\":11509:11527   */\n      keccak256\n        /* \"#utility.yul\":11501:11527   */\n      swap1\n      pop\n        /* \"#utility.yul\":11393:11534   */\n      swap2\n      swap1\n      pop\n      jump\t// out\n        /* \"#utility.yul\":11540:11633   */\n    tag_153:\n        /* \"#utility.yul\":11577:11583   */\n      0x00\n        /* \"#utility.yul\":11624:11626   */\n      0x20\n        /* \"#utility.yul\":11619:11621   */\n      0x1f\n        /* \"#utility.yul\":11612:11617   */\n      dup4\n        /* \"#utility.yul\":11608:11622   */\n      add\n        /* \"#utility.yul\":11604:11627   */\n      div\n        /* \"#utility.yul\":11594:11627   */\n      swap1\n      pop\n        /* \"#utility.yul\":11540:11633   */\n      swap2\n      swap1\n      pop\n      jump\t// out\n        /* \"#utility.yul\":11639:11746   */\n    tag_154:\n        /* \"#utility.yul\":11683:11691   */\n      0x00\n        /* \"#utility.yul\":11733:11738   */\n      dup3\n        /* \"#utility.yul\":11727:11731   */\n      dup3\n        /* \"#utility.yul\":11723:11739   */\n      shl\n        /* \"#utility.yul\":11702:11739   */\n      swap1\n      pop\n        /* \"#utility.yul\":11639:11746   */\n      swap3\n      swap2\n      pop\n      pop\n      jump\t// out\n        /* \"#utility.yul\":11752:12145   */\n    tag_155:\n        /* \"#utility.yul\":11821:11827   */\n      0x00\n        /* \"#utility.yul\":11871:11872   */\n      0x08\n        /* \"#utility.yul\":11859:11869   */\n      dup4\n        /* \"#utility.yul\":11855:11873   */\n      mul\n        /* \"#utility.yul\":11894:11991   */\n      tag_308\n        /* \"#utility.yul\":11924:11990   */\n      0xffffffffffffffffffffffffffffffffffffffffffffffffffffffffffffffff\n        /* \"#utility.yul\":11913:11922   */\n      dup3\n        /* \"#utility.yul\":11894:11991   */\n      tag_154\n      jump\t// in\n    tag_308:\n        /* \"#utility.yul\":12012:12051   */\n      tag_309\n        /* \"#utility.yul\":12042:12050   */\n      dup7\n        /* \"#utility.yul\":12031:12040   */\n      dup4\n        /* \"#utility.yul\":12012:12051   */\n      tag_154\n      jump\t// in\n    tag_309:\n        /* \"#utility.yul\":12000:12051   */\n      swap6\n      pop\n        /* \"#utility.yul\":12084:12088   */\n      dup1\n        /* \"#utility.yul\":12080:12089   */\n      not\n        /* \"#utility.yul\":12073:12078   */\n      dup5\n        /* \"#utility.yul\":12069:12090   */\n      and\n        /* \"#utility.yul\":12060:12090   */\n      swap4\n      pop\n        /* \"#utility.yul\":12133:12137   */\n      dup1\n        /* \"#utility.yul\":12123:12131   */\n      dup7\n        /* \"#utility.yul\":12119:12138   */\n      and\n        /* \"#utility.yul\":12112:12117   */\n      dup5\n        /* \"#utility.yul\":12109:12139   */\n      or\n        /* \"#utility.yul\":12099:12139   */\n      swap3\n      pop\n        /* \"#utility.yul\":11828:12145   */\n      pop\n      pop\n        /* \"#utility.yul\":11752:12145   */\n      swap4\n      swap3\n      pop\n      pop\n      pop\n      jump\t// out\n        /* \"#utility.yul\":12151:12211   */\n    tag_156:\n        /* \"#utility.yul\":12179:12182   */\n      0x00\n        /* \"#utility.yul\":12200:12205   */\n      dup2\n        /* \"#utility.yul\":12193:12205   */\n      swap1\n      pop\n        /* \"#utility.yul\":12151:12211   */\n      swap2\n      swap1\n      pop\n      jump\t// out\n        /* \"#utility.yul\":12217:12359   */\n    tag_157:\n        /* \"#utility.yul\":12267:12276   */\n      0x00\n        /* \"#utility.yul\":12300:12353   */\n      tag_312\n        /* \"#utility.yul\":12318:12352   */\n      tag_313\n        /* \"#utility.yul\":12327:12351   */\n      tag_314\n        /* \"#utility.yul\":12345:12350   */\n      dup5\n        /* \"#utility.yul\":12327:12351   */\n      tag_136\n      jump\t// in\n    tag_314:\n        /* \"#utility.yul\":12318:12352   */\n      tag_156\n      jump\t// in\n    tag_313:\n        /* \"#utility.yul\":12300:12353   */\n      tag_136\n      jump\t// in\n    tag_312:\n        /* \"#utility.yul\":12287:12353   */\n      swap1\n      pop\n        /* \"#utility.yul\":12217:12359   */\n      swap2\n      swap1\n      pop\n      jump\t// out\n        /* \"#utility.yul\":12365:12440   */\n    tag_158:\n        /* \"#utility.yul\":12408:12411   */\n      0x00\n        /* \"#utility.yul\":12429:12434   */\n      dup2\n        /* \"#utility.yul\":12422:12434   */\n      swap1\n      pop\n        /* \"#utility.yul\":12365:12440   */\n      swap2\n      swap1\n      pop\n      jump\t// out\n        /* \"#utility.yul\":12446:12715   */\n    tag_159:\n        /* \"#utility.yul\":12556:12595   */\n      tag_317\n        /* \"#utility.yul\":12587:12594   */\n      dup4\n        /* \"#utility.yul\":12556:12595   */\n      tag_157\n      jump\t// in\n    tag_317:\n        /* \"#utility.yul\":12617:12708   */\n      tag_318\n        /* \"#utility.yul\":12666:12707   */\n      tag_319\n        /* \"#utility.yul\":12690:12706   */\n      dup3\n        /* \"#utility.yul\":12666:12707   */\n      tag_158\n      jump\t// in\n    tag_319:\n        /* \"#utility.yul\":12658:12664   */\n      dup5\n        /* \"#utility.yul\":12651:12655   */\n      dup5\n        /* \"#utility.yul\":12645:12656   */\n      sload\n        /* \"#utility.yul\":12617:12708   */\n      tag_155\n      jump\t// in\n    tag_318:\n        /* \"#utility.yul\":12611:12615   */\n      dup3\n        /* \"#utility.yul\":12604:12709   */\n      sstore\n        /* \"#utility.yul\":12522:12715   */\n      pop\n        /* \"#utility.yul\":12446:12715   */\n      pop\n      pop\n      pop\n      jump\t// out\n        /* \"#utility.yul\":12721:12794   */\n    tag_160:\n        /* \"#utility.yul\":12766:12769   */\n      0x00\n        /* \"#utility.yul\":12721:12794   */\n      swap1\n      jump\t// out\n        /* \"#utility.yul\":12800:12989   */\n    tag_161:\n        /* \"#utility.yul\":12877:12909   */\n      tag_322\n      tag_160\n      jump\t// in\n    tag_322:\n        /* \"#utility.yul\":12918:12983   */\n      tag_323\n        /* \"#utility.yul\":12976:12982   */\n      dup2\n        /* \"#utility.yul\":12968:12974   */\n      dup5\n        /* \"#utility.yul\":12962:12966   */\n      dup5\n        /* \"#utility.yul\":12918:12983   */\n      tag_159\n      jump\t// in\n    tag_323:\n        /* \"#utility.yul\":12853:12989   */\n      pop\n        /* \"#utility.yul\":12800:12989   */\n      pop\n      pop\n      jump\t// out\n        /* \"#utility.yul\":12995:13181   */\n    tag_162:\n        /* \"#utility.yul\":13055:13175   */\n    tag_325:\n        /* \"#utility.yul\":13072:13075   */\n      dup2\n        /* \"#utility.yul\":13065:13070   */\n      dup2\n        /* \"#utility.yul\":13062:13076   */\n      lt\n        /* \"#utility.yul\":13055:13175   */\n      iszero\n      tag_327\n      jumpi\n        /* \"#utility.yul\":13126:13165   */\n      tag_328\n        /* \"#utility.yul\":13163:13164   */\n      0x00\n        /* \"#utility.yul\":13156:13161   */\n      dup3\n        /* \"#utility.yul\":13126:13165   */\n      tag_161\n      jump\t// in\n    tag_328:\n        /* \"#utility.yul\":13099:13100   */\n      0x01\n        /* \"#utility.yul\":13092:13097   */\n      dup2\n        /* \"#utility.yul\":13088:13101   */\n      add\n        /* \"#utility.yul\":13079:13101   */\n      swap1\n      pop\n        /* \"#utility.yul\":13055:13175   */\n      jump(tag_325)\n    tag_327:\n        /* \"#utility.yul\":12995:13181   */\n      pop\n      pop\n      jump\t// out\n        /* \"#utility.yul\":13187:13730   */\n    tag_163:\n        /* \"#utility.yul\":13288:13290   */\n      0x1f\n        /* \"#utility.yul\":13283:13286   */\n      dup3\n        /* \"#utility.yul\":13280:13291   */\n      gt\n        /* \"#utility.yul\":13277:13723   */\n      iszero\n      tag_330\n      jumpi\n        /* \"#utility.yul\":13322:13360   */\n      tag_331\n        /* \"#utility.yul\":13354:13359   */\n      dup2\n        /* \"#utility.yul\":13322:13360   */\n      tag_152\n      jump\t// in\n    tag_331:\n        /* \"#utility.yul\":13406:13435   */\n      tag_332\n        /* \"#utility.yul\":13424:13434   */\n      dup5\n        /* \"#utility.yul\":13406:13435   */\n      tag_153\n      jump\t// in\n    tag_332:\n        /* \"#utility.yul\":13396:13404   */\n      dup2\n        /* \"#utility.yul\":13392:13436   */\n      add\n        /* \"#utility.yul\":13589:13591   */\n      0x20\n        /* \"#utility.yul\":13577:13587   */\n      dup6\n        /* \"#utility.yul\":13574:13592   */\n      lt\n        /* \"#utility.yul\":13571:13620   */\n      iszero\n      tag_333\n      jumpi\n        /* \"#utility.yul\":13610:13618   */\n      dup2\n        /* \"#utility.yul\":13595:13618   */\n      swap1\n      pop\n        /* \"#utility.yul\":13571:13620   */\n    tag_333:\n        /* \"#utility.yul\":13633:13713   */\n      tag_334\n        /* \"#utility.yul\":13689:13711   */\n      tag_335\n        /* \"#utility.yul\":13707:13710   */\n      dup6\n        /* \"#utility.yul\":13689:13711   */\n      tag_153\n      jump\t// in\n    tag_335:\n        /* \"#utility.yul\":13679:13687   */\n      dup4\n        /* \"#utility.yul\":13675:13712   */\n      add\n        /* \"#utility.yul\":13662:13673   */\n      dup3\n        /* \"#utility.yul\":13633:13713   */\n      tag_162\n      jump\t// in\n    tag_334:\n        /* \"#utility.yul\":13292:13723   */\n      pop\n      pop\n        /* \"#utility.yul\":13277:13723   */\n    tag_330:\n        /* \"#utility.yul\":13187:13730   */\n      pop\n      pop\n      pop\n      jump\t// out\n        /* \"#utility.yul\":13736:13853   */\n    tag_164:\n        /* \"#utility.yul\":13790:13798   */\n      0x00\n        /* \"#utility.yul\":13840:13845   */\n      dup3\n        /* \"#utility.yul\":13834:13838   */\n      dup3\n        /* \"#utility.yul\":13830:13846   */\n      shr\n        /* \"#utility.yul\":13809:13846   */\n      swap1\n      pop\n        /* \"#utility.yul\":13736:13853   */\n      swap3\n      swap2\n      pop\n      pop\n      jump\t// out\n        /* \"#utility.yul\":13859:14028   */\n    tag_165:\n        /* \"#utility.yul\":13903:13909   */\n      0x00\n        /* \"#utility.yul\":13936:13987   */\n      tag_338\n        /* \"#utility.yul\":13984:13985   */\n      0x00\n        /* \"#utility.yul\":13980:13986   */\n      not\n        /* \"#utility.yul\":13972:13977   */\n      dup5\n        /* \"#utility.yul\":13969:13970   */\n      0x08\n        /* \"#utility.yul\":13965:13978   */\n      mul\n        /* \"#utility.yul\":13936:13987   */\n      tag_164\n      jump\t// in\n    tag_338:\n        /* \"#utility.yul\":13932:13988   */\n      not\n        /* \"#utility.yul\":14017:14021   */\n      dup1\n        /* \"#utility.yul\":14011:14015   */\n      dup4\n        /* \"#utility.yul\":14007:14022   */\n      and\n        /* \"#utility.yul\":13997:14022   */\n      swap2\n      pop\n        /* \"#utility.yul\":13910:14028   */\n      pop\n        /* \"#utility.yul\":13859:14028   */\n      swap3\n      swap2\n      pop\n      pop\n      jump\t// out\n        /* \"#utility.yul\":14033:14328   */\n    tag_166:\n        /* \"#utility.yul\":14109:14113   */\n      0x00\n        /* \"#utility.yul\":14255:14284   */\n      tag_340\n        /* \"#utility.yul\":14280:14283   */\n      dup4\n        /* \"#utility.yul\":14274:14278   */\n      dup4\n        /* \"#utility.yul\":14255:14284   */\n      tag_165\n      jump\t// in\n    tag_340:\n        /* \"#utility.yul\":14247:14284   */\n      swap2\n      pop\n        /* \"#utility.yul\":14317:14320   */\n      dup3\n        /* \"#utility.yul\":14314:14315   */\n      0x02\n        /* \"#utility.yul\":14310:14321   */\n      mul\n        /* \"#utility.yul\":14304:14308   */\n      dup3\n        /* \"#utility.yul\":14301:14322   */\n      or\n        /* \"#utility.yul\":14293:14322   */\n      swap1\n      pop\n        /* \"#utility.yul\":14033:14328   */\n      swap3\n      swap2\n      pop\n      pop\n      jump\t// out\n        /* \"#utility.yul\":14333:15728   */\n    tag_77:\n        /* \"#utility.yul\":14450:14487   */\n      tag_342\n        /* \"#utility.yul\":14483:14486   */\n      dup3\n        /* \"#utility.yul\":14450:14487   */\n      tag_140\n      jump\t// in\n    tag_342:\n        /* \"#utility.yul\":14552:14570   */\n      0xffffffffffffffff\n        /* \"#utility.yul\":14544:14550   */\n      dup2\n        /* \"#utility.yul\":14541:14571   */\n      gt\n        /* \"#utility.yul\":14538:14594   */\n      iszero\n      tag_343\n      jumpi\n        /* \"#utility.yul\":14574:14592   */\n      tag_344\n      tag_129\n      jump\t// in\n    tag_344:\n        /* \"#utility.yul\":14538:14594   */\n    tag_343:\n        /* \"#utility.yul\":14618:14656   */\n      tag_345\n        /* \"#utility.yul\":14650:14654   */\n      dup3\n        /* \"#utility.yul\":14644:14655   */\n      sload\n        /* \"#utility.yul\":14618:14656   */\n      tag_81\n      jump\t// in\n    tag_345:\n        /* \"#utility.yul\":14703:14770   */\n      tag_346\n        /* \"#utility.yul\":14763:14769   */\n      dup3\n        /* \"#utility.yul\":14755:14761   */\n      dup3\n        /* \"#utility.yul\":14749:14753   */\n      dup6\n        /* \"#utility.yul\":14703:14770   */\n      tag_163\n      jump\t// in\n    tag_346:\n        /* \"#utility.yul\":14797:14798   */\n      0x00\n        /* \"#utility.yul\":14821:14825   */\n      0x20\n        /* \"#utility.yul\":14808:14825   */\n      swap1\n      pop\n        /* \"#utility.yul\":14853:14855   */\n      0x1f\n        /* \"#utility.yul\":14845:14851   */\n      dup4\n        /* \"#utility.yul\":14842:14856   */\n      gt\n        /* \"#utility.yul\":14870:14871   */\n      0x01\n        /* \"#utility.yul\":14865:15483   */\n      dup2\n      eq\n      tag_348\n      jumpi\n        /* \"#utility.yul\":15527:15528   */\n      0x00\n        /* \"#utility.yul\":15544:15550   */\n      dup5\n        /* \"#utility.yul\":15541:15618   */\n      iszero\n      tag_349\n      jumpi\n        /* \"#utility.yul\":15593:15602   */\n      dup3\n        /* \"#utility.yul\":15588:15591   */\n      dup8\n        /* \"#utility.yul\":15584:15603   */\n      add\n        /* \"#utility.yul\":15578:15604   */\n      mload\n        /* \"#utility.yul\":15569:15604   */\n      swap1\n      pop\n        /* \"#utility.yul\":15541:15618   */\n    tag_349:\n        /* \"#utility.yul\":15644:15711   */\n      tag_350\n        /* \"#utility.yul\":15704:15710   */\n      dup6\n        /* \"#utility.yul\":15697:15702   */\n      dup3\n        /* \"#utility.yul\":15644:15711   */\n      tag_166\n      jump\t// in\n    tag_350:\n        /* \"#utility.yul\":15638:15642   */\n      dup7\n        /* \"#utility.yul\":15631:15712   */\n      sstore\n        /* \"#utility.yul\":15500:15722   */\n      pop\n        /* \"#utility.yul\":14835:15722   */\n      jump(tag_347)\n        /* \"#utility.yul\":14865:15483   */\n    tag_348:\n        /* \"#utility.yul\":14917:14921   */\n      0x1f\n        /* \"#utility.yul\":14913:14922   */\n      not\n        /* \"#utility.yul\":14905:14911   */\n      dup5\n        /* \"#utility.yul\":14901:14923   */\n      and\n        /* \"#utility.yul\":14951:14988   */\n      tag_351\n        /* \"#utility.yul\":14983:14987   */\n      dup7\n        /* \"#utility.yul\":14951:14988   */\n      tag_152\n      jump\t// in\n    tag_351:\n        /* \"#utility.yul\":15010:15011   */\n      0x00\n        /* \"#utility.yul\":15024:15232   */\n    tag_352:\n        /* \"#utility.yul\":15038:15045   */\n      dup3\n        /* \"#utility.yul\":15035:15036   */\n      dup2\n        /* \"#utility.yul\":15032:15046   */\n      lt\n        /* \"#utility.yul\":15024:15232   */\n      iszero\n      tag_354\n      jumpi\n        /* \"#utility.yul\":15117:15126   */\n      dup5\n        /* \"#utility.yul\":15112:15115   */\n      dup10\n        /* \"#utility.yul\":15108:15127   */\n      add\n        /* \"#utility.yul\":15102:15128   */\n      mload\n        /* \"#utility.yul\":15094:15100   */\n      dup3\n        /* \"#utility.yul\":15087:15129   */\n      sstore\n        /* \"#utility.yul\":15168:15169   */\n      0x01\n        /* \"#utility.yul\":15160:15166   */\n      dup3\n        /* \"#utility.yul\":15156:15170   */\n      add\n        /* \"#utility.yul\":15146:15170   */\n      swap2\n      pop\n        /* \"#utility.yul\":15215:15217   */\n      0x20\n        /* \"#utility.yul\":15204:15213   */\n      dup6\n        /* \"#utility.yul\":15200:15218   */\n      add\n        /* \"#utility.yul\":15187:15218   */\n      swap5\n      pop\n        /* \"#utility.yul\":15061:15065   */\n      0x20\n        /* \"#utility.yul\":15058:15059   */\n      dup2\n        /* \"#utility.yul\":15054:15066   */\n      add\n        /* \"#utility.yul\":15049:15066   */\n      swap1\n      pop\n        /* \"#utility.yul\":15024:15232   */\n      jump(tag_352)\n    tag_354:\n        /* \"#utility.yul\":15260:15266   */\n      dup7\n        /* \"#utility.yul\":15251:15258   */\n      dup4\n        /* \"#utility.yul\":15248:15267   */\n      lt\n        /* \"#utility.yul\":15245:15424   */\n      iszero\n      tag_355\n      jumpi\n        /* \"#utility.yul\":15318:15327   */\n      dup5\n        /* \"#utility.yul\":15313:15316   */\n      dup10\n        /* \"#utility.yul\":15309:15328   */\n      add\n        /* \"#utility.yul\":15303:15329   */\n      mload\n        /* \"#utility.yul\":15361:15409   */\n      tag_356\n        /* \"#utility.yul\":15403:15407   */\n      0x1f\n        /* \"#utility.yul\":15395:15401   */\n      dup10\n        /* \"#utility.yul\":15391:15408   */\n      and\n        /* \"#utility.yul\":15380:15389   */\n      dup3\n        /* \"#utility.yul\":15361:15409   */\n      tag_165\n      jump\t// in\n    tag_356:\n        /* \"#utility.yul\":15353:15359   */\n      dup4\n        /* \"#utility.yul\":15346:15410   */\n      sstore\n        /* \"#utility.yul\":15268:15424   */\n      pop\n        /* \"#utility.yul\":15245:15424   */\n    tag_355:\n        /* \"#utility.yul\":15470:15471   */\n      0x01\n        /* \"#utility.yul\":15466:15467   */\n      0x02\n        /* \"#utility.yul\":15458:15464   */\n      dup9\n        /* \"#utility.yul\":15454:15468   */\n      mul\n        /* \"#utility.yul\":15450:15472   */\n      add\n        /* \"#utility.yul\":15444:15448   */\n      dup9\n        /* \"#utility.yul\":15437:15473   */\n      sstore\n        /* \"#utility.yul\":14872:15483   */\n      pop\n      pop\n      pop\n        /* \"#utility.yul\":14835:15722   */\n    tag_347:\n      pop\n        /* \"#utility.yul\":14425:15728   */\n      pop\n      pop\n      pop\n        /* \"#utility.yul\":14333:15728   */\n      pop\n      pop\n      jump\t// out\n        /* \"#utility.yul\":15734:15914   */\n    tag_167:\n        /* \"#utility.yul\":15782:15859   */\n      0x4e487b7100000000000000000000000000000000000000000000000000000000\n        /* \"#utility.yul\":15779:15780   */\n      0x00\n        /* \"#utility.yul\":15772:15860   */\n      mstore\n        /* \"#utility.yul\":15879:15883   */\n      0x11\n        /* \"#utility.yul\":15876:15877   */\n      0x04\n        /* \"#utility.yul\":15869:15884   */\n      mstore\n        /* \"#utility.yul\":15903:15907   */\n      0x24\n        /* \"#utility.yul\":15900:15901   */\n      0x00\n        /* \"#utility.yul\":15893:15908   */\n      revert\n        /* \"#utility.yul\":15920:16153   */\n    tag_79:\n        /* \"#utility.yul\":15959:15962   */\n      0x00\n        /* \"#utility.yul\":15982:16006   */\n      tag_359\n        /* \"#utility.yul\":16000:16005   */\n      dup3\n        /* \"#utility.yul\":15982:16006   */\n      tag_136\n      jump\t// in\n    tag_359:\n        /* \"#utility.yul\":15973:16006   */\n      swap2\n      pop\n        /* \"#utility.yul\":16028:16094   */\n      0xffffffffffffffffffffffffffffffffffffffffffffffffffffffffffffffff\n        /* \"#utility.yul\":16021:16026   */\n      dup3\n        /* \"#utility.yul\":16018:16095   */\n      sub\n        /* \"#utility.yul\":16015:16118   */\n      tag_360\n      jumpi\n        /* \"#utility.yul\":16098:16116   */\n      tag_361\n      tag_167\n      jump\t// in\n    tag_361:\n        /* \"#utility.yul\":16015:16118   */\n    tag_360:\n        /* \"#utility.yul\":16145:16146   */\n      0x01\n        /* \"#utility.yul\":16138:16143   */\n      dup3\n        /* \"#utility.yul\":16134:16147   */\n      add\n        /* \"#utility.yul\":16127:16147   */\n      swap1\n      pop\n        /* \"#utility.yul\":15920:16153   */\n      swap2\n      swap1\n      pop\n      jump\t// out\n        /* \"#utility.yul\":16159:16307   */\n    tag_168:\n        /* \"#utility.yul\":16261:16272   */\n      0x00\n        /* \"#utility.yul\":16298:16301   */\n      dup2\n        /* \"#utility.yul\":16283:16301   */\n      swap1\n      pop\n        /* \"#utility.yul\":16159:16307   */\n      swap3\n      swap2\n      pop\n      pop\n      jump\t// out\n        /* \"#utility.yul\":16313:16703   */\n    tag_169:\n        /* \"#utility.yul\":16419:16422   */\n      0x00\n        /* \"#utility.yul\":16447:16486   */\n      tag_364\n        /* \"#utility.yul\":16480:16485   */\n      dup3\n        /* \"#utility.yul\":16447:16486   */\n      tag_140\n      jump\t// in\n    tag_364:\n        /* \"#utility.yul\":16502:16591   */\n      tag_365\n        /* \"#utility.yul\":16584:16590   */\n      dup2\n        /* \"#utility.yul\":16579:16582   */\n      dup6\n        /* \"#utility.yul\":16502:16591   */\n      tag_168\n      jump\t// in\n    tag_365:\n        /* \"#utility.yul\":16495:16591   */\n      swap4\n      pop\n        /* \"#utility.yul\":16600:16665   */\n      tag_366\n        /* \"#utility.yul\":16658:16664   */\n      dup2\n        /* \"#utility.yul\":16653:16656   */\n      dup6\n        /* \"#utility.yul\":16646:16650   */\n      0x20\n        /* \"#utility.yul\":16639:16644   */\n      dup7\n        /* \"#utility.yul\":16635:16651   */\n      add\n        /* \"#utility.yul\":16600:16665   */\n      tag_142\n      jump\t// in\n    tag_366:\n        /* \"#utility.yul\":16690:16696   */\n      dup1\n        /* \"#utility.yul\":16685:16688   */\n      dup5\n        /* \"#utility.yul\":16681:16697   */\n      add\n        /* \"#utility.yul\":16674:16697   */\n      swap2\n      pop\n        /* \"#utility.yul\":16423:16703   */\n      pop\n        /* \"#utility.yul\":16313:16703   */\n      swap3\n      swap2\n      pop\n      pop\n      jump\t// out\n        /* \"#utility.yul\":16709:16984   */\n    tag_90:\n        /* \"#utility.yul\":16841:16844   */\n      0x00\n        /* \"#utility.yul\":16863:16958   */\n      tag_368\n        /* \"#utility.yul\":16954:16957   */\n      dup3\n        /* \"#utility.yul\":16945:16951   */\n      dup5\n        /* \"#utility.yul\":16863:16958   */\n      tag_169\n      jump\t// in\n    tag_368:\n        /* \"#utility.yul\":16856:16958   */\n      swap2\n      pop\n        /* \"#utility.yul\":16975:16978   */\n      dup2\n        /* \"#utility.yul\":16968:16978   */\n      swap1\n      pop\n        /* \"#utility.yul\":16709:16984   */\n      swap3\n      swap2\n      pop\n      pop\n      jump\t// out\n        /* \"#utility.yul\":16990:17181   */\n    tag_93:\n        /* \"#utility.yul\":17030:17033   */\n      0x00\n        /* \"#utility.yul\":17049:17069   */\n      tag_370\n        /* \"#utility.yul\":17067:17068   */\n      dup3\n        /* \"#utility.yul\":17049:17069   */\n      tag_136\n      jump\t// in\n    tag_370:\n        /* \"#utility.yul\":17044:17069   */\n      swap2\n      pop\n        /* \"#utility.yul\":17083:17103   */\n      tag_371\n        /* \"#utility.yul\":17101:17102   */\n      dup4\n        /* \"#utility.yul\":17083:17103   */\n      tag_136\n      jump\t// in\n    tag_371:\n        /* \"#utility.yul\":17078:17103   */\n      swap3\n      pop\n        /* \"#utility.yul\":17126:17127   */\n      dup3\n        /* \"#utility.yul\":17123:17124   */\n      dup3\n        /* \"#utility.yul\":17119:17128   */\n      add\n        /* \"#utility.yul\":17112:17128   */\n      swap1\n      pop\n        /* \"#utility.yul\":17147:17150   */\n      dup1\n        /* \"#utility.yul\":17144:17145   */\n      dup3\n        /* \"#utility.yul\":17141:17151   */\n      gt\n        /* \"#utility.yul\":17138:17174   */\n      iszero\n      tag_372\n      jumpi\n        /* \"#utility.yul\":17154:17172   */\n      tag_373\n      tag_167\n      jump\t// in\n    tag_373:\n        /* \"#utility.yul\":17138:17174   */\n    tag_372:\n        /* \"#utility.yul\":16990:17181   */\n      swap3\n      swap2\n      pop\n      pop\n      jump\t// out\n        /* \"#utility.yul\":17187:17367   */\n    tag_170:\n        /* \"#utility.yul\":17235:17312   */\n      0x4e487b7100000000000000000000000000000000000000000000000000000000\n        /* \"#utility.yul\":17232:17233   */\n      0x00\n        /* \"#utility.yul\":17225:17313   */\n      mstore\n        /* \"#utility.yul\":17332:17336   */\n      0x12\n        /* \"#utility.yul\":17329:17330   */\n      0x04\n        /* \"#utility.yul\":17322:17337   */\n      mstore\n        /* \"#utility.yul\":17356:17360   */\n      0x24\n        /* \"#utility.yul\":17353:17354   */\n      0x00\n        /* \"#utility.yul\":17346:17361   */\n      revert\n        /* \"#utility.yul\":17373:17558   */\n    tag_98:\n        /* \"#utility.yul\":17413:17414   */\n      0x00\n        /* \"#utility.yul\":17430:17450   */\n      tag_376\n        /* \"#utility.yul\":17448:17449   */\n      dup3\n        /* \"#utility.yul\":17430:17450   */\n      tag_136\n      jump\t// in\n    tag_376:\n        /* \"#utility.yul\":17425:17450   */\n      swap2\n      pop\n        /* \"#utility.yul\":17464:17484   */\n      tag_377\n        /* \"#utility.yul\":17482:17483   */\n      dup4\n        /* \"#utility.yul\":17464:17484   */\n      tag_136\n      jump\t// in\n    tag_377:\n        /* \"#utility.yul\":17459:17484   */\n      swap3\n      pop\n        /* \"#utility.yul\":17503:17504   */\n      dup3\n        /* \"#utility.yul\":17493:17528   */\n      tag_378\n      jumpi\n        /* \"#utility.yul\":17508:17526   */\n      tag_379\n      tag_170\n      jump\t// in\n    tag_379:\n        /* \"#utility.yul\":17493:17528   */\n    tag_378:\n        /* \"#utility.yul\":17550:17551   */\n      dup3\n        /* \"#utility.yul\":17547:17548   */\n      dup3\n        /* \"#utility.yul\":17543:17552   */\n      div\n        /* \"#utility.yul\":17538:17552   */\n      swap1\n      pop\n        /* \"#utility.yul\":17373:17558   */\n      swap3\n      swap2\n      pop\n      pop\n      jump\t// out\n        /* \"#utility.yul\":17564:17974   */\n    tag_100:\n        /* \"#utility.yul\":17604:17611   */\n      0x00\n        /* \"#utility.yul\":17627:17647   */\n      tag_381\n        /* \"#utility.yul\":17645:17646   */\n      dup3\n        /* \"#utility.yul\":17627:17647   */\n      tag_136\n      jump\t// in\n    tag_381:\n        /* \"#utility.yul\":17622:17647   */\n      swap2\n      pop\n        /* \"#utility.yul\":17661:17681   */\n      tag_382\n        /* \"#utility.yul\":17679:17680   */\n      dup4\n        /* \"#utility.yul\":17661:17681   */\n      tag_136\n      jump\t// in\n    tag_382:\n        /* \"#utility.yul\":17656:17681   */\n      swap3\n      pop\n        /* \"#utility.yul\":17716:17717   */\n      dup3\n        /* \"#utility.yul\":17713:17714   */\n      dup3\n        /* \"#utility.yul\":17709:17718   */\n      mul\n        /* \"#utility.yul\":17738:17768   */\n      tag_383\n        /* \"#utility.yul\":17756:17767   */\n      dup2\n        /* \"#utility.yul\":17738:17768   */\n      tag_136\n      jump\t// in\n    tag_383:\n        /* \"#utility.yul\":17727:17768   */\n      swap2\n      pop\n        /* \"#utility.yul\":17917:17918   */\n      dup3\n        /* \"#utility.yul\":17908:17915   */\n      dup3\n        /* \"#utility.yul\":17904:17919   */\n      div\n        /* \"#utility.yul\":17901:17902   */\n      dup5\n        /* \"#utility.yul\":17898:17920   */\n      eq\n        /* \"#utility.yul\":17878:17879   */\n      dup4\n        /* \"#utility.yul\":17871:17880   */\n      iszero\n        /* \"#utility.yul\":17851:17934   */\n      or\n        /* \"#utility.yul\":17828:17967   */\n      tag_384\n      jumpi\n        /* \"#utility.yul\":17947:17965   */\n      tag_385\n      tag_167\n      jump\t// in\n    tag_385:\n        /* \"#utility.yul\":17828:17967   */\n    tag_384:\n        /* \"#utility.yul\":17612:17974   */\n      pop\n        /* \"#utility.yul\":17564:17974   */\n      swap3\n      swap2\n      pop\n      pop\n      jump\t// out\n        /* \"#utility.yul\":17980:18157   */\n    tag_171:\n        /* \"#utility.yul\":18120:18149   */\n      0x61737369676e6d656e74204944206d7573742062652076616c69640000000000\n        /* \"#utility.yul\":18116:18117   */\n      0x00\n        /* \"#utility.yul\":18108:18114   */\n      dup3\n        /* \"#utility.yul\":18104:18118   */\n      add\n        /* \"#utility.yul\":18097:18150   */\n      mstore\n        /* \"#utility.yul\":17980:18157   */\n      pop\n      jump\t// out\n        /* \"#utility.yul\":18163:18529   */\n    tag_172:\n        /* \"#utility.yul\":18305:18308   */\n      0x00\n        /* \"#utility.yul\":18326:18393   */\n      tag_388\n        /* \"#utility.yul\":18390:18392   */\n      0x1b\n        /* \"#utility.yul\":18385:18388   */\n      dup4\n        /* \"#utility.yul\":18326:18393   */\n      tag_141\n      jump\t// in\n    tag_388:\n        /* \"#utility.yul\":18319:18393   */\n      swap2\n      pop\n        /* \"#utility.yul\":18402:18495   */\n      tag_389\n        /* \"#utility.yul\":18491:18494   */\n      dup3\n        /* \"#utility.yul\":18402:18495   */\n      tag_171\n      jump\t// in\n    tag_389:\n        /* \"#utility.yul\":18520:18522   */\n      0x20\n        /* \"#utility.yul\":18515:18518   */\n      dup3\n        /* \"#utility.yul\":18511:18523   */\n      add\n        /* \"#utility.yul\":18504:18523   */\n      swap1\n      pop\n        /* \"#utility.yul\":18163:18529   */\n      swap2\n      swap1\n      pop\n      jump\t// out\n        /* \"#utility.yul\":18535:18954   */\n    tag_108:\n        /* \"#utility.yul\":18701:18705   */\n      0x00\n        /* \"#utility.yul\":18739:18741   */\n      0x20\n        /* \"#utility.yul\":18728:18737   */\n      dup3\n        /* \"#utility.yul\":18724:18742   */\n      add\n        /* \"#utility.yul\":18716:18742   */\n      swap1\n      pop\n        /* \"#utility.yul\":18788:18797   */\n      dup2\n        /* \"#utility.yul\":18782:18786   */\n      dup2\n        /* \"#utility.yul\":18778:18798   */\n      sub\n        /* \"#utility.yul\":18774:18775   */\n      0x00\n        /* \"#utility.yul\":18763:18772   */\n      dup4\n        /* \"#utility.yul\":18759:18776   */\n      add\n        /* \"#utility.yul\":18752:18799   */\n      mstore\n        /* \"#utility.yul\":18816:18947   */\n      tag_391\n        /* \"#utility.yul\":18942:18946   */\n      dup2\n        /* \"#utility.yul\":18816:18947   */\n      tag_172\n      jump\t// in\n    tag_391:\n        /* \"#utility.yul\":18808:18947   */\n      swap1\n      pop\n        /* \"#utility.yul\":18535:18954   */\n      swap2\n      swap1\n      pop\n      jump\t// out\n        /* \"#utility.yul\":18960:19193   */\n    tag_173:\n        /* \"#utility.yul\":19100:19134   */\n      0x73636f7265206d757374206265206c6f776572207468616e206f722065717561\n        /* \"#utility.yul\":19096:19097   */\n      0x00\n        /* \"#utility.yul\":19088:19094   */\n      dup3\n        /* \"#utility.yul\":19084:19098   */\n      add\n        /* \"#utility.yul\":19077:19135   */\n      mstore\n        /* \"#utility.yul\":19169:19185   */\n      0x6c20746f206d61782073636f7265000000000000000000000000000000000000\n        /* \"#utility.yul\":19164:19166   */\n      0x20\n        /* \"#utility.yul\":19156:19162   */\n      dup3\n        /* \"#utility.yul\":19152:19167   */\n      add\n        /* \"#utility.yul\":19145:19186   */\n      mstore\n        /* \"#utility.yul\":18960:19193   */\n      pop\n      jump\t// out\n        /* \"#utility.yul\":19199:19565   */\n    tag_174:\n        /* \"#utility.yul\":19341:19344   */\n      0x00\n        /* \"#utility.yul\":19362:19429   */\n      tag_394\n        /* \"#utility.yul\":19426:19428   */\n      0x2e\n        /* \"#utility.yul\":19421:19424   */\n      dup4\n        /* \"#utility.yul\":19362:19429   */\n      tag_141\n      jump\t// in\n    tag_394:\n        /* \"#utility.yul\":19355:19429   */\n      swap2\n      pop\n        /* \"#utility.yul\":19438:19531   */\n      tag_395\n        /* \"#utility.yul\":19527:19530   */\n      dup3\n        /* \"#utility.yul\":19438:19531   */\n      tag_173\n      jump\t// in\n    tag_395:\n        /* \"#utility.yul\":19556:19558   */\n      0x40\n        /* \"#utility.yul\":19551:19554   */\n      dup3\n        /* \"#utility.yul\":19547:19559   */\n      add\n        /* \"#utility.yul\":19540:19559   */\n      swap1\n      pop\n        /* \"#utility.yul\":19199:19565   */\n      swap2\n      swap1\n      pop\n      jump\t// out\n        /* \"#utility.yul\":19571:19990   */\n    tag_111:\n        /* \"#utility.yul\":19737:19741   */\n      0x00\n        /* \"#utility.yul\":19775:19777   */\n      0x20\n        /* \"#utility.yul\":19764:19773   */\n      dup3\n        /* \"#utility.yul\":19760:19778   */\n      add\n        /* \"#utility.yul\":19752:19778   */\n      swap1\n      pop\n        /* \"#utility.yul\":19824:19833   */\n      dup2\n        /* \"#utility.yul\":19818:19822   */\n      dup2\n        /* \"#utility.yul\":19814:19834   */\n      sub\n        /* \"#utility.yul\":19810:19811   */\n      0x00\n        /* \"#utility.yul\":19799:19808   */\n      dup4\n        /* \"#utility.yul\":19795:19812   */\n      add\n        /* \"#utility.yul\":19788:19835   */\n      mstore\n        /* \"#utility.yul\":19852:19983   */\n      tag_397\n        /* \"#utility.yul\":19978:19982   */\n      dup2\n        /* \"#utility.yul\":19852:19983   */\n      tag_174\n      jump\t// in\n    tag_397:\n        /* \"#utility.yul\":19844:19983   */\n      swap1\n      pop\n        /* \"#utility.yul\":19571:19990   */\n      swap2\n      swap1\n      pop\n      jump\t// out\n        /* \"#utility.yul\":19996:20216   */\n    tag_175:\n        /* \"#utility.yul\":20136:20170   */\n      0x6f6e6c7920696e7374727563746f722063616e2064657369676e617465205441\n        /* \"#utility.yul\":20132:20133   */\n      0x00\n        /* \"#utility.yul\":20124:20130   */\n      dup3\n        /* \"#utility.yul\":20120:20134   */\n      add\n        /* \"#utility.yul\":20113:20171   */\n      mstore\n        /* \"#utility.yul\":20205:20208   */\n      0x7300000000000000000000000000000000000000000000000000000000000000\n        /* \"#utility.yul\":20200:20202   */\n      0x20\n        /* \"#utility.yul\":20192:20198   */\n      dup3\n        /* \"#utility.yul\":20188:20203   */\n      add\n        /* \"#utility.yul\":20181:20209   */\n      mstore\n        /* \"#utility.yul\":19996:20216   */\n      pop\n      jump\t// out\n        /* \"#utility.yul\":20222:20588   */\n    tag_176:\n        /* \"#utility.yul\":20364:20367   */\n      0x00\n        /* \"#utility.yul\":20385:20452   */\n      tag_400\n        /* \"#utility.yul\":20449:20451   */\n      0x21\n        /* \"#utility.yul\":20444:20447   */\n      dup4\n        /* \"#utility.yul\":20385:20452   */\n      tag_141\n      jump\t// in\n    tag_400:\n        /* \"#utility.yul\":20378:20452   */\n      swap2\n      pop\n        /* \"#utility.yul\":20461:20554   */\n      tag_401\n        /* \"#utility.yul\":20550:20553   */\n      dup3\n        /* \"#utility.yul\":20461:20554   */\n      tag_175\n      jump\t// in\n    tag_401:\n        /* \"#utility.yul\":20579:20581   */\n      0x40\n        /* \"#utility.yul\":20574:20577   */\n      dup3\n        /* \"#utility.yul\":20570:20582   */\n      add\n        /* \"#utility.yul\":20563:20582   */\n      swap1\n      pop\n        /* \"#utility.yul\":20222:20588   */\n      swap2\n      swap1\n      pop\n      jump\t// out\n        /* \"#utility.yul\":20594:21013   */\n    tag_117:\n        /* \"#utility.yul\":20760:20764   */\n      0x00\n        /* \"#utility.yul\":20798:20800   */\n      0x20\n        /* \"#utility.yul\":20787:20796   */\n      dup3\n        /* \"#utility.yul\":20783:20801   */\n      add\n        /* \"#utility.yul\":20775:20801   */\n      swap1\n      pop\n        /* \"#utility.yul\":20847:20856   */\n      dup2\n        /* \"#utility.yul\":20841:20845   */\n      dup2\n        /* \"#utility.yul\":20837:20857   */\n      sub\n        /* \"#utility.yul\":20833:20834   */\n      0x00\n        /* \"#utility.yul\":20822:20831   */\n      dup4\n        /* \"#utility.yul\":20818:20835   */\n      add\n        /* \"#utility.yul\":20811:20858   */\n      mstore\n        /* \"#utility.yul\":20875:21006   */\n      tag_403\n        /* \"#utility.yul\":21001:21005   */\n      dup2\n        /* \"#utility.yul\":20875:21006   */\n      tag_176\n      jump\t// in\n    tag_403:\n        /* \"#utility.yul\":20867:21006   */\n      swap1\n      pop\n        /* \"#utility.yul\":20594:21013   */\n      swap2\n      swap1\n      pop\n      jump\t// out\n\n    auxdata: 0xa2646970667358221220ce0402cda6fe91df03a27d13c35acd77bc654bcd09328396d6fc1190e5a9a77464736f6c63430008120033\n}\n",
				"bytecode": {
					"linkReferences": {},
					"object": "608060405234801561001057600080fd5b5033600560006101000a81548173ffffffffffffffffffffffffffffffffffffffff021916908373ffffffffffffffffffffffffffffffffffffffff16021790555061160f806100616000396000f3fe608060405234801561001057600080fd5b50600436106100b45760003560e01c806377ca29471161007157806377ca2947146101b35780637fc29673146101e35780639cfeb679146101ed578063a30254e714610209578063c7a9f77b14610239578063dfd68b9114610257576100b4565b806301ffc9a7146100b9578063077f3b02146100e957806353acf8831461011957806365dd2f691461014957806371ae413d146101795780637241d75f14610197575b600080fd5b6100d360048036038101906100ce9190610a3d565b610287565b6040516100e09190610a85565b60405180910390f35b61010360048036038101906100fe9190610c1c565b610321565b6040516101109190610c87565b60405180910390f35b610133600480360381019061012e9190610ca2565b610493565b6040516101409190610d4e565b60405180910390f35b610163600480360381019061015e9190610d70565b610533565b6040516101709190610c87565b60405180910390f35b6101816105fe565b60405161018e9190610dfa565b60405180910390f35b6101b160048036038101906101ac9190610e15565b610624565b005b6101cd60048036038101906101c89190610e84565b610815565b6040516101da9190610c87565b60405180910390f35b6101eb610850565b005b61020760048036038101906102029190610f0c565b6108a9565b005b610223600480360381019061021e9190610f0c565b610993565b6040516102309190610a85565b60405180910390f35b6102416109b3565b60405161024e9190610c87565b60405180910390f35b610271600480360381019061026c9190610ca2565b6109b9565b60405161027e9190610c87565b60405180910390f35b60007f1c95926d000000000000000000000000000000000000000000000000000000007bffffffffffffffffffffffffffffffffffffffffffffffffffffffff1916827bffffffffffffffffffffffffffffffffffffffffffffffffffffffff1916148061031a57506301ffc9a760e01b827bffffffffffffffffffffffffffffffffffffffffffffffffffffffff1916145b9050919050565b6000600560009054906101000a900473ffffffffffffffffffffffffffffffffffffffff1673ffffffffffffffffffffffffffffffffffffffff163373ffffffffffffffffffffffffffffffffffffffff1614806103c85750600160003373ffffffffffffffffffffffffffffffffffffffff1673ffffffffffffffffffffffffffffffffffffffff16815260200190815260200160002060009054906101000a900460ff165b610407576040517f08c379a00000000000000000000000000000000000000000000000000000000081526004016103fe90610fab565b60405180910390fd5b826004600080548152602001908152602001600020908161042891906111d7565b50816003600080548152602001908152602001600020819055506000547f1e5500ede7ec81cd4d6537a1a618f3424510f89d03c2252ee7c80e60a1278b6760405160405180910390a2600080815480929190610483906112d8565b9190505550600054905092915050565b600460205280600052604060002060009150905080546104b290610ffa565b80601f01602080910402602001604051908101604052809291908181526020018280546104de90610ffa565b801561052b5780601f106105005761010080835404028352916020019161052b565b820191906000526020600020905b81548152906001019060200180831161050e57829003601f168201915b505050505081565b6000806000905060008060005b6000548210156105db576000600260008481526020019081526020016000208760405161056d919061135c565b908152602001604051809103902054905060008111156105c6576001826105949190611373565b91506003600084815260200190815260200160002054846105b59190611373565b935080856105c39190611373565b94505b6001836105d39190611373565b925050610540565b606481856105e991906113d6565b6105f39190611407565b945050505050919050565b600560009054906101000a900473ffffffffffffffffffffffffffffffffffffffff1681565b600560009054906101000a900473ffffffffffffffffffffffffffffffffffffffff1673ffffffffffffffffffffffffffffffffffffffff163373ffffffffffffffffffffffffffffffffffffffff1614806106c95750600160003373ffffffffffffffffffffffffffffffffffffffff1673ffffffffffffffffffffffffffffffffffffffff16815260200190815260200160002060009054906101000a900460ff165b610708576040517f08c379a00000000000000000000000000000000000000000000000000000000081526004016106ff90610fab565b60405180910390fd5b6000821015801561071a575060005482105b610759576040517f08c379a000000000000000000000000000000000000000000000000000000000815260040161075090611495565b60405180910390fd5b60036000838152602001908152602001600020548111156107af576040517f08c379a00000000000000000000000000000000000000000000000000000000081526004016107a690611527565b60405180910390fd5b817fef2ac44e203202a0e5ecc9974197e85354c58fc899e46eaa72f8aed9aa0b701d60405160405180910390a28060026000848152602001908152602001600020846040516107fe919061135c565b908152602001604051809103902081905550505050565b600260205281600052604060002081805160208101820180518482526020830160208501208183528095505050505050600091509150505481565b60018060003373ffffffffffffffffffffffffffffffffffffffff1673ffffffffffffffffffffffffffffffffffffffff16815260200190815260200160002060006101000a81548160ff021916908315150217905550565b600560009054906101000a900473ffffffffffffffffffffffffffffffffffffffff1673ffffffffffffffffffffffffffffffffffffffff163373ffffffffffffffffffffffffffffffffffffffff1614610939576040517f08c379a0000000000000000000000000000000000000000000000000000000008152600401610930906115b9565b60405180910390fd5b60018060008373ffffffffffffffffffffffffffffffffffffffff1673ffffffffffffffffffffffffffffffffffffffff16815260200190815260200160002060006101000a81548160ff02191690831515021790555050565b60016020528060005260406000206000915054906101000a900460ff1681565b60005481565b60036020528060005260406000206000915090505481565b6000604051905090565b600080fd5b600080fd5b60007fffffffff0000000000000000000000000000000000000000000000000000000082169050919050565b610a1a816109e5565b8114610a2557600080fd5b50565b600081359050610a3781610a11565b92915050565b600060208284031215610a5357610a526109db565b5b6000610a6184828501610a28565b91505092915050565b60008115159050919050565b610a7f81610a6a565b82525050565b6000602082019050610a9a6000830184610a76565b92915050565b600080fd5b600080fd5b6000601f19601f8301169050919050565b7f4e487b7100000000000000000000000000000000000000000000000000000000600052604160045260246000fd5b610af382610aaa565b810181811067ffffffffffffffff82111715610b1257610b11610abb565b5b80604052505050565b6000610b256109d1565b9050610b318282610aea565b919050565b600067ffffffffffffffff821115610b5157610b50610abb565b5b610b5a82610aaa565b9050602081019050919050565b82818337600083830152505050565b6000610b89610b8484610b36565b610b1b565b905082815260208101848484011115610ba557610ba4610aa5565b5b610bb0848285610b67565b509392505050565b600082601f830112610bcd57610bcc610aa0565b5b8135610bdd848260208601610b76565b91505092915050565b6000819050919050565b610bf981610be6565b8114610c0457600080fd5b50565b600081359050610c1681610bf0565b92915050565b60008060408385031215610c3357610c326109db565b5b600083013567ffffffffffffffff811115610c5157610c506109e0565b5b610c5d85828601610bb8565b9250506020610c6e85828601610c07565b9150509250929050565b610c8181610be6565b82525050565b6000602082019050610c9c6000830184610c78565b92915050565b600060208284031215610cb857610cb76109db565b5b6000610cc684828501610c07565b91505092915050565b600081519050919050565b600082825260208201905092915050565b60005b83811015610d09578082015181840152602081019050610cee565b60008484015250505050565b6000610d2082610ccf565b610d2a8185610cda565b9350610d3a818560208601610ceb565b610d4381610aaa565b840191505092915050565b60006020820190508181036000830152610d688184610d15565b905092915050565b600060208284031215610d8657610d856109db565b5b600082013567ffffffffffffffff811115610da457610da36109e0565b5b610db084828501610bb8565b91505092915050565b600073ffffffffffffffffffffffffffffffffffffffff82169050919050565b6000610de482610db9565b9050919050565b610df481610dd9565b82525050565b6000602082019050610e0f6000830184610deb565b92915050565b600080600060608486031215610e2e57610e2d6109db565b5b600084013567ffffffffffffffff811115610e4c57610e4b6109e0565b5b610e5886828701610bb8565b9350506020610e6986828701610c07565b9250506040610e7a86828701610c07565b9150509250925092565b60008060408385031215610e9b57610e9a6109db565b5b6000610ea985828601610c07565b925050602083013567ffffffffffffffff811115610eca57610ec96109e0565b5b610ed685828601610bb8565b9150509250929050565b610ee981610dd9565b8114610ef457600080fd5b50565b600081359050610f0681610ee0565b92915050565b600060208284031215610f2257610f216109db565b5b6000610f3084828501610ef7565b91505092915050565b7f63616c6c6572206d75737420626520696e7374727563746f72206f722064657360008201527f69676e6174656420544121000000000000000000000000000000000000000000602082015250565b6000610f95602b83610cda565b9150610fa082610f39565b604082019050919050565b60006020820190508181036000830152610fc481610f88565b9050919050565b7f4e487b7100000000000000000000000000000000000000000000000000000000600052602260045260246000fd5b6000600282049050600182168061101257607f821691505b60208210810361102557611024610fcb565b5b50919050565b60008190508160005260206000209050919050565b60006020601f8301049050919050565b600082821b905092915050565b60006008830261108d7fffffffffffffffffffffffffffffffffffffffffffffffffffffffffffffffff82611050565b6110978683611050565b95508019841693508086168417925050509392505050565b6000819050919050565b60006110d46110cf6110ca84610be6565b6110af565b610be6565b9050919050565b6000819050919050565b6110ee836110b9565b6111026110fa826110db565b84845461105d565b825550505050565b600090565b61111761110a565b6111228184846110e5565b505050565b5b818110156111465761113b60008261110f565b600181019050611128565b5050565b601f82111561118b5761115c8161102b565b61116584611040565b81016020851015611174578190505b61118861118085611040565b830182611127565b50505b505050565b600082821c905092915050565b60006111ae60001984600802611190565b1980831691505092915050565b60006111c7838361119d565b9150826002028217905092915050565b6111e082610ccf565b67ffffffffffffffff8111156111f9576111f8610abb565b5b6112038254610ffa565b61120e82828561114a565b600060209050601f831160018114611241576000841561122f578287015190505b61123985826111bb565b8655506112a1565b601f19841661124f8661102b565b60005b8281101561127757848901518255600182019150602085019450602081019050611252565b868310156112945784890151611290601f89168261119d565b8355505b6001600288020188555050505b505050505050565b7f4e487b7100000000000000000000000000000000000000000000000000000000600052601160045260246000fd5b60006112e382610be6565b91507fffffffffffffffffffffffffffffffffffffffffffffffffffffffffffffffff8203611315576113146112a9565b5b600182019050919050565b600081905092915050565b600061133682610ccf565b6113408185611320565b9350611350818560208601610ceb565b80840191505092915050565b6000611368828461132b565b915081905092915050565b600061137e82610be6565b915061138983610be6565b92508282019050808211156113a1576113a06112a9565b5b92915050565b7f4e487b7100000000000000000000000000000000000000000000000000000000600052601260045260246000fd5b60006113e182610be6565b91506113ec83610be6565b9250826113fc576113fb6113a7565b5b828204905092915050565b600061141282610be6565b915061141d83610be6565b925082820261142b81610be6565b91508282048414831517611442576114416112a9565b5b5092915050565b7f61737369676e6d656e74204944206d7573742062652076616c69640000000000600082015250565b600061147f601b83610cda565b915061148a82611449565b602082019050919050565b600060208201905081810360008301526114ae81611472565b9050919050565b7f73636f7265206d757374206265206c6f776572207468616e206f72206571756160008201527f6c20746f206d61782073636f7265000000000000000000000000000000000000602082015250565b6000611511602e83610cda565b915061151c826114b5565b604082019050919050565b6000602082019050818103600083015261154081611504565b9050919050565b7f6f6e6c7920696e7374727563746f722063616e2064657369676e61746520544160008201527f7300000000000000000000000000000000000000000000000000000000000000602082015250565b60006115a3602183610cda565b91506115ae82611547565b604082019050919050565b600060208201905081810360008301526115d281611596565b905091905056fea2646970667358221220ce0402cda6fe91df03a27d13c35acd77bc654bcd09328396d6fc1190e5a9a77464736f6c63430008120033",
					"opcodes": "PUSH1 0x80 PUSH1 0x40 MSTORE CALLVALUE DUP1 ISZERO PUSH2 0x10 JUMPI PUSH1 0x0 DUP1 REVERT JUMPDEST POP CALLER PUSH1 0x5 PUSH1 0x0 PUSH2 0x100 EXP DUP2 SLOAD DUP2 PUSH20 0xFFFFFFFFFFFFFFFFFFFFFFFFFFFFFFFFFFFFFFFF MUL NOT AND SWAP1 DUP4 PUSH20 0xFFFFFFFFFFFFFFFFFFFFFFFFFFFFFFFFFFFFFFFF AND MUL OR SWAP1 SSTORE POP PUSH2 0x160F DUP1 PUSH2 0x61 PUSH1 0x0 CODECOPY PUSH1 0x0 RETURN INVALID PUSH1 0x80 PUSH1 0x40 MSTORE CALLVALUE DUP1 ISZERO PUSH2 0x10 JUMPI PUSH1 0x0 DUP1 REVERT JUMPDEST POP PUSH1 0x4 CALLDATASIZE LT PUSH2 0xB4 JUMPI PUSH1 0x0 CALLDATALOAD PUSH1 0xE0 SHR DUP1 PUSH4 0x77CA2947 GT PUSH2 0x71 JUMPI DUP1 PUSH4 0x77CA2947 EQ PUSH2 0x1B3 JUMPI DUP1 PUSH4 0x7FC29673 EQ PUSH2 0x1E3 JUMPI DUP1 PUSH4 0x9CFEB679 EQ PUSH2 0x1ED JUMPI DUP1 PUSH4 0xA30254E7 EQ PUSH2 0x209 JUMPI DUP1 PUSH4 0xC7A9F77B EQ PUSH2 0x239 JUMPI DUP1 PUSH4 0xDFD68B91 EQ PUSH2 0x257 JUMPI PUSH2 0xB4 JUMP JUMPDEST DUP1 PUSH4 0x1FFC9A7 EQ PUSH2 0xB9 JUMPI DUP1 PUSH4 0x77F3B02 EQ PUSH2 0xE9 JUMPI DUP1 PUSH4 0x53ACF883 EQ PUSH2 0x119 JUMPI DUP1 PUSH4 0x65DD2F69 EQ PUSH2 0x149 JUMPI DUP1 PUSH4 0x71AE413D EQ PUSH2 0x179 JUMPI DUP1 PUSH4 0x7241D75F EQ PUSH2 0x197 JUMPI JUMPDEST PUSH1 0x0 DUP1 REVERT JUMPDEST PUSH2 0xD3 PUSH1 0x4 DUP1 CALLDATASIZE SUB DUP2 ADD SWAP1 PUSH2 0xCE SWAP2 SWAP1 PUSH2 0xA3D JUMP JUMPDEST PUSH2 0x287 JUMP JUMPDEST PUSH1 0x40 MLOAD PUSH2 0xE0 SWAP2 SWAP1 PUSH2 0xA85 JUMP JUMPDEST PUSH1 0x40 MLOAD DUP1 SWAP2 SUB SWAP1 RETURN JUMPDEST PUSH2 0x103 PUSH1 0x4 DUP1 CALLDATASIZE SUB DUP2 ADD SWAP1 PUSH2 0xFE SWAP2 SWAP1 PUSH2 0xC1C JUMP JUMPDEST PUSH2 0x321 JUMP JUMPDEST PUSH1 0x40 MLOAD PUSH2 0x110 SWAP2 SWAP1 PUSH2 0xC87 JUMP JUMPDEST PUSH1 0x40 MLOAD DUP1 SWAP2 SUB SWAP1 RETURN JUMPDEST PUSH2 0x133 PUSH1 0x4 DUP1 CALLDATASIZE SUB DUP2 ADD SWAP1 PUSH2 0x12E SWAP2 SWAP1 PUSH2 0xCA2 JUMP JUMPDEST PUSH2 0x493 JUMP JUMPDEST PUSH1 0x40 MLOAD PUSH2 0x140 SWAP2 SWAP1 PUSH2 0xD4E JUMP JUMPDEST PUSH1 0x40 MLOAD DUP1 SWAP2 SUB SWAP1 RETURN JUMPDEST PUSH2 0x163 PUSH1 0x4 DUP1 CALLDATASIZE SUB DUP2 ADD SWAP1 PUSH2 0x15E SWAP2 SWAP1 PUSH2 0xD70 JUMP JUMPDEST PUSH2 0x533 JUMP JUMPDEST PUSH1 0x40 MLOAD PUSH2 0x170 SWAP2 SWAP1 PUSH2 0xC87 JUMP JUMPDEST PUSH1 0x40 MLOAD DUP1 SWAP2 SUB SWAP1 RETURN JUMPDEST PUSH2 0x181 PUSH2 0x5FE JUMP JUMPDEST PUSH1 0x40 MLOAD PUSH2 0x18E SWAP2 SWAP1 PUSH2 0xDFA JUMP JUMPDEST PUSH1 0x40 MLOAD DUP1 SWAP2 SUB SWAP1 RETURN JUMPDEST PUSH2 0x1B1 PUSH1 0x4 DUP1 CALLDATASIZE SUB DUP2 ADD SWAP1 PUSH2 0x1AC SWAP2 SWAP1 PUSH2 0xE15 JUMP JUMPDEST PUSH2 0x624 JUMP JUMPDEST STOP JUMPDEST PUSH2 0x1CD PUSH1 0x4 DUP1 CALLDATASIZE SUB DUP2 ADD SWAP1 PUSH2 0x1C8 SWAP2 SWAP1 PUSH2 0xE84 JUMP JUMPDEST PUSH2 0x815 JUMP JUMPDEST PUSH1 0x40 MLOAD PUSH2 0x1DA SWAP2 SWAP1 PUSH2 0xC87 JUMP JUMPDEST PUSH1 0x40 MLOAD DUP1 SWAP2 SUB SWAP1 RETURN JUMPDEST PUSH2 0x1EB PUSH2 0x850 JUMP JUMPDEST STOP JUMPDEST PUSH2 0x207 PUSH1 0x4 DUP1 CALLDATASIZE SUB DUP2 ADD SWAP1 PUSH2 0x202 SWAP2 SWAP1 PUSH2 0xF0C JUMP JUMPDEST PUSH2 0x8A9 JUMP JUMPDEST STOP JUMPDEST PUSH2 0x223 PUSH1 0x4 DUP1 CALLDATASIZE SUB DUP2 ADD SWAP1 PUSH2 0x21E SWAP2 SWAP1 PUSH2 0xF0C JUMP JUMPDEST PUSH2 0x993 JUMP JUMPDEST PUSH1 0x40 MLOAD PUSH2 0x230 SWAP2 SWAP1 PUSH2 0xA85 JUMP JUMPDEST PUSH1 0x40 MLOAD DUP1 SWAP2 SUB SWAP1 RETURN JUMPDEST PUSH2 0x241 PUSH2 0x9B3 JUMP JUMPDEST PUSH1 0x40 MLOAD PUSH2 0x24E SWAP2 SWAP1 PUSH2 0xC87 JUMP JUMPDEST PUSH1 0x40 MLOAD DUP1 SWAP2 SUB SWAP1 RETURN JUMPDEST PUSH2 0x271 PUSH1 0x4 DUP1 CALLDATASIZE SUB DUP2 ADD SWAP1 PUSH2 0x26C SWAP2 SWAP1 PUSH2 0xCA2 JUMP JUMPDEST PUSH2 0x9B9 JUMP JUMPDEST PUSH1 0x40 MLOAD PUSH2 0x27E SWAP2 SWAP1 PUSH2 0xC87 JUMP JUMPDEST PUSH1 0x40 MLOAD DUP1 SWAP2 SUB SWAP1 RETURN JUMPDEST PUSH1 0x0 PUSH32 0x1C95926D00000000000000000000000000000000000000000000000000000000 PUSH28 0xFFFFFFFFFFFFFFFFFFFFFFFFFFFFFFFFFFFFFFFFFFFFFFFFFFFFFFFF NOT AND DUP3 PUSH28 0xFFFFFFFFFFFFFFFFFFFFFFFFFFFFFFFFFFFFFFFFFFFFFFFFFFFFFFFF NOT AND EQ DUP1 PUSH2 0x31A JUMPI POP PUSH4 0x1FFC9A7 PUSH1 0xE0 SHL DUP3 PUSH28 0xFFFFFFFFFFFFFFFFFFFFFFFFFFFFFFFFFFFFFFFFFFFFFFFFFFFFFFFF NOT AND EQ JUMPDEST SWAP1 POP SWAP2 SWAP1 POP JUMP JUMPDEST PUSH1 0x0 PUSH1 0x5 PUSH1 0x0 SWAP1 SLOAD SWAP1 PUSH2 0x100 EXP SWAP1 DIV PUSH20 0xFFFFFFFFFFFFFFFFFFFFFFFFFFFFFFFFFFFFFFFF AND PUSH20 0xFFFFFFFFFFFFFFFFFFFFFFFFFFFFFFFFFFFFFFFF AND CALLER PUSH20 0xFFFFFFFFFFFFFFFFFFFFFFFFFFFFFFFFFFFFFFFF AND EQ DUP1 PUSH2 0x3C8 JUMPI POP PUSH1 0x1 PUSH1 0x0 CALLER PUSH20 0xFFFFFFFFFFFFFFFFFFFFFFFFFFFFFFFFFFFFFFFF AND PUSH20 0xFFFFFFFFFFFFFFFFFFFFFFFFFFFFFFFFFFFFFFFF AND DUP2 MSTORE PUSH1 0x20 ADD SWAP1 DUP2 MSTORE PUSH1 0x20 ADD PUSH1 0x0 KECCAK256 PUSH1 0x0 SWAP1 SLOAD SWAP1 PUSH2 0x100 EXP SWAP1 DIV PUSH1 0xFF AND JUMPDEST PUSH2 0x407 JUMPI PUSH1 0x40 MLOAD PUSH32 0x8C379A000000000000000000000000000000000000000000000000000000000 DUP2 MSTORE PUSH1 0x4 ADD PUSH2 0x3FE SWAP1 PUSH2 0xFAB JUMP JUMPDEST PUSH1 0x40 MLOAD DUP1 SWAP2 SUB SWAP1 REVERT JUMPDEST DUP3 PUSH1 0x4 PUSH1 0x0 DUP1 SLOAD DUP2 MSTORE PUSH1 0x20 ADD SWAP1 DUP2 MSTORE PUSH1 0x20 ADD PUSH1 0x0 KECCAK256 SWAP1 DUP2 PUSH2 0x428 SWAP2 SWAP1 PUSH2 0x11D7 JUMP JUMPDEST POP DUP2 PUSH1 0x3 PUSH1 0x0 DUP1 SLOAD DUP2 MSTORE PUSH1 0x20 ADD SWAP1 DUP2 MSTORE PUSH1 0x20 ADD PUSH1 0x0 KECCAK256 DUP2 SWAP1 SSTORE POP PUSH1 0x0 SLOAD PUSH32 0x1E5500EDE7EC81CD4D6537A1A618F3424510F89D03C2252EE7C80E60A1278B67 PUSH1 0x40 MLOAD PUSH1 0x40 MLOAD DUP1 SWAP2 SUB SWAP1 LOG2 PUSH1 0x0 DUP1 DUP2 SLOAD DUP1 SWAP3 SWAP2 SWAP1 PUSH2 0x483 SWAP1 PUSH2 0x12D8 JUMP JUMPDEST SWAP2 SWAP1 POP SSTORE POP PUSH1 0x0 SLOAD SWAP1 POP SWAP3 SWAP2 POP POP JUMP JUMPDEST PUSH1 0x4 PUSH1 0x20 MSTORE DUP1 PUSH1 0x0 MSTORE PUSH1 0x40 PUSH1 0x0 KECCAK256 PUSH1 0x0 SWAP2 POP SWAP1 POP DUP1 SLOAD PUSH2 0x4B2 SWAP1 PUSH2 0xFFA JUMP JUMPDEST DUP1 PUSH1 0x1F ADD PUSH1 0x20 DUP1 SWAP2 DIV MUL PUSH1 0x20 ADD PUSH1 0x40 MLOAD SWAP1 DUP2 ADD PUSH1 0x40 MSTORE DUP1 SWAP3 SWAP2 SWAP1 DUP2 DUP2 MSTORE PUSH1 0x20 ADD DUP3 DUP1 SLOAD PUSH2 0x4DE SWAP1 PUSH2 0xFFA JUMP JUMPDEST DUP1 ISZERO PUSH2 0x52B JUMPI DUP1 PUSH1 0x1F LT PUSH2 0x500 JUMPI PUSH2 0x100 DUP1 DUP4 SLOAD DIV MUL DUP4 MSTORE SWAP2 PUSH1 0x20 ADD SWAP2 PUSH2 0x52B JUMP JUMPDEST DUP3 ADD SWAP2 SWAP1 PUSH1 0x0 MSTORE PUSH1 0x20 PUSH1 0x0 KECCAK256 SWAP1 JUMPDEST DUP2 SLOAD DUP2 MSTORE SWAP1 PUSH1 0x1 ADD SWAP1 PUSH1 0x20 ADD DUP1 DUP4 GT PUSH2 0x50E JUMPI DUP3 SWAP1 SUB PUSH1 0x1F AND DUP3 ADD SWAP2 JUMPDEST POP POP POP POP POP DUP2 JUMP JUMPDEST PUSH1 0x0 DUP1 PUSH1 0x0 SWAP1 POP PUSH1 0x0 DUP1 PUSH1 0x0 JUMPDEST PUSH1 0x0 SLOAD DUP3 LT ISZERO PUSH2 0x5DB JUMPI PUSH1 0x0 PUSH1 0x2 PUSH1 0x0 DUP5 DUP2 MSTORE PUSH1 0x20 ADD SWAP1 DUP2 MSTORE PUSH1 0x20 ADD PUSH1 0x0 KECCAK256 DUP8 PUSH1 0x40 MLOAD PUSH2 0x56D SWAP2 SWAP1 PUSH2 0x135C JUMP JUMPDEST SWAP1 DUP2 MSTORE PUSH1 0x20 ADD PUSH1 0x40 MLOAD DUP1 SWAP2 SUB SWAP1 KECCAK256 SLOAD SWAP1 POP PUSH1 0x0 DUP2 GT ISZERO PUSH2 0x5C6 JUMPI PUSH1 0x1 DUP3 PUSH2 0x594 SWAP2 SWAP1 PUSH2 0x1373 JUMP JUMPDEST SWAP2 POP PUSH1 0x3 PUSH1 0x0 DUP5 DUP2 MSTORE PUSH1 0x20 ADD SWAP1 DUP2 MSTORE PUSH1 0x20 ADD PUSH1 0x0 KECCAK256 SLOAD DUP5 PUSH2 0x5B5 SWAP2 SWAP1 PUSH2 0x1373 JUMP JUMPDEST SWAP4 POP DUP1 DUP6 PUSH2 0x5C3 SWAP2 SWAP1 PUSH2 0x1373 JUMP JUMPDEST SWAP5 POP JUMPDEST PUSH1 0x1 DUP4 PUSH2 0x5D3 SWAP2 SWAP1 PUSH2 0x1373 JUMP JUMPDEST SWAP3 POP POP PUSH2 0x540 JUMP JUMPDEST PUSH1 0x64 DUP2 DUP6 PUSH2 0x5E9 SWAP2 SWAP1 PUSH2 0x13D6 JUMP JUMPDEST PUSH2 0x5F3 SWAP2 SWAP1 PUSH2 0x1407 JUMP JUMPDEST SWAP5 POP POP POP POP POP SWAP2 SWAP1 POP JUMP JUMPDEST PUSH1 0x5 PUSH1 0x0 SWAP1 SLOAD SWAP1 PUSH2 0x100 EXP SWAP1 DIV PUSH20 0xFFFFFFFFFFFFFFFFFFFFFFFFFFFFFFFFFFFFFFFF AND DUP2 JUMP JUMPDEST PUSH1 0x5 PUSH1 0x0 SWAP1 SLOAD SWAP1 PUSH2 0x100 EXP SWAP1 DIV PUSH20 0xFFFFFFFFFFFFFFFFFFFFFFFFFFFFFFFFFFFFFFFF AND PUSH20 0xFFFFFFFFFFFFFFFFFFFFFFFFFFFFFFFFFFFFFFFF AND CALLER PUSH20 0xFFFFFFFFFFFFFFFFFFFFFFFFFFFFFFFFFFFFFFFF AND EQ DUP1 PUSH2 0x6C9 JUMPI POP PUSH1 0x1 PUSH1 0x0 CALLER PUSH20 0xFFFFFFFFFFFFFFFFFFFFFFFFFFFFFFFFFFFFFFFF AND PUSH20 0xFFFFFFFFFFFFFFFFFFFFFFFFFFFFFFFFFFFFFFFF AND DUP2 MSTORE PUSH1 0x20 ADD SWAP1 DUP2 MSTORE PUSH1 0x20 ADD PUSH1 0x0 KECCAK256 PUSH1 0x0 SWAP1 SLOAD SWAP1 PUSH2 0x100 EXP SWAP1 DIV PUSH1 0xFF AND JUMPDEST PUSH2 0x708 JUMPI PUSH1 0x40 MLOAD PUSH32 0x8C379A000000000000000000000000000000000000000000000000000000000 DUP2 MSTORE PUSH1 0x4 ADD PUSH2 0x6FF SWAP1 PUSH2 0xFAB JUMP JUMPDEST PUSH1 0x40 MLOAD DUP1 SWAP2 SUB SWAP1 REVERT JUMPDEST PUSH1 0x0 DUP3 LT ISZERO DUP1 ISZERO PUSH2 0x71A JUMPI POP PUSH1 0x0 SLOAD DUP3 LT JUMPDEST PUSH2 0x759 JUMPI PUSH1 0x40 MLOAD PUSH32 0x8C379A000000000000000000000000000000000000000000000000000000000 DUP2 MSTORE PUSH1 0x4 ADD PUSH2 0x750 SWAP1 PUSH2 0x1495 JUMP JUMPDEST PUSH1 0x40 MLOAD DUP1 SWAP2 SUB SWAP1 REVERT JUMPDEST PUSH1 0x3 PUSH1 0x0 DUP4 DUP2 MSTORE PUSH1 0x20 ADD SWAP1 DUP2 MSTORE PUSH1 0x20 ADD PUSH1 0x0 KECCAK256 SLOAD DUP2 GT ISZERO PUSH2 0x7AF JUMPI PUSH1 0x40 MLOAD PUSH32 0x8C379A000000000000000000000000000000000000000000000000000000000 DUP2 MSTORE PUSH1 0x4 ADD PUSH2 0x7A6 SWAP1 PUSH2 0x1527 JUMP JUMPDEST PUSH1 0x40 MLOAD DUP1 SWAP2 SUB SWAP1 REVERT JUMPDEST DUP2 PUSH32 0xEF2AC44E203202A0E5ECC9974197E85354C58FC899E46EAA72F8AED9AA0B701D PUSH1 0x40 MLOAD PUSH1 0x40 MLOAD DUP1 SWAP2 SUB SWAP1 LOG2 DUP1 PUSH1 0x2 PUSH1 0x0 DUP5 DUP2 MSTORE PUSH1 0x20 ADD SWAP1 DUP2 MSTORE PUSH1 0x20 ADD PUSH1 0x0 KECCAK256 DUP5 PUSH1 0x40 MLOAD PUSH2 0x7FE SWAP2 SWAP1 PUSH2 0x135C JUMP JUMPDEST SWAP1 DUP2 MSTORE PUSH1 0x20 ADD PUSH1 0x40 MLOAD DUP1 SWAP2 SUB SWAP1 KECCAK256 DUP2 SWAP1 SSTORE POP POP POP POP JUMP JUMPDEST PUSH1 0x2 PUSH1 0x20 MSTORE DUP2 PUSH1 0x0 MSTORE PUSH1 0x40 PUSH1 0x0 KECCAK256 DUP2 DUP1 MLOAD PUSH1 0x20 DUP2 ADD DUP3 ADD DUP1 MLOAD DUP5 DUP3 MSTORE PUSH1 0x20 DUP4 ADD PUSH1 0x20 DUP6 ADD KECCAK256 DUP2 DUP4 MSTORE DUP1 SWAP6 POP POP POP POP POP POP PUSH1 0x0 SWAP2 POP SWAP2 POP POP SLOAD DUP2 JUMP JUMPDEST PUSH1 0x1 DUP1 PUSH1 0x0 CALLER PUSH20 0xFFFFFFFFFFFFFFFFFFFFFFFFFFFFFFFFFFFFFFFF AND PUSH20 0xFFFFFFFFFFFFFFFFFFFFFFFFFFFFFFFFFFFFFFFF AND DUP2 MSTORE PUSH1 0x20 ADD SWAP1 DUP2 MSTORE PUSH1 0x20 ADD PUSH1 0x0 KECCAK256 PUSH1 0x0 PUSH2 0x100 EXP DUP2 SLOAD DUP2 PUSH1 0xFF MUL NOT AND SWAP1 DUP4 ISZERO ISZERO MUL OR SWAP1 SSTORE POP JUMP JUMPDEST PUSH1 0x5 PUSH1 0x0 SWAP1 SLOAD SWAP1 PUSH2 0x100 EXP SWAP1 DIV PUSH20 0xFFFFFFFFFFFFFFFFFFFFFFFFFFFFFFFFFFFFFFFF AND PUSH20 0xFFFFFFFFFFFFFFFFFFFFFFFFFFFFFFFFFFFFFFFF AND CALLER PUSH20 0xFFFFFFFFFFFFFFFFFFFFFFFFFFFFFFFFFFFFFFFF AND EQ PUSH2 0x939 JUMPI PUSH1 0x40 MLOAD PUSH32 0x8C379A000000000000000000000000000000000000000000000000000000000 DUP2 MSTORE PUSH1 0x4 ADD PUSH2 0x930 SWAP1 PUSH2 0x15B9 JUMP JUMPDEST PUSH1 0x40 MLOAD DUP1 SWAP2 SUB SWAP1 REVERT JUMPDEST PUSH1 0x1 DUP1 PUSH1 0x0 DUP4 PUSH20 0xFFFFFFFFFFFFFFFFFFFFFFFFFFFFFFFFFFFFFFFF AND PUSH20 0xFFFFFFFFFFFFFFFFFFFFFFFFFFFFFFFFFFFFFFFF AND DUP2 MSTORE PUSH1 0x20 ADD SWAP1 DUP2 MSTORE PUSH1 0x20 ADD PUSH1 0x0 KECCAK256 PUSH1 0x0 PUSH2 0x100 EXP DUP2 SLOAD DUP2 PUSH1 0xFF MUL NOT AND SWAP1 DUP4 ISZERO ISZERO MUL OR SWAP1 SSTORE POP POP JUMP JUMPDEST PUSH1 0x1 PUSH1 0x20 MSTORE DUP1 PUSH1 0x0 MSTORE PUSH1 0x40 PUSH1 0x0 KECCAK256 PUSH1 0x0 SWAP2 POP SLOAD SWAP1 PUSH2 0x100 EXP SWAP1 DIV PUSH1 0xFF AND DUP2 JUMP JUMPDEST PUSH1 0x0 SLOAD DUP2 JUMP JUMPDEST PUSH1 0x3 PUSH1 0x20 MSTORE DUP1 PUSH1 0x0 MSTORE PUSH1 0x40 PUSH1 0x0 KECCAK256 PUSH1 0x0 SWAP2 POP SWAP1 POP SLOAD DUP2 JUMP JUMPDEST PUSH1 0x0 PUSH1 0x40 MLOAD SWAP1 POP SWAP1 JUMP JUMPDEST PUSH1 0x0 DUP1 REVERT JUMPDEST PUSH1 0x0 DUP1 REVERT JUMPDEST PUSH1 0x0 PUSH32 0xFFFFFFFF00000000000000000000000000000000000000000000000000000000 DUP3 AND SWAP1 POP SWAP2 SWAP1 POP JUMP JUMPDEST PUSH2 0xA1A DUP2 PUSH2 0x9E5 JUMP JUMPDEST DUP2 EQ PUSH2 0xA25 JUMPI PUSH1 0x0 DUP1 REVERT JUMPDEST POP JUMP JUMPDEST PUSH1 0x0 DUP2 CALLDATALOAD SWAP1 POP PUSH2 0xA37 DUP2 PUSH2 0xA11 JUMP JUMPDEST SWAP3 SWAP2 POP POP JUMP JUMPDEST PUSH1 0x0 PUSH1 0x20 DUP3 DUP5 SUB SLT ISZERO PUSH2 0xA53 JUMPI PUSH2 0xA52 PUSH2 0x9DB JUMP JUMPDEST JUMPDEST PUSH1 0x0 PUSH2 0xA61 DUP5 DUP3 DUP6 ADD PUSH2 0xA28 JUMP JUMPDEST SWAP2 POP POP SWAP3 SWAP2 POP POP JUMP JUMPDEST PUSH1 0x0 DUP2 ISZERO ISZERO SWAP1 POP SWAP2 SWAP1 POP JUMP JUMPDEST PUSH2 0xA7F DUP2 PUSH2 0xA6A JUMP JUMPDEST DUP3 MSTORE POP POP JUMP JUMPDEST PUSH1 0x0 PUSH1 0x20 DUP3 ADD SWAP1 POP PUSH2 0xA9A PUSH1 0x0 DUP4 ADD DUP5 PUSH2 0xA76 JUMP JUMPDEST SWAP3 SWAP2 POP POP JUMP JUMPDEST PUSH1 0x0 DUP1 REVERT JUMPDEST PUSH1 0x0 DUP1 REVERT JUMPDEST PUSH1 0x0 PUSH1 0x1F NOT PUSH1 0x1F DUP4 ADD AND SWAP1 POP SWAP2 SWAP1 POP JUMP JUMPDEST PUSH32 0x4E487B7100000000000000000000000000000000000000000000000000000000 PUSH1 0x0 MSTORE PUSH1 0x41 PUSH1 0x4 MSTORE PUSH1 0x24 PUSH1 0x0 REVERT JUMPDEST PUSH2 0xAF3 DUP3 PUSH2 0xAAA JUMP JUMPDEST DUP2 ADD DUP2 DUP2 LT PUSH8 0xFFFFFFFFFFFFFFFF DUP3 GT OR ISZERO PUSH2 0xB12 JUMPI PUSH2 0xB11 PUSH2 0xABB JUMP JUMPDEST JUMPDEST DUP1 PUSH1 0x40 MSTORE POP POP POP JUMP JUMPDEST PUSH1 0x0 PUSH2 0xB25 PUSH2 0x9D1 JUMP JUMPDEST SWAP1 POP PUSH2 0xB31 DUP3 DUP3 PUSH2 0xAEA JUMP JUMPDEST SWAP2 SWAP1 POP JUMP JUMPDEST PUSH1 0x0 PUSH8 0xFFFFFFFFFFFFFFFF DUP3 GT ISZERO PUSH2 0xB51 JUMPI PUSH2 0xB50 PUSH2 0xABB JUMP JUMPDEST JUMPDEST PUSH2 0xB5A DUP3 PUSH2 0xAAA JUMP JUMPDEST SWAP1 POP PUSH1 0x20 DUP2 ADD SWAP1 POP SWAP2 SWAP1 POP JUMP JUMPDEST DUP3 DUP2 DUP4 CALLDATACOPY PUSH1 0x0 DUP4 DUP4 ADD MSTORE POP POP POP JUMP JUMPDEST PUSH1 0x0 PUSH2 0xB89 PUSH2 0xB84 DUP5 PUSH2 0xB36 JUMP JUMPDEST PUSH2 0xB1B JUMP JUMPDEST SWAP1 POP DUP3 DUP2 MSTORE PUSH1 0x20 DUP2 ADD DUP5 DUP5 DUP5 ADD GT ISZERO PUSH2 0xBA5 JUMPI PUSH2 0xBA4 PUSH2 0xAA5 JUMP JUMPDEST JUMPDEST PUSH2 0xBB0 DUP5 DUP3 DUP6 PUSH2 0xB67 JUMP JUMPDEST POP SWAP4 SWAP3 POP POP POP JUMP JUMPDEST PUSH1 0x0 DUP3 PUSH1 0x1F DUP4 ADD SLT PUSH2 0xBCD JUMPI PUSH2 0xBCC PUSH2 0xAA0 JUMP JUMPDEST JUMPDEST DUP2 CALLDATALOAD PUSH2 0xBDD DUP5 DUP3 PUSH1 0x20 DUP7 ADD PUSH2 0xB76 JUMP JUMPDEST SWAP2 POP POP SWAP3 SWAP2 POP POP JUMP JUMPDEST PUSH1 0x0 DUP2 SWAP1 POP SWAP2 SWAP1 POP JUMP JUMPDEST PUSH2 0xBF9 DUP2 PUSH2 0xBE6 JUMP JUMPDEST DUP2 EQ PUSH2 0xC04 JUMPI PUSH1 0x0 DUP1 REVERT JUMPDEST POP JUMP JUMPDEST PUSH1 0x0 DUP2 CALLDATALOAD SWAP1 POP PUSH2 0xC16 DUP2 PUSH2 0xBF0 JUMP JUMPDEST SWAP3 SWAP2 POP POP JUMP JUMPDEST PUSH1 0x0 DUP1 PUSH1 0x40 DUP4 DUP6 SUB SLT ISZERO PUSH2 0xC33 JUMPI PUSH2 0xC32 PUSH2 0x9DB JUMP JUMPDEST JUMPDEST PUSH1 0x0 DUP4 ADD CALLDATALOAD PUSH8 0xFFFFFFFFFFFFFFFF DUP2 GT ISZERO PUSH2 0xC51 JUMPI PUSH2 0xC50 PUSH2 0x9E0 JUMP JUMPDEST JUMPDEST PUSH2 0xC5D DUP6 DUP3 DUP7 ADD PUSH2 0xBB8 JUMP JUMPDEST SWAP3 POP POP PUSH1 0x20 PUSH2 0xC6E DUP6 DUP3 DUP7 ADD PUSH2 0xC07 JUMP JUMPDEST SWAP2 POP POP SWAP3 POP SWAP3 SWAP1 POP JUMP JUMPDEST PUSH2 0xC81 DUP2 PUSH2 0xBE6 JUMP JUMPDEST DUP3 MSTORE POP POP JUMP JUMPDEST PUSH1 0x0 PUSH1 0x20 DUP3 ADD SWAP1 POP PUSH2 0xC9C PUSH1 0x0 DUP4 ADD DUP5 PUSH2 0xC78 JUMP JUMPDEST SWAP3 SWAP2 POP POP JUMP JUMPDEST PUSH1 0x0 PUSH1 0x20 DUP3 DUP5 SUB SLT ISZERO PUSH2 0xCB8 JUMPI PUSH2 0xCB7 PUSH2 0x9DB JUMP JUMPDEST JUMPDEST PUSH1 0x0 PUSH2 0xCC6 DUP5 DUP3 DUP6 ADD PUSH2 0xC07 JUMP JUMPDEST SWAP2 POP POP SWAP3 SWAP2 POP POP JUMP JUMPDEST PUSH1 0x0 DUP2 MLOAD SWAP1 POP SWAP2 SWAP1 POP JUMP JUMPDEST PUSH1 0x0 DUP3 DUP3 MSTORE PUSH1 0x20 DUP3 ADD SWAP1 POP SWAP3 SWAP2 POP POP JUMP JUMPDEST PUSH1 0x0 JUMPDEST DUP4 DUP2 LT ISZERO PUSH2 0xD09 JUMPI DUP1 DUP3 ADD MLOAD DUP2 DUP5 ADD MSTORE PUSH1 0x20 DUP2 ADD SWAP1 POP PUSH2 0xCEE JUMP JUMPDEST PUSH1 0x0 DUP5 DUP5 ADD MSTORE POP POP POP POP JUMP JUMPDEST PUSH1 0x0 PUSH2 0xD20 DUP3 PUSH2 0xCCF JUMP JUMPDEST PUSH2 0xD2A DUP2 DUP6 PUSH2 0xCDA JUMP JUMPDEST SWAP4 POP PUSH2 0xD3A DUP2 DUP6 PUSH1 0x20 DUP7 ADD PUSH2 0xCEB JUMP JUMPDEST PUSH2 0xD43 DUP2 PUSH2 0xAAA JUMP JUMPDEST DUP5 ADD SWAP2 POP POP SWAP3 SWAP2 POP POP JUMP JUMPDEST PUSH1 0x0 PUSH1 0x20 DUP3 ADD SWAP1 POP DUP2 DUP2 SUB PUSH1 0x0 DUP4 ADD MSTORE PUSH2 0xD68 DUP2 DUP5 PUSH2 0xD15 JUMP JUMPDEST SWAP1 POP SWAP3 SWAP2 POP POP JUMP JUMPDEST PUSH1 0x0 PUSH1 0x20 DUP3 DUP5 SUB SLT ISZERO PUSH2 0xD86 JUMPI PUSH2 0xD85 PUSH2 0x9DB JUMP JUMPDEST JUMPDEST PUSH1 0x0 DUP3 ADD CALLDATALOAD PUSH8 0xFFFFFFFFFFFFFFFF DUP2 GT ISZERO PUSH2 0xDA4 JUMPI PUSH2 0xDA3 PUSH2 0x9E0 JUMP JUMPDEST JUMPDEST PUSH2 0xDB0 DUP5 DUP3 DUP6 ADD PUSH2 0xBB8 JUMP JUMPDEST SWAP2 POP POP SWAP3 SWAP2 POP POP JUMP JUMPDEST PUSH1 0x0 PUSH20 0xFFFFFFFFFFFFFFFFFFFFFFFFFFFFFFFFFFFFFFFF DUP3 AND SWAP1 POP SWAP2 SWAP1 POP JUMP JUMPDEST PUSH1 0x0 PUSH2 0xDE4 DUP3 PUSH2 0xDB9 JUMP JUMPDEST SWAP1 POP SWAP2 SWAP1 POP JUMP JUMPDEST PUSH2 0xDF4 DUP2 PUSH2 0xDD9 JUMP JUMPDEST DUP3 MSTORE POP POP JUMP JUMPDEST PUSH1 0x0 PUSH1 0x20 DUP3 ADD SWAP1 POP PUSH2 0xE0F PUSH1 0x0 DUP4 ADD DUP5 PUSH2 0xDEB JUMP JUMPDEST SWAP3 SWAP2 POP POP JUMP JUMPDEST PUSH1 0x0 DUP1 PUSH1 0x0 PUSH1 0x60 DUP5 DUP7 SUB SLT ISZERO PUSH2 0xE2E JUMPI PUSH2 0xE2D PUSH2 0x9DB JUMP JUMPDEST JUMPDEST PUSH1 0x0 DUP5 ADD CALLDATALOAD PUSH8 0xFFFFFFFFFFFFFFFF DUP2 GT ISZERO PUSH2 0xE4C JUMPI PUSH2 0xE4B PUSH2 0x9E0 JUMP JUMPDEST JUMPDEST PUSH2 0xE58 DUP7 DUP3 DUP8 ADD PUSH2 0xBB8 JUMP JUMPDEST SWAP4 POP POP PUSH1 0x20 PUSH2 0xE69 DUP7 DUP3 DUP8 ADD PUSH2 0xC07 JUMP JUMPDEST SWAP3 POP POP PUSH1 0x40 PUSH2 0xE7A DUP7 DUP3 DUP8 ADD PUSH2 0xC07 JUMP JUMPDEST SWAP2 POP POP SWAP3 POP SWAP3 POP SWAP3 JUMP JUMPDEST PUSH1 0x0 DUP1 PUSH1 0x40 DUP4 DUP6 SUB SLT ISZERO PUSH2 0xE9B JUMPI PUSH2 0xE9A PUSH2 0x9DB JUMP JUMPDEST JUMPDEST PUSH1 0x0 PUSH2 0xEA9 DUP6 DUP3 DUP7 ADD PUSH2 0xC07 JUMP JUMPDEST SWAP3 POP POP PUSH1 0x20 DUP4 ADD CALLDATALOAD PUSH8 0xFFFFFFFFFFFFFFFF DUP2 GT ISZERO PUSH2 0xECA JUMPI PUSH2 0xEC9 PUSH2 0x9E0 JUMP JUMPDEST JUMPDEST PUSH2 0xED6 DUP6 DUP3 DUP7 ADD PUSH2 0xBB8 JUMP JUMPDEST SWAP2 POP POP SWAP3 POP SWAP3 SWAP1 POP JUMP JUMPDEST PUSH2 0xEE9 DUP2 PUSH2 0xDD9 JUMP JUMPDEST DUP2 EQ PUSH2 0xEF4 JUMPI PUSH1 0x0 DUP1 REVERT JUMPDEST POP JUMP JUMPDEST PUSH1 0x0 DUP2 CALLDATALOAD SWAP1 POP PUSH2 0xF06 DUP2 PUSH2 0xEE0 JUMP JUMPDEST SWAP3 SWAP2 POP POP JUMP JUMPDEST PUSH1 0x0 PUSH1 0x20 DUP3 DUP5 SUB SLT ISZERO PUSH2 0xF22 JUMPI PUSH2 0xF21 PUSH2 0x9DB JUMP JUMPDEST JUMPDEST PUSH1 0x0 PUSH2 0xF30 DUP5 DUP3 DUP6 ADD PUSH2 0xEF7 JUMP JUMPDEST SWAP2 POP POP SWAP3 SWAP2 POP POP JUMP JUMPDEST PUSH32 0x63616C6C6572206D75737420626520696E7374727563746F72206F7220646573 PUSH1 0x0 DUP3 ADD MSTORE PUSH32 0x69676E6174656420544121000000000000000000000000000000000000000000 PUSH1 0x20 DUP3 ADD MSTORE POP JUMP JUMPDEST PUSH1 0x0 PUSH2 0xF95 PUSH1 0x2B DUP4 PUSH2 0xCDA JUMP JUMPDEST SWAP2 POP PUSH2 0xFA0 DUP3 PUSH2 0xF39 JUMP JUMPDEST PUSH1 0x40 DUP3 ADD SWAP1 POP SWAP2 SWAP1 POP JUMP JUMPDEST PUSH1 0x0 PUSH1 0x20 DUP3 ADD SWAP1 POP DUP2 DUP2 SUB PUSH1 0x0 DUP4 ADD MSTORE PUSH2 0xFC4 DUP2 PUSH2 0xF88 JUMP JUMPDEST SWAP1 POP SWAP2 SWAP1 POP JUMP JUMPDEST PUSH32 0x4E487B7100000000000000000000000000000000000000000000000000000000 PUSH1 0x0 MSTORE PUSH1 0x22 PUSH1 0x4 MSTORE PUSH1 0x24 PUSH1 0x0 REVERT JUMPDEST PUSH1 0x0 PUSH1 0x2 DUP3 DIV SWAP1 POP PUSH1 0x1 DUP3 AND DUP1 PUSH2 0x1012 JUMPI PUSH1 0x7F DUP3 AND SWAP2 POP JUMPDEST PUSH1 0x20 DUP3 LT DUP2 SUB PUSH2 0x1025 JUMPI PUSH2 0x1024 PUSH2 0xFCB JUMP JUMPDEST JUMPDEST POP SWAP2 SWAP1 POP JUMP JUMPDEST PUSH1 0x0 DUP2 SWAP1 POP DUP2 PUSH1 0x0 MSTORE PUSH1 0x20 PUSH1 0x0 KECCAK256 SWAP1 POP SWAP2 SWAP1 POP JUMP JUMPDEST PUSH1 0x0 PUSH1 0x20 PUSH1 0x1F DUP4 ADD DIV SWAP1 POP SWAP2 SWAP1 POP JUMP JUMPDEST PUSH1 0x0 DUP3 DUP3 SHL SWAP1 POP SWAP3 SWAP2 POP POP JUMP JUMPDEST PUSH1 0x0 PUSH1 0x8 DUP4 MUL PUSH2 0x108D PUSH32 0xFFFFFFFFFFFFFFFFFFFFFFFFFFFFFFFFFFFFFFFFFFFFFFFFFFFFFFFFFFFFFFFF DUP3 PUSH2 0x1050 JUMP JUMPDEST PUSH2 0x1097 DUP7 DUP4 PUSH2 0x1050 JUMP JUMPDEST SWAP6 POP DUP1 NOT DUP5 AND SWAP4 POP DUP1 DUP7 AND DUP5 OR SWAP3 POP POP POP SWAP4 SWAP3 POP POP POP JUMP JUMPDEST PUSH1 0x0 DUP2 SWAP1 POP SWAP2 SWAP1 POP JUMP JUMPDEST PUSH1 0x0 PUSH2 0x10D4 PUSH2 0x10CF PUSH2 0x10CA DUP5 PUSH2 0xBE6 JUMP JUMPDEST PUSH2 0x10AF JUMP JUMPDEST PUSH2 0xBE6 JUMP JUMPDEST SWAP1 POP SWAP2 SWAP1 POP JUMP JUMPDEST PUSH1 0x0 DUP2 SWAP1 POP SWAP2 SWAP1 POP JUMP JUMPDEST PUSH2 0x10EE DUP4 PUSH2 0x10B9 JUMP JUMPDEST PUSH2 0x1102 PUSH2 0x10FA DUP3 PUSH2 0x10DB JUMP JUMPDEST DUP5 DUP5 SLOAD PUSH2 0x105D JUMP JUMPDEST DUP3 SSTORE POP POP POP POP JUMP JUMPDEST PUSH1 0x0 SWAP1 JUMP JUMPDEST PUSH2 0x1117 PUSH2 0x110A JUMP JUMPDEST PUSH2 0x1122 DUP2 DUP5 DUP5 PUSH2 0x10E5 JUMP JUMPDEST POP POP POP JUMP JUMPDEST JUMPDEST DUP2 DUP2 LT ISZERO PUSH2 0x1146 JUMPI PUSH2 0x113B PUSH1 0x0 DUP3 PUSH2 0x110F JUMP JUMPDEST PUSH1 0x1 DUP2 ADD SWAP1 POP PUSH2 0x1128 JUMP JUMPDEST POP POP JUMP JUMPDEST PUSH1 0x1F DUP3 GT ISZERO PUSH2 0x118B JUMPI PUSH2 0x115C DUP2 PUSH2 0x102B JUMP JUMPDEST PUSH2 0x1165 DUP5 PUSH2 0x1040 JUMP JUMPDEST DUP2 ADD PUSH1 0x20 DUP6 LT ISZERO PUSH2 0x1174 JUMPI DUP2 SWAP1 POP JUMPDEST PUSH2 0x1188 PUSH2 0x1180 DUP6 PUSH2 0x1040 JUMP JUMPDEST DUP4 ADD DUP3 PUSH2 0x1127 JUMP JUMPDEST POP POP JUMPDEST POP POP POP JUMP JUMPDEST PUSH1 0x0 DUP3 DUP3 SHR SWAP1 POP SWAP3 SWAP2 POP POP JUMP JUMPDEST PUSH1 0x0 PUSH2 0x11AE PUSH1 0x0 NOT DUP5 PUSH1 0x8 MUL PUSH2 0x1190 JUMP JUMPDEST NOT DUP1 DUP4 AND SWAP2 POP POP SWAP3 SWAP2 POP POP JUMP JUMPDEST PUSH1 0x0 PUSH2 0x11C7 DUP4 DUP4 PUSH2 0x119D JUMP JUMPDEST SWAP2 POP DUP3 PUSH1 0x2 MUL DUP3 OR SWAP1 POP SWAP3 SWAP2 POP POP JUMP JUMPDEST PUSH2 0x11E0 DUP3 PUSH2 0xCCF JUMP JUMPDEST PUSH8 0xFFFFFFFFFFFFFFFF DUP2 GT ISZERO PUSH2 0x11F9 JUMPI PUSH2 0x11F8 PUSH2 0xABB JUMP JUMPDEST JUMPDEST PUSH2 0x1203 DUP3 SLOAD PUSH2 0xFFA JUMP JUMPDEST PUSH2 0x120E DUP3 DUP3 DUP6 PUSH2 0x114A JUMP JUMPDEST PUSH1 0x0 PUSH1 0x20 SWAP1 POP PUSH1 0x1F DUP4 GT PUSH1 0x1 DUP2 EQ PUSH2 0x1241 JUMPI PUSH1 0x0 DUP5 ISZERO PUSH2 0x122F JUMPI DUP3 DUP8 ADD MLOAD SWAP1 POP JUMPDEST PUSH2 0x1239 DUP6 DUP3 PUSH2 0x11BB JUMP JUMPDEST DUP7 SSTORE POP PUSH2 0x12A1 JUMP JUMPDEST PUSH1 0x1F NOT DUP5 AND PUSH2 0x124F DUP7 PUSH2 0x102B JUMP JUMPDEST PUSH1 0x0 JUMPDEST DUP3 DUP2 LT ISZERO PUSH2 0x1277 JUMPI DUP5 DUP10 ADD MLOAD DUP3 SSTORE PUSH1 0x1 DUP3 ADD SWAP2 POP PUSH1 0x20 DUP6 ADD SWAP5 POP PUSH1 0x20 DUP2 ADD SWAP1 POP PUSH2 0x1252 JUMP JUMPDEST DUP7 DUP4 LT ISZERO PUSH2 0x1294 JUMPI DUP5 DUP10 ADD MLOAD PUSH2 0x1290 PUSH1 0x1F DUP10 AND DUP3 PUSH2 0x119D JUMP JUMPDEST DUP4 SSTORE POP JUMPDEST PUSH1 0x1 PUSH1 0x2 DUP9 MUL ADD DUP9 SSTORE POP POP POP JUMPDEST POP POP POP POP POP POP JUMP JUMPDEST PUSH32 0x4E487B7100000000000000000000000000000000000000000000000000000000 PUSH1 0x0 MSTORE PUSH1 0x11 PUSH1 0x4 MSTORE PUSH1 0x24 PUSH1 0x0 REVERT JUMPDEST PUSH1 0x0 PUSH2 0x12E3 DUP3 PUSH2 0xBE6 JUMP JUMPDEST SWAP2 POP PUSH32 0xFFFFFFFFFFFFFFFFFFFFFFFFFFFFFFFFFFFFFFFFFFFFFFFFFFFFFFFFFFFFFFFF DUP3 SUB PUSH2 0x1315 JUMPI PUSH2 0x1314 PUSH2 0x12A9 JUMP JUMPDEST JUMPDEST PUSH1 0x1 DUP3 ADD SWAP1 POP SWAP2 SWAP1 POP JUMP JUMPDEST PUSH1 0x0 DUP2 SWAP1 POP SWAP3 SWAP2 POP POP JUMP JUMPDEST PUSH1 0x0 PUSH2 0x1336 DUP3 PUSH2 0xCCF JUMP JUMPDEST PUSH2 0x1340 DUP2 DUP6 PUSH2 0x1320 JUMP JUMPDEST SWAP4 POP PUSH2 0x1350 DUP2 DUP6 PUSH1 0x20 DUP7 ADD PUSH2 0xCEB JUMP JUMPDEST DUP1 DUP5 ADD SWAP2 POP POP SWAP3 SWAP2 POP POP JUMP JUMPDEST PUSH1 0x0 PUSH2 0x1368 DUP3 DUP5 PUSH2 0x132B JUMP JUMPDEST SWAP2 POP DUP2 SWAP1 POP SWAP3 SWAP2 POP POP JUMP JUMPDEST PUSH1 0x0 PUSH2 0x137E DUP3 PUSH2 0xBE6 JUMP JUMPDEST SWAP2 POP PUSH2 0x1389 DUP4 PUSH2 0xBE6 JUMP JUMPDEST SWAP3 POP DUP3 DUP3 ADD SWAP1 POP DUP1 DUP3 GT ISZERO PUSH2 0x13A1 JUMPI PUSH2 0x13A0 PUSH2 0x12A9 JUMP JUMPDEST JUMPDEST SWAP3 SWAP2 POP POP JUMP JUMPDEST PUSH32 0x4E487B7100000000000000000000000000000000000000000000000000000000 PUSH1 0x0 MSTORE PUSH1 0x12 PUSH1 0x4 MSTORE PUSH1 0x24 PUSH1 0x0 REVERT JUMPDEST PUSH1 0x0 PUSH2 0x13E1 DUP3 PUSH2 0xBE6 JUMP JUMPDEST SWAP2 POP PUSH2 0x13EC DUP4 PUSH2 0xBE6 JUMP JUMPDEST SWAP3 POP DUP3 PUSH2 0x13FC JUMPI PUSH2 0x13FB PUSH2 0x13A7 JUMP JUMPDEST JUMPDEST DUP3 DUP3 DIV SWAP1 POP SWAP3 SWAP2 POP POP JUMP JUMPDEST PUSH1 0x0 PUSH2 0x1412 DUP3 PUSH2 0xBE6 JUMP JUMPDEST SWAP2 POP PUSH2 0x141D DUP4 PUSH2 0xBE6 JUMP JUMPDEST SWAP3 POP DUP3 DUP3 MUL PUSH2 0x142B DUP2 PUSH2 0xBE6 JUMP JUMPDEST SWAP2 POP DUP3 DUP3 DIV DUP5 EQ DUP4 ISZERO OR PUSH2 0x1442 JUMPI PUSH2 0x1441 PUSH2 0x12A9 JUMP JUMPDEST JUMPDEST POP SWAP3 SWAP2 POP POP JUMP JUMPDEST PUSH32 0x61737369676E6D656E74204944206D7573742062652076616C69640000000000 PUSH1 0x0 DUP3 ADD MSTORE POP JUMP JUMPDEST PUSH1 0x0 PUSH2 0x147F PUSH1 0x1B DUP4 PUSH2 0xCDA JUMP JUMPDEST SWAP2 POP PUSH2 0x148A DUP3 PUSH2 0x1449 JUMP JUMPDEST PUSH1 0x20 DUP3 ADD SWAP1 POP SWAP2 SWAP1 POP JUMP JUMPDEST PUSH1 0x0 PUSH1 0x20 DUP3 ADD SWAP1 POP DUP2 DUP2 SUB PUSH1 0x0 DUP4 ADD MSTORE PUSH2 0x14AE DUP2 PUSH2 0x1472 JUMP JUMPDEST SWAP1 POP SWAP2 SWAP1 POP JUMP JUMPDEST PUSH32 0x73636F7265206D757374206265206C6F776572207468616E206F722065717561 PUSH1 0x0 DUP3 ADD MSTORE PUSH32 0x6C20746F206D61782073636F7265000000000000000000000000000000000000 PUSH1 0x20 DUP3 ADD MSTORE POP JUMP JUMPDEST PUSH1 0x0 PUSH2 0x1511 PUSH1 0x2E DUP4 PUSH2 0xCDA JUMP JUMPDEST SWAP2 POP PUSH2 0x151C DUP3 PUSH2 0x14B5 JUMP JUMPDEST PUSH1 0x40 DUP3 ADD SWAP1 POP SWAP2 SWAP1 POP JUMP JUMPDEST PUSH1 0x0 PUSH1 0x20 DUP3 ADD SWAP1 POP DUP2 DUP2 SUB PUSH1 0x0 DUP4 ADD MSTORE PUSH2 0x1540 DUP2 PUSH2 0x1504 JUMP JUMPDEST SWAP1 POP SWAP2 SWAP1 POP JUMP JUMPDEST PUSH32 0x6F6E6C7920696E7374727563746F722063616E2064657369676E617465205441 PUSH1 0x0 DUP3 ADD MSTORE PUSH32 0x7300000000000000000000000000000000000000000000000000000000000000 PUSH1 0x20 DUP3 ADD MSTORE POP JUMP JUMPDEST PUSH1 0x0 PUSH2 0x15A3 PUSH1 0x21 DUP4 PUSH2 0xCDA JUMP JUMPDEST SWAP2 POP PUSH2 0x15AE DUP3 PUSH2 0x1547 JUMP JUMPDEST PUSH1 0x40 DUP3 ADD SWAP1 POP SWAP2 SWAP1 POP JUMP JUMPDEST PUSH1 0x0 PUSH1 0x20 DUP3 ADD SWAP1 POP DUP2 DUP2 SUB PUSH1 0x0 DUP4 ADD MSTORE PUSH2 0x15D2 DUP2 PUSH2 0x1596 JUMP JUMPDEST SWAP1 POP SWAP2 SWAP1 POP JUMP INVALID LOG2 PUSH5 0x6970667358 0x22 SLT KECCAK256 0xCE DIV MUL 0xCD 0xA6 INVALID SWAP2 0xDF SUB LOG2 PUSH30 0x13C35ACD77BC654BCD09328396D6FC1190E5A9A77464736F6C6343000812 STOP CALLER "
				},
				"gasEstimates": {
					"creation": {
						"codeDepositCost": "1129400",
						"executionCost": "25440",
						"totalCost": "1154840"
					},
					"external": {
						"addAssignment(string,uint256)": "infinite",
						"addGrade(string,uint256,uint256)": "infinite",
						"assignment_names(uint256)": "infinite",
						"designateTA(address)": "27026",
						"getAverage(string)": "infinite",
						"instructor()": "2603",
						"max_scores(uint256)": "infinite",
						"num_assignments()": "2517",
						"requestTAAccess()": "24522",
						"scores(uint256,string)": "infinite",
						"supportsInterface(bytes4)": "682",
						"tas(address)": "2911"
					}
				},
				"methodIdentifiers": {
					"addAssignment(string,uint256)": "077f3b02",
					"addGrade(string,uint256,uint256)": "7241d75f",
					"assignment_names(uint256)": "53acf883",
					"designateTA(address)": "9cfeb679",
					"getAverage(string)": "65dd2f69",
					"instructor()": "71ae413d",
					"max_scores(uint256)": "dfd68b91",
					"num_assignments()": "c7a9f77b",
					"requestTAAccess()": "7fc29673",
					"scores(uint256,string)": "77ca2947",
					"supportsInterface(bytes4)": "01ffc9a7",
					"tas(address)": "a30254e7"
				}
			},
			"storageLayout": {
				"storage": [
					{
						"astId": 7,
						"contract": "Gradebook.sol:Gradebook",
						"label": "num_assignments",
						"offset": 0,
						"slot": "0",
						"type": "t_uint256"
					},
					{
						"astId": 12,
						"contract": "Gradebook.sol:Gradebook",
						"label": "tas",
						"offset": 0,
						"slot": "1",
						"type": "t_mapping(t_address,t_bool)"
					},
					{
						"astId": 19,
						"contract": "Gradebook.sol:Gradebook",
						"label": "scores",
						"offset": 0,
						"slot": "2",
						"type": "t_mapping(t_uint256,t_mapping(t_string_memory_ptr,t_uint256))"
					},
					{
						"astId": 24,
						"contract": "Gradebook.sol:Gradebook",
						"label": "max_scores",
						"offset": 0,
						"slot": "3",
						"type": "t_mapping(t_uint256,t_uint256)"
					},
					{
						"astId": 29,
						"contract": "Gradebook.sol:Gradebook",
						"label": "assignment_names",
						"offset": 0,
						"slot": "4",
						"type": "t_mapping(t_uint256,t_string_storage)"
					},
					{
						"astId": 32,
						"contract": "Gradebook.sol:Gradebook",
						"label": "instructor",
						"offset": 0,
						"slot": "5",
						"type": "t_address"
					}
				],
				"types": {
					"t_address": {
						"encoding": "inplace",
						"label": "address",
						"numberOfBytes": "20"
					},
					"t_bool": {
						"encoding": "inplace",
						"label": "bool",
						"numberOfBytes": "1"
					},
					"t_mapping(t_address,t_bool)": {
						"encoding": "mapping",
						"key": "t_address",
						"label": "mapping(address => bool)",
						"numberOfBytes": "32",
						"value": "t_bool"
					},
					"t_mapping(t_string_memory_ptr,t_uint256)": {
						"encoding": "mapping",
						"key": "t_string_memory_ptr",
						"label": "mapping(string => uint256)",
						"numberOfBytes": "32",
						"value": "t_uint256"
					},
					"t_mapping(t_uint256,t_mapping(t_string_memory_ptr,t_uint256))": {
						"encoding": "mapping",
						"key": "t_uint256",
						"label": "mapping(uint256 => mapping(string => uint256))",
						"numberOfBytes": "32",
						"value": "t_mapping(t_string_memory_ptr,t_uint256)"
					},
					"t_mapping(t_uint256,t_string_storage)": {
						"encoding": "mapping",
						"key": "t_uint256",
						"label": "mapping(uint256 => string)",
						"numberOfBytes": "32",
						"value": "t_string_storage"
					},
					"t_mapping(t_uint256,t_uint256)": {
						"encoding": "mapping",
						"key": "t_uint256",
						"label": "mapping(uint256 => uint256)",
						"numberOfBytes": "32",
						"value": "t_uint256"
					},
					"t_string_memory_ptr": {
						"encoding": "bytes",
						"label": "string",
						"numberOfBytes": "32"
					},
					"t_string_storage": {
						"encoding": "bytes",
						"label": "string",
						"numberOfBytes": "32"
					},
					"t_uint256": {
						"encoding": "inplace",
						"label": "uint256",
						"numberOfBytes": "32"
					}
				}
			},
			"userdoc": {
				"kind": "user",
				"methods": {},
				"version": 1
			}
		}
	}
}