{
	"Debts-in-class.sol": {
		"Debts": {
			"abi": [
				{
					"anonymous": false,
					"inputs": [],
					"name": "aliasAddedEvent",
					"type": "event"
				},
				{
					"anonymous": false,
					"inputs": [],
					"name": "paidEvent",
					"type": "event"
				},
				{
					"inputs": [
						{
							"internalType": "address",
							"name": "",
							"type": "address"
						}
					],
					"name": "addressHasEntry",
					"outputs": [
						{
							"internalType": "uint256",
							"name": "",
							"type": "uint256"
						}
					],
					"stateMutability": "view",
					"type": "function"
				},
				{
					"inputs": [
						{
							"internalType": "uint256",
							"name": "",
							"type": "uint256"
						}
					],
					"name": "entries",
					"outputs": [
						{
							"internalType": "uint256",
							"name": "id",
							"type": "uint256"
						},
						{
							"internalType": "string",
							"name": "thealias",
							"type": "string"
						},
						{
							"internalType": "string",
							"name": "name",
							"type": "string"
						},
						{
							"internalType": "address",
							"name": "addr",
							"type": "address"
						},
						{
							"internalType": "int256",
							"name": "balance",
							"type": "int256"
						}
					],
					"stateMutability": "view",
					"type": "function"
				},
				{
					"inputs": [
						{
							"internalType": "address",
							"name": "",
							"type": "address"
						}
					],
					"name": "findByAddress",
					"outputs": [
						{
							"internalType": "uint256",
							"name": "",
							"type": "uint256"
						}
					],
					"stateMutability": "view",
					"type": "function"
				},
				{
					"inputs": [
						{
							"internalType": "string",
							"name": "",
							"type": "string"
						}
					],
					"name": "findByAlias",
					"outputs": [
						{
							"internalType": "uint256",
							"name": "",
							"type": "uint256"
						}
					],
					"stateMutability": "view",
					"type": "function"
				},
				{
					"inputs": [],
					"name": "num_entries",
					"outputs": [
						{
							"internalType": "uint256",
							"name": "",
							"type": "uint256"
						}
					],
					"stateMutability": "view",
					"type": "function"
				}
			],
			"devdoc": {
				"kind": "dev",
				"methods": {},
				"version": 1
			},
			"evm": {
				"assembly": "    /* \"Debts-in-class.sol\":72:510  contract Debts {... */\n  mstore(0x40, 0x80)\n  callvalue\n  dup1\n  iszero\n  tag_1\n  jumpi\n  0x00\n  dup1\n  revert\ntag_1:\n  pop\n  dataSize(sub_0)\n  dup1\n  dataOffset(sub_0)\n  0x00\n  codecopy\n  0x00\n  return\nstop\n\nsub_0: assembly {\n        /* \"Debts-in-class.sol\":72:510  contract Debts {... */\n      mstore(0x40, 0x80)\n      callvalue\n      dup1\n      iszero\n      tag_1\n      jumpi\n      0x00\n      dup1\n      revert\n    tag_1:\n      pop\n      jumpi(tag_2, lt(calldatasize, 0x04))\n      shr(0xe0, calldataload(0x00))\n      dup1\n      0x073f98fd\n      eq\n      tag_3\n      jumpi\n      dup1\n      0x31f9a55f\n      eq\n      tag_4\n      jumpi\n      dup1\n      0x94bbfc0d\n      eq\n      tag_5\n      jumpi\n      dup1\n      0xb30906d4\n      eq\n      tag_6\n      jumpi\n      dup1\n      0xb7f1d527\n      eq\n      tag_7\n      jumpi\n    tag_2:\n      0x00\n      dup1\n      revert\n        /* \"Debts-in-class.sol\":458:506  mapping (address => uint) public addressHasEntry */\n    tag_3:\n      tag_8\n      0x04\n      dup1\n      calldatasize\n      sub\n      dup2\n      add\n      swap1\n      tag_9\n      swap2\n      swap1\n      tag_10\n      jump\t// in\n    tag_9:\n      tag_11\n      jump\t// in\n    tag_8:\n      mload(0x40)\n      tag_12\n      swap2\n      swap1\n      tag_13\n      jump\t// in\n    tag_12:\n      mload(0x40)\n      dup1\n      swap2\n      sub\n      swap1\n      return\n        /* \"Debts-in-class.sol\":355:398  mapping (string => uint) public findByAlias */\n    tag_4:\n      tag_14\n      0x04\n      dup1\n      calldatasize\n      sub\n      dup2\n      add\n      swap1\n      tag_15\n      swap2\n      swap1\n      tag_16\n      jump\t// in\n    tag_15:\n      tag_17\n      jump\t// in\n    tag_14:\n      mload(0x40)\n      tag_18\n      swap2\n      swap1\n      tag_13\n      jump\t// in\n    tag_18:\n      mload(0x40)\n      dup1\n      swap2\n      sub\n      swap1\n      return\n        /* \"Debts-in-class.sol\":405:451  mapping (address => uint) public findByAddress */\n    tag_5:\n      tag_19\n      0x04\n      dup1\n      calldatasize\n      sub\n      dup2\n      add\n      swap1\n      tag_20\n      swap2\n      swap1\n      tag_10\n      jump\t// in\n    tag_20:\n      tag_21\n      jump\t// in\n    tag_19:\n      mload(0x40)\n      tag_22\n      swap2\n      swap1\n      tag_13\n      jump\t// in\n    tag_22:\n      mload(0x40)\n      dup1\n      swap2\n      sub\n      swap1\n      return\n        /* \"Debts-in-class.sol\":280:318  mapping (uint => Entry) public entries */\n    tag_6:\n      tag_23\n      0x04\n      dup1\n      calldatasize\n      sub\n      dup2\n      add\n      swap1\n      tag_24\n      swap2\n      swap1\n      tag_25\n      jump\t// in\n    tag_24:\n      tag_26\n      jump\t// in\n    tag_23:\n      mload(0x40)\n      tag_27\n      swap6\n      swap5\n      swap4\n      swap3\n      swap2\n      swap1\n      tag_28\n      jump\t// in\n    tag_27:\n      mload(0x40)\n      dup1\n      swap2\n      sub\n      swap1\n      return\n        /* \"Debts-in-class.sol\":325:348  uint public num_entries */\n    tag_7:\n      tag_29\n      tag_30\n      jump\t// in\n    tag_29:\n      mload(0x40)\n      tag_31\n      swap2\n      swap1\n      tag_13\n      jump\t// in\n    tag_31:\n      mload(0x40)\n      dup1\n      swap2\n      sub\n      swap1\n      return\n        /* \"Debts-in-class.sol\":458:506  mapping (address => uint) public addressHasEntry */\n    tag_11:\n      mstore(0x20, 0x04)\n      dup1\n      0x00\n      mstore\n      keccak256(0x00, 0x40)\n      0x00\n      swap2\n      pop\n      swap1\n      pop\n      sload\n      dup2\n      jump\t// out\n        /* \"Debts-in-class.sol\":355:398  mapping (string => uint) public findByAlias */\n    tag_17:\n      0x02\n      dup2\n      dup1\n      mload\n      0x20\n      dup2\n      add\n      dup3\n      add\n      dup1\n      mload\n      dup5\n      dup3\n      mstore\n      0x20\n      dup4\n      add\n      0x20\n      dup6\n      add\n      keccak256\n      dup2\n      dup4\n      mstore\n      dup1\n      swap6\n      pop\n      pop\n      pop\n      pop\n      pop\n      pop\n      0x00\n      swap2\n      pop\n      swap1\n      pop\n      sload\n      dup2\n      jump\t// out\n        /* \"Debts-in-class.sol\":405:451  mapping (address => uint) public findByAddress */\n    tag_21:\n      mstore(0x20, 0x03)\n      dup1\n      0x00\n      mstore\n      keccak256(0x00, 0x40)\n      0x00\n      swap2\n      pop\n      swap1\n      pop\n      sload\n      dup2\n      jump\t// out\n        /* \"Debts-in-class.sol\":280:318  mapping (uint => Entry) public entries */\n    tag_26:\n      mstore(0x20, 0x00)\n      dup1\n      0x00\n      mstore\n      keccak256(0x00, 0x40)\n      0x00\n      swap2\n      pop\n      swap1\n      pop\n      dup1\n      0x00\n      add\n      sload\n      swap1\n      dup1\n      0x01\n      add\n      dup1\n      sload\n      tag_32\n      swap1\n      tag_33\n      jump\t// in\n    tag_32:\n      dup1\n      0x1f\n      add\n      0x20\n      dup1\n      swap2\n      div\n      mul\n      0x20\n      add\n      mload(0x40)\n      swap1\n      dup2\n      add\n      0x40\n      mstore\n      dup1\n      swap3\n      swap2\n      swap1\n      dup2\n      dup2\n      mstore\n      0x20\n      add\n      dup3\n      dup1\n      sload\n      tag_34\n      swap1\n      tag_33\n      jump\t// in\n    tag_34:\n      dup1\n      iszero\n      tag_35\n      jumpi\n      dup1\n      0x1f\n      lt\n      tag_36\n      jumpi\n      0x0100\n      dup1\n      dup4\n      sload\n      div\n      mul\n      dup4\n      mstore\n      swap2\n      0x20\n      add\n      swap2\n      jump(tag_35)\n    tag_36:\n      dup3\n      add\n      swap2\n      swap1\n      0x00\n      mstore\n      keccak256(0x00, 0x20)\n      swap1\n    tag_37:\n      dup2\n      sload\n      dup2\n      mstore\n      swap1\n      0x01\n      add\n      swap1\n      0x20\n      add\n      dup1\n      dup4\n      gt\n      tag_37\n      jumpi\n      dup3\n      swap1\n      sub\n      0x1f\n      and\n      dup3\n      add\n      swap2\n    tag_35:\n      pop\n      pop\n      pop\n      pop\n      pop\n      swap1\n      dup1\n      0x02\n      add\n      dup1\n      sload\n      tag_38\n      swap1\n      tag_33\n      jump\t// in\n    tag_38:\n      dup1\n      0x1f\n      add\n      0x20\n      dup1\n      swap2\n      div\n      mul\n      0x20\n      add\n      mload(0x40)\n      swap1\n      dup2\n      add\n      0x40\n      mstore\n      dup1\n      swap3\n      swap2\n      swap1\n      dup2\n      dup2\n      mstore\n      0x20\n      add\n      dup3\n      dup1\n      sload\n      tag_39\n      swap1\n      tag_33\n      jump\t// in\n    tag_39:\n      dup1\n      iszero\n      tag_40\n      jumpi\n      dup1\n      0x1f\n      lt\n      tag_41\n      jumpi\n      0x0100\n      dup1\n      dup4\n      sload\n      div\n      mul\n      dup4\n      mstore\n      swap2\n      0x20\n      add\n      swap2\n      jump(tag_40)\n    tag_41:\n      dup3\n      add\n      swap2\n      swap1\n      0x00\n      mstore\n      keccak256(0x00, 0x20)\n      swap1\n    tag_42:\n      dup2\n      sload\n      dup2\n      mstore\n      swap1\n      0x01\n      add\n      swap1\n      0x20\n      add\n      dup1\n      dup4\n      gt\n      tag_42\n      jumpi\n      dup3\n      swap1\n      sub\n      0x1f\n      and\n      dup3\n      add\n      swap2\n    tag_40:\n      pop\n      pop\n      pop\n      pop\n      pop\n      swap1\n      dup1\n      0x03\n      add\n      0x00\n      swap1\n      sload\n      swap1\n      0x0100\n      exp\n      swap1\n      div\n      0xffffffffffffffffffffffffffffffffffffffff\n      and\n      swap1\n      dup1\n      0x04\n      add\n      sload\n      swap1\n      pop\n      dup6\n      jump\t// out\n        /* \"Debts-in-class.sol\":325:348  uint public num_entries */\n    tag_30:\n      sload(0x01)\n      dup2\n      jump\t// out\n        /* \"#utility.yul\":7:82   */\n    tag_43:\n        /* \"#utility.yul\":40:46   */\n      0x00\n        /* \"#utility.yul\":73:75   */\n      0x40\n        /* \"#utility.yul\":67:76   */\n      mload\n        /* \"#utility.yul\":57:76   */\n      swap1\n      pop\n        /* \"#utility.yul\":7:82   */\n      swap1\n      jump\t// out\n        /* \"#utility.yul\":88:205   */\n    tag_44:\n        /* \"#utility.yul\":197:198   */\n      0x00\n        /* \"#utility.yul\":194:195   */\n      dup1\n        /* \"#utility.yul\":187:199   */\n      revert\n        /* \"#utility.yul\":211:328   */\n    tag_45:\n        /* \"#utility.yul\":320:321   */\n      0x00\n        /* \"#utility.yul\":317:318   */\n      dup1\n        /* \"#utility.yul\":310:322   */\n      revert\n        /* \"#utility.yul\":334:460   */\n    tag_46:\n        /* \"#utility.yul\":371:378   */\n      0x00\n        /* \"#utility.yul\":411:453   */\n      0xffffffffffffffffffffffffffffffffffffffff\n        /* \"#utility.yul\":404:409   */\n      dup3\n        /* \"#utility.yul\":400:454   */\n      and\n        /* \"#utility.yul\":389:454   */\n      swap1\n      pop\n        /* \"#utility.yul\":334:460   */\n      swap2\n      swap1\n      pop\n      jump\t// out\n        /* \"#utility.yul\":466:562   */\n    tag_47:\n        /* \"#utility.yul\":503:510   */\n      0x00\n        /* \"#utility.yul\":532:556   */\n      tag_78\n        /* \"#utility.yul\":550:555   */\n      dup3\n        /* \"#utility.yul\":532:556   */\n      tag_46\n      jump\t// in\n    tag_78:\n        /* \"#utility.yul\":521:556   */\n      swap1\n      pop\n        /* \"#utility.yul\":466:562   */\n      swap2\n      swap1\n      pop\n      jump\t// out\n        /* \"#utility.yul\":568:690   */\n    tag_48:\n        /* \"#utility.yul\":641:665   */\n      tag_80\n        /* \"#utility.yul\":659:664   */\n      dup2\n        /* \"#utility.yul\":641:665   */\n      tag_47\n      jump\t// in\n    tag_80:\n        /* \"#utility.yul\":634:639   */\n      dup2\n        /* \"#utility.yul\":631:666   */\n      eq\n        /* \"#utility.yul\":621:684   */\n      tag_81\n      jumpi\n        /* \"#utility.yul\":680:681   */\n      0x00\n        /* \"#utility.yul\":677:678   */\n      dup1\n        /* \"#utility.yul\":670:682   */\n      revert\n        /* \"#utility.yul\":621:684   */\n    tag_81:\n        /* \"#utility.yul\":568:690   */\n      pop\n      jump\t// out\n        /* \"#utility.yul\":696:835   */\n    tag_49:\n        /* \"#utility.yul\":742:747   */\n      0x00\n        /* \"#utility.yul\":780:786   */\n      dup2\n        /* \"#utility.yul\":767:787   */\n      calldataload\n        /* \"#utility.yul\":758:787   */\n      swap1\n      pop\n        /* \"#utility.yul\":796:829   */\n      tag_83\n        /* \"#utility.yul\":823:828   */\n      dup2\n        /* \"#utility.yul\":796:829   */\n      tag_48\n      jump\t// in\n    tag_83:\n        /* \"#utility.yul\":696:835   */\n      swap3\n      swap2\n      pop\n      pop\n      jump\t// out\n        /* \"#utility.yul\":841:1170   */\n    tag_10:\n        /* \"#utility.yul\":900:906   */\n      0x00\n        /* \"#utility.yul\":949:951   */\n      0x20\n        /* \"#utility.yul\":937:946   */\n      dup3\n        /* \"#utility.yul\":928:935   */\n      dup5\n        /* \"#utility.yul\":924:947   */\n      sub\n        /* \"#utility.yul\":920:952   */\n      slt\n        /* \"#utility.yul\":917:1036   */\n      iszero\n      tag_85\n      jumpi\n        /* \"#utility.yul\":955:1034   */\n      tag_86\n      tag_44\n      jump\t// in\n    tag_86:\n        /* \"#utility.yul\":917:1036   */\n    tag_85:\n        /* \"#utility.yul\":1075:1076   */\n      0x00\n        /* \"#utility.yul\":1100:1153   */\n      tag_87\n        /* \"#utility.yul\":1145:1152   */\n      dup5\n        /* \"#utility.yul\":1136:1142   */\n      dup3\n        /* \"#utility.yul\":1125:1134   */\n      dup6\n        /* \"#utility.yul\":1121:1143   */\n      add\n        /* \"#utility.yul\":1100:1153   */\n      tag_49\n      jump\t// in\n    tag_87:\n        /* \"#utility.yul\":1090:1153   */\n      swap2\n      pop\n        /* \"#utility.yul\":1046:1163   */\n      pop\n        /* \"#utility.yul\":841:1170   */\n      swap3\n      swap2\n      pop\n      pop\n      jump\t// out\n        /* \"#utility.yul\":1176:1253   */\n    tag_50:\n        /* \"#utility.yul\":1213:1220   */\n      0x00\n        /* \"#utility.yul\":1242:1247   */\n      dup2\n        /* \"#utility.yul\":1231:1247   */\n      swap1\n      pop\n        /* \"#utility.yul\":1176:1253   */\n      swap2\n      swap1\n      pop\n      jump\t// out\n        /* \"#utility.yul\":1259:1377   */\n    tag_51:\n        /* \"#utility.yul\":1346:1370   */\n      tag_90\n        /* \"#utility.yul\":1364:1369   */\n      dup2\n        /* \"#utility.yul\":1346:1370   */\n      tag_50\n      jump\t// in\n    tag_90:\n        /* \"#utility.yul\":1341:1344   */\n      dup3\n        /* \"#utility.yul\":1334:1371   */\n      mstore\n        /* \"#utility.yul\":1259:1377   */\n      pop\n      pop\n      jump\t// out\n        /* \"#utility.yul\":1383:1605   */\n    tag_13:\n        /* \"#utility.yul\":1476:1480   */\n      0x00\n        /* \"#utility.yul\":1514:1516   */\n      0x20\n        /* \"#utility.yul\":1503:1512   */\n      dup3\n        /* \"#utility.yul\":1499:1517   */\n      add\n        /* \"#utility.yul\":1491:1517   */\n      swap1\n      pop\n        /* \"#utility.yul\":1527:1598   */\n      tag_92\n        /* \"#utility.yul\":1595:1596   */\n      0x00\n        /* \"#utility.yul\":1584:1593   */\n      dup4\n        /* \"#utility.yul\":1580:1597   */\n      add\n        /* \"#utility.yul\":1571:1577   */\n      dup5\n        /* \"#utility.yul\":1527:1598   */\n      tag_51\n      jump\t// in\n    tag_92:\n        /* \"#utility.yul\":1383:1605   */\n      swap3\n      swap2\n      pop\n      pop\n      jump\t// out\n        /* \"#utility.yul\":1611:1728   */\n    tag_52:\n        /* \"#utility.yul\":1720:1721   */\n      0x00\n        /* \"#utility.yul\":1717:1718   */\n      dup1\n        /* \"#utility.yul\":1710:1722   */\n      revert\n        /* \"#utility.yul\":1734:1851   */\n    tag_53:\n        /* \"#utility.yul\":1843:1844   */\n      0x00\n        /* \"#utility.yul\":1840:1841   */\n      dup1\n        /* \"#utility.yul\":1833:1845   */\n      revert\n        /* \"#utility.yul\":1857:1959   */\n    tag_54:\n        /* \"#utility.yul\":1898:1904   */\n      0x00\n        /* \"#utility.yul\":1949:1951   */\n      0x1f\n        /* \"#utility.yul\":1945:1952   */\n      not\n        /* \"#utility.yul\":1940:1942   */\n      0x1f\n        /* \"#utility.yul\":1933:1938   */\n      dup4\n        /* \"#utility.yul\":1929:1943   */\n      add\n        /* \"#utility.yul\":1925:1953   */\n      and\n        /* \"#utility.yul\":1915:1953   */\n      swap1\n      pop\n        /* \"#utility.yul\":1857:1959   */\n      swap2\n      swap1\n      pop\n      jump\t// out\n        /* \"#utility.yul\":1965:2145   */\n    tag_55:\n        /* \"#utility.yul\":2013:2090   */\n      0x4e487b7100000000000000000000000000000000000000000000000000000000\n        /* \"#utility.yul\":2010:2011   */\n      0x00\n        /* \"#utility.yul\":2003:2091   */\n      mstore\n        /* \"#utility.yul\":2110:2114   */\n      0x41\n        /* \"#utility.yul\":2107:2108   */\n      0x04\n        /* \"#utility.yul\":2100:2115   */\n      mstore\n        /* \"#utility.yul\":2134:2138   */\n      0x24\n        /* \"#utility.yul\":2131:2132   */\n      0x00\n        /* \"#utility.yul\":2124:2139   */\n      revert\n        /* \"#utility.yul\":2151:2432   */\n    tag_56:\n        /* \"#utility.yul\":2234:2261   */\n      tag_98\n        /* \"#utility.yul\":2256:2260   */\n      dup3\n        /* \"#utility.yul\":2234:2261   */\n      tag_54\n      jump\t// in\n    tag_98:\n        /* \"#utility.yul\":2226:2232   */\n      dup2\n        /* \"#utility.yul\":2222:2262   */\n      add\n        /* \"#utility.yul\":2364:2370   */\n      dup2\n        /* \"#utility.yul\":2352:2362   */\n      dup2\n        /* \"#utility.yul\":2349:2371   */\n      lt\n        /* \"#utility.yul\":2328:2346   */\n      0xffffffffffffffff\n        /* \"#utility.yul\":2316:2326   */\n      dup3\n        /* \"#utility.yul\":2313:2347   */\n      gt\n        /* \"#utility.yul\":2310:2372   */\n      or\n        /* \"#utility.yul\":2307:2395   */\n      iszero\n      tag_99\n      jumpi\n        /* \"#utility.yul\":2375:2393   */\n      tag_100\n      tag_55\n      jump\t// in\n    tag_100:\n        /* \"#utility.yul\":2307:2395   */\n    tag_99:\n        /* \"#utility.yul\":2415:2425   */\n      dup1\n        /* \"#utility.yul\":2411:2413   */\n      0x40\n        /* \"#utility.yul\":2404:2426   */\n      mstore\n        /* \"#utility.yul\":2194:2432   */\n      pop\n        /* \"#utility.yul\":2151:2432   */\n      pop\n      pop\n      jump\t// out\n        /* \"#utility.yul\":2438:2567   */\n    tag_57:\n        /* \"#utility.yul\":2472:2478   */\n      0x00\n        /* \"#utility.yul\":2499:2519   */\n      tag_102\n      tag_43\n      jump\t// in\n    tag_102:\n        /* \"#utility.yul\":2489:2519   */\n      swap1\n      pop\n        /* \"#utility.yul\":2528:2561   */\n      tag_103\n        /* \"#utility.yul\":2556:2560   */\n      dup3\n        /* \"#utility.yul\":2548:2554   */\n      dup3\n        /* \"#utility.yul\":2528:2561   */\n      tag_56\n      jump\t// in\n    tag_103:\n        /* \"#utility.yul\":2438:2567   */\n      swap2\n      swap1\n      pop\n      jump\t// out\n        /* \"#utility.yul\":2573:2881   */\n    tag_58:\n        /* \"#utility.yul\":2635:2639   */\n      0x00\n        /* \"#utility.yul\":2725:2743   */\n      0xffffffffffffffff\n        /* \"#utility.yul\":2717:2723   */\n      dup3\n        /* \"#utility.yul\":2714:2744   */\n      gt\n        /* \"#utility.yul\":2711:2767   */\n      iszero\n      tag_105\n      jumpi\n        /* \"#utility.yul\":2747:2765   */\n      tag_106\n      tag_55\n      jump\t// in\n    tag_106:\n        /* \"#utility.yul\":2711:2767   */\n    tag_105:\n        /* \"#utility.yul\":2785:2814   */\n      tag_107\n        /* \"#utility.yul\":2807:2813   */\n      dup3\n        /* \"#utility.yul\":2785:2814   */\n      tag_54\n      jump\t// in\n    tag_107:\n        /* \"#utility.yul\":2777:2814   */\n      swap1\n      pop\n        /* \"#utility.yul\":2869:2873   */\n      0x20\n        /* \"#utility.yul\":2863:2867   */\n      dup2\n        /* \"#utility.yul\":2859:2874   */\n      add\n        /* \"#utility.yul\":2851:2874   */\n      swap1\n      pop\n        /* \"#utility.yul\":2573:2881   */\n      swap2\n      swap1\n      pop\n      jump\t// out\n        /* \"#utility.yul\":2887:3033   */\n    tag_59:\n        /* \"#utility.yul\":2984:2990   */\n      dup3\n        /* \"#utility.yul\":2979:2982   */\n      dup2\n        /* \"#utility.yul\":2974:2977   */\n      dup4\n        /* \"#utility.yul\":2961:2991   */\n      calldatacopy\n        /* \"#utility.yul\":3025:3026   */\n      0x00\n        /* \"#utility.yul\":3016:3022   */\n      dup4\n        /* \"#utility.yul\":3011:3014   */\n      dup4\n        /* \"#utility.yul\":3007:3023   */\n      add\n        /* \"#utility.yul\":3000:3027   */\n      mstore\n        /* \"#utility.yul\":2887:3033   */\n      pop\n      pop\n      pop\n      jump\t// out\n        /* \"#utility.yul\":3039:3464   */\n    tag_60:\n        /* \"#utility.yul\":3117:3122   */\n      0x00\n        /* \"#utility.yul\":3142:3208   */\n      tag_110\n        /* \"#utility.yul\":3158:3207   */\n      tag_111\n        /* \"#utility.yul\":3200:3206   */\n      dup5\n        /* \"#utility.yul\":3158:3207   */\n      tag_58\n      jump\t// in\n    tag_111:\n        /* \"#utility.yul\":3142:3208   */\n      tag_57\n      jump\t// in\n    tag_110:\n        /* \"#utility.yul\":3133:3208   */\n      swap1\n      pop\n        /* \"#utility.yul\":3231:3237   */\n      dup3\n        /* \"#utility.yul\":3224:3229   */\n      dup2\n        /* \"#utility.yul\":3217:3238   */\n      mstore\n        /* \"#utility.yul\":3269:3273   */\n      0x20\n        /* \"#utility.yul\":3262:3267   */\n      dup2\n        /* \"#utility.yul\":3258:3274   */\n      add\n        /* \"#utility.yul\":3307:3310   */\n      dup5\n        /* \"#utility.yul\":3298:3304   */\n      dup5\n        /* \"#utility.yul\":3293:3296   */\n      dup5\n        /* \"#utility.yul\":3289:3305   */\n      add\n        /* \"#utility.yul\":3286:3311   */\n      gt\n        /* \"#utility.yul\":3283:3395   */\n      iszero\n      tag_112\n      jumpi\n        /* \"#utility.yul\":3314:3393   */\n      tag_113\n      tag_53\n      jump\t// in\n    tag_113:\n        /* \"#utility.yul\":3283:3395   */\n    tag_112:\n        /* \"#utility.yul\":3404:3458   */\n      tag_114\n        /* \"#utility.yul\":3451:3457   */\n      dup5\n        /* \"#utility.yul\":3446:3449   */\n      dup3\n        /* \"#utility.yul\":3441:3444   */\n      dup6\n        /* \"#utility.yul\":3404:3458   */\n      tag_59\n      jump\t// in\n    tag_114:\n        /* \"#utility.yul\":3123:3464   */\n      pop\n        /* \"#utility.yul\":3039:3464   */\n      swap4\n      swap3\n      pop\n      pop\n      pop\n      jump\t// out\n        /* \"#utility.yul\":3484:3824   */\n    tag_61:\n        /* \"#utility.yul\":3540:3545   */\n      0x00\n        /* \"#utility.yul\":3589:3592   */\n      dup3\n        /* \"#utility.yul\":3582:3586   */\n      0x1f\n        /* \"#utility.yul\":3574:3580   */\n      dup4\n        /* \"#utility.yul\":3570:3587   */\n      add\n        /* \"#utility.yul\":3566:3593   */\n      slt\n        /* \"#utility.yul\":3556:3678   */\n      tag_116\n      jumpi\n        /* \"#utility.yul\":3597:3676   */\n      tag_117\n      tag_52\n      jump\t// in\n    tag_117:\n        /* \"#utility.yul\":3556:3678   */\n    tag_116:\n        /* \"#utility.yul\":3714:3720   */\n      dup2\n        /* \"#utility.yul\":3701:3721   */\n      calldataload\n        /* \"#utility.yul\":3739:3818   */\n      tag_118\n        /* \"#utility.yul\":3814:3817   */\n      dup5\n        /* \"#utility.yul\":3806:3812   */\n      dup3\n        /* \"#utility.yul\":3799:3803   */\n      0x20\n        /* \"#utility.yul\":3791:3797   */\n      dup7\n        /* \"#utility.yul\":3787:3804   */\n      add\n        /* \"#utility.yul\":3739:3818   */\n      tag_60\n      jump\t// in\n    tag_118:\n        /* \"#utility.yul\":3730:3818   */\n      swap2\n      pop\n        /* \"#utility.yul\":3546:3824   */\n      pop\n        /* \"#utility.yul\":3484:3824   */\n      swap3\n      swap2\n      pop\n      pop\n      jump\t// out\n        /* \"#utility.yul\":3830:4339   */\n    tag_16:\n        /* \"#utility.yul\":3899:3905   */\n      0x00\n        /* \"#utility.yul\":3948:3950   */\n      0x20\n        /* \"#utility.yul\":3936:3945   */\n      dup3\n        /* \"#utility.yul\":3927:3934   */\n      dup5\n        /* \"#utility.yul\":3923:3946   */\n      sub\n        /* \"#utility.yul\":3919:3951   */\n      slt\n        /* \"#utility.yul\":3916:4035   */\n      iszero\n      tag_120\n      jumpi\n        /* \"#utility.yul\":3954:4033   */\n      tag_121\n      tag_44\n      jump\t// in\n    tag_121:\n        /* \"#utility.yul\":3916:4035   */\n    tag_120:\n        /* \"#utility.yul\":4102:4103   */\n      0x00\n        /* \"#utility.yul\":4091:4100   */\n      dup3\n        /* \"#utility.yul\":4087:4104   */\n      add\n        /* \"#utility.yul\":4074:4105   */\n      calldataload\n        /* \"#utility.yul\":4132:4150   */\n      0xffffffffffffffff\n        /* \"#utility.yul\":4124:4130   */\n      dup2\n        /* \"#utility.yul\":4121:4151   */\n      gt\n        /* \"#utility.yul\":4118:4235   */\n      iszero\n      tag_122\n      jumpi\n        /* \"#utility.yul\":4154:4233   */\n      tag_123\n      tag_45\n      jump\t// in\n    tag_123:\n        /* \"#utility.yul\":4118:4235   */\n    tag_122:\n        /* \"#utility.yul\":4259:4322   */\n      tag_124\n        /* \"#utility.yul\":4314:4321   */\n      dup5\n        /* \"#utility.yul\":4305:4311   */\n      dup3\n        /* \"#utility.yul\":4294:4303   */\n      dup6\n        /* \"#utility.yul\":4290:4312   */\n      add\n        /* \"#utility.yul\":4259:4322   */\n      tag_61\n      jump\t// in\n    tag_124:\n        /* \"#utility.yul\":4249:4322   */\n      swap2\n      pop\n        /* \"#utility.yul\":4045:4332   */\n      pop\n        /* \"#utility.yul\":3830:4339   */\n      swap3\n      swap2\n      pop\n      pop\n      jump\t// out\n        /* \"#utility.yul\":4345:4467   */\n    tag_62:\n        /* \"#utility.yul\":4418:4442   */\n      tag_126\n        /* \"#utility.yul\":4436:4441   */\n      dup2\n        /* \"#utility.yul\":4418:4442   */\n      tag_50\n      jump\t// in\n    tag_126:\n        /* \"#utility.yul\":4411:4416   */\n      dup2\n        /* \"#utility.yul\":4408:4443   */\n      eq\n        /* \"#utility.yul\":4398:4461   */\n      tag_127\n      jumpi\n        /* \"#utility.yul\":4457:4458   */\n      0x00\n        /* \"#utility.yul\":4454:4455   */\n      dup1\n        /* \"#utility.yul\":4447:4459   */\n      revert\n        /* \"#utility.yul\":4398:4461   */\n    tag_127:\n        /* \"#utility.yul\":4345:4467   */\n      pop\n      jump\t// out\n        /* \"#utility.yul\":4473:4612   */\n    tag_63:\n        /* \"#utility.yul\":4519:4524   */\n      0x00\n        /* \"#utility.yul\":4557:4563   */\n      dup2\n        /* \"#utility.yul\":4544:4564   */\n      calldataload\n        /* \"#utility.yul\":4535:4564   */\n      swap1\n      pop\n        /* \"#utility.yul\":4573:4606   */\n      tag_129\n        /* \"#utility.yul\":4600:4605   */\n      dup2\n        /* \"#utility.yul\":4573:4606   */\n      tag_62\n      jump\t// in\n    tag_129:\n        /* \"#utility.yul\":4473:4612   */\n      swap3\n      swap2\n      pop\n      pop\n      jump\t// out\n        /* \"#utility.yul\":4618:4947   */\n    tag_25:\n        /* \"#utility.yul\":4677:4683   */\n      0x00\n        /* \"#utility.yul\":4726:4728   */\n      0x20\n        /* \"#utility.yul\":4714:4723   */\n      dup3\n        /* \"#utility.yul\":4705:4712   */\n      dup5\n        /* \"#utility.yul\":4701:4724   */\n      sub\n        /* \"#utility.yul\":4697:4729   */\n      slt\n        /* \"#utility.yul\":4694:4813   */\n      iszero\n      tag_131\n      jumpi\n        /* \"#utility.yul\":4732:4811   */\n      tag_132\n      tag_44\n      jump\t// in\n    tag_132:\n        /* \"#utility.yul\":4694:4813   */\n    tag_131:\n        /* \"#utility.yul\":4852:4853   */\n      0x00\n        /* \"#utility.yul\":4877:4930   */\n      tag_133\n        /* \"#utility.yul\":4922:4929   */\n      dup5\n        /* \"#utility.yul\":4913:4919   */\n      dup3\n        /* \"#utility.yul\":4902:4911   */\n      dup6\n        /* \"#utility.yul\":4898:4920   */\n      add\n        /* \"#utility.yul\":4877:4930   */\n      tag_63\n      jump\t// in\n    tag_133:\n        /* \"#utility.yul\":4867:4930   */\n      swap2\n      pop\n        /* \"#utility.yul\":4823:4940   */\n      pop\n        /* \"#utility.yul\":4618:4947   */\n      swap3\n      swap2\n      pop\n      pop\n      jump\t// out\n        /* \"#utility.yul\":4953:5052   */\n    tag_64:\n        /* \"#utility.yul\":5005:5011   */\n      0x00\n        /* \"#utility.yul\":5039:5044   */\n      dup2\n        /* \"#utility.yul\":5033:5045   */\n      mload\n        /* \"#utility.yul\":5023:5045   */\n      swap1\n      pop\n        /* \"#utility.yul\":4953:5052   */\n      swap2\n      swap1\n      pop\n      jump\t// out\n        /* \"#utility.yul\":5058:5227   */\n    tag_65:\n        /* \"#utility.yul\":5142:5153   */\n      0x00\n        /* \"#utility.yul\":5176:5182   */\n      dup3\n        /* \"#utility.yul\":5171:5174   */\n      dup3\n        /* \"#utility.yul\":5164:5183   */\n      mstore\n        /* \"#utility.yul\":5216:5220   */\n      0x20\n        /* \"#utility.yul\":5211:5214   */\n      dup3\n        /* \"#utility.yul\":5207:5221   */\n      add\n        /* \"#utility.yul\":5192:5221   */\n      swap1\n      pop\n        /* \"#utility.yul\":5058:5227   */\n      swap3\n      swap2\n      pop\n      pop\n      jump\t// out\n        /* \"#utility.yul\":5233:5479   */\n    tag_66:\n        /* \"#utility.yul\":5314:5315   */\n      0x00\n        /* \"#utility.yul\":5324:5437   */\n    tag_137:\n        /* \"#utility.yul\":5338:5344   */\n      dup4\n        /* \"#utility.yul\":5335:5336   */\n      dup2\n        /* \"#utility.yul\":5332:5345   */\n      lt\n        /* \"#utility.yul\":5324:5437   */\n      iszero\n      tag_139\n      jumpi\n        /* \"#utility.yul\":5423:5424   */\n      dup1\n        /* \"#utility.yul\":5418:5421   */\n      dup3\n        /* \"#utility.yul\":5414:5425   */\n      add\n        /* \"#utility.yul\":5408:5426   */\n      mload\n        /* \"#utility.yul\":5404:5405   */\n      dup2\n        /* \"#utility.yul\":5399:5402   */\n      dup5\n        /* \"#utility.yul\":5395:5406   */\n      add\n        /* \"#utility.yul\":5388:5427   */\n      mstore\n        /* \"#utility.yul\":5360:5362   */\n      0x20\n        /* \"#utility.yul\":5357:5358   */\n      dup2\n        /* \"#utility.yul\":5353:5363   */\n      add\n        /* \"#utility.yul\":5348:5363   */\n      swap1\n      pop\n        /* \"#utility.yul\":5324:5437   */\n      jump(tag_137)\n    tag_139:\n        /* \"#utility.yul\":5471:5472   */\n      0x00\n        /* \"#utility.yul\":5462:5468   */\n      dup5\n        /* \"#utility.yul\":5457:5460   */\n      dup5\n        /* \"#utility.yul\":5453:5469   */\n      add\n        /* \"#utility.yul\":5446:5473   */\n      mstore\n        /* \"#utility.yul\":5295:5479   */\n      pop\n        /* \"#utility.yul\":5233:5479   */\n      pop\n      pop\n      pop\n      jump\t// out\n        /* \"#utility.yul\":5485:5862   */\n    tag_67:\n        /* \"#utility.yul\":5573:5576   */\n      0x00\n        /* \"#utility.yul\":5601:5640   */\n      tag_141\n        /* \"#utility.yul\":5634:5639   */\n      dup3\n        /* \"#utility.yul\":5601:5640   */\n      tag_64\n      jump\t// in\n    tag_141:\n        /* \"#utility.yul\":5656:5727   */\n      tag_142\n        /* \"#utility.yul\":5720:5726   */\n      dup2\n        /* \"#utility.yul\":5715:5718   */\n      dup6\n        /* \"#utility.yul\":5656:5727   */\n      tag_65\n      jump\t// in\n    tag_142:\n        /* \"#utility.yul\":5649:5727   */\n      swap4\n      pop\n        /* \"#utility.yul\":5736:5801   */\n      tag_143\n        /* \"#utility.yul\":5794:5800   */\n      dup2\n        /* \"#utility.yul\":5789:5792   */\n      dup6\n        /* \"#utility.yul\":5782:5786   */\n      0x20\n        /* \"#utility.yul\":5775:5780   */\n      dup7\n        /* \"#utility.yul\":5771:5787   */\n      add\n        /* \"#utility.yul\":5736:5801   */\n      tag_66\n      jump\t// in\n    tag_143:\n        /* \"#utility.yul\":5826:5855   */\n      tag_144\n        /* \"#utility.yul\":5848:5854   */\n      dup2\n        /* \"#utility.yul\":5826:5855   */\n      tag_54\n      jump\t// in\n    tag_144:\n        /* \"#utility.yul\":5821:5824   */\n      dup5\n        /* \"#utility.yul\":5817:5856   */\n      add\n        /* \"#utility.yul\":5810:5856   */\n      swap2\n      pop\n        /* \"#utility.yul\":5577:5862   */\n      pop\n        /* \"#utility.yul\":5485:5862   */\n      swap3\n      swap2\n      pop\n      pop\n      jump\t// out\n        /* \"#utility.yul\":5868:5986   */\n    tag_68:\n        /* \"#utility.yul\":5955:5979   */\n      tag_146\n        /* \"#utility.yul\":5973:5978   */\n      dup2\n        /* \"#utility.yul\":5955:5979   */\n      tag_47\n      jump\t// in\n    tag_146:\n        /* \"#utility.yul\":5950:5953   */\n      dup3\n        /* \"#utility.yul\":5943:5980   */\n      mstore\n        /* \"#utility.yul\":5868:5986   */\n      pop\n      pop\n      jump\t// out\n        /* \"#utility.yul\":5992:6068   */\n    tag_69:\n        /* \"#utility.yul\":6028:6035   */\n      0x00\n        /* \"#utility.yul\":6057:6062   */\n      dup2\n        /* \"#utility.yul\":6046:6062   */\n      swap1\n      pop\n        /* \"#utility.yul\":5992:6068   */\n      swap2\n      swap1\n      pop\n      jump\t// out\n        /* \"#utility.yul\":6074:6189   */\n    tag_70:\n        /* \"#utility.yul\":6159:6182   */\n      tag_149\n        /* \"#utility.yul\":6176:6181   */\n      dup2\n        /* \"#utility.yul\":6159:6182   */\n      tag_69\n      jump\t// in\n    tag_149:\n        /* \"#utility.yul\":6154:6157   */\n      dup3\n        /* \"#utility.yul\":6147:6183   */\n      mstore\n        /* \"#utility.yul\":6074:6189   */\n      pop\n      pop\n      jump\t// out\n        /* \"#utility.yul\":6195:7037   */\n    tag_28:\n        /* \"#utility.yul\":6438:6442   */\n      0x00\n        /* \"#utility.yul\":6476:6479   */\n      0xa0\n        /* \"#utility.yul\":6465:6474   */\n      dup3\n        /* \"#utility.yul\":6461:6480   */\n      add\n        /* \"#utility.yul\":6453:6480   */\n      swap1\n      pop\n        /* \"#utility.yul\":6490:6561   */\n      tag_151\n        /* \"#utility.yul\":6558:6559   */\n      0x00\n        /* \"#utility.yul\":6547:6556   */\n      dup4\n        /* \"#utility.yul\":6543:6560   */\n      add\n        /* \"#utility.yul\":6534:6540   */\n      dup9\n        /* \"#utility.yul\":6490:6561   */\n      tag_51\n      jump\t// in\n    tag_151:\n        /* \"#utility.yul\":6608:6617   */\n      dup2\n        /* \"#utility.yul\":6602:6606   */\n      dup2\n        /* \"#utility.yul\":6598:6618   */\n      sub\n        /* \"#utility.yul\":6593:6595   */\n      0x20\n        /* \"#utility.yul\":6582:6591   */\n      dup4\n        /* \"#utility.yul\":6578:6596   */\n      add\n        /* \"#utility.yul\":6571:6619   */\n      mstore\n        /* \"#utility.yul\":6636:6714   */\n      tag_152\n        /* \"#utility.yul\":6709:6713   */\n      dup2\n        /* \"#utility.yul\":6700:6706   */\n      dup8\n        /* \"#utility.yul\":6636:6714   */\n      tag_67\n      jump\t// in\n    tag_152:\n        /* \"#utility.yul\":6628:6714   */\n      swap1\n      pop\n        /* \"#utility.yul\":6761:6770   */\n      dup2\n        /* \"#utility.yul\":6755:6759   */\n      dup2\n        /* \"#utility.yul\":6751:6771   */\n      sub\n        /* \"#utility.yul\":6746:6748   */\n      0x40\n        /* \"#utility.yul\":6735:6744   */\n      dup4\n        /* \"#utility.yul\":6731:6749   */\n      add\n        /* \"#utility.yul\":6724:6772   */\n      mstore\n        /* \"#utility.yul\":6789:6867   */\n      tag_153\n        /* \"#utility.yul\":6862:6866   */\n      dup2\n        /* \"#utility.yul\":6853:6859   */\n      dup7\n        /* \"#utility.yul\":6789:6867   */\n      tag_67\n      jump\t// in\n    tag_153:\n        /* \"#utility.yul\":6781:6867   */\n      swap1\n      pop\n        /* \"#utility.yul\":6877:6949   */\n      tag_154\n        /* \"#utility.yul\":6945:6947   */\n      0x60\n        /* \"#utility.yul\":6934:6943   */\n      dup4\n        /* \"#utility.yul\":6930:6948   */\n      add\n        /* \"#utility.yul\":6921:6927   */\n      dup6\n        /* \"#utility.yul\":6877:6949   */\n      tag_68\n      jump\t// in\n    tag_154:\n        /* \"#utility.yul\":6959:7030   */\n      tag_155\n        /* \"#utility.yul\":7025:7028   */\n      0x80\n        /* \"#utility.yul\":7014:7023   */\n      dup4\n        /* \"#utility.yul\":7010:7029   */\n      add\n        /* \"#utility.yul\":7001:7007   */\n      dup5\n        /* \"#utility.yul\":6959:7030   */\n      tag_70\n      jump\t// in\n    tag_155:\n        /* \"#utility.yul\":6195:7037   */\n      swap7\n      swap6\n      pop\n      pop\n      pop\n      pop\n      pop\n      pop\n      jump\t// out\n        /* \"#utility.yul\":7043:7223   */\n    tag_71:\n        /* \"#utility.yul\":7091:7168   */\n      0x4e487b7100000000000000000000000000000000000000000000000000000000\n        /* \"#utility.yul\":7088:7089   */\n      0x00\n        /* \"#utility.yul\":7081:7169   */\n      mstore\n        /* \"#utility.yul\":7188:7192   */\n      0x22\n        /* \"#utility.yul\":7185:7186   */\n      0x04\n        /* \"#utility.yul\":7178:7193   */\n      mstore\n        /* \"#utility.yul\":7212:7216   */\n      0x24\n        /* \"#utility.yul\":7209:7210   */\n      0x00\n        /* \"#utility.yul\":7202:7217   */\n      revert\n        /* \"#utility.yul\":7229:7549   */\n    tag_33:\n        /* \"#utility.yul\":7273:7279   */\n      0x00\n        /* \"#utility.yul\":7310:7311   */\n      0x02\n        /* \"#utility.yul\":7304:7308   */\n      dup3\n        /* \"#utility.yul\":7300:7312   */\n      div\n        /* \"#utility.yul\":7290:7312   */\n      swap1\n      pop\n        /* \"#utility.yul\":7357:7358   */\n      0x01\n        /* \"#utility.yul\":7351:7355   */\n      dup3\n        /* \"#utility.yul\":7347:7359   */\n      and\n        /* \"#utility.yul\":7378:7396   */\n      dup1\n        /* \"#utility.yul\":7368:7449   */\n      tag_158\n      jumpi\n        /* \"#utility.yul\":7434:7438   */\n      0x7f\n        /* \"#utility.yul\":7426:7432   */\n      dup3\n        /* \"#utility.yul\":7422:7439   */\n      and\n        /* \"#utility.yul\":7412:7439   */\n      swap2\n      pop\n        /* \"#utility.yul\":7368:7449   */\n    tag_158:\n        /* \"#utility.yul\":7496:7498   */\n      0x20\n        /* \"#utility.yul\":7488:7494   */\n      dup3\n        /* \"#utility.yul\":7485:7499   */\n      lt\n        /* \"#utility.yul\":7465:7483   */\n      dup2\n        /* \"#utility.yul\":7462:7500   */\n      sub\n        /* \"#utility.yul\":7459:7543   */\n      tag_159\n      jumpi\n        /* \"#utility.yul\":7515:7533   */\n      tag_160\n      tag_71\n      jump\t// in\n    tag_160:\n        /* \"#utility.yul\":7459:7543   */\n    tag_159:\n        /* \"#utility.yul\":7280:7549   */\n      pop\n        /* \"#utility.yul\":7229:7549   */\n      swap2\n      swap1\n      pop\n      jump\t// out\n\n    auxdata: 0xa2646970667358221220546692cf88faa3016693eec2c9e8d672ff75f4ba0ff67ce35e563bd4723f3ef464736f6c63430008120033\n}\n",
				"bytecode": {
					"linkReferences": {},
					"object": "608060405234801561001057600080fd5b50610761806100206000396000f3fe608060405234801561001057600080fd5b50600436106100575760003560e01c8063073f98fd1461005c57806331f9a55f1461008c57806394bbfc0d146100bc578063b30906d4146100ec578063b7f1d52714610120575b600080fd5b6100766004803603810190610071919061037a565b61013e565b60405161008391906103c0565b60405180910390f35b6100a660048036038101906100a19190610521565b610156565b6040516100b391906103c0565b60405180910390f35b6100d660048036038101906100d1919061037a565b610184565b6040516100e391906103c0565b60405180910390f35b61010660048036038101906101019190610596565b61019c565b60405161011795949392919061066a565b60405180910390f35b610128610302565b60405161013591906103c0565b60405180910390f35b60046020528060005260406000206000915090505481565b6002818051602081018201805184825260208301602085012081835280955050505050506000915090505481565b60036020528060005260406000206000915090505481565b60006020528060005260406000206000915090508060000154908060010180546101c5906106fa565b80601f01602080910402602001604051908101604052809291908181526020018280546101f1906106fa565b801561023e5780601f106102135761010080835404028352916020019161023e565b820191906000526020600020905b81548152906001019060200180831161022157829003601f168201915b505050505090806002018054610253906106fa565b80601f016020809104026020016040519081016040528092919081815260200182805461027f906106fa565b80156102cc5780601f106102a1576101008083540402835291602001916102cc565b820191906000526020600020905b8154815290600101906020018083116102af57829003601f168201915b5050505050908060030160009054906101000a900473ffffffffffffffffffffffffffffffffffffffff16908060040154905085565b60015481565b6000604051905090565b600080fd5b600080fd5b600073ffffffffffffffffffffffffffffffffffffffff82169050919050565b60006103478261031c565b9050919050565b6103578161033c565b811461036257600080fd5b50565b6000813590506103748161034e565b92915050565b6000602082840312156103905761038f610312565b5b600061039e84828501610365565b91505092915050565b6000819050919050565b6103ba816103a7565b82525050565b60006020820190506103d560008301846103b1565b92915050565b600080fd5b600080fd5b6000601f19601f8301169050919050565b7f4e487b7100000000000000000000000000000000000000000000000000000000600052604160045260246000fd5b61042e826103e5565b810181811067ffffffffffffffff8211171561044d5761044c6103f6565b5b80604052505050565b6000610460610308565b905061046c8282610425565b919050565b600067ffffffffffffffff82111561048c5761048b6103f6565b5b610495826103e5565b9050602081019050919050565b82818337600083830152505050565b60006104c46104bf84610471565b610456565b9050828152602081018484840111156104e0576104df6103e0565b5b6104eb8482856104a2565b509392505050565b600082601f830112610508576105076103db565b5b81356105188482602086016104b1565b91505092915050565b60006020828403121561053757610536610312565b5b600082013567ffffffffffffffff81111561055557610554610317565b5b610561848285016104f3565b91505092915050565b610573816103a7565b811461057e57600080fd5b50565b6000813590506105908161056a565b92915050565b6000602082840312156105ac576105ab610312565b5b60006105ba84828501610581565b91505092915050565b600081519050919050565b600082825260208201905092915050565b60005b838110156105fd5780820151818401526020810190506105e2565b60008484015250505050565b6000610614826105c3565b61061e81856105ce565b935061062e8185602086016105df565b610637816103e5565b840191505092915050565b61064b8161033c565b82525050565b6000819050919050565b61066481610651565b82525050565b600060a08201905061067f60008301886103b1565b81810360208301526106918187610609565b905081810360408301526106a58186610609565b90506106b46060830185610642565b6106c1608083018461065b565b9695505050505050565b7f4e487b7100000000000000000000000000000000000000000000000000000000600052602260045260246000fd5b6000600282049050600182168061071257607f821691505b602082108103610725576107246106cb565b5b5091905056fea2646970667358221220546692cf88faa3016693eec2c9e8d672ff75f4ba0ff67ce35e563bd4723f3ef464736f6c63430008120033",
					"opcodes": "PUSH1 0x80 PUSH1 0x40 MSTORE CALLVALUE DUP1 ISZERO PUSH2 0x10 JUMPI PUSH1 0x0 DUP1 REVERT JUMPDEST POP PUSH2 0x761 DUP1 PUSH2 0x20 PUSH1 0x0 CODECOPY PUSH1 0x0 RETURN INVALID PUSH1 0x80 PUSH1 0x40 MSTORE CALLVALUE DUP1 ISZERO PUSH2 0x10 JUMPI PUSH1 0x0 DUP1 REVERT JUMPDEST POP PUSH1 0x4 CALLDATASIZE LT PUSH2 0x57 JUMPI PUSH1 0x0 CALLDATALOAD PUSH1 0xE0 SHR DUP1 PUSH4 0x73F98FD EQ PUSH2 0x5C JUMPI DUP1 PUSH4 0x31F9A55F EQ PUSH2 0x8C JUMPI DUP1 PUSH4 0x94BBFC0D EQ PUSH2 0xBC JUMPI DUP1 PUSH4 0xB30906D4 EQ PUSH2 0xEC JUMPI DUP1 PUSH4 0xB7F1D527 EQ PUSH2 0x120 JUMPI JUMPDEST PUSH1 0x0 DUP1 REVERT JUMPDEST PUSH2 0x76 PUSH1 0x4 DUP1 CALLDATASIZE SUB DUP2 ADD SWAP1 PUSH2 0x71 SWAP2 SWAP1 PUSH2 0x37A JUMP JUMPDEST PUSH2 0x13E JUMP JUMPDEST PUSH1 0x40 MLOAD PUSH2 0x83 SWAP2 SWAP1 PUSH2 0x3C0 JUMP JUMPDEST PUSH1 0x40 MLOAD DUP1 SWAP2 SUB SWAP1 RETURN JUMPDEST PUSH2 0xA6 PUSH1 0x4 DUP1 CALLDATASIZE SUB DUP2 ADD SWAP1 PUSH2 0xA1 SWAP2 SWAP1 PUSH2 0x521 JUMP JUMPDEST PUSH2 0x156 JUMP JUMPDEST PUSH1 0x40 MLOAD PUSH2 0xB3 SWAP2 SWAP1 PUSH2 0x3C0 JUMP JUMPDEST PUSH1 0x40 MLOAD DUP1 SWAP2 SUB SWAP1 RETURN JUMPDEST PUSH2 0xD6 PUSH1 0x4 DUP1 CALLDATASIZE SUB DUP2 ADD SWAP1 PUSH2 0xD1 SWAP2 SWAP1 PUSH2 0x37A JUMP JUMPDEST PUSH2 0x184 JUMP JUMPDEST PUSH1 0x40 MLOAD PUSH2 0xE3 SWAP2 SWAP1 PUSH2 0x3C0 JUMP JUMPDEST PUSH1 0x40 MLOAD DUP1 SWAP2 SUB SWAP1 RETURN JUMPDEST PUSH2 0x106 PUSH1 0x4 DUP1 CALLDATASIZE SUB DUP2 ADD SWAP1 PUSH2 0x101 SWAP2 SWAP1 PUSH2 0x596 JUMP JUMPDEST PUSH2 0x19C JUMP JUMPDEST PUSH1 0x40 MLOAD PUSH2 0x117 SWAP6 SWAP5 SWAP4 SWAP3 SWAP2 SWAP1 PUSH2 0x66A JUMP JUMPDEST PUSH1 0x40 MLOAD DUP1 SWAP2 SUB SWAP1 RETURN JUMPDEST PUSH2 0x128 PUSH2 0x302 JUMP JUMPDEST PUSH1 0x40 MLOAD PUSH2 0x135 SWAP2 SWAP1 PUSH2 0x3C0 JUMP JUMPDEST PUSH1 0x40 MLOAD DUP1 SWAP2 SUB SWAP1 RETURN JUMPDEST PUSH1 0x4 PUSH1 0x20 MSTORE DUP1 PUSH1 0x0 MSTORE PUSH1 0x40 PUSH1 0x0 KECCAK256 PUSH1 0x0 SWAP2 POP SWAP1 POP SLOAD DUP2 JUMP JUMPDEST PUSH1 0x2 DUP2 DUP1 MLOAD PUSH1 0x20 DUP2 ADD DUP3 ADD DUP1 MLOAD DUP5 DUP3 MSTORE PUSH1 0x20 DUP4 ADD PUSH1 0x20 DUP6 ADD KECCAK256 DUP2 DUP4 MSTORE DUP1 SWAP6 POP POP POP POP POP POP PUSH1 0x0 SWAP2 POP SWAP1 POP SLOAD DUP2 JUMP JUMPDEST PUSH1 0x3 PUSH1 0x20 MSTORE DUP1 PUSH1 0x0 MSTORE PUSH1 0x40 PUSH1 0x0 KECCAK256 PUSH1 0x0 SWAP2 POP SWAP1 POP SLOAD DUP2 JUMP JUMPDEST PUSH1 0x0 PUSH1 0x20 MSTORE DUP1 PUSH1 0x0 MSTORE PUSH1 0x40 PUSH1 0x0 KECCAK256 PUSH1 0x0 SWAP2 POP SWAP1 POP DUP1 PUSH1 0x0 ADD SLOAD SWAP1 DUP1 PUSH1 0x1 ADD DUP1 SLOAD PUSH2 0x1C5 SWAP1 PUSH2 0x6FA JUMP JUMPDEST DUP1 PUSH1 0x1F ADD PUSH1 0x20 DUP1 SWAP2 DIV MUL PUSH1 0x20 ADD PUSH1 0x40 MLOAD SWAP1 DUP2 ADD PUSH1 0x40 MSTORE DUP1 SWAP3 SWAP2 SWAP1 DUP2 DUP2 MSTORE PUSH1 0x20 ADD DUP3 DUP1 SLOAD PUSH2 0x1F1 SWAP1 PUSH2 0x6FA JUMP JUMPDEST DUP1 ISZERO PUSH2 0x23E JUMPI DUP1 PUSH1 0x1F LT PUSH2 0x213 JUMPI PUSH2 0x100 DUP1 DUP4 SLOAD DIV MUL DUP4 MSTORE SWAP2 PUSH1 0x20 ADD SWAP2 PUSH2 0x23E JUMP JUMPDEST DUP3 ADD SWAP2 SWAP1 PUSH1 0x0 MSTORE PUSH1 0x20 PUSH1 0x0 KECCAK256 SWAP1 JUMPDEST DUP2 SLOAD DUP2 MSTORE SWAP1 PUSH1 0x1 ADD SWAP1 PUSH1 0x20 ADD DUP1 DUP4 GT PUSH2 0x221 JUMPI DUP3 SWAP1 SUB PUSH1 0x1F AND DUP3 ADD SWAP2 JUMPDEST POP POP POP POP POP SWAP1 DUP1 PUSH1 0x2 ADD DUP1 SLOAD PUSH2 0x253 SWAP1 PUSH2 0x6FA JUMP JUMPDEST DUP1 PUSH1 0x1F ADD PUSH1 0x20 DUP1 SWAP2 DIV MUL PUSH1 0x20 ADD PUSH1 0x40 MLOAD SWAP1 DUP2 ADD PUSH1 0x40 MSTORE DUP1 SWAP3 SWAP2 SWAP1 DUP2 DUP2 MSTORE PUSH1 0x20 ADD DUP3 DUP1 SLOAD PUSH2 0x27F SWAP1 PUSH2 0x6FA JUMP JUMPDEST DUP1 ISZERO PUSH2 0x2CC JUMPI DUP1 PUSH1 0x1F LT PUSH2 0x2A1 JUMPI PUSH2 0x100 DUP1 DUP4 SLOAD DIV MUL DUP4 MSTORE SWAP2 PUSH1 0x20 ADD SWAP2 PUSH2 0x2CC JUMP JUMPDEST DUP3 ADD SWAP2 SWAP1 PUSH1 0x0 MSTORE PUSH1 0x20 PUSH1 0x0 KECCAK256 SWAP1 JUMPDEST DUP2 SLOAD DUP2 MSTORE SWAP1 PUSH1 0x1 ADD SWAP1 PUSH1 0x20 ADD DUP1 DUP4 GT PUSH2 0x2AF JUMPI DUP3 SWAP1 SUB PUSH1 0x1F AND DUP3 ADD SWAP2 JUMPDEST POP POP POP POP POP SWAP1 DUP1 PUSH1 0x3 ADD PUSH1 0x0 SWAP1 SLOAD SWAP1 PUSH2 0x100 EXP SWAP1 DIV PUSH20 0xFFFFFFFFFFFFFFFFFFFFFFFFFFFFFFFFFFFFFFFF AND SWAP1 DUP1 PUSH1 0x4 ADD SLOAD SWAP1 POP DUP6 JUMP JUMPDEST PUSH1 0x1 SLOAD DUP2 JUMP JUMPDEST PUSH1 0x0 PUSH1 0x40 MLOAD SWAP1 POP SWAP1 JUMP JUMPDEST PUSH1 0x0 DUP1 REVERT JUMPDEST PUSH1 0x0 DUP1 REVERT JUMPDEST PUSH1 0x0 PUSH20 0xFFFFFFFFFFFFFFFFFFFFFFFFFFFFFFFFFFFFFFFF DUP3 AND SWAP1 POP SWAP2 SWAP1 POP JUMP JUMPDEST PUSH1 0x0 PUSH2 0x347 DUP3 PUSH2 0x31C JUMP JUMPDEST SWAP1 POP SWAP2 SWAP1 POP JUMP JUMPDEST PUSH2 0x357 DUP2 PUSH2 0x33C JUMP JUMPDEST DUP2 EQ PUSH2 0x362 JUMPI PUSH1 0x0 DUP1 REVERT JUMPDEST POP JUMP JUMPDEST PUSH1 0x0 DUP2 CALLDATALOAD SWAP1 POP PUSH2 0x374 DUP2 PUSH2 0x34E JUMP JUMPDEST SWAP3 SWAP2 POP POP JUMP JUMPDEST PUSH1 0x0 PUSH1 0x20 DUP3 DUP5 SUB SLT ISZERO PUSH2 0x390 JUMPI PUSH2 0x38F PUSH2 0x312 JUMP JUMPDEST JUMPDEST PUSH1 0x0 PUSH2 0x39E DUP5 DUP3 DUP6 ADD PUSH2 0x365 JUMP JUMPDEST SWAP2 POP POP SWAP3 SWAP2 POP POP JUMP JUMPDEST PUSH1 0x0 DUP2 SWAP1 POP SWAP2 SWAP1 POP JUMP JUMPDEST PUSH2 0x3BA DUP2 PUSH2 0x3A7 JUMP JUMPDEST DUP3 MSTORE POP POP JUMP JUMPDEST PUSH1 0x0 PUSH1 0x20 DUP3 ADD SWAP1 POP PUSH2 0x3D5 PUSH1 0x0 DUP4 ADD DUP5 PUSH2 0x3B1 JUMP JUMPDEST SWAP3 SWAP2 POP POP JUMP JUMPDEST PUSH1 0x0 DUP1 REVERT JUMPDEST PUSH1 0x0 DUP1 REVERT JUMPDEST PUSH1 0x0 PUSH1 0x1F NOT PUSH1 0x1F DUP4 ADD AND SWAP1 POP SWAP2 SWAP1 POP JUMP JUMPDEST PUSH32 0x4E487B7100000000000000000000000000000000000000000000000000000000 PUSH1 0x0 MSTORE PUSH1 0x41 PUSH1 0x4 MSTORE PUSH1 0x24 PUSH1 0x0 REVERT JUMPDEST PUSH2 0x42E DUP3 PUSH2 0x3E5 JUMP JUMPDEST DUP2 ADD DUP2 DUP2 LT PUSH8 0xFFFFFFFFFFFFFFFF DUP3 GT OR ISZERO PUSH2 0x44D JUMPI PUSH2 0x44C PUSH2 0x3F6 JUMP JUMPDEST JUMPDEST DUP1 PUSH1 0x40 MSTORE POP POP POP JUMP JUMPDEST PUSH1 0x0 PUSH2 0x460 PUSH2 0x308 JUMP JUMPDEST SWAP1 POP PUSH2 0x46C DUP3 DUP3 PUSH2 0x425 JUMP JUMPDEST SWAP2 SWAP1 POP JUMP JUMPDEST PUSH1 0x0 PUSH8 0xFFFFFFFFFFFFFFFF DUP3 GT ISZERO PUSH2 0x48C JUMPI PUSH2 0x48B PUSH2 0x3F6 JUMP JUMPDEST JUMPDEST PUSH2 0x495 DUP3 PUSH2 0x3E5 JUMP JUMPDEST SWAP1 POP PUSH1 0x20 DUP2 ADD SWAP1 POP SWAP2 SWAP1 POP JUMP JUMPDEST DUP3 DUP2 DUP4 CALLDATACOPY PUSH1 0x0 DUP4 DUP4 ADD MSTORE POP POP POP JUMP JUMPDEST PUSH1 0x0 PUSH2 0x4C4 PUSH2 0x4BF DUP5 PUSH2 0x471 JUMP JUMPDEST PUSH2 0x456 JUMP JUMPDEST SWAP1 POP DUP3 DUP2 MSTORE PUSH1 0x20 DUP2 ADD DUP5 DUP5 DUP5 ADD GT ISZERO PUSH2 0x4E0 JUMPI PUSH2 0x4DF PUSH2 0x3E0 JUMP JUMPDEST JUMPDEST PUSH2 0x4EB DUP5 DUP3 DUP6 PUSH2 0x4A2 JUMP JUMPDEST POP SWAP4 SWAP3 POP POP POP JUMP JUMPDEST PUSH1 0x0 DUP3 PUSH1 0x1F DUP4 ADD SLT PUSH2 0x508 JUMPI PUSH2 0x507 PUSH2 0x3DB JUMP JUMPDEST JUMPDEST DUP2 CALLDATALOAD PUSH2 0x518 DUP5 DUP3 PUSH1 0x20 DUP7 ADD PUSH2 0x4B1 JUMP JUMPDEST SWAP2 POP POP SWAP3 SWAP2 POP POP JUMP JUMPDEST PUSH1 0x0 PUSH1 0x20 DUP3 DUP5 SUB SLT ISZERO PUSH2 0x537 JUMPI PUSH2 0x536 PUSH2 0x312 JUMP JUMPDEST JUMPDEST PUSH1 0x0 DUP3 ADD CALLDATALOAD PUSH8 0xFFFFFFFFFFFFFFFF DUP2 GT ISZERO PUSH2 0x555 JUMPI PUSH2 0x554 PUSH2 0x317 JUMP JUMPDEST JUMPDEST PUSH2 0x561 DUP5 DUP3 DUP6 ADD PUSH2 0x4F3 JUMP JUMPDEST SWAP2 POP POP SWAP3 SWAP2 POP POP JUMP JUMPDEST PUSH2 0x573 DUP2 PUSH2 0x3A7 JUMP JUMPDEST DUP2 EQ PUSH2 0x57E JUMPI PUSH1 0x0 DUP1 REVERT JUMPDEST POP JUMP JUMPDEST PUSH1 0x0 DUP2 CALLDATALOAD SWAP1 POP PUSH2 0x590 DUP2 PUSH2 0x56A JUMP JUMPDEST SWAP3 SWAP2 POP POP JUMP JUMPDEST PUSH1 0x0 PUSH1 0x20 DUP3 DUP5 SUB SLT ISZERO PUSH2 0x5AC JUMPI PUSH2 0x5AB PUSH2 0x312 JUMP JUMPDEST JUMPDEST PUSH1 0x0 PUSH2 0x5BA DUP5 DUP3 DUP6 ADD PUSH2 0x581 JUMP JUMPDEST SWAP2 POP POP SWAP3 SWAP2 POP POP JUMP JUMPDEST PUSH1 0x0 DUP2 MLOAD SWAP1 POP SWAP2 SWAP1 POP JUMP JUMPDEST PUSH1 0x0 DUP3 DUP3 MSTORE PUSH1 0x20 DUP3 ADD SWAP1 POP SWAP3 SWAP2 POP POP JUMP JUMPDEST PUSH1 0x0 JUMPDEST DUP4 DUP2 LT ISZERO PUSH2 0x5FD JUMPI DUP1 DUP3 ADD MLOAD DUP2 DUP5 ADD MSTORE PUSH1 0x20 DUP2 ADD SWAP1 POP PUSH2 0x5E2 JUMP JUMPDEST PUSH1 0x0 DUP5 DUP5 ADD MSTORE POP POP POP POP JUMP JUMPDEST PUSH1 0x0 PUSH2 0x614 DUP3 PUSH2 0x5C3 JUMP JUMPDEST PUSH2 0x61E DUP2 DUP6 PUSH2 0x5CE JUMP JUMPDEST SWAP4 POP PUSH2 0x62E DUP2 DUP6 PUSH1 0x20 DUP7 ADD PUSH2 0x5DF JUMP JUMPDEST PUSH2 0x637 DUP2 PUSH2 0x3E5 JUMP JUMPDEST DUP5 ADD SWAP2 POP POP SWAP3 SWAP2 POP POP JUMP JUMPDEST PUSH2 0x64B DUP2 PUSH2 0x33C JUMP JUMPDEST DUP3 MSTORE POP POP JUMP JUMPDEST PUSH1 0x0 DUP2 SWAP1 POP SWAP2 SWAP1 POP JUMP JUMPDEST PUSH2 0x664 DUP2 PUSH2 0x651 JUMP JUMPDEST DUP3 MSTORE POP POP JUMP JUMPDEST PUSH1 0x0 PUSH1 0xA0 DUP3 ADD SWAP1 POP PUSH2 0x67F PUSH1 0x0 DUP4 ADD DUP9 PUSH2 0x3B1 JUMP JUMPDEST DUP2 DUP2 SUB PUSH1 0x20 DUP4 ADD MSTORE PUSH2 0x691 DUP2 DUP8 PUSH2 0x609 JUMP JUMPDEST SWAP1 POP DUP2 DUP2 SUB PUSH1 0x40 DUP4 ADD MSTORE PUSH2 0x6A5 DUP2 DUP7 PUSH2 0x609 JUMP JUMPDEST SWAP1 POP PUSH2 0x6B4 PUSH1 0x60 DUP4 ADD DUP6 PUSH2 0x642 JUMP JUMPDEST PUSH2 0x6C1 PUSH1 0x80 DUP4 ADD DUP5 PUSH2 0x65B JUMP JUMPDEST SWAP7 SWAP6 POP POP POP POP POP POP JUMP JUMPDEST PUSH32 0x4E487B7100000000000000000000000000000000000000000000000000000000 PUSH1 0x0 MSTORE PUSH1 0x22 PUSH1 0x4 MSTORE PUSH1 0x24 PUSH1 0x0 REVERT JUMPDEST PUSH1 0x0 PUSH1 0x2 DUP3 DIV SWAP1 POP PUSH1 0x1 DUP3 AND DUP1 PUSH2 0x712 JUMPI PUSH1 0x7F DUP3 AND SWAP2 POP JUMPDEST PUSH1 0x20 DUP3 LT DUP2 SUB PUSH2 0x725 JUMPI PUSH2 0x724 PUSH2 0x6CB JUMP JUMPDEST JUMPDEST POP SWAP2 SWAP1 POP JUMP INVALID LOG2 PUSH5 0x6970667358 0x22 SLT KECCAK256 SLOAD PUSH7 0x92CF88FAA30166 SWAP4 0xEE 0xC2 0xC9 0xE8 0xD6 PUSH19 0xFF75F4BA0FF67CE35E563BD4723F3EF464736F PUSH13 0x63430008120033000000000000 "
				},
				"gasEstimates": {
					"creation": {
						"codeDepositCost": "377800",
						"executionCost": "418",
						"totalCost": "378218"
					},
					"external": {
						"addressHasEntry(address)": "2792",
						"entries(uint256)": "infinite",
						"findByAddress(address)": "2836",
						"findByAlias(string)": "infinite",
						"num_entries()": "2495"
					}
				},
				"methodIdentifiers": {
					"addressHasEntry(address)": "073f98fd",
					"entries(uint256)": "b30906d4",
					"findByAddress(address)": "94bbfc0d",
					"findByAlias(string)": "31f9a55f",
					"num_entries()": "b7f1d527"
				}
			},
			"storageLayout": {
				"storage": [
					{
						"astId": 21,
						"contract": "Debts-in-class.sol:Debts",
						"label": "entries",
						"offset": 0,
						"slot": "0",
						"type": "t_mapping(t_uint256,t_struct(Entry)12_storage)"
					},
					{
						"astId": 23,
						"contract": "Debts-in-class.sol:Debts",
						"label": "num_entries",
						"offset": 0,
						"slot": "1",
						"type": "t_uint256"
					},
					{
						"astId": 27,
						"contract": "Debts-in-class.sol:Debts",
						"label": "findByAlias",
						"offset": 0,
						"slot": "2",
						"type": "t_mapping(t_string_memory_ptr,t_uint256)"
					},
					{
						"astId": 31,
						"contract": "Debts-in-class.sol:Debts",
						"label": "findByAddress",
						"offset": 0,
						"slot": "3",
						"type": "t_mapping(t_address,t_uint256)"
					},
					{
						"astId": 35,
						"contract": "Debts-in-class.sol:Debts",
						"label": "addressHasEntry",
						"offset": 0,
						"slot": "4",
						"type": "t_mapping(t_address,t_uint256)"
					}
				],
				"types": {
					"t_address": {
						"encoding": "inplace",
						"label": "address",
						"numberOfBytes": "20"
					},
					"t_int256": {
						"encoding": "inplace",
						"label": "int256",
						"numberOfBytes": "32"
					},
					"t_mapping(t_address,t_uint256)": {
						"encoding": "mapping",
						"key": "t_address",
						"label": "mapping(address => uint256)",
						"numberOfBytes": "32",
						"value": "t_uint256"
					},
					"t_mapping(t_string_memory_ptr,t_uint256)": {
						"encoding": "mapping",
						"key": "t_string_memory_ptr",
						"label": "mapping(string => uint256)",
						"numberOfBytes": "32",
						"value": "t_uint256"
					},
					"t_mapping(t_uint256,t_struct(Entry)12_storage)": {
						"encoding": "mapping",
						"key": "t_uint256",
						"label": "mapping(uint256 => struct Debts.Entry)",
						"numberOfBytes": "32",
						"value": "t_struct(Entry)12_storage"
					},
					"t_string_memory_ptr": {
						"encoding": "bytes",
						"label": "string",
						"numberOfBytes": "32"
					},
					"t_string_storage": {
						"encoding": "bytes",
						"label": "string",
						"numberOfBytes": "32"
					},
					"t_struct(Entry)12_storage": {
						"encoding": "inplace",
						"label": "struct Debts.Entry",
						"members": [
							{
								"astId": 3,
								"contract": "Debts-in-class.sol:Debts",
								"label": "id",
								"offset": 0,
								"slot": "0",
								"type": "t_uint256"
							},
							{
								"astId": 5,
								"contract": "Debts-in-class.sol:Debts",
								"label": "thealias",
								"offset": 0,
								"slot": "1",
								"type": "t_string_storage"
							},
							{
								"astId": 7,
								"contract": "Debts-in-class.sol:Debts",
								"label": "name",
								"offset": 0,
								"slot": "2",
								"type": "t_string_storage"
							},
							{
								"astId": 9,
								"contract": "Debts-in-class.sol:Debts",
								"label": "addr",
								"offset": 0,
								"slot": "3",
								"type": "t_address"
							},
							{
								"astId": 11,
								"contract": "Debts-in-class.sol:Debts",
								"label": "balance",
								"offset": 0,
								"slot": "4",
								"type": "t_int256"
							}
						],
						"numberOfBytes": "160"
					},
					"t_uint256": {
						"encoding": "inplace",
						"label": "uint256",
						"numberOfBytes": "32"
					}
				}
			},
			"userdoc": {
				"kind": "user",
				"methods": {},
				"version": 1
			}
		}
	}
}