{
	"data": {
		"bytecode": {
			"linkReferences": {},
			"object": "608060405260008054906101000a900473ffffffffffffffffffffffffffffffffffffffff16600460006101000a81548173ffffffffffffffffffffffffffffffffffffffff021916908373ffffffffffffffffffffffffffffffffffffffff1602179055503480156200007257600080fd5b5033600960006101000a81548173ffffffffffffffffffffffffffffffffffffffff021916908373ffffffffffffffffffffffffffffffffffffffff160217905550604051620000c29062000630565b604051809103906000f080158015620000df573d6000803e3d6000fd5b506000806101000a81548173ffffffffffffffffffffffffffffffffffffffff021916908373ffffffffffffffffffffffffffffffffffffffff160217905550604051806060016040528060258152602001620066d06025913960059081620001499190620008b8565b506040518060c0016040528060868152602001620066f56086913960089081620001749190620008b8565b506000620001c3620001b3600960009054906101000a900473ffffffffffffffffffffffffffffffffffffffff166200029260201b620015c31760201c565b60026022620002c760201b60201c565b905060008054906101000a900473ffffffffffffffffffffffffffffffffffffffff1673ffffffffffffffffffffffffffffffffffffffff16630e980602600960009054906101000a900473ffffffffffffffffffffffffffffffffffffffff16836040518363ffffffff1660e01b81526004016200024492919062000a73565b6020604051808303816000875af115801562000264573d6000803e3d6000fd5b505050506040513d601f19601f820116820180604052508101906200028a919062000add565b505062000d1b565b6060620002c08273ffffffffffffffffffffffffffffffffffffffff16601460ff16620003d560201b60201c565b9050919050565b6060600084905060008484620002de919062000b3e565b67ffffffffffffffff811115620002fa57620002f962000649565b5b6040519080825280601f01601f1916602001820160405280156200032d5781602001600182028036833780820191505090505b50905060008590505b84811015620003c85782818151811062000355576200035462000b79565b5b602001015160f81c60f81b8287836200036f919062000b3e565b8151811062000383576200038262000b79565b5b60200101907effffffffffffffffffffffffffffffffffffffffffffffffffffffffffffff1916908160001a9053508080620003bf9062000ba8565b91505062000336565b5080925050509392505050565b606060006002836002620003ea919062000bf5565b620003f6919062000c40565b67ffffffffffffffff81111562000412576200041162000649565b5b6040519080825280601f01601f191660200182016040528015620004455781602001600182028036833780820191505090505b5090507f30000000000000000000000000000000000000000000000000000000000000008160008151811062000480576200047f62000b79565b5b60200101907effffffffffffffffffffffffffffffffffffffffffffffffffffffffffffff1916908160001a9053507f780000000000000000000000000000000000000000000000000000000000000081600181518110620004e757620004e662000b79565b5b60200101907effffffffffffffffffffffffffffffffffffffffffffffffffffffffffffff1916908160001a9053506000600184600262000529919062000bf5565b62000535919062000c40565b90505b6001811115620005df577f3031323334353637383961626364656600000000000000000000000000000000600f8616601081106200057b576200057a62000b79565b5b1a60f81b82828151811062000595576200059462000b79565b5b60200101907effffffffffffffffffffffffffffffffffffffffffffffffffffffffffffff1916908160001a905350600485901c945080620005d79062000c7b565b905062000538565b506000841462000626576040517f08c379a00000000000000000000000000000000000000000000000000000000081526004016200061d9062000cf9565b60405180910390fd5b8091505092915050565b613088806200364883390190565b600081519050919050565b7f4e487b7100000000000000000000000000000000000000000000000000000000600052604160045260246000fd5b7f4e487b7100000000000000000000000000000000000000000000000000000000600052602260045260246000fd5b60006002820490506001821680620006c057607f821691505b602082108103620006d657620006d562000678565b5b50919050565b60008190508160005260206000209050919050565b60006020601f8301049050919050565b600082821b905092915050565b600060088302620007407fffffffffffffffffffffffffffffffffffffffffffffffffffffffffffffffff8262000701565b6200074c868362000701565b95508019841693508086168417925050509392505050565b6000819050919050565b6000819050919050565b600062000799620007936200078d8462000764565b6200076e565b62000764565b9050919050565b6000819050919050565b620007b58362000778565b620007cd620007c482620007a0565b8484546200070e565b825550505050565b600090565b620007e4620007d5565b620007f1818484620007aa565b505050565b5b8181101562000819576200080d600082620007da565b600181019050620007f7565b5050565b601f82111562000868576200083281620006dc565b6200083d84620006f1565b810160208510156200084d578190505b620008656200085c85620006f1565b830182620007f6565b50505b505050565b600082821c905092915050565b60006200088d600019846008026200086d565b1980831691505092915050565b6000620008a883836200087a565b9150826002028217905092915050565b620008c3826200063e565b67ffffffffffffffff811115620008df57620008de62000649565b5b620008eb8254620006a7565b620008f88282856200081d565b600060209050601f8311600181146200093057600084156200091b578287015190505b6200092785826200089a565b86555062000997565b601f1984166200094086620006dc565b60005b828110156200096a5784890151825560018201915060208501945060208101905062000943565b868310156200098a578489015162000986601f8916826200087a565b8355505b6001600288020188555050505b505050505050565b600073ffffffffffffffffffffffffffffffffffffffff82169050919050565b6000620009cc826200099f565b9050919050565b620009de81620009bf565b82525050565b600082825260208201905092915050565b60005b8381101562000a15578082015181840152602081019050620009f8565b60008484015250505050565b6000601f19601f8301169050919050565b600062000a3f826200063e565b62000a4b8185620009e4565b935062000a5d818560208601620009f5565b62000a688162000a21565b840191505092915050565b600060408201905062000a8a6000830185620009d3565b818103602083015262000a9e818462000a32565b90509392505050565b600080fd5b62000ab78162000764565b811462000ac357600080fd5b50565b60008151905062000ad78162000aac565b92915050565b60006020828403121562000af65762000af562000aa7565b5b600062000b068482850162000ac6565b91505092915050565b7f4e487b7100000000000000000000000000000000000000000000000000000000600052601160045260246000fd5b600062000b4b8262000764565b915062000b588362000764565b925082820390508181111562000b735762000b7262000b0f565b5b92915050565b7f4e487b7100000000000000000000000000000000000000000000000000000000600052603260045260246000fd5b600062000bb58262000764565b91507fffffffffffffffffffffffffffffffffffffffffffffffffffffffffffffffff820362000bea5762000be962000b0f565b5b600182019050919050565b600062000c028262000764565b915062000c0f8362000764565b925082820262000c1f8162000764565b9150828204841483151762000c395762000c3862000b0f565b5b5092915050565b600062000c4d8262000764565b915062000c5a8362000764565b925082820190508082111562000c755762000c7462000b0f565b5b92915050565b600062000c888262000764565b91506000820362000c9e5762000c9d62000b0f565b5b600182039050919050565b7f537472696e67733a20686578206c656e67746820696e73756666696369656e74600082015250565b600062000ce1602083620009e4565b915062000cee8262000ca9565b602082019050919050565b6000602082019050818103600083015262000d148162000cd2565b9050919050565b61291d8062000d2b6000396000f3fe6080604052600436106101185760003560e01c80638d7af473116100a0578063ca6d56dc11610064578063ca6d56dc146103cd578063d6b78768146103f6578063e66f53b714610421578063ea3fad661461044c578063eb38603f146104895761011f565b80638d7af473146102e65780639d63848a14610311578063a230c5241461033c578063c65c90cc14610379578063c9d27afe146103a45761011f565b80631dcd9b55116100e75780631dcd9b551461020c578063237b2197146102495780632e6fb0971461027457806370740aab146102a45780637b10b293146102cf5761011f565b8063013cf08b1461012457806301ffc9a7146101695780630386a016146101a65780631a384287146101cf5761011f565b3661011f57005b600080fd5b34801561013057600080fd5b5061014b60048036038101906101469190611876565b6104b4565b6040516101609998979695949392919061199e565b60405180910390f35b34801561017557600080fd5b50610190600480360381019061018b9190611a8a565b6105e4565b60405161019d9190611ab7565b60405180910390f35b3480156101b257600080fd5b506101cd60048036038101906101c89190611876565b6106b6565b005b3480156101db57600080fd5b506101f660048036038101906101f19190611afe565b610972565b6040516102039190611ab7565b60405180910390f35b34801561021857600080fd5b50610233600480360381019061022e9190611c73565b6109a1565b6040516102409190611ce2565b60405180910390f35b34801561025557600080fd5b5061025e610a9d565b60405161026b9190611d04565b60405180910390f35b61028e60048036038101906102899190611d1f565b610aa3565b60405161029b9190611d04565b60405180910390f35b3480156102b057600080fd5b506102b9610d89565b6040516102c69190611ce2565b60405180910390f35b3480156102db57600080fd5b506102e4610e17565b005b3480156102f257600080fd5b506102fb610ed2565b6040516103089190611d04565b60405180910390f35b34801561031d57600080fd5b50610326610ed8565b6040516103339190611da2565b60405180910390f35b34801561034857600080fd5b50610363600480360381019061035e9190611dbd565b610efe565b6040516103709190611ab7565b60405180910390f35b34801561038557600080fd5b5061038e610fb4565b60405161039b9190611ce2565b60405180910390f35b3480156103b057600080fd5b506103cb60048036038101906103c69190611e16565b611042565b005b3480156103d957600080fd5b506103f460048036038101906103ef9190611dbd565b6113ea565b005b34801561040257600080fd5b5061040b611544565b6040516104189190611d04565b60405180910390f35b34801561042d57600080fd5b5061043661154a565b6040516104439190611da2565b60405180910390f35b34801561045857600080fd5b50610473600480360381019061046e9190611afe565b611570565b6040516104809190611ab7565b60405180910390f35b34801561049557600080fd5b5061049e61159f565b6040516104ab9190611da2565b60405180910390f35b60016020528060005260406000206000915090508060000160009054906101000a900473ffffffffffffffffffffffffffffffffffffffff169080600101549080600201805461050390611e85565b80601f016020809104026020016040519081016040528092919081815260200182805461052f90611e85565b801561057c5780601f106105515761010080835404028352916020019161057c565b820191906000526020600020905b81548152906001019060200180831161055f57829003601f168201915b5050505050908060030154908060040160009054906101000a900460ff16908060040160019054906101000a900460ff16908060050154908060060154908060070160009054906101000a900473ffffffffffffffffffffffffffffffffffffffff16905089565b60007fb3df4ba8000000000000000000000000000000000000000000000000000000007bffffffffffffffffffffffffffffffffffffffffffffffffffffffff1916827bffffffffffffffffffffffffffffffffffffffffffffffffffffffff191614806106af57507f01ffc9a7000000000000000000000000000000000000000000000000000000007bffffffffffffffffffffffffffffffffffffffffffffffffffffffff1916827bffffffffffffffffffffffffffffffffffffffffffffffffffffffff1916145b9050919050565b60006001600083815260200190815260200160002060030154426106da9190611ee5565b1161071a576040517f08c379a000000000000000000000000000000000000000000000000000000000815260040161071190611f65565b60405180910390fd5b61072333610efe565b610762576040517f08c379a000000000000000000000000000000000000000000000000000000000815260040161075990611fd1565b60405180910390fd5b60006001600083815260200190815260200160002060040160006101000a81548160ff0219169083151502179055506001600082815260200190815260200160002060060154600160008381526020019081526020016000206005015411156108ed57600180600083815260200190815260200160002060040160016101000a81548160ff02191690831515021790555060006001600083815260200190815260200160002060000160009054906101000a900473ffffffffffffffffffffffffffffffffffffffff1673ffffffffffffffffffffffffffffffffffffffff16600160008481526020019081526020016000206001015460405161086590612022565b60006040518083038185875af1925050503d80600081146108a2576040519150601f19603f3d011682016040523d82523d6000602084013e6108a7565b606091505b50509050806108eb576040517f08c379a00000000000000000000000000000000000000000000000000000000081526004016108e290612083565b60405180910390fd5b505b6001600082815260200190815260200160002060010154600660008282546109159190611ee5565b925050819055506001600082815260200190815260200160002060040160019054906101000a900460ff161515817faffed5d901d9fbe9106721fa52653ede403c09699f9f810f6d378acc51fb50fa60405160405180910390a350565b60036020528160005260406000206020528060005260406000206000915091509054906101000a900460ff1681565b60606000849050600084846109b69190611ee5565b67ffffffffffffffff8111156109cf576109ce611b48565b5b6040519080825280601f01601f191660200182016040528015610a015781602001600182028036833780820191505090505b50905060008590505b84811015610a9057828181518110610a2557610a246120a3565b5b602001015160f81c60f81b828783610a3d9190611ee5565b81518110610a4e57610a4d6120a3565b5b60200101907effffffffffffffffffffffffffffffffffffffffffffffffffffffffffffff1916908160001a9053508080610a88906120d2565b915050610a0a565b5080925050509392505050565b60065481565b60008061025883610ab49190611ee5565b1015610af5576040517f08c379a0000000000000000000000000000000000000000000000000000000008152600401610aec9061218c565b60405180910390fd5b610afe33610efe565b610b3d576040517f08c379a0000000000000000000000000000000000000000000000000000000008152600401610b34906121f8565b60405180910390fd5b6040518061012001604052808673ffffffffffffffffffffffffffffffffffffffff1681526020018581526020018481526020018342610b7d9190612218565b815260200160011515815260200160001515815260200160008152602001600081526020013373ffffffffffffffffffffffffffffffffffffffff1681525060016000600754815260200190815260200160002060008201518160000160006101000a81548173ffffffffffffffffffffffffffffffffffffffff021916908373ffffffffffffffffffffffffffffffffffffffff160217905550602082015181600101556040820151816002019081610c3791906123f8565b506060820151816003015560808201518160040160006101000a81548160ff02191690831515021790555060a08201518160040160016101000a81548160ff02191690831515021790555060c0820151816005015560e082015181600601556101008201518160070160006101000a81548173ffffffffffffffffffffffffffffffffffffffff021916908373ffffffffffffffffffffffffffffffffffffffff16021790555090505060076000815480929190610cf4906120d2565b91905055508360066000828254610d0b9190612218565b92505081905550838573ffffffffffffffffffffffffffffffffffffffff166001600754610d399190611ee5565b7f0de8596bb26a876fd85351415cd7f8ea047829757b6ce0c3e8f6d5ae325c4b2186604051610d689190611ce2565b60405180910390a46001600754610d7f9190611ee5565b9050949350505050565b60058054610d9690611e85565b80601f0160208091040260200160405190810160405280929190818152602001828054610dc290611e85565b8015610e0f5780601f10610de457610100808354040283529160200191610e0f565b820191906000526020600020905b815481529060010190602001808311610df257829003601f168201915b505050505081565b6000610e2e610e25336115c3565b600260226109a1565b905060008054906101000a900473ffffffffffffffffffffffffffffffffffffffff1673ffffffffffffffffffffffffffffffffffffffff16630e98060233836040518363ffffffff1660e01b8152600401610e8b9291906124ca565b6020604051808303816000875af1158015610eaa573d6000803e3d6000fd5b505050506040513d601f19601f82011682018060405250810190610ece919061250f565b5050565b60075481565b600460009054906101000a900473ffffffffffffffffffffffffffffffffffffffff1681565b60008060008054906101000a900473ffffffffffffffffffffffffffffffffffffffff1673ffffffffffffffffffffffffffffffffffffffff166370a08231846040518263ffffffff1660e01b8152600401610f5a9190611da2565b602060405180830381865afa158015610f77573d6000803e3d6000fd5b505050506040513d601f19601f82011682018060405250810190610f9b919061250f565b1115610faa5760019050610faf565b600090505b919050565b60088054610fc190611e85565b80601f0160208091040260200160405190810160405280929190818152602001828054610fed90611e85565b801561103a5780601f1061100f5761010080835404028352916020019161103a565b820191906000526020600020905b81548152906001019060200180831161101d57829003601f168201915b505050505081565b61104b33610efe565b61108a576040517f08c379a0000000000000000000000000000000000000000000000000000000008152600401611081906125ae565b60405180910390fd5b600115156001600084815260200190815260200160002060040160009054906101000a900460ff161515146110f4576040517f08c379a00000000000000000000000000000000000000000000000000000000081526004016110eb9061261a565b60405180910390fd5b60001515600260003373ffffffffffffffffffffffffffffffffffffffff1673ffffffffffffffffffffffffffffffffffffffff168152602001908152602001600020600084815260200190815260200160002060009054906101000a900460ff1615151480156111c6575060001515600360003373ffffffffffffffffffffffffffffffffffffffff1673ffffffffffffffffffffffffffffffffffffffff168152602001908152602001600020600084815260200190815260200160002060009054906101000a900460ff161515145b611205576040517f08c379a00000000000000000000000000000000000000000000000000000000081526004016111fc906126ac565b60405180910390fd5b60004260016000858152602001908152602001600020600301546112299190611ee5565b11611269576040517f08c379a000000000000000000000000000000000000000000000000000000000815260040161126090612718565b60405180910390fd5b801561130957600160008381526020019081526020016000206005016000815480929190611296906120d2565b91905055506001600260003373ffffffffffffffffffffffffffffffffffffffff1673ffffffffffffffffffffffffffffffffffffffff168152602001908152602001600020600084815260200190815260200160002060006101000a81548160ff02191690831515021790555061139f565b600160008381526020019081526020016000206006016000815480929190611330906120d2565b91905055506001600360003373ffffffffffffffffffffffffffffffffffffffff1673ffffffffffffffffffffffffffffffffffffffff168152602001908152602001600020600084815260200190815260200160002060006101000a81548160ff0219169083151502179055505b3373ffffffffffffffffffffffffffffffffffffffff16811515837f86abfce99b7dd908bec0169288797f85049ec73cbe046ed9de818fab3a497ae060405160405180910390a45050565b600015156113f782610efe565b151514611439576040517f08c379a000000000000000000000000000000000000000000000000000000000815260040161143090612784565b60405180910390fd5b6001151561144633610efe565b151514611488576040517f08c379a000000000000000000000000000000000000000000000000000000000815260040161147f906127f0565b60405180910390fd5b600061149f611496836115c3565b600260226109a1565b905060008054906101000a900473ffffffffffffffffffffffffffffffffffffffff1673ffffffffffffffffffffffffffffffffffffffff16630e98060283836040518363ffffffff1660e01b81526004016114fc9291906124ca565b6020604051808303816000875af115801561151b573d6000803e3d6000fd5b505050506040513d601f19601f8201168201806040525081019061153f919061250f565b505050565b61025881565b600960009054906101000a900473ffffffffffffffffffffffffffffffffffffffff1681565b60026020528160005260406000206020528060005260406000206000915091509054906101000a900460ff1681565b60008054906101000a900473ffffffffffffffffffffffffffffffffffffffff1681565b60606115e98273ffffffffffffffffffffffffffffffffffffffff16601460ff166115f0565b9050919050565b6060600060028360026116039190612810565b61160d9190612218565b67ffffffffffffffff81111561162657611625611b48565b5b6040519080825280601f01601f1916602001820160405280156116585781602001600182028036833780820191505090505b5090507f3000000000000000000000000000000000000000000000000000000000000000816000815181106116905761168f6120a3565b5b60200101907effffffffffffffffffffffffffffffffffffffffffffffffffffffffffffff1916908160001a9053507f7800000000000000000000000000000000000000000000000000000000000000816001815181106116f4576116f36120a3565b5b60200101907effffffffffffffffffffffffffffffffffffffffffffffffffffffffffffff1916908160001a905350600060018460026117349190612810565b61173e9190612218565b90505b60018111156117de577f3031323334353637383961626364656600000000000000000000000000000000600f8616601081106117805761177f6120a3565b5b1a60f81b828281518110611797576117966120a3565b5b60200101907effffffffffffffffffffffffffffffffffffffffffffffffffffffffffffff1916908160001a905350600485901c9450806117d790612852565b9050611741565b5060008414611822576040517f08c379a0000000000000000000000000000000000000000000000000000000008152600401611819906128c7565b60405180910390fd5b8091505092915050565b6000604051905090565b600080fd5b600080fd5b6000819050919050565b61185381611840565b811461185e57600080fd5b50565b6000813590506118708161184a565b92915050565b60006020828403121561188c5761188b611836565b5b600061189a84828501611861565b91505092915050565b600073ffffffffffffffffffffffffffffffffffffffff82169050919050565b60006118ce826118a3565b9050919050565b6118de816118c3565b82525050565b6118ed81611840565b82525050565b600081519050919050565b600082825260208201905092915050565b60005b8381101561192d578082015181840152602081019050611912565b60008484015250505050565b6000601f19601f8301169050919050565b6000611955826118f3565b61195f81856118fe565b935061196f81856020860161190f565b61197881611939565b840191505092915050565b60008115159050919050565b61199881611983565b82525050565b6000610120820190506119b4600083018c6118d5565b6119c1602083018b6118e4565b81810360408301526119d3818a61194a565b90506119e260608301896118e4565b6119ef608083018861198f565b6119fc60a083018761198f565b611a0960c08301866118e4565b611a1660e08301856118e4565b611a246101008301846118d5565b9a9950505050505050505050565b60007fffffffff0000000000000000000000000000000000000000000000000000000082169050919050565b611a6781611a32565b8114611a7257600080fd5b50565b600081359050611a8481611a5e565b92915050565b600060208284031215611aa057611a9f611836565b5b6000611aae84828501611a75565b91505092915050565b6000602082019050611acc600083018461198f565b92915050565b611adb816118c3565b8114611ae657600080fd5b50565b600081359050611af881611ad2565b92915050565b60008060408385031215611b1557611b14611836565b5b6000611b2385828601611ae9565b9250506020611b3485828601611861565b9150509250929050565b600080fd5b600080fd5b7f4e487b7100000000000000000000000000000000000000000000000000000000600052604160045260246000fd5b611b8082611939565b810181811067ffffffffffffffff82111715611b9f57611b9e611b48565b5b80604052505050565b6000611bb261182c565b9050611bbe8282611b77565b919050565b600067ffffffffffffffff821115611bde57611bdd611b48565b5b611be782611939565b9050602081019050919050565b82818337600083830152505050565b6000611c16611c1184611bc3565b611ba8565b905082815260208101848484011115611c3257611c31611b43565b5b611c3d848285611bf4565b509392505050565b600082601f830112611c5a57611c59611b3e565b5b8135611c6a848260208601611c03565b91505092915050565b600080600060608486031215611c8c57611c8b611836565b5b600084013567ffffffffffffffff811115611caa57611ca961183b565b5b611cb686828701611c45565b9350506020611cc786828701611861565b9250506040611cd886828701611861565b9150509250925092565b60006020820190508181036000830152611cfc818461194a565b905092915050565b6000602082019050611d1960008301846118e4565b92915050565b60008060008060808587031215611d3957611d38611836565b5b6000611d4787828801611ae9565b9450506020611d5887828801611861565b935050604085013567ffffffffffffffff811115611d7957611d7861183b565b5b611d8587828801611c45565b9250506060611d9687828801611861565b91505092959194509250565b6000602082019050611db760008301846118d5565b92915050565b600060208284031215611dd357611dd2611836565b5b6000611de184828501611ae9565b91505092915050565b611df381611983565b8114611dfe57600080fd5b50565b600081359050611e1081611dea565b92915050565b60008060408385031215611e2d57611e2c611836565b5b6000611e3b85828601611861565b9250506020611e4c85828601611e01565b9150509250929050565b7f4e487b7100000000000000000000000000000000000000000000000000000000600052602260045260246000fd5b60006002820490506001821680611e9d57607f821691505b602082108103611eb057611eaf611e56565b5b50919050565b7f4e487b7100000000000000000000000000000000000000000000000000000000600052601160045260246000fd5b6000611ef082611840565b9150611efb83611840565b9250828203905081811115611f1357611f12611eb6565b5b92915050565b7f766f74696e672063616e207374696c6c2068617070656e2e0000000000000000600082015250565b6000611f4f6018836118fe565b9150611f5a82611f19565b602082019050919050565b60006020820190508181036000830152611f7e81611f42565b9050919050565b7f6f6e6c79206d656d626572732063616e20636c6f73652070726f706f73616c73600082015250565b6000611fbb6020836118fe565b9150611fc682611f85565b602082019050919050565b60006020820190508181036000830152611fea81611fae565b9050919050565b600081905092915050565b50565b600061200c600083611ff1565b915061201782611ffc565b600082019050919050565b600061202d82611fff565b9150819050919050565b7f7061796d656e74206469646e277420776f726b00000000000000000000000000600082015250565b600061206d6013836118fe565b915061207882612037565b602082019050919050565b6000602082019050818103600083015261209c81612060565b9050919050565b7f4e487b7100000000000000000000000000000000000000000000000000000000600052603260045260246000fd5b60006120dd82611840565b91507fffffffffffffffffffffffffffffffffffffffffffffffffffffffffffffffff820361210f5761210e611eb6565b5b600182019050919050565b7f6465626174696e6720706572696f64206973206c657373207468616e206d696e60008201527f20616c6c6f776564000000000000000000000000000000000000000000000000602082015250565b60006121766028836118fe565b91506121818261211a565b604082019050919050565b600060208201905081810360008301526121a581612169565b9050919050565b7f6f6e6c79206d656d626572732063616e206f70656e2070726f706f73616c7300600082015250565b60006121e2601f836118fe565b91506121ed826121ac565b602082019050919050565b60006020820190508181036000830152612211816121d5565b9050919050565b600061222382611840565b915061222e83611840565b925082820190508082111561224657612245611eb6565b5b92915050565b60008190508160005260206000209050919050565b60006020601f8301049050919050565b600082821b905092915050565b6000600883026122ae7fffffffffffffffffffffffffffffffffffffffffffffffffffffffffffffffff82612271565b6122b88683612271565b95508019841693508086168417925050509392505050565b6000819050919050565b60006122f56122f06122eb84611840565b6122d0565b611840565b9050919050565b6000819050919050565b61230f836122da565b61232361231b826122fc565b84845461227e565b825550505050565b600090565b61233861232b565b612343818484612306565b505050565b5b818110156123675761235c600082612330565b600181019050612349565b5050565b601f8211156123ac5761237d8161224c565b61238684612261565b81016020851015612395578190505b6123a96123a185612261565b830182612348565b50505b505050565b600082821c905092915050565b60006123cf600019846008026123b1565b1980831691505092915050565b60006123e883836123be565b9150826002028217905092915050565b612401826118f3565b67ffffffffffffffff81111561241a57612419611b48565b5b6124248254611e85565b61242f82828561236b565b600060209050601f8311600181146124625760008415612450578287015190505b61245a85826123dc565b8655506124c2565b601f1984166124708661224c565b60005b8281101561249857848901518255600182019150602085019450602081019050612473565b868310156124b557848901516124b1601f8916826123be565b8355505b6001600288020188555050505b505050505050565b60006040820190506124df60008301856118d5565b81810360208301526124f1818461194a565b90509392505050565b6000815190506125098161184a565b92915050565b60006020828403121561252557612524611836565b5b6000612533848285016124fa565b91505092915050565b7f6f6e6c79206d656d626572732063616e20766f7465206f6e2070726f706f736160008201527f6c73000000000000000000000000000000000000000000000000000000000000602082015250565b60006125986022836118fe565b91506125a38261253c565b604082019050919050565b600060208201905081810360008301526125c78161258b565b9050919050565b7f70726f706f73616c206d757374206265206f70656e20746f20766f7465000000600082015250565b6000612604601d836118fe565b915061260f826125ce565b602082019050919050565b60006020820190508181036000830152612633816125f7565b9050919050565b7f53656e6465722068617320616c7265616479206361737465642074686569722060008201527f766f74652e000000000000000000000000000000000000000000000000000000602082015250565b60006126966025836118fe565b91506126a18261263a565b604082019050919050565b600060208201905081810360008301526126c581612689565b9050919050565b7f63616e6e6f7420766f746520616674657220646561646c696e652e0000000000600082015250565b6000612702601b836118fe565b915061270d826126cc565b602082019050919050565b60006020820190508181036000830152612731816126f5565b9050919050565b7f6d656d62657220697320616c726561647920617070726f766564000000000000600082015250565b600061276e601a836118fe565b915061277982612738565b602082019050919050565b6000602082019050818103600083015261279d81612761565b9050919050565b7f6f6e6c79206d656d6265722063616e20617070726f7665000000000000000000600082015250565b60006127da6017836118fe565b91506127e5826127a4565b602082019050919050565b60006020820190508181036000830152612809816127cd565b9050919050565b600061281b82611840565b915061282683611840565b925082820261283481611840565b9150828204841483151761284b5761284a611eb6565b5b5092915050565b600061285d82611840565b9150600082036128705761286f611eb6565b5b600182039050919050565b7f537472696e67733a20686578206c656e67746820696e73756666696369656e74600082015250565b60006128b16020836118fe565b91506128bc8261287b565b602082019050919050565b600060208201905081810360008301526128e0816128a4565b905091905056fea264697066735822122032741bc9f87645afbac0f5ff570c60c53bf2677cfb9f78371b22b85e30a9981564736f6c6343000812003360806040526040518060600160405280603181526020016200305760319139600890816200002e91906200034f565b503480156200003c57600080fd5b506040518060400160405280600f81526020017f436f6c6c656374696f6e7328544d2900000000000000000000000000000000008152506040518060400160405280600481526020017f434f4c54000000000000000000000000000000000000000000000000000000008152508160009081620000ba91906200034f565b508060019081620000cc91906200034f565b50505062000436565b600081519050919050565b7f4e487b7100000000000000000000000000000000000000000000000000000000600052604160045260246000fd5b7f4e487b7100000000000000000000000000000000000000000000000000000000600052602260045260246000fd5b600060028204905060018216806200015757607f821691505b6020821081036200016d576200016c6200010f565b5b50919050565b60008190508160005260206000209050919050565b60006020601f8301049050919050565b600082821b905092915050565b600060088302620001d77fffffffffffffffffffffffffffffffffffffffffffffffffffffffffffffffff8262000198565b620001e3868362000198565b95508019841693508086168417925050509392505050565b6000819050919050565b6000819050919050565b6000620002306200022a6200022484620001fb565b62000205565b620001fb565b9050919050565b6000819050919050565b6200024c836200020f565b620002646200025b8262000237565b848454620001a5565b825550505050565b600090565b6200027b6200026c565b6200028881848462000241565b505050565b5b81811015620002b057620002a460008262000271565b6001810190506200028e565b5050565b601f821115620002ff57620002c98162000173565b620002d48462000188565b81016020851015620002e4578190505b620002fc620002f38562000188565b8301826200028d565b50505b505050565b600082821c905092915050565b6000620003246000198460080262000304565b1980831691505092915050565b60006200033f838362000311565b9150826002028217905092915050565b6200035a82620000d5565b67ffffffffffffffff811115620003765762000375620000e0565b5b6200038282546200013e565b6200038f828285620002b4565b600060209050601f831160018114620003c75760008415620003b2578287015190505b620003be858262000331565b8655506200042e565b601f198416620003d78662000173565b60005b828110156200040157848901518255600182019150602085019450602081019050620003da565b868310156200042157848901516200041d601f89168262000311565b8355505b6001600288020188555050505b505050505050565b612c1180620004466000396000f3fe608060405234801561001057600080fd5b506004361061010b5760003560e01c80636352211e116100a257806395d89b411161007157806395d89b41146102f0578063a22cb4651461030e578063b88d4fde1461032a578063c87b56dd14610346578063e985e9c5146103765761010b565b80636352211e1461023057806370a082311461026057806389c19ddb14610290578063947b59ae146102c05761010b565b8063095ea7b3116100de578063095ea7b3146101ac5780630e980602146101c857806323b872dd146101f857806342842e0e146102145761010b565b806301ffc9a71461011057806306661abd1461014057806306fdde031461015e578063081812fc1461017c575b600080fd5b61012a600480360381019061012591906118f7565b6103a6565b604051610137919061193f565b60405180910390f35b610148610548565b6040516101559190611973565b60405180910390f35b61016661054e565b6040516101739190611a1e565b60405180910390f35b61019660048036038101906101919190611a6c565b6105e0565b6040516101a39190611ada565b60405180910390f35b6101c660048036038101906101c19190611b21565b610626565b005b6101e260048036038101906101dd9190611c96565b61073d565b6040516101ef9190611973565b60405180910390f35b610212600480360381019061020d9190611cf2565b61082b565b005b61022e60048036038101906102299190611cf2565b61088b565b005b61024a60048036038101906102459190611a6c565b6108ab565b6040516102579190611ada565b60405180910390f35b61027a60048036038101906102759190611d45565b610931565b6040516102879190611973565b60405180910390f35b6102aa60048036038101906102a59190611d72565b6109e8565b6040516102b79190611a1e565b60405180910390f35b6102da60048036038101906102d59190611dea565b610a14565b6040516102e79190611973565b60405180910390f35b6102f8610a27565b6040516103059190611a1e565b60405180910390f35b61032860048036038101906103239190611e5f565b610ab9565b005b610344600480360381019061033f9190611f40565b610acf565b005b610360600480360381019061035b9190611a6c565b610b31565b60405161036d9190611a1e565b60405180910390f35b610390600480360381019061038b9190611fc3565b610ccb565b60405161039d919061193f565b60405180910390f35b60007f80ac58cd000000000000000000000000000000000000000000000000000000007bffffffffffffffffffffffffffffffffffffffffffffffffffffffff1916827bffffffffffffffffffffffffffffffffffffffffffffffffffffffff1916148061047157507f5b5e139f000000000000000000000000000000000000000000000000000000007bffffffffffffffffffffffffffffffffffffffffffffffffffffffff1916827bffffffffffffffffffffffffffffffffffffffffffffffffffffffff1916145b806104d957507f01ffc9a7000000000000000000000000000000000000000000000000000000007bffffffffffffffffffffffffffffffffffffffffffffffffffffffff1916827bffffffffffffffffffffffffffffffffffffffffffffffffffffffff1916145b8061054157507f9c854511000000000000000000000000000000000000000000000000000000007bffffffffffffffffffffffffffffffffffffffffffffffffffffffff1916827bffffffffffffffffffffffffffffffffffffffffffffffffffffffff1916145b9050919050565b60075481565b60606000805461055d90612032565b80601f016020809104026020016040519081016040528092919081815260200182805461058990612032565b80156105d65780601f106105ab576101008083540402835291602001916105d6565b820191906000526020600020905b8154815290600101906020018083116105b957829003601f168201915b5050505050905090565b60006105eb82610d5f565b6004600083815260200190815260200160002060009054906101000a900473ffffffffffffffffffffffffffffffffffffffff169050919050565b6000610631826108ab565b90508073ffffffffffffffffffffffffffffffffffffffff168373ffffffffffffffffffffffffffffffffffffffff16036106a1576040517f08c379a0000000000000000000000000000000000000000000000000000000008152600401610698906120d5565b60405180910390fd5b8073ffffffffffffffffffffffffffffffffffffffff166106c0610daa565b73ffffffffffffffffffffffffffffffffffffffff1614806106ef57506106ee816106e9610daa565b610ccb565b5b61072e576040517f08c379a000000000000000000000000000000000000000000000000000000000815260040161072590612167565b60405180910390fd5b6107388383610db2565b505050565b600080600090505b6007548110156107d257828051906020012060066000838152602001908152602001600020604051610777919061222a565b6040518091039020036107bf576040517f08c379a00000000000000000000000000000000000000000000000000000000081526004016107b69061228d565b60405180910390fd5b80806107ca906122dc565b915050610745565b50600060075490506107e684600754610e6b565b82600660006007548152602001908152602001600020908161080891906124d0565b506007600081548092919061081c906122dc565b91905055508091505092915050565b61083c610836610daa565b82610e89565b61087b576040517f08c379a000000000000000000000000000000000000000000000000000000000815260040161087290612614565b60405180910390fd5b610886838383610f1e565b505050565b6108a683838360405180602001604052806000815250610acf565b505050565b6000806108b783611217565b9050600073ffffffffffffffffffffffffffffffffffffffff168173ffffffffffffffffffffffffffffffffffffffff1603610928576040517f08c379a000000000000000000000000000000000000000000000000000000000815260040161091f90612680565b60405180910390fd5b80915050919050565b60008073ffffffffffffffffffffffffffffffffffffffff168273ffffffffffffffffffffffffffffffffffffffff16036109a1576040517f08c379a000000000000000000000000000000000000000000000000000000000815260040161099890612712565b60405180910390fd5b600360008373ffffffffffffffffffffffffffffffffffffffff1673ffffffffffffffffffffffffffffffffffffffff168152602001908152602001600020549050919050565b606082826040516020016109fd92919061276e565b604051602081830303815290604052905092915050565b6000610a20338361073d565b9050919050565b606060018054610a3690612032565b80601f0160208091040260200160405190810160405280929190818152602001828054610a6290612032565b8015610aaf5780601f10610a8457610100808354040283529160200191610aaf565b820191906000526020600020905b815481529060010190602001808311610a9257829003601f168201915b5050505050905090565b610acb610ac4610daa565b8383611254565b5050565b610ae0610ada610daa565b83610e89565b610b1f576040517f08c379a0000000000000000000000000000000000000000000000000000000008152600401610b1690612614565b60405180910390fd5b610b2b848484846113c0565b50505050565b60606000600660008481526020019081526020016000208054610b5390612032565b905011610b95576040517f08c379a0000000000000000000000000000000000000000000000000000000008152600401610b8c906127de565b60405180910390fd5b610cc460088054610ba590612032565b80601f0160208091040260200160405190810160405280929190818152602001828054610bd190612032565b8015610c1e5780601f10610bf357610100808354040283529160200191610c1e565b820191906000526020600020905b815481529060010190602001808311610c0157829003601f168201915b5050505050600660008581526020019081526020016000208054610c4190612032565b80601f0160208091040260200160405190810160405280929190818152602001828054610c6d90612032565b8015610cba5780601f10610c8f57610100808354040283529160200191610cba565b820191906000526020600020905b815481529060010190602001808311610c9d57829003601f168201915b50505050506109e8565b9050919050565b6000600560008473ffffffffffffffffffffffffffffffffffffffff1673ffffffffffffffffffffffffffffffffffffffff16815260200190815260200160002060008373ffffffffffffffffffffffffffffffffffffffff1673ffffffffffffffffffffffffffffffffffffffff16815260200190815260200160002060009054906101000a900460ff16905092915050565b610d688161141c565b610da7576040517f08c379a0000000000000000000000000000000000000000000000000000000008152600401610d9e90612680565b60405180910390fd5b50565b600033905090565b816004600083815260200190815260200160002060006101000a81548173ffffffffffffffffffffffffffffffffffffffff021916908373ffffffffffffffffffffffffffffffffffffffff160217905550808273ffffffffffffffffffffffffffffffffffffffff16610e25836108ab565b73ffffffffffffffffffffffffffffffffffffffff167f8c5be1e5ebec7d5bd14f71427d1e84f3dd0314c0f7b2291e5b200ac8c7c3b92560405160405180910390a45050565b610e8582826040518060200160405280600081525061145d565b5050565b600080610e95836108ab565b90508073ffffffffffffffffffffffffffffffffffffffff168473ffffffffffffffffffffffffffffffffffffffff161480610ed75750610ed68185610ccb565b5b80610f1557508373ffffffffffffffffffffffffffffffffffffffff16610efd846105e0565b73ffffffffffffffffffffffffffffffffffffffff16145b91505092915050565b8273ffffffffffffffffffffffffffffffffffffffff16610f3e826108ab565b73ffffffffffffffffffffffffffffffffffffffff1614610f94576040517f08c379a0000000000000000000000000000000000000000000000000000000008152600401610f8b90612870565b60405180910390fd5b600073ffffffffffffffffffffffffffffffffffffffff168273ffffffffffffffffffffffffffffffffffffffff1603611003576040517f08c379a0000000000000000000000000000000000000000000000000000000008152600401610ffa90612902565b60405180910390fd5b61101083838360016114b8565b8273ffffffffffffffffffffffffffffffffffffffff16611030826108ab565b73ffffffffffffffffffffffffffffffffffffffff1614611086576040517f08c379a000000000000000000000000000000000000000000000000000000000815260040161107d90612870565b60405180910390fd5b6004600082815260200190815260200160002060006101000a81549073ffffffffffffffffffffffffffffffffffffffff02191690556001600360008573ffffffffffffffffffffffffffffffffffffffff1673ffffffffffffffffffffffffffffffffffffffff168152602001908152602001600020600082825403925050819055506001600360008473ffffffffffffffffffffffffffffffffffffffff1673ffffffffffffffffffffffffffffffffffffffff16815260200190815260200160002060008282540192505081905550816002600083815260200190815260200160002060006101000a81548173ffffffffffffffffffffffffffffffffffffffff021916908373ffffffffffffffffffffffffffffffffffffffff160217905550808273ffffffffffffffffffffffffffffffffffffffff168473ffffffffffffffffffffffffffffffffffffffff167fddf252ad1be2c89b69c2b068fc378daa952ba7f163c4a11628f55a4df523b3ef60405160405180910390a461121283838360016114be565b505050565b60006002600083815260200190815260200160002060009054906101000a900473ffffffffffffffffffffffffffffffffffffffff169050919050565b8173ffffffffffffffffffffffffffffffffffffffff168373ffffffffffffffffffffffffffffffffffffffff16036112c2576040517f08c379a00000000000000000000000000000000000000000000000000000000081526004016112b99061296e565b60405180910390fd5b80600560008573ffffffffffffffffffffffffffffffffffffffff1673ffffffffffffffffffffffffffffffffffffffff16815260200190815260200160002060008473ffffffffffffffffffffffffffffffffffffffff1673ffffffffffffffffffffffffffffffffffffffff16815260200190815260200160002060006101000a81548160ff0219169083151502179055508173ffffffffffffffffffffffffffffffffffffffff168373ffffffffffffffffffffffffffffffffffffffff167f17307eab39ab6107e8899845ad3d59bd9653f200f220920489ca2b5937696c31836040516113b3919061193f565b60405180910390a3505050565b6113cb848484610f1e565b6113d7848484846114c4565b611416576040517f08c379a000000000000000000000000000000000000000000000000000000000815260040161140d90612a00565b60405180910390fd5b50505050565b60008073ffffffffffffffffffffffffffffffffffffffff1661143e83611217565b73ffffffffffffffffffffffffffffffffffffffff1614159050919050565b611467838361164b565b61147460008484846114c4565b6114b3576040517f08c379a00000000000000000000000000000000000000000000000000000000081526004016114aa90612a00565b60405180910390fd5b505050565b50505050565b50505050565b60006114e58473ffffffffffffffffffffffffffffffffffffffff16611868565b1561163e578373ffffffffffffffffffffffffffffffffffffffff1663150b7a0261150e610daa565b8786866040518563ffffffff1660e01b81526004016115309493929190612a75565b6020604051808303816000875af192505050801561156c57506040513d601f19601f820116820180604052508101906115699190612ad6565b60015b6115ee573d806000811461159c576040519150601f19603f3d011682016040523d82523d6000602084013e6115a1565b606091505b5060008151036115e6576040517f08c379a00000000000000000000000000000000000000000000000000000000081526004016115dd90612a00565b60405180910390fd5b805181602001fd5b63150b7a0260e01b7bffffffffffffffffffffffffffffffffffffffffffffffffffffffff1916817bffffffffffffffffffffffffffffffffffffffffffffffffffffffff191614915050611643565b600190505b949350505050565b600073ffffffffffffffffffffffffffffffffffffffff168273ffffffffffffffffffffffffffffffffffffffff16036116ba576040517f08c379a00000000000000000000000000000000000000000000000000000000081526004016116b190612b4f565b60405180910390fd5b6116c38161141c565b15611703576040517f08c379a00000000000000000000000000000000000000000000000000000000081526004016116fa90612bbb565b60405180910390fd5b6117116000838360016114b8565b61171a8161141c565b1561175a576040517f08c379a000000000000000000000000000000000000000000000000000000000815260040161175190612bbb565b60405180910390fd5b6001600360008473ffffffffffffffffffffffffffffffffffffffff1673ffffffffffffffffffffffffffffffffffffffff16815260200190815260200160002060008282540192505081905550816002600083815260200190815260200160002060006101000a81548173ffffffffffffffffffffffffffffffffffffffff021916908373ffffffffffffffffffffffffffffffffffffffff160217905550808273ffffffffffffffffffffffffffffffffffffffff16600073ffffffffffffffffffffffffffffffffffffffff167fddf252ad1be2c89b69c2b068fc378daa952ba7f163c4a11628f55a4df523b3ef60405160405180910390a46118646000838360016114be565b5050565b6000808273ffffffffffffffffffffffffffffffffffffffff163b119050919050565b6000604051905090565b600080fd5b600080fd5b60007fffffffff0000000000000000000000000000000000000000000000000000000082169050919050565b6118d48161189f565b81146118df57600080fd5b50565b6000813590506118f1816118cb565b92915050565b60006020828403121561190d5761190c611895565b5b600061191b848285016118e2565b91505092915050565b60008115159050919050565b61193981611924565b82525050565b60006020820190506119546000830184611930565b92915050565b6000819050919050565b61196d8161195a565b82525050565b60006020820190506119886000830184611964565b92915050565b600081519050919050565b600082825260208201905092915050565b60005b838110156119c85780820151818401526020810190506119ad565b60008484015250505050565b6000601f19601f8301169050919050565b60006119f08261198e565b6119fa8185611999565b9350611a0a8185602086016119aa565b611a13816119d4565b840191505092915050565b60006020820190508181036000830152611a3881846119e5565b905092915050565b611a498161195a565b8114611a5457600080fd5b50565b600081359050611a6681611a40565b92915050565b600060208284031215611a8257611a81611895565b5b6000611a9084828501611a57565b91505092915050565b600073ffffffffffffffffffffffffffffffffffffffff82169050919050565b6000611ac482611a99565b9050919050565b611ad481611ab9565b82525050565b6000602082019050611aef6000830184611acb565b92915050565b611afe81611ab9565b8114611b0957600080fd5b50565b600081359050611b1b81611af5565b92915050565b60008060408385031215611b3857611b37611895565b5b6000611b4685828601611b0c565b9250506020611b5785828601611a57565b9150509250929050565b600080fd5b600080fd5b7f4e487b7100000000000000000000000000000000000000000000000000000000600052604160045260246000fd5b611ba3826119d4565b810181811067ffffffffffffffff82111715611bc257611bc1611b6b565b5b80604052505050565b6000611bd561188b565b9050611be18282611b9a565b919050565b600067ffffffffffffffff821115611c0157611c00611b6b565b5b611c0a826119d4565b9050602081019050919050565b82818337600083830152505050565b6000611c39611c3484611be6565b611bcb565b905082815260208101848484011115611c5557611c54611b66565b5b611c60848285611c17565b509392505050565b600082601f830112611c7d57611c7c611b61565b5b8135611c8d848260208601611c26565b91505092915050565b60008060408385031215611cad57611cac611895565b5b6000611cbb85828601611b0c565b925050602083013567ffffffffffffffff811115611cdc57611cdb61189a565b5b611ce885828601611c68565b9150509250929050565b600080600060608486031215611d0b57611d0a611895565b5b6000611d1986828701611b0c565b9350506020611d2a86828701611b0c565b9250506040611d3b86828701611a57565b9150509250925092565b600060208284031215611d5b57611d5a611895565b5b6000611d6984828501611b0c565b91505092915050565b60008060408385031215611d8957611d88611895565b5b600083013567ffffffffffffffff811115611da757611da661189a565b5b611db385828601611c68565b925050602083013567ffffffffffffffff811115611dd457611dd361189a565b5b611de085828601611c68565b9150509250929050565b600060208284031215611e0057611dff611895565b5b600082013567ffffffffffffffff811115611e1e57611e1d61189a565b5b611e2a84828501611c68565b91505092915050565b611e3c81611924565b8114611e4757600080fd5b50565b600081359050611e5981611e33565b92915050565b60008060408385031215611e7657611e75611895565b5b6000611e8485828601611b0c565b9250506020611e9585828601611e4a565b9150509250929050565b600067ffffffffffffffff821115611eba57611eb9611b6b565b5b611ec3826119d4565b9050602081019050919050565b6000611ee3611ede84611e9f565b611bcb565b905082815260208101848484011115611eff57611efe611b66565b5b611f0a848285611c17565b509392505050565b600082601f830112611f2757611f26611b61565b5b8135611f37848260208601611ed0565b91505092915050565b60008060008060808587031215611f5a57611f59611895565b5b6000611f6887828801611b0c565b9450506020611f7987828801611b0c565b9350506040611f8a87828801611a57565b925050606085013567ffffffffffffffff811115611fab57611faa61189a565b5b611fb787828801611f12565b91505092959194509250565b60008060408385031215611fda57611fd9611895565b5b6000611fe885828601611b0c565b9250506020611ff985828601611b0c565b9150509250929050565b7f4e487b7100000000000000000000000000000000000000000000000000000000600052602260045260246000fd5b6000600282049050600182168061204a57607f821691505b60208210810361205d5761205c612003565b5b50919050565b7f4552433732313a20617070726f76616c20746f2063757272656e74206f776e6560008201527f7200000000000000000000000000000000000000000000000000000000000000602082015250565b60006120bf602183611999565b91506120ca82612063565b604082019050919050565b600060208201905081810360008301526120ee816120b2565b9050919050565b7f4552433732313a20617070726f76652063616c6c6572206973206e6f7420746f60008201527f6b656e206f776e6572206f7220617070726f76656420666f7220616c6c000000602082015250565b6000612151603d83611999565b915061215c826120f5565b604082019050919050565b6000602082019050818103600083015261218081612144565b9050919050565b600081905092915050565b60008190508160005260206000209050919050565b600081546121b481612032565b6121be8186612187565b945060018216600081146121d957600181146121ee57612221565b60ff1983168652811515820286019350612221565b6121f785612192565b60005b83811015612219578154818901526001820191506020810190506121fa565b838801955050505b50505092915050565b600061223682846121a7565b915081905092915050565b7f63616e2774206d696e74206475706c6963617465000000000000000000000000600082015250565b6000612277601483611999565b915061228282612241565b602082019050919050565b600060208201905081810360008301526122a68161226a565b9050919050565b7f4e487b7100000000000000000000000000000000000000000000000000000000600052601160045260246000fd5b60006122e78261195a565b91507fffffffffffffffffffffffffffffffffffffffffffffffffffffffffffffffff8203612319576123186122ad565b5b600182019050919050565b60008190508160005260206000209050919050565b60006020601f8301049050919050565b600082821b905092915050565b6000600883026123867fffffffffffffffffffffffffffffffffffffffffffffffffffffffffffffffff82612349565b6123908683612349565b95508019841693508086168417925050509392505050565b6000819050919050565b60006123cd6123c86123c38461195a565b6123a8565b61195a565b9050919050565b6000819050919050565b6123e7836123b2565b6123fb6123f3826123d4565b848454612356565b825550505050565b600090565b612410612403565b61241b8184846123de565b505050565b5b8181101561243f57612434600082612408565b600181019050612421565b5050565b601f8211156124845761245581612324565b61245e84612339565b8101602085101561246d578190505b61248161247985612339565b830182612420565b50505b505050565b600082821c905092915050565b60006124a760001984600802612489565b1980831691505092915050565b60006124c08383612496565b9150826002028217905092915050565b6124d98261198e565b67ffffffffffffffff8111156124f2576124f1611b6b565b5b6124fc8254612032565b612507828285612443565b600060209050601f83116001811461253a5760008415612528578287015190505b61253285826124b4565b86555061259a565b601f19841661254886612324565b60005b828110156125705784890151825560018201915060208501945060208101905061254b565b8683101561258d5784890151612589601f891682612496565b8355505b6001600288020188555050505b505050505050565b7f4552433732313a2063616c6c6572206973206e6f7420746f6b656e206f776e6560008201527f72206f7220617070726f76656400000000000000000000000000000000000000602082015250565b60006125fe602d83611999565b9150612609826125a2565b604082019050919050565b6000602082019050818103600083015261262d816125f1565b9050919050565b7f4552433732313a20696e76616c696420746f6b656e2049440000000000000000600082015250565b600061266a601883611999565b915061267582612634565b602082019050919050565b600060208201905081810360008301526126998161265d565b9050919050565b7f4552433732313a2061646472657373207a65726f206973206e6f74206120766160008201527f6c6964206f776e65720000000000000000000000000000000000000000000000602082015250565b60006126fc602983611999565b9150612707826126a0565b604082019050919050565b6000602082019050818103600083015261272b816126ef565b9050919050565b600081905092915050565b60006127488261198e565b6127528185612732565b93506127628185602086016119aa565b80840191505092915050565b600061277a828561273d565b9150612786828461273d565b91508190509392505050565b7f746f6b656e494420776173206e6f742076616c69642e00000000000000000000600082015250565b60006127c8601683611999565b91506127d382612792565b602082019050919050565b600060208201905081810360008301526127f7816127bb565b9050919050565b7f4552433732313a207472616e736665722066726f6d20696e636f72726563742060008201527f6f776e6572000000000000000000000000000000000000000000000000000000602082015250565b600061285a602583611999565b9150612865826127fe565b604082019050919050565b600060208201905081810360008301526128898161284d565b9050919050565b7f4552433732313a207472616e7366657220746f20746865207a65726f2061646460008201527f7265737300000000000000000000000000000000000000000000000000000000602082015250565b60006128ec602483611999565b91506128f782612890565b604082019050919050565b6000602082019050818103600083015261291b816128df565b9050919050565b7f4552433732313a20617070726f766520746f2063616c6c657200000000000000600082015250565b6000612958601983611999565b915061296382612922565b602082019050919050565b600060208201905081810360008301526129878161294b565b9050919050565b7f4552433732313a207472616e7366657220746f206e6f6e20455243373231526560008201527f63656976657220696d706c656d656e7465720000000000000000000000000000602082015250565b60006129ea603283611999565b91506129f58261298e565b604082019050919050565b60006020820190508181036000830152612a19816129dd565b9050919050565b600081519050919050565b600082825260208201905092915050565b6000612a4782612a20565b612a518185612a2b565b9350612a618185602086016119aa565b612a6a816119d4565b840191505092915050565b6000608082019050612a8a6000830187611acb565b612a976020830186611acb565b612aa46040830185611964565b8181036060830152612ab68184612a3c565b905095945050505050565b600081519050612ad0816118cb565b92915050565b600060208284031215612aec57612aeb611895565b5b6000612afa84828501612ac1565b91505092915050565b7f4552433732313a206d696e7420746f20746865207a65726f2061646472657373600082015250565b6000612b39602083611999565b9150612b4482612b03565b602082019050919050565b60006020820190508181036000830152612b6881612b2c565b9050919050565b7f4552433732313a20746f6b656e20616c7265616479206d696e74656400000000600082015250565b6000612ba5601c83611999565b9150612bb082612b6f565b602082019050919050565b60006020820190508181036000830152612bd481612b98565b905091905056fea26469706673582212209d60cd4896bab0614b9670408c4430aa0e2511e89f8fe28979e3881a3c58222b64736f6c6343000812003368747470733a2f2f616e64726f6d6564612e63732e76697267696e69612e6564752f6363632f697066732f66696c65732f4c657427732066696e64206f75743a20576166666c6573206f722050616e636b6165733f3f5072656865617420776166666c652069726f6e206163636f7264696e6720746f206d616e756661637475726572277320696e737472756374696f6e732e20496e2061206c6172676520626f776c2c20776869736b20666c6f75722c2073756761722c2062616b696e6720706f776465722c20616e642073616c743b2073657420617369646521",
			"opcodes": "PUSH1 0x80 PUSH1 0x40 MSTORE PUSH1 0x0 DUP1 SLOAD SWAP1 PUSH2 0x100 EXP SWAP1 DIV PUSH20 0xFFFFFFFFFFFFFFFFFFFFFFFFFFFFFFFFFFFFFFFF AND PUSH1 0x4 PUSH1 0x0 PUSH2 0x100 EXP DUP2 SLOAD DUP2 PUSH20 0xFFFFFFFFFFFFFFFFFFFFFFFFFFFFFFFFFFFFFFFF MUL NOT AND SWAP1 DUP4 PUSH20 0xFFFFFFFFFFFFFFFFFFFFFFFFFFFFFFFFFFFFFFFF AND MUL OR SWAP1 SSTORE POP CALLVALUE DUP1 ISZERO PUSH3 0x72 JUMPI PUSH1 0x0 DUP1 REVERT JUMPDEST POP CALLER PUSH1 0x9 PUSH1 0x0 PUSH2 0x100 EXP DUP2 SLOAD DUP2 PUSH20 0xFFFFFFFFFFFFFFFFFFFFFFFFFFFFFFFFFFFFFFFF MUL NOT AND SWAP1 DUP4 PUSH20 0xFFFFFFFFFFFFFFFFFFFFFFFFFFFFFFFFFFFFFFFF AND MUL OR SWAP1 SSTORE POP PUSH1 0x40 MLOAD PUSH3 0xC2 SWAP1 PUSH3 0x630 JUMP JUMPDEST PUSH1 0x40 MLOAD DUP1 SWAP2 SUB SWAP1 PUSH1 0x0 CREATE DUP1 ISZERO DUP1 ISZERO PUSH3 0xDF JUMPI RETURNDATASIZE PUSH1 0x0 DUP1 RETURNDATACOPY RETURNDATASIZE PUSH1 0x0 REVERT JUMPDEST POP PUSH1 0x0 DUP1 PUSH2 0x100 EXP DUP2 SLOAD DUP2 PUSH20 0xFFFFFFFFFFFFFFFFFFFFFFFFFFFFFFFFFFFFFFFF MUL NOT AND SWAP1 DUP4 PUSH20 0xFFFFFFFFFFFFFFFFFFFFFFFFFFFFFFFFFFFFFFFF AND MUL OR SWAP1 SSTORE POP PUSH1 0x40 MLOAD DUP1 PUSH1 0x60 ADD PUSH1 0x40 MSTORE DUP1 PUSH1 0x25 DUP2 MSTORE PUSH1 0x20 ADD PUSH3 0x66D0 PUSH1 0x25 SWAP2 CODECOPY PUSH1 0x5 SWAP1 DUP2 PUSH3 0x149 SWAP2 SWAP1 PUSH3 0x8B8 JUMP JUMPDEST POP PUSH1 0x40 MLOAD DUP1 PUSH1 0xC0 ADD PUSH1 0x40 MSTORE DUP1 PUSH1 0x86 DUP2 MSTORE PUSH1 0x20 ADD PUSH3 0x66F5 PUSH1 0x86 SWAP2 CODECOPY PUSH1 0x8 SWAP1 DUP2 PUSH3 0x174 SWAP2 SWAP1 PUSH3 0x8B8 JUMP JUMPDEST POP PUSH1 0x0 PUSH3 0x1C3 PUSH3 0x1B3 PUSH1 0x9 PUSH1 0x0 SWAP1 SLOAD SWAP1 PUSH2 0x100 EXP SWAP1 DIV PUSH20 0xFFFFFFFFFFFFFFFFFFFFFFFFFFFFFFFFFFFFFFFF AND PUSH3 0x292 PUSH1 0x20 SHL PUSH3 0x15C3 OR PUSH1 0x20 SHR JUMP JUMPDEST PUSH1 0x2 PUSH1 0x22 PUSH3 0x2C7 PUSH1 0x20 SHL PUSH1 0x20 SHR JUMP JUMPDEST SWAP1 POP PUSH1 0x0 DUP1 SLOAD SWAP1 PUSH2 0x100 EXP SWAP1 DIV PUSH20 0xFFFFFFFFFFFFFFFFFFFFFFFFFFFFFFFFFFFFFFFF AND PUSH20 0xFFFFFFFFFFFFFFFFFFFFFFFFFFFFFFFFFFFFFFFF AND PUSH4 0xE980602 PUSH1 0x9 PUSH1 0x0 SWAP1 SLOAD SWAP1 PUSH2 0x100 EXP SWAP1 DIV PUSH20 0xFFFFFFFFFFFFFFFFFFFFFFFFFFFFFFFFFFFFFFFF AND DUP4 PUSH1 0x40 MLOAD DUP4 PUSH4 0xFFFFFFFF AND PUSH1 0xE0 SHL DUP2 MSTORE PUSH1 0x4 ADD PUSH3 0x244 SWAP3 SWAP2 SWAP1 PUSH3 0xA73 JUMP JUMPDEST PUSH1 0x20 PUSH1 0x40 MLOAD DUP1 DUP4 SUB DUP2 PUSH1 0x0 DUP8 GAS CALL ISZERO DUP1 ISZERO PUSH3 0x264 JUMPI RETURNDATASIZE PUSH1 0x0 DUP1 RETURNDATACOPY RETURNDATASIZE PUSH1 0x0 REVERT JUMPDEST POP POP POP POP PUSH1 0x40 MLOAD RETURNDATASIZE PUSH1 0x1F NOT PUSH1 0x1F DUP3 ADD AND DUP3 ADD DUP1 PUSH1 0x40 MSTORE POP DUP2 ADD SWAP1 PUSH3 0x28A SWAP2 SWAP1 PUSH3 0xADD JUMP JUMPDEST POP POP PUSH3 0xD1B JUMP JUMPDEST PUSH1 0x60 PUSH3 0x2C0 DUP3 PUSH20 0xFFFFFFFFFFFFFFFFFFFFFFFFFFFFFFFFFFFFFFFF AND PUSH1 0x14 PUSH1 0xFF AND PUSH3 0x3D5 PUSH1 0x20 SHL PUSH1 0x20 SHR JUMP JUMPDEST SWAP1 POP SWAP2 SWAP1 POP JUMP JUMPDEST PUSH1 0x60 PUSH1 0x0 DUP5 SWAP1 POP PUSH1 0x0 DUP5 DUP5 PUSH3 0x2DE SWAP2 SWAP1 PUSH3 0xB3E JUMP JUMPDEST PUSH8 0xFFFFFFFFFFFFFFFF DUP2 GT ISZERO PUSH3 0x2FA JUMPI PUSH3 0x2F9 PUSH3 0x649 JUMP JUMPDEST JUMPDEST PUSH1 0x40 MLOAD SWAP1 DUP1 DUP3 MSTORE DUP1 PUSH1 0x1F ADD PUSH1 0x1F NOT AND PUSH1 0x20 ADD DUP3 ADD PUSH1 0x40 MSTORE DUP1 ISZERO PUSH3 0x32D JUMPI DUP2 PUSH1 0x20 ADD PUSH1 0x1 DUP3 MUL DUP1 CALLDATASIZE DUP4 CALLDATACOPY DUP1 DUP3 ADD SWAP2 POP POP SWAP1 POP JUMPDEST POP SWAP1 POP PUSH1 0x0 DUP6 SWAP1 POP JUMPDEST DUP5 DUP2 LT ISZERO PUSH3 0x3C8 JUMPI DUP3 DUP2 DUP2 MLOAD DUP2 LT PUSH3 0x355 JUMPI PUSH3 0x354 PUSH3 0xB79 JUMP JUMPDEST JUMPDEST PUSH1 0x20 ADD ADD MLOAD PUSH1 0xF8 SHR PUSH1 0xF8 SHL DUP3 DUP8 DUP4 PUSH3 0x36F SWAP2 SWAP1 PUSH3 0xB3E JUMP JUMPDEST DUP2 MLOAD DUP2 LT PUSH3 0x383 JUMPI PUSH3 0x382 PUSH3 0xB79 JUMP JUMPDEST JUMPDEST PUSH1 0x20 ADD ADD SWAP1 PUSH31 0xFFFFFFFFFFFFFFFFFFFFFFFFFFFFFFFFFFFFFFFFFFFFFFFFFFFFFFFFFFFFFF NOT AND SWAP1 DUP2 PUSH1 0x0 BYTE SWAP1 MSTORE8 POP DUP1 DUP1 PUSH3 0x3BF SWAP1 PUSH3 0xBA8 JUMP JUMPDEST SWAP2 POP POP PUSH3 0x336 JUMP JUMPDEST POP DUP1 SWAP3 POP POP POP SWAP4 SWAP3 POP POP POP JUMP JUMPDEST PUSH1 0x60 PUSH1 0x0 PUSH1 0x2 DUP4 PUSH1 0x2 PUSH3 0x3EA SWAP2 SWAP1 PUSH3 0xBF5 JUMP JUMPDEST PUSH3 0x3F6 SWAP2 SWAP1 PUSH3 0xC40 JUMP JUMPDEST PUSH8 0xFFFFFFFFFFFFFFFF DUP2 GT ISZERO PUSH3 0x412 JUMPI PUSH3 0x411 PUSH3 0x649 JUMP JUMPDEST JUMPDEST PUSH1 0x40 MLOAD SWAP1 DUP1 DUP3 MSTORE DUP1 PUSH1 0x1F ADD PUSH1 0x1F NOT AND PUSH1 0x20 ADD DUP3 ADD PUSH1 0x40 MSTORE DUP1 ISZERO PUSH3 0x445 JUMPI DUP2 PUSH1 0x20 ADD PUSH1 0x1 DUP3 MUL DUP1 CALLDATASIZE DUP4 CALLDATACOPY DUP1 DUP3 ADD SWAP2 POP POP SWAP1 POP JUMPDEST POP SWAP1 POP PUSH32 0x3000000000000000000000000000000000000000000000000000000000000000 DUP2 PUSH1 0x0 DUP2 MLOAD DUP2 LT PUSH3 0x480 JUMPI PUSH3 0x47F PUSH3 0xB79 JUMP JUMPDEST JUMPDEST PUSH1 0x20 ADD ADD SWAP1 PUSH31 0xFFFFFFFFFFFFFFFFFFFFFFFFFFFFFFFFFFFFFFFFFFFFFFFFFFFFFFFFFFFFFF NOT AND SWAP1 DUP2 PUSH1 0x0 BYTE SWAP1 MSTORE8 POP PUSH32 0x7800000000000000000000000000000000000000000000000000000000000000 DUP2 PUSH1 0x1 DUP2 MLOAD DUP2 LT PUSH3 0x4E7 JUMPI PUSH3 0x4E6 PUSH3 0xB79 JUMP JUMPDEST JUMPDEST PUSH1 0x20 ADD ADD SWAP1 PUSH31 0xFFFFFFFFFFFFFFFFFFFFFFFFFFFFFFFFFFFFFFFFFFFFFFFFFFFFFFFFFFFFFF NOT AND SWAP1 DUP2 PUSH1 0x0 BYTE SWAP1 MSTORE8 POP PUSH1 0x0 PUSH1 0x1 DUP5 PUSH1 0x2 PUSH3 0x529 SWAP2 SWAP1 PUSH3 0xBF5 JUMP JUMPDEST PUSH3 0x535 SWAP2 SWAP1 PUSH3 0xC40 JUMP JUMPDEST SWAP1 POP JUMPDEST PUSH1 0x1 DUP2 GT ISZERO PUSH3 0x5DF JUMPI PUSH32 0x3031323334353637383961626364656600000000000000000000000000000000 PUSH1 0xF DUP7 AND PUSH1 0x10 DUP2 LT PUSH3 0x57B JUMPI PUSH3 0x57A PUSH3 0xB79 JUMP JUMPDEST JUMPDEST BYTE PUSH1 0xF8 SHL DUP3 DUP3 DUP2 MLOAD DUP2 LT PUSH3 0x595 JUMPI PUSH3 0x594 PUSH3 0xB79 JUMP JUMPDEST JUMPDEST PUSH1 0x20 ADD ADD SWAP1 PUSH31 0xFFFFFFFFFFFFFFFFFFFFFFFFFFFFFFFFFFFFFFFFFFFFFFFFFFFFFFFFFFFFFF NOT AND SWAP1 DUP2 PUSH1 0x0 BYTE SWAP1 MSTORE8 POP PUSH1 0x4 DUP6 SWAP1 SHR SWAP5 POP DUP1 PUSH3 0x5D7 SWAP1 PUSH3 0xC7B JUMP JUMPDEST SWAP1 POP PUSH3 0x538 JUMP JUMPDEST POP PUSH1 0x0 DUP5 EQ PUSH3 0x626 JUMPI PUSH1 0x40 MLOAD PUSH32 0x8C379A000000000000000000000000000000000000000000000000000000000 DUP2 MSTORE PUSH1 0x4 ADD PUSH3 0x61D SWAP1 PUSH3 0xCF9 JUMP JUMPDEST PUSH1 0x40 MLOAD DUP1 SWAP2 SUB SWAP1 REVERT JUMPDEST DUP1 SWAP2 POP POP SWAP3 SWAP2 POP POP JUMP JUMPDEST PUSH2 0x3088 DUP1 PUSH3 0x3648 DUP4 CODECOPY ADD SWAP1 JUMP JUMPDEST PUSH1 0x0 DUP2 MLOAD SWAP1 POP SWAP2 SWAP1 POP JUMP JUMPDEST PUSH32 0x4E487B7100000000000000000000000000000000000000000000000000000000 PUSH1 0x0 MSTORE PUSH1 0x41 PUSH1 0x4 MSTORE PUSH1 0x24 PUSH1 0x0 REVERT JUMPDEST PUSH32 0x4E487B7100000000000000000000000000000000000000000000000000000000 PUSH1 0x0 MSTORE PUSH1 0x22 PUSH1 0x4 MSTORE PUSH1 0x24 PUSH1 0x0 REVERT JUMPDEST PUSH1 0x0 PUSH1 0x2 DUP3 DIV SWAP1 POP PUSH1 0x1 DUP3 AND DUP1 PUSH3 0x6C0 JUMPI PUSH1 0x7F DUP3 AND SWAP2 POP JUMPDEST PUSH1 0x20 DUP3 LT DUP2 SUB PUSH3 0x6D6 JUMPI PUSH3 0x6D5 PUSH3 0x678 JUMP JUMPDEST JUMPDEST POP SWAP2 SWAP1 POP JUMP JUMPDEST PUSH1 0x0 DUP2 SWAP1 POP DUP2 PUSH1 0x0 MSTORE PUSH1 0x20 PUSH1 0x0 KECCAK256 SWAP1 POP SWAP2 SWAP1 POP JUMP JUMPDEST PUSH1 0x0 PUSH1 0x20 PUSH1 0x1F DUP4 ADD DIV SWAP1 POP SWAP2 SWAP1 POP JUMP JUMPDEST PUSH1 0x0 DUP3 DUP3 SHL SWAP1 POP SWAP3 SWAP2 POP POP JUMP JUMPDEST PUSH1 0x0 PUSH1 0x8 DUP4 MUL PUSH3 0x740 PUSH32 0xFFFFFFFFFFFFFFFFFFFFFFFFFFFFFFFFFFFFFFFFFFFFFFFFFFFFFFFFFFFFFFFF DUP3 PUSH3 0x701 JUMP JUMPDEST PUSH3 0x74C DUP7 DUP4 PUSH3 0x701 JUMP JUMPDEST SWAP6 POP DUP1 NOT DUP5 AND SWAP4 POP DUP1 DUP7 AND DUP5 OR SWAP3 POP POP POP SWAP4 SWAP3 POP POP POP JUMP JUMPDEST PUSH1 0x0 DUP2 SWAP1 POP SWAP2 SWAP1 POP JUMP JUMPDEST PUSH1 0x0 DUP2 SWAP1 POP SWAP2 SWAP1 POP JUMP JUMPDEST PUSH1 0x0 PUSH3 0x799 PUSH3 0x793 PUSH3 0x78D DUP5 PUSH3 0x764 JUMP JUMPDEST PUSH3 0x76E JUMP JUMPDEST PUSH3 0x764 JUMP JUMPDEST SWAP1 POP SWAP2 SWAP1 POP JUMP JUMPDEST PUSH1 0x0 DUP2 SWAP1 POP SWAP2 SWAP1 POP JUMP JUMPDEST PUSH3 0x7B5 DUP4 PUSH3 0x778 JUMP JUMPDEST PUSH3 0x7CD PUSH3 0x7C4 DUP3 PUSH3 0x7A0 JUMP JUMPDEST DUP5 DUP5 SLOAD PUSH3 0x70E JUMP JUMPDEST DUP3 SSTORE POP POP POP POP JUMP JUMPDEST PUSH1 0x0 SWAP1 JUMP JUMPDEST PUSH3 0x7E4 PUSH3 0x7D5 JUMP JUMPDEST PUSH3 0x7F1 DUP2 DUP5 DUP5 PUSH3 0x7AA JUMP JUMPDEST POP POP POP JUMP JUMPDEST JUMPDEST DUP2 DUP2 LT ISZERO PUSH3 0x819 JUMPI PUSH3 0x80D PUSH1 0x0 DUP3 PUSH3 0x7DA JUMP JUMPDEST PUSH1 0x1 DUP2 ADD SWAP1 POP PUSH3 0x7F7 JUMP JUMPDEST POP POP JUMP JUMPDEST PUSH1 0x1F DUP3 GT ISZERO PUSH3 0x868 JUMPI PUSH3 0x832 DUP2 PUSH3 0x6DC JUMP JUMPDEST PUSH3 0x83D DUP5 PUSH3 0x6F1 JUMP JUMPDEST DUP2 ADD PUSH1 0x20 DUP6 LT ISZERO PUSH3 0x84D JUMPI DUP2 SWAP1 POP JUMPDEST PUSH3 0x865 PUSH3 0x85C DUP6 PUSH3 0x6F1 JUMP JUMPDEST DUP4 ADD DUP3 PUSH3 0x7F6 JUMP JUMPDEST POP POP JUMPDEST POP POP POP JUMP JUMPDEST PUSH1 0x0 DUP3 DUP3 SHR SWAP1 POP SWAP3 SWAP2 POP POP JUMP JUMPDEST PUSH1 0x0 PUSH3 0x88D PUSH1 0x0 NOT DUP5 PUSH1 0x8 MUL PUSH3 0x86D JUMP JUMPDEST NOT DUP1 DUP4 AND SWAP2 POP POP SWAP3 SWAP2 POP POP JUMP JUMPDEST PUSH1 0x0 PUSH3 0x8A8 DUP4 DUP4 PUSH3 0x87A JUMP JUMPDEST SWAP2 POP DUP3 PUSH1 0x2 MUL DUP3 OR SWAP1 POP SWAP3 SWAP2 POP POP JUMP JUMPDEST PUSH3 0x8C3 DUP3 PUSH3 0x63E JUMP JUMPDEST PUSH8 0xFFFFFFFFFFFFFFFF DUP2 GT ISZERO PUSH3 0x8DF JUMPI PUSH3 0x8DE PUSH3 0x649 JUMP JUMPDEST JUMPDEST PUSH3 0x8EB DUP3 SLOAD PUSH3 0x6A7 JUMP JUMPDEST PUSH3 0x8F8 DUP3 DUP3 DUP6 PUSH3 0x81D JUMP JUMPDEST PUSH1 0x0 PUSH1 0x20 SWAP1 POP PUSH1 0x1F DUP4 GT PUSH1 0x1 DUP2 EQ PUSH3 0x930 JUMPI PUSH1 0x0 DUP5 ISZERO PUSH3 0x91B JUMPI DUP3 DUP8 ADD MLOAD SWAP1 POP JUMPDEST PUSH3 0x927 DUP6 DUP3 PUSH3 0x89A JUMP JUMPDEST DUP7 SSTORE POP PUSH3 0x997 JUMP JUMPDEST PUSH1 0x1F NOT DUP5 AND PUSH3 0x940 DUP7 PUSH3 0x6DC JUMP JUMPDEST PUSH1 0x0 JUMPDEST DUP3 DUP2 LT ISZERO PUSH3 0x96A JUMPI DUP5 DUP10 ADD MLOAD DUP3 SSTORE PUSH1 0x1 DUP3 ADD SWAP2 POP PUSH1 0x20 DUP6 ADD SWAP5 POP PUSH1 0x20 DUP2 ADD SWAP1 POP PUSH3 0x943 JUMP JUMPDEST DUP7 DUP4 LT ISZERO PUSH3 0x98A JUMPI DUP5 DUP10 ADD MLOAD PUSH3 0x986 PUSH1 0x1F DUP10 AND DUP3 PUSH3 0x87A JUMP JUMPDEST DUP4 SSTORE POP JUMPDEST PUSH1 0x1 PUSH1 0x2 DUP9 MUL ADD DUP9 SSTORE POP POP POP JUMPDEST POP POP POP POP POP POP JUMP JUMPDEST PUSH1 0x0 PUSH20 0xFFFFFFFFFFFFFFFFFFFFFFFFFFFFFFFFFFFFFFFF DUP3 AND SWAP1 POP SWAP2 SWAP1 POP JUMP JUMPDEST PUSH1 0x0 PUSH3 0x9CC DUP3 PUSH3 0x99F JUMP JUMPDEST SWAP1 POP SWAP2 SWAP1 POP JUMP JUMPDEST PUSH3 0x9DE DUP2 PUSH3 0x9BF JUMP JUMPDEST DUP3 MSTORE POP POP JUMP JUMPDEST PUSH1 0x0 DUP3 DUP3 MSTORE PUSH1 0x20 DUP3 ADD SWAP1 POP SWAP3 SWAP2 POP POP JUMP JUMPDEST PUSH1 0x0 JUMPDEST DUP4 DUP2 LT ISZERO PUSH3 0xA15 JUMPI DUP1 DUP3 ADD MLOAD DUP2 DUP5 ADD MSTORE PUSH1 0x20 DUP2 ADD SWAP1 POP PUSH3 0x9F8 JUMP JUMPDEST PUSH1 0x0 DUP5 DUP5 ADD MSTORE POP POP POP POP JUMP JUMPDEST PUSH1 0x0 PUSH1 0x1F NOT PUSH1 0x1F DUP4 ADD AND SWAP1 POP SWAP2 SWAP1 POP JUMP JUMPDEST PUSH1 0x0 PUSH3 0xA3F DUP3 PUSH3 0x63E JUMP JUMPDEST PUSH3 0xA4B DUP2 DUP6 PUSH3 0x9E4 JUMP JUMPDEST SWAP4 POP PUSH3 0xA5D DUP2 DUP6 PUSH1 0x20 DUP7 ADD PUSH3 0x9F5 JUMP JUMPDEST PUSH3 0xA68 DUP2 PUSH3 0xA21 JUMP JUMPDEST DUP5 ADD SWAP2 POP POP SWAP3 SWAP2 POP POP JUMP JUMPDEST PUSH1 0x0 PUSH1 0x40 DUP3 ADD SWAP1 POP PUSH3 0xA8A PUSH1 0x0 DUP4 ADD DUP6 PUSH3 0x9D3 JUMP JUMPDEST DUP2 DUP2 SUB PUSH1 0x20 DUP4 ADD MSTORE PUSH3 0xA9E DUP2 DUP5 PUSH3 0xA32 JUMP JUMPDEST SWAP1 POP SWAP4 SWAP3 POP POP POP JUMP JUMPDEST PUSH1 0x0 DUP1 REVERT JUMPDEST PUSH3 0xAB7 DUP2 PUSH3 0x764 JUMP JUMPDEST DUP2 EQ PUSH3 0xAC3 JUMPI PUSH1 0x0 DUP1 REVERT JUMPDEST POP JUMP JUMPDEST PUSH1 0x0 DUP2 MLOAD SWAP1 POP PUSH3 0xAD7 DUP2 PUSH3 0xAAC JUMP JUMPDEST SWAP3 SWAP2 POP POP JUMP JUMPDEST PUSH1 0x0 PUSH1 0x20 DUP3 DUP5 SUB SLT ISZERO PUSH3 0xAF6 JUMPI PUSH3 0xAF5 PUSH3 0xAA7 JUMP JUMPDEST JUMPDEST PUSH1 0x0 PUSH3 0xB06 DUP5 DUP3 DUP6 ADD PUSH3 0xAC6 JUMP JUMPDEST SWAP2 POP POP SWAP3 SWAP2 POP POP JUMP JUMPDEST PUSH32 0x4E487B7100000000000000000000000000000000000000000000000000000000 PUSH1 0x0 MSTORE PUSH1 0x11 PUSH1 0x4 MSTORE PUSH1 0x24 PUSH1 0x0 REVERT JUMPDEST PUSH1 0x0 PUSH3 0xB4B DUP3 PUSH3 0x764 JUMP JUMPDEST SWAP2 POP PUSH3 0xB58 DUP4 PUSH3 0x764 JUMP JUMPDEST SWAP3 POP DUP3 DUP3 SUB SWAP1 POP DUP2 DUP2 GT ISZERO PUSH3 0xB73 JUMPI PUSH3 0xB72 PUSH3 0xB0F JUMP JUMPDEST JUMPDEST SWAP3 SWAP2 POP POP JUMP JUMPDEST PUSH32 0x4E487B7100000000000000000000000000000000000000000000000000000000 PUSH1 0x0 MSTORE PUSH1 0x32 PUSH1 0x4 MSTORE PUSH1 0x24 PUSH1 0x0 REVERT JUMPDEST PUSH1 0x0 PUSH3 0xBB5 DUP3 PUSH3 0x764 JUMP JUMPDEST SWAP2 POP PUSH32 0xFFFFFFFFFFFFFFFFFFFFFFFFFFFFFFFFFFFFFFFFFFFFFFFFFFFFFFFFFFFFFFFF DUP3 SUB PUSH3 0xBEA JUMPI PUSH3 0xBE9 PUSH3 0xB0F JUMP JUMPDEST JUMPDEST PUSH1 0x1 DUP3 ADD SWAP1 POP SWAP2 SWAP1 POP JUMP JUMPDEST PUSH1 0x0 PUSH3 0xC02 DUP3 PUSH3 0x764 JUMP JUMPDEST SWAP2 POP PUSH3 0xC0F DUP4 PUSH3 0x764 JUMP JUMPDEST SWAP3 POP DUP3 DUP3 MUL PUSH3 0xC1F DUP2 PUSH3 0x764 JUMP JUMPDEST SWAP2 POP DUP3 DUP3 DIV DUP5 EQ DUP4 ISZERO OR PUSH3 0xC39 JUMPI PUSH3 0xC38 PUSH3 0xB0F JUMP JUMPDEST JUMPDEST POP SWAP3 SWAP2 POP POP JUMP JUMPDEST PUSH1 0x0 PUSH3 0xC4D DUP3 PUSH3 0x764 JUMP JUMPDEST SWAP2 POP PUSH3 0xC5A DUP4 PUSH3 0x764 JUMP JUMPDEST SWAP3 POP DUP3 DUP3 ADD SWAP1 POP DUP1 DUP3 GT ISZERO PUSH3 0xC75 JUMPI PUSH3 0xC74 PUSH3 0xB0F JUMP JUMPDEST JUMPDEST SWAP3 SWAP2 POP POP JUMP JUMPDEST PUSH1 0x0 PUSH3 0xC88 DUP3 PUSH3 0x764 JUMP JUMPDEST SWAP2 POP PUSH1 0x0 DUP3 SUB PUSH3 0xC9E JUMPI PUSH3 0xC9D PUSH3 0xB0F JUMP JUMPDEST JUMPDEST PUSH1 0x1 DUP3 SUB SWAP1 POP SWAP2 SWAP1 POP JUMP JUMPDEST PUSH32 0x537472696E67733A20686578206C656E67746820696E73756666696369656E74 PUSH1 0x0 DUP3 ADD MSTORE POP JUMP JUMPDEST PUSH1 0x0 PUSH3 0xCE1 PUSH1 0x20 DUP4 PUSH3 0x9E4 JUMP JUMPDEST SWAP2 POP PUSH3 0xCEE DUP3 PUSH3 0xCA9 JUMP JUMPDEST PUSH1 0x20 DUP3 ADD SWAP1 POP SWAP2 SWAP1 POP JUMP JUMPDEST PUSH1 0x0 PUSH1 0x20 DUP3 ADD SWAP1 POP DUP2 DUP2 SUB PUSH1 0x0 DUP4 ADD MSTORE PUSH3 0xD14 DUP2 PUSH3 0xCD2 JUMP JUMPDEST SWAP1 POP SWAP2 SWAP1 POP JUMP JUMPDEST PUSH2 0x291D DUP1 PUSH3 0xD2B PUSH1 0x0 CODECOPY PUSH1 0x0 RETURN INVALID PUSH1 0x80 PUSH1 0x40 MSTORE PUSH1 0x4 CALLDATASIZE LT PUSH2 0x118 JUMPI PUSH1 0x0 CALLDATALOAD PUSH1 0xE0 SHR DUP1 PUSH4 0x8D7AF473 GT PUSH2 0xA0 JUMPI DUP1 PUSH4 0xCA6D56DC GT PUSH2 0x64 JUMPI DUP1 PUSH4 0xCA6D56DC EQ PUSH2 0x3CD JUMPI DUP1 PUSH4 0xD6B78768 EQ PUSH2 0x3F6 JUMPI DUP1 PUSH4 0xE66F53B7 EQ PUSH2 0x421 JUMPI DUP1 PUSH4 0xEA3FAD66 EQ PUSH2 0x44C JUMPI DUP1 PUSH4 0xEB38603F EQ PUSH2 0x489 JUMPI PUSH2 0x11F JUMP JUMPDEST DUP1 PUSH4 0x8D7AF473 EQ PUSH2 0x2E6 JUMPI DUP1 PUSH4 0x9D63848A EQ PUSH2 0x311 JUMPI DUP1 PUSH4 0xA230C524 EQ PUSH2 0x33C JUMPI DUP1 PUSH4 0xC65C90CC EQ PUSH2 0x379 JUMPI DUP1 PUSH4 0xC9D27AFE EQ PUSH2 0x3A4 JUMPI PUSH2 0x11F JUMP JUMPDEST DUP1 PUSH4 0x1DCD9B55 GT PUSH2 0xE7 JUMPI DUP1 PUSH4 0x1DCD9B55 EQ PUSH2 0x20C JUMPI DUP1 PUSH4 0x237B2197 EQ PUSH2 0x249 JUMPI DUP1 PUSH4 0x2E6FB097 EQ PUSH2 0x274 JUMPI DUP1 PUSH4 0x70740AAB EQ PUSH2 0x2A4 JUMPI DUP1 PUSH4 0x7B10B293 EQ PUSH2 0x2CF JUMPI PUSH2 0x11F JUMP JUMPDEST DUP1 PUSH4 0x13CF08B EQ PUSH2 0x124 JUMPI DUP1 PUSH4 0x1FFC9A7 EQ PUSH2 0x169 JUMPI DUP1 PUSH4 0x386A016 EQ PUSH2 0x1A6 JUMPI DUP1 PUSH4 0x1A384287 EQ PUSH2 0x1CF JUMPI PUSH2 0x11F JUMP JUMPDEST CALLDATASIZE PUSH2 0x11F JUMPI STOP JUMPDEST PUSH1 0x0 DUP1 REVERT JUMPDEST CALLVALUE DUP1 ISZERO PUSH2 0x130 JUMPI PUSH1 0x0 DUP1 REVERT JUMPDEST POP PUSH2 0x14B PUSH1 0x4 DUP1 CALLDATASIZE SUB DUP2 ADD SWAP1 PUSH2 0x146 SWAP2 SWAP1 PUSH2 0x1876 JUMP JUMPDEST PUSH2 0x4B4 JUMP JUMPDEST PUSH1 0x40 MLOAD PUSH2 0x160 SWAP10 SWAP9 SWAP8 SWAP7 SWAP6 SWAP5 SWAP4 SWAP3 SWAP2 SWAP1 PUSH2 0x199E JUMP JUMPDEST PUSH1 0x40 MLOAD DUP1 SWAP2 SUB SWAP1 RETURN JUMPDEST CALLVALUE DUP1 ISZERO PUSH2 0x175 JUMPI PUSH1 0x0 DUP1 REVERT JUMPDEST POP PUSH2 0x190 PUSH1 0x4 DUP1 CALLDATASIZE SUB DUP2 ADD SWAP1 PUSH2 0x18B SWAP2 SWAP1 PUSH2 0x1A8A JUMP JUMPDEST PUSH2 0x5E4 JUMP JUMPDEST PUSH1 0x40 MLOAD PUSH2 0x19D SWAP2 SWAP1 PUSH2 0x1AB7 JUMP JUMPDEST PUSH1 0x40 MLOAD DUP1 SWAP2 SUB SWAP1 RETURN JUMPDEST CALLVALUE DUP1 ISZERO PUSH2 0x1B2 JUMPI PUSH1 0x0 DUP1 REVERT JUMPDEST POP PUSH2 0x1CD PUSH1 0x4 DUP1 CALLDATASIZE SUB DUP2 ADD SWAP1 PUSH2 0x1C8 SWAP2 SWAP1 PUSH2 0x1876 JUMP JUMPDEST PUSH2 0x6B6 JUMP JUMPDEST STOP JUMPDEST CALLVALUE DUP1 ISZERO PUSH2 0x1DB JUMPI PUSH1 0x0 DUP1 REVERT JUMPDEST POP PUSH2 0x1F6 PUSH1 0x4 DUP1 CALLDATASIZE SUB DUP2 ADD SWAP1 PUSH2 0x1F1 SWAP2 SWAP1 PUSH2 0x1AFE JUMP JUMPDEST PUSH2 0x972 JUMP JUMPDEST PUSH1 0x40 MLOAD PUSH2 0x203 SWAP2 SWAP1 PUSH2 0x1AB7 JUMP JUMPDEST PUSH1 0x40 MLOAD DUP1 SWAP2 SUB SWAP1 RETURN JUMPDEST CALLVALUE DUP1 ISZERO PUSH2 0x218 JUMPI PUSH1 0x0 DUP1 REVERT JUMPDEST POP PUSH2 0x233 PUSH1 0x4 DUP1 CALLDATASIZE SUB DUP2 ADD SWAP1 PUSH2 0x22E SWAP2 SWAP1 PUSH2 0x1C73 JUMP JUMPDEST PUSH2 0x9A1 JUMP JUMPDEST PUSH1 0x40 MLOAD PUSH2 0x240 SWAP2 SWAP1 PUSH2 0x1CE2 JUMP JUMPDEST PUSH1 0x40 MLOAD DUP1 SWAP2 SUB SWAP1 RETURN JUMPDEST CALLVALUE DUP1 ISZERO PUSH2 0x255 JUMPI PUSH1 0x0 DUP1 REVERT JUMPDEST POP PUSH2 0x25E PUSH2 0xA9D JUMP JUMPDEST PUSH1 0x40 MLOAD PUSH2 0x26B SWAP2 SWAP1 PUSH2 0x1D04 JUMP JUMPDEST PUSH1 0x40 MLOAD DUP1 SWAP2 SUB SWAP1 RETURN JUMPDEST PUSH2 0x28E PUSH1 0x4 DUP1 CALLDATASIZE SUB DUP2 ADD SWAP1 PUSH2 0x289 SWAP2 SWAP1 PUSH2 0x1D1F JUMP JUMPDEST PUSH2 0xAA3 JUMP JUMPDEST PUSH1 0x40 MLOAD PUSH2 0x29B SWAP2 SWAP1 PUSH2 0x1D04 JUMP JUMPDEST PUSH1 0x40 MLOAD DUP1 SWAP2 SUB SWAP1 RETURN JUMPDEST CALLVALUE DUP1 ISZERO PUSH2 0x2B0 JUMPI PUSH1 0x0 DUP1 REVERT JUMPDEST POP PUSH2 0x2B9 PUSH2 0xD89 JUMP JUMPDEST PUSH1 0x40 MLOAD PUSH2 0x2C6 SWAP2 SWAP1 PUSH2 0x1CE2 JUMP JUMPDEST PUSH1 0x40 MLOAD DUP1 SWAP2 SUB SWAP1 RETURN JUMPDEST CALLVALUE DUP1 ISZERO PUSH2 0x2DB JUMPI PUSH1 0x0 DUP1 REVERT JUMPDEST POP PUSH2 0x2E4 PUSH2 0xE17 JUMP JUMPDEST STOP JUMPDEST CALLVALUE DUP1 ISZERO PUSH2 0x2F2 JUMPI PUSH1 0x0 DUP1 REVERT JUMPDEST POP PUSH2 0x2FB PUSH2 0xED2 JUMP JUMPDEST PUSH1 0x40 MLOAD PUSH2 0x308 SWAP2 SWAP1 PUSH2 0x1D04 JUMP JUMPDEST PUSH1 0x40 MLOAD DUP1 SWAP2 SUB SWAP1 RETURN JUMPDEST CALLVALUE DUP1 ISZERO PUSH2 0x31D JUMPI PUSH1 0x0 DUP1 REVERT JUMPDEST POP PUSH2 0x326 PUSH2 0xED8 JUMP JUMPDEST PUSH1 0x40 MLOAD PUSH2 0x333 SWAP2 SWAP1 PUSH2 0x1DA2 JUMP JUMPDEST PUSH1 0x40 MLOAD DUP1 SWAP2 SUB SWAP1 RETURN JUMPDEST CALLVALUE DUP1 ISZERO PUSH2 0x348 JUMPI PUSH1 0x0 DUP1 REVERT JUMPDEST POP PUSH2 0x363 PUSH1 0x4 DUP1 CALLDATASIZE SUB DUP2 ADD SWAP1 PUSH2 0x35E SWAP2 SWAP1 PUSH2 0x1DBD JUMP JUMPDEST PUSH2 0xEFE JUMP JUMPDEST PUSH1 0x40 MLOAD PUSH2 0x370 SWAP2 SWAP1 PUSH2 0x1AB7 JUMP JUMPDEST PUSH1 0x40 MLOAD DUP1 SWAP2 SUB SWAP1 RETURN JUMPDEST CALLVALUE DUP1 ISZERO PUSH2 0x385 JUMPI PUSH1 0x0 DUP1 REVERT JUMPDEST POP PUSH2 0x38E PUSH2 0xFB4 JUMP JUMPDEST PUSH1 0x40 MLOAD PUSH2 0x39B SWAP2 SWAP1 PUSH2 0x1CE2 JUMP JUMPDEST PUSH1 0x40 MLOAD DUP1 SWAP2 SUB SWAP1 RETURN JUMPDEST CALLVALUE DUP1 ISZERO PUSH2 0x3B0 JUMPI PUSH1 0x0 DUP1 REVERT JUMPDEST POP PUSH2 0x3CB PUSH1 0x4 DUP1 CALLDATASIZE SUB DUP2 ADD SWAP1 PUSH2 0x3C6 SWAP2 SWAP1 PUSH2 0x1E16 JUMP JUMPDEST PUSH2 0x1042 JUMP JUMPDEST STOP JUMPDEST CALLVALUE DUP1 ISZERO PUSH2 0x3D9 JUMPI PUSH1 0x0 DUP1 REVERT JUMPDEST POP PUSH2 0x3F4 PUSH1 0x4 DUP1 CALLDATASIZE SUB DUP2 ADD SWAP1 PUSH2 0x3EF SWAP2 SWAP1 PUSH2 0x1DBD JUMP JUMPDEST PUSH2 0x13EA JUMP JUMPDEST STOP JUMPDEST CALLVALUE DUP1 ISZERO PUSH2 0x402 JUMPI PUSH1 0x0 DUP1 REVERT JUMPDEST POP PUSH2 0x40B PUSH2 0x1544 JUMP JUMPDEST PUSH1 0x40 MLOAD PUSH2 0x418 SWAP2 SWAP1 PUSH2 0x1D04 JUMP JUMPDEST PUSH1 0x40 MLOAD DUP1 SWAP2 SUB SWAP1 RETURN JUMPDEST CALLVALUE DUP1 ISZERO PUSH2 0x42D JUMPI PUSH1 0x0 DUP1 REVERT JUMPDEST POP PUSH2 0x436 PUSH2 0x154A JUMP JUMPDEST PUSH1 0x40 MLOAD PUSH2 0x443 SWAP2 SWAP1 PUSH2 0x1DA2 JUMP JUMPDEST PUSH1 0x40 MLOAD DUP1 SWAP2 SUB SWAP1 RETURN JUMPDEST CALLVALUE DUP1 ISZERO PUSH2 0x458 JUMPI PUSH1 0x0 DUP1 REVERT JUMPDEST POP PUSH2 0x473 PUSH1 0x4 DUP1 CALLDATASIZE SUB DUP2 ADD SWAP1 PUSH2 0x46E SWAP2 SWAP1 PUSH2 0x1AFE JUMP JUMPDEST PUSH2 0x1570 JUMP JUMPDEST PUSH1 0x40 MLOAD PUSH2 0x480 SWAP2 SWAP1 PUSH2 0x1AB7 JUMP JUMPDEST PUSH1 0x40 MLOAD DUP1 SWAP2 SUB SWAP1 RETURN JUMPDEST CALLVALUE DUP1 ISZERO PUSH2 0x495 JUMPI PUSH1 0x0 DUP1 REVERT JUMPDEST POP PUSH2 0x49E PUSH2 0x159F JUMP JUMPDEST PUSH1 0x40 MLOAD PUSH2 0x4AB SWAP2 SWAP1 PUSH2 0x1DA2 JUMP JUMPDEST PUSH1 0x40 MLOAD DUP1 SWAP2 SUB SWAP1 RETURN JUMPDEST PUSH1 0x1 PUSH1 0x20 MSTORE DUP1 PUSH1 0x0 MSTORE PUSH1 0x40 PUSH1 0x0 KECCAK256 PUSH1 0x0 SWAP2 POP SWAP1 POP DUP1 PUSH1 0x0 ADD PUSH1 0x0 SWAP1 SLOAD SWAP1 PUSH2 0x100 EXP SWAP1 DIV PUSH20 0xFFFFFFFFFFFFFFFFFFFFFFFFFFFFFFFFFFFFFFFF AND SWAP1 DUP1 PUSH1 0x1 ADD SLOAD SWAP1 DUP1 PUSH1 0x2 ADD DUP1 SLOAD PUSH2 0x503 SWAP1 PUSH2 0x1E85 JUMP JUMPDEST DUP1 PUSH1 0x1F ADD PUSH1 0x20 DUP1 SWAP2 DIV MUL PUSH1 0x20 ADD PUSH1 0x40 MLOAD SWAP1 DUP2 ADD PUSH1 0x40 MSTORE DUP1 SWAP3 SWAP2 SWAP1 DUP2 DUP2 MSTORE PUSH1 0x20 ADD DUP3 DUP1 SLOAD PUSH2 0x52F SWAP1 PUSH2 0x1E85 JUMP JUMPDEST DUP1 ISZERO PUSH2 0x57C JUMPI DUP1 PUSH1 0x1F LT PUSH2 0x551 JUMPI PUSH2 0x100 DUP1 DUP4 SLOAD DIV MUL DUP4 MSTORE SWAP2 PUSH1 0x20 ADD SWAP2 PUSH2 0x57C JUMP JUMPDEST DUP3 ADD SWAP2 SWAP1 PUSH1 0x0 MSTORE PUSH1 0x20 PUSH1 0x0 KECCAK256 SWAP1 JUMPDEST DUP2 SLOAD DUP2 MSTORE SWAP1 PUSH1 0x1 ADD SWAP1 PUSH1 0x20 ADD DUP1 DUP4 GT PUSH2 0x55F JUMPI DUP3 SWAP1 SUB PUSH1 0x1F AND DUP3 ADD SWAP2 JUMPDEST POP POP POP POP POP SWAP1 DUP1 PUSH1 0x3 ADD SLOAD SWAP1 DUP1 PUSH1 0x4 ADD PUSH1 0x0 SWAP1 SLOAD SWAP1 PUSH2 0x100 EXP SWAP1 DIV PUSH1 0xFF AND SWAP1 DUP1 PUSH1 0x4 ADD PUSH1 0x1 SWAP1 SLOAD SWAP1 PUSH2 0x100 EXP SWAP1 DIV PUSH1 0xFF AND SWAP1 DUP1 PUSH1 0x5 ADD SLOAD SWAP1 DUP1 PUSH1 0x6 ADD SLOAD SWAP1 DUP1 PUSH1 0x7 ADD PUSH1 0x0 SWAP1 SLOAD SWAP1 PUSH2 0x100 EXP SWAP1 DIV PUSH20 0xFFFFFFFFFFFFFFFFFFFFFFFFFFFFFFFFFFFFFFFF AND SWAP1 POP DUP10 JUMP JUMPDEST PUSH1 0x0 PUSH32 0xB3DF4BA800000000000000000000000000000000000000000000000000000000 PUSH28 0xFFFFFFFFFFFFFFFFFFFFFFFFFFFFFFFFFFFFFFFFFFFFFFFFFFFFFFFF NOT AND DUP3 PUSH28 0xFFFFFFFFFFFFFFFFFFFFFFFFFFFFFFFFFFFFFFFFFFFFFFFFFFFFFFFF NOT AND EQ DUP1 PUSH2 0x6AF JUMPI POP PUSH32 0x1FFC9A700000000000000000000000000000000000000000000000000000000 PUSH28 0xFFFFFFFFFFFFFFFFFFFFFFFFFFFFFFFFFFFFFFFFFFFFFFFFFFFFFFFF NOT AND DUP3 PUSH28 0xFFFFFFFFFFFFFFFFFFFFFFFFFFFFFFFFFFFFFFFFFFFFFFFFFFFFFFFF NOT AND EQ JUMPDEST SWAP1 POP SWAP2 SWAP1 POP JUMP JUMPDEST PUSH1 0x0 PUSH1 0x1 PUSH1 0x0 DUP4 DUP2 MSTORE PUSH1 0x20 ADD SWAP1 DUP2 MSTORE PUSH1 0x20 ADD PUSH1 0x0 KECCAK256 PUSH1 0x3 ADD SLOAD TIMESTAMP PUSH2 0x6DA SWAP2 SWAP1 PUSH2 0x1EE5 JUMP JUMPDEST GT PUSH2 0x71A JUMPI PUSH1 0x40 MLOAD PUSH32 0x8C379A000000000000000000000000000000000000000000000000000000000 DUP2 MSTORE PUSH1 0x4 ADD PUSH2 0x711 SWAP1 PUSH2 0x1F65 JUMP JUMPDEST PUSH1 0x40 MLOAD DUP1 SWAP2 SUB SWAP1 REVERT JUMPDEST PUSH2 0x723 CALLER PUSH2 0xEFE JUMP JUMPDEST PUSH2 0x762 JUMPI PUSH1 0x40 MLOAD PUSH32 0x8C379A000000000000000000000000000000000000000000000000000000000 DUP2 MSTORE PUSH1 0x4 ADD PUSH2 0x759 SWAP1 PUSH2 0x1FD1 JUMP JUMPDEST PUSH1 0x40 MLOAD DUP1 SWAP2 SUB SWAP1 REVERT JUMPDEST PUSH1 0x0 PUSH1 0x1 PUSH1 0x0 DUP4 DUP2 MSTORE PUSH1 0x20 ADD SWAP1 DUP2 MSTORE PUSH1 0x20 ADD PUSH1 0x0 KECCAK256 PUSH1 0x4 ADD PUSH1 0x0 PUSH2 0x100 EXP DUP2 SLOAD DUP2 PUSH1 0xFF MUL NOT AND SWAP1 DUP4 ISZERO ISZERO MUL OR SWAP1 SSTORE POP PUSH1 0x1 PUSH1 0x0 DUP3 DUP2 MSTORE PUSH1 0x20 ADD SWAP1 DUP2 MSTORE PUSH1 0x20 ADD PUSH1 0x0 KECCAK256 PUSH1 0x6 ADD SLOAD PUSH1 0x1 PUSH1 0x0 DUP4 DUP2 MSTORE PUSH1 0x20 ADD SWAP1 DUP2 MSTORE PUSH1 0x20 ADD PUSH1 0x0 KECCAK256 PUSH1 0x5 ADD SLOAD GT ISZERO PUSH2 0x8ED JUMPI PUSH1 0x1 DUP1 PUSH1 0x0 DUP4 DUP2 MSTORE PUSH1 0x20 ADD SWAP1 DUP2 MSTORE PUSH1 0x20 ADD PUSH1 0x0 KECCAK256 PUSH1 0x4 ADD PUSH1 0x1 PUSH2 0x100 EXP DUP2 SLOAD DUP2 PUSH1 0xFF MUL NOT AND SWAP1 DUP4 ISZERO ISZERO MUL OR SWAP1 SSTORE POP PUSH1 0x0 PUSH1 0x1 PUSH1 0x0 DUP4 DUP2 MSTORE PUSH1 0x20 ADD SWAP1 DUP2 MSTORE PUSH1 0x20 ADD PUSH1 0x0 KECCAK256 PUSH1 0x0 ADD PUSH1 0x0 SWAP1 SLOAD SWAP1 PUSH2 0x100 EXP SWAP1 DIV PUSH20 0xFFFFFFFFFFFFFFFFFFFFFFFFFFFFFFFFFFFFFFFF AND PUSH20 0xFFFFFFFFFFFFFFFFFFFFFFFFFFFFFFFFFFFFFFFF AND PUSH1 0x1 PUSH1 0x0 DUP5 DUP2 MSTORE PUSH1 0x20 ADD SWAP1 DUP2 MSTORE PUSH1 0x20 ADD PUSH1 0x0 KECCAK256 PUSH1 0x1 ADD SLOAD PUSH1 0x40 MLOAD PUSH2 0x865 SWAP1 PUSH2 0x2022 JUMP JUMPDEST PUSH1 0x0 PUSH1 0x40 MLOAD DUP1 DUP4 SUB DUP2 DUP6 DUP8 GAS CALL SWAP3 POP POP POP RETURNDATASIZE DUP1 PUSH1 0x0 DUP2 EQ PUSH2 0x8A2 JUMPI PUSH1 0x40 MLOAD SWAP2 POP PUSH1 0x1F NOT PUSH1 0x3F RETURNDATASIZE ADD AND DUP3 ADD PUSH1 0x40 MSTORE RETURNDATASIZE DUP3 MSTORE RETURNDATASIZE PUSH1 0x0 PUSH1 0x20 DUP5 ADD RETURNDATACOPY PUSH2 0x8A7 JUMP JUMPDEST PUSH1 0x60 SWAP2 POP JUMPDEST POP POP SWAP1 POP DUP1 PUSH2 0x8EB JUMPI PUSH1 0x40 MLOAD PUSH32 0x8C379A000000000000000000000000000000000000000000000000000000000 DUP2 MSTORE PUSH1 0x4 ADD PUSH2 0x8E2 SWAP1 PUSH2 0x2083 JUMP JUMPDEST PUSH1 0x40 MLOAD DUP1 SWAP2 SUB SWAP1 REVERT JUMPDEST POP JUMPDEST PUSH1 0x1 PUSH1 0x0 DUP3 DUP2 MSTORE PUSH1 0x20 ADD SWAP1 DUP2 MSTORE PUSH1 0x20 ADD PUSH1 0x0 KECCAK256 PUSH1 0x1 ADD SLOAD PUSH1 0x6 PUSH1 0x0 DUP3 DUP3 SLOAD PUSH2 0x915 SWAP2 SWAP1 PUSH2 0x1EE5 JUMP JUMPDEST SWAP3 POP POP DUP2 SWAP1 SSTORE POP PUSH1 0x1 PUSH1 0x0 DUP3 DUP2 MSTORE PUSH1 0x20 ADD SWAP1 DUP2 MSTORE PUSH1 0x20 ADD PUSH1 0x0 KECCAK256 PUSH1 0x4 ADD PUSH1 0x1 SWAP1 SLOAD SWAP1 PUSH2 0x100 EXP SWAP1 DIV PUSH1 0xFF AND ISZERO ISZERO DUP2 PUSH32 0xAFFED5D901D9FBE9106721FA52653EDE403C09699F9F810F6D378ACC51FB50FA PUSH1 0x40 MLOAD PUSH1 0x40 MLOAD DUP1 SWAP2 SUB SWAP1 LOG3 POP JUMP JUMPDEST PUSH1 0x3 PUSH1 0x20 MSTORE DUP2 PUSH1 0x0 MSTORE PUSH1 0x40 PUSH1 0x0 KECCAK256 PUSH1 0x20 MSTORE DUP1 PUSH1 0x0 MSTORE PUSH1 0x40 PUSH1 0x0 KECCAK256 PUSH1 0x0 SWAP2 POP SWAP2 POP SWAP1 SLOAD SWAP1 PUSH2 0x100 EXP SWAP1 DIV PUSH1 0xFF AND DUP2 JUMP JUMPDEST PUSH1 0x60 PUSH1 0x0 DUP5 SWAP1 POP PUSH1 0x0 DUP5 DUP5 PUSH2 0x9B6 SWAP2 SWAP1 PUSH2 0x1EE5 JUMP JUMPDEST PUSH8 0xFFFFFFFFFFFFFFFF DUP2 GT ISZERO PUSH2 0x9CF JUMPI PUSH2 0x9CE PUSH2 0x1B48 JUMP JUMPDEST JUMPDEST PUSH1 0x40 MLOAD SWAP1 DUP1 DUP3 MSTORE DUP1 PUSH1 0x1F ADD PUSH1 0x1F NOT AND PUSH1 0x20 ADD DUP3 ADD PUSH1 0x40 MSTORE DUP1 ISZERO PUSH2 0xA01 JUMPI DUP2 PUSH1 0x20 ADD PUSH1 0x1 DUP3 MUL DUP1 CALLDATASIZE DUP4 CALLDATACOPY DUP1 DUP3 ADD SWAP2 POP POP SWAP1 POP JUMPDEST POP SWAP1 POP PUSH1 0x0 DUP6 SWAP1 POP JUMPDEST DUP5 DUP2 LT ISZERO PUSH2 0xA90 JUMPI DUP3 DUP2 DUP2 MLOAD DUP2 LT PUSH2 0xA25 JUMPI PUSH2 0xA24 PUSH2 0x20A3 JUMP JUMPDEST JUMPDEST PUSH1 0x20 ADD ADD MLOAD PUSH1 0xF8 SHR PUSH1 0xF8 SHL DUP3 DUP8 DUP4 PUSH2 0xA3D SWAP2 SWAP1 PUSH2 0x1EE5 JUMP JUMPDEST DUP2 MLOAD DUP2 LT PUSH2 0xA4E JUMPI PUSH2 0xA4D PUSH2 0x20A3 JUMP JUMPDEST JUMPDEST PUSH1 0x20 ADD ADD SWAP1 PUSH31 0xFFFFFFFFFFFFFFFFFFFFFFFFFFFFFFFFFFFFFFFFFFFFFFFFFFFFFFFFFFFFFF NOT AND SWAP1 DUP2 PUSH1 0x0 BYTE SWAP1 MSTORE8 POP DUP1 DUP1 PUSH2 0xA88 SWAP1 PUSH2 0x20D2 JUMP JUMPDEST SWAP2 POP POP PUSH2 0xA0A JUMP JUMPDEST POP DUP1 SWAP3 POP POP POP SWAP4 SWAP3 POP POP POP JUMP JUMPDEST PUSH1 0x6 SLOAD DUP2 JUMP JUMPDEST PUSH1 0x0 DUP1 PUSH2 0x258 DUP4 PUSH2 0xAB4 SWAP2 SWAP1 PUSH2 0x1EE5 JUMP JUMPDEST LT ISZERO PUSH2 0xAF5 JUMPI PUSH1 0x40 MLOAD PUSH32 0x8C379A000000000000000000000000000000000000000000000000000000000 DUP2 MSTORE PUSH1 0x4 ADD PUSH2 0xAEC SWAP1 PUSH2 0x218C JUMP JUMPDEST PUSH1 0x40 MLOAD DUP1 SWAP2 SUB SWAP1 REVERT JUMPDEST PUSH2 0xAFE CALLER PUSH2 0xEFE JUMP JUMPDEST PUSH2 0xB3D JUMPI PUSH1 0x40 MLOAD PUSH32 0x8C379A000000000000000000000000000000000000000000000000000000000 DUP2 MSTORE PUSH1 0x4 ADD PUSH2 0xB34 SWAP1 PUSH2 0x21F8 JUMP JUMPDEST PUSH1 0x40 MLOAD DUP1 SWAP2 SUB SWAP1 REVERT JUMPDEST PUSH1 0x40 MLOAD DUP1 PUSH2 0x120 ADD PUSH1 0x40 MSTORE DUP1 DUP7 PUSH20 0xFFFFFFFFFFFFFFFFFFFFFFFFFFFFFFFFFFFFFFFF AND DUP2 MSTORE PUSH1 0x20 ADD DUP6 DUP2 MSTORE PUSH1 0x20 ADD DUP5 DUP2 MSTORE PUSH1 0x20 ADD DUP4 TIMESTAMP PUSH2 0xB7D SWAP2 SWAP1 PUSH2 0x2218 JUMP JUMPDEST DUP2 MSTORE PUSH1 0x20 ADD PUSH1 0x1 ISZERO ISZERO DUP2 MSTORE PUSH1 0x20 ADD PUSH1 0x0 ISZERO ISZERO DUP2 MSTORE PUSH1 0x20 ADD PUSH1 0x0 DUP2 MSTORE PUSH1 0x20 ADD PUSH1 0x0 DUP2 MSTORE PUSH1 0x20 ADD CALLER PUSH20 0xFFFFFFFFFFFFFFFFFFFFFFFFFFFFFFFFFFFFFFFF AND DUP2 MSTORE POP PUSH1 0x1 PUSH1 0x0 PUSH1 0x7 SLOAD DUP2 MSTORE PUSH1 0x20 ADD SWAP1 DUP2 MSTORE PUSH1 0x20 ADD PUSH1 0x0 KECCAK256 PUSH1 0x0 DUP3 ADD MLOAD DUP2 PUSH1 0x0 ADD PUSH1 0x0 PUSH2 0x100 EXP DUP2 SLOAD DUP2 PUSH20 0xFFFFFFFFFFFFFFFFFFFFFFFFFFFFFFFFFFFFFFFF MUL NOT AND SWAP1 DUP4 PUSH20 0xFFFFFFFFFFFFFFFFFFFFFFFFFFFFFFFFFFFFFFFF AND MUL OR SWAP1 SSTORE POP PUSH1 0x20 DUP3 ADD MLOAD DUP2 PUSH1 0x1 ADD SSTORE PUSH1 0x40 DUP3 ADD MLOAD DUP2 PUSH1 0x2 ADD SWAP1 DUP2 PUSH2 0xC37 SWAP2 SWAP1 PUSH2 0x23F8 JUMP JUMPDEST POP PUSH1 0x60 DUP3 ADD MLOAD DUP2 PUSH1 0x3 ADD SSTORE PUSH1 0x80 DUP3 ADD MLOAD DUP2 PUSH1 0x4 ADD PUSH1 0x0 PUSH2 0x100 EXP DUP2 SLOAD DUP2 PUSH1 0xFF MUL NOT AND SWAP1 DUP4 ISZERO ISZERO MUL OR SWAP1 SSTORE POP PUSH1 0xA0 DUP3 ADD MLOAD DUP2 PUSH1 0x4 ADD PUSH1 0x1 PUSH2 0x100 EXP DUP2 SLOAD DUP2 PUSH1 0xFF MUL NOT AND SWAP1 DUP4 ISZERO ISZERO MUL OR SWAP1 SSTORE POP PUSH1 0xC0 DUP3 ADD MLOAD DUP2 PUSH1 0x5 ADD SSTORE PUSH1 0xE0 DUP3 ADD MLOAD DUP2 PUSH1 0x6 ADD SSTORE PUSH2 0x100 DUP3 ADD MLOAD DUP2 PUSH1 0x7 ADD PUSH1 0x0 PUSH2 0x100 EXP DUP2 SLOAD DUP2 PUSH20 0xFFFFFFFFFFFFFFFFFFFFFFFFFFFFFFFFFFFFFFFF MUL NOT AND SWAP1 DUP4 PUSH20 0xFFFFFFFFFFFFFFFFFFFFFFFFFFFFFFFFFFFFFFFF AND MUL OR SWAP1 SSTORE POP SWAP1 POP POP PUSH1 0x7 PUSH1 0x0 DUP2 SLOAD DUP1 SWAP3 SWAP2 SWAP1 PUSH2 0xCF4 SWAP1 PUSH2 0x20D2 JUMP JUMPDEST SWAP2 SWAP1 POP SSTORE POP DUP4 PUSH1 0x6 PUSH1 0x0 DUP3 DUP3 SLOAD PUSH2 0xD0B SWAP2 SWAP1 PUSH2 0x2218 JUMP JUMPDEST SWAP3 POP POP DUP2 SWAP1 SSTORE POP DUP4 DUP6 PUSH20 0xFFFFFFFFFFFFFFFFFFFFFFFFFFFFFFFFFFFFFFFF AND PUSH1 0x1 PUSH1 0x7 SLOAD PUSH2 0xD39 SWAP2 SWAP1 PUSH2 0x1EE5 JUMP JUMPDEST PUSH32 0xDE8596BB26A876FD85351415CD7F8EA047829757B6CE0C3E8F6D5AE325C4B21 DUP7 PUSH1 0x40 MLOAD PUSH2 0xD68 SWAP2 SWAP1 PUSH2 0x1CE2 JUMP JUMPDEST PUSH1 0x40 MLOAD DUP1 SWAP2 SUB SWAP1 LOG4 PUSH1 0x1 PUSH1 0x7 SLOAD PUSH2 0xD7F SWAP2 SWAP1 PUSH2 0x1EE5 JUMP JUMPDEST SWAP1 POP SWAP5 SWAP4 POP POP POP POP JUMP JUMPDEST PUSH1 0x5 DUP1 SLOAD PUSH2 0xD96 SWAP1 PUSH2 0x1E85 JUMP JUMPDEST DUP1 PUSH1 0x1F ADD PUSH1 0x20 DUP1 SWAP2 DIV MUL PUSH1 0x20 ADD PUSH1 0x40 MLOAD SWAP1 DUP2 ADD PUSH1 0x40 MSTORE DUP1 SWAP3 SWAP2 SWAP1 DUP2 DUP2 MSTORE PUSH1 0x20 ADD DUP3 DUP1 SLOAD PUSH2 0xDC2 SWAP1 PUSH2 0x1E85 JUMP JUMPDEST DUP1 ISZERO PUSH2 0xE0F JUMPI DUP1 PUSH1 0x1F LT PUSH2 0xDE4 JUMPI PUSH2 0x100 DUP1 DUP4 SLOAD DIV MUL DUP4 MSTORE SWAP2 PUSH1 0x20 ADD SWAP2 PUSH2 0xE0F JUMP JUMPDEST DUP3 ADD SWAP2 SWAP1 PUSH1 0x0 MSTORE PUSH1 0x20 PUSH1 0x0 KECCAK256 SWAP1 JUMPDEST DUP2 SLOAD DUP2 MSTORE SWAP1 PUSH1 0x1 ADD SWAP1 PUSH1 0x20 ADD DUP1 DUP4 GT PUSH2 0xDF2 JUMPI DUP3 SWAP1 SUB PUSH1 0x1F AND DUP3 ADD SWAP2 JUMPDEST POP POP POP POP POP DUP2 JUMP JUMPDEST PUSH1 0x0 PUSH2 0xE2E PUSH2 0xE25 CALLER PUSH2 0x15C3 JUMP JUMPDEST PUSH1 0x2 PUSH1 0x22 PUSH2 0x9A1 JUMP JUMPDEST SWAP1 POP PUSH1 0x0 DUP1 SLOAD SWAP1 PUSH2 0x100 EXP SWAP1 DIV PUSH20 0xFFFFFFFFFFFFFFFFFFFFFFFFFFFFFFFFFFFFFFFF AND PUSH20 0xFFFFFFFFFFFFFFFFFFFFFFFFFFFFFFFFFFFFFFFF AND PUSH4 0xE980602 CALLER DUP4 PUSH1 0x40 MLOAD DUP4 PUSH4 0xFFFFFFFF AND PUSH1 0xE0 SHL DUP2 MSTORE PUSH1 0x4 ADD PUSH2 0xE8B SWAP3 SWAP2 SWAP1 PUSH2 0x24CA JUMP JUMPDEST PUSH1 0x20 PUSH1 0x40 MLOAD DUP1 DUP4 SUB DUP2 PUSH1 0x0 DUP8 GAS CALL ISZERO DUP1 ISZERO PUSH2 0xEAA JUMPI RETURNDATASIZE PUSH1 0x0 DUP1 RETURNDATACOPY RETURNDATASIZE PUSH1 0x0 REVERT JUMPDEST POP POP POP POP PUSH1 0x40 MLOAD RETURNDATASIZE PUSH1 0x1F NOT PUSH1 0x1F DUP3 ADD AND DUP3 ADD DUP1 PUSH1 0x40 MSTORE POP DUP2 ADD SWAP1 PUSH2 0xECE SWAP2 SWAP1 PUSH2 0x250F JUMP JUMPDEST POP POP JUMP JUMPDEST PUSH1 0x7 SLOAD DUP2 JUMP JUMPDEST PUSH1 0x4 PUSH1 0x0 SWAP1 SLOAD SWAP1 PUSH2 0x100 EXP SWAP1 DIV PUSH20 0xFFFFFFFFFFFFFFFFFFFFFFFFFFFFFFFFFFFFFFFF AND DUP2 JUMP JUMPDEST PUSH1 0x0 DUP1 PUSH1 0x0 DUP1 SLOAD SWAP1 PUSH2 0x100 EXP SWAP1 DIV PUSH20 0xFFFFFFFFFFFFFFFFFFFFFFFFFFFFFFFFFFFFFFFF AND PUSH20 0xFFFFFFFFFFFFFFFFFFFFFFFFFFFFFFFFFFFFFFFF AND PUSH4 0x70A08231 DUP5 PUSH1 0x40 MLOAD DUP3 PUSH4 0xFFFFFFFF AND PUSH1 0xE0 SHL DUP2 MSTORE PUSH1 0x4 ADD PUSH2 0xF5A SWAP2 SWAP1 PUSH2 0x1DA2 JUMP JUMPDEST PUSH1 0x20 PUSH1 0x40 MLOAD DUP1 DUP4 SUB DUP2 DUP7 GAS STATICCALL ISZERO DUP1 ISZERO PUSH2 0xF77 JUMPI RETURNDATASIZE PUSH1 0x0 DUP1 RETURNDATACOPY RETURNDATASIZE PUSH1 0x0 REVERT JUMPDEST POP POP POP POP PUSH1 0x40 MLOAD RETURNDATASIZE PUSH1 0x1F NOT PUSH1 0x1F DUP3 ADD AND DUP3 ADD DUP1 PUSH1 0x40 MSTORE POP DUP2 ADD SWAP1 PUSH2 0xF9B SWAP2 SWAP1 PUSH2 0x250F JUMP JUMPDEST GT ISZERO PUSH2 0xFAA JUMPI PUSH1 0x1 SWAP1 POP PUSH2 0xFAF JUMP JUMPDEST PUSH1 0x0 SWAP1 POP JUMPDEST SWAP2 SWAP1 POP JUMP JUMPDEST PUSH1 0x8 DUP1 SLOAD PUSH2 0xFC1 SWAP1 PUSH2 0x1E85 JUMP JUMPDEST DUP1 PUSH1 0x1F ADD PUSH1 0x20 DUP1 SWAP2 DIV MUL PUSH1 0x20 ADD PUSH1 0x40 MLOAD SWAP1 DUP2 ADD PUSH1 0x40 MSTORE DUP1 SWAP3 SWAP2 SWAP1 DUP2 DUP2 MSTORE PUSH1 0x20 ADD DUP3 DUP1 SLOAD PUSH2 0xFED SWAP1 PUSH2 0x1E85 JUMP JUMPDEST DUP1 ISZERO PUSH2 0x103A JUMPI DUP1 PUSH1 0x1F LT PUSH2 0x100F JUMPI PUSH2 0x100 DUP1 DUP4 SLOAD DIV MUL DUP4 MSTORE SWAP2 PUSH1 0x20 ADD SWAP2 PUSH2 0x103A JUMP JUMPDEST DUP3 ADD SWAP2 SWAP1 PUSH1 0x0 MSTORE PUSH1 0x20 PUSH1 0x0 KECCAK256 SWAP1 JUMPDEST DUP2 SLOAD DUP2 MSTORE SWAP1 PUSH1 0x1 ADD SWAP1 PUSH1 0x20 ADD DUP1 DUP4 GT PUSH2 0x101D JUMPI DUP3 SWAP1 SUB PUSH1 0x1F AND DUP3 ADD SWAP2 JUMPDEST POP POP POP POP POP DUP2 JUMP JUMPDEST PUSH2 0x104B CALLER PUSH2 0xEFE JUMP JUMPDEST PUSH2 0x108A JUMPI PUSH1 0x40 MLOAD PUSH32 0x8C379A000000000000000000000000000000000000000000000000000000000 DUP2 MSTORE PUSH1 0x4 ADD PUSH2 0x1081 SWAP1 PUSH2 0x25AE JUMP JUMPDEST PUSH1 0x40 MLOAD DUP1 SWAP2 SUB SWAP1 REVERT JUMPDEST PUSH1 0x1 ISZERO ISZERO PUSH1 0x1 PUSH1 0x0 DUP5 DUP2 MSTORE PUSH1 0x20 ADD SWAP1 DUP2 MSTORE PUSH1 0x20 ADD PUSH1 0x0 KECCAK256 PUSH1 0x4 ADD PUSH1 0x0 SWAP1 SLOAD SWAP1 PUSH2 0x100 EXP SWAP1 DIV PUSH1 0xFF AND ISZERO ISZERO EQ PUSH2 0x10F4 JUMPI PUSH1 0x40 MLOAD PUSH32 0x8C379A000000000000000000000000000000000000000000000000000000000 DUP2 MSTORE PUSH1 0x4 ADD PUSH2 0x10EB SWAP1 PUSH2 0x261A JUMP JUMPDEST PUSH1 0x40 MLOAD DUP1 SWAP2 SUB SWAP1 REVERT JUMPDEST PUSH1 0x0 ISZERO ISZERO PUSH1 0x2 PUSH1 0x0 CALLER PUSH20 0xFFFFFFFFFFFFFFFFFFFFFFFFFFFFFFFFFFFFFFFF AND PUSH20 0xFFFFFFFFFFFFFFFFFFFFFFFFFFFFFFFFFFFFFFFF AND DUP2 MSTORE PUSH1 0x20 ADD SWAP1 DUP2 MSTORE PUSH1 0x20 ADD PUSH1 0x0 KECCAK256 PUSH1 0x0 DUP5 DUP2 MSTORE PUSH1 0x20 ADD SWAP1 DUP2 MSTORE PUSH1 0x20 ADD PUSH1 0x0 KECCAK256 PUSH1 0x0 SWAP1 SLOAD SWAP1 PUSH2 0x100 EXP SWAP1 DIV PUSH1 0xFF AND ISZERO ISZERO EQ DUP1 ISZERO PUSH2 0x11C6 JUMPI POP PUSH1 0x0 ISZERO ISZERO PUSH1 0x3 PUSH1 0x0 CALLER PUSH20 0xFFFFFFFFFFFFFFFFFFFFFFFFFFFFFFFFFFFFFFFF AND PUSH20 0xFFFFFFFFFFFFFFFFFFFFFFFFFFFFFFFFFFFFFFFF AND DUP2 MSTORE PUSH1 0x20 ADD SWAP1 DUP2 MSTORE PUSH1 0x20 ADD PUSH1 0x0 KECCAK256 PUSH1 0x0 DUP5 DUP2 MSTORE PUSH1 0x20 ADD SWAP1 DUP2 MSTORE PUSH1 0x20 ADD PUSH1 0x0 KECCAK256 PUSH1 0x0 SWAP1 SLOAD SWAP1 PUSH2 0x100 EXP SWAP1 DIV PUSH1 0xFF AND ISZERO ISZERO EQ JUMPDEST PUSH2 0x1205 JUMPI PUSH1 0x40 MLOAD PUSH32 0x8C379A000000000000000000000000000000000000000000000000000000000 DUP2 MSTORE PUSH1 0x4 ADD PUSH2 0x11FC SWAP1 PUSH2 0x26AC JUMP JUMPDEST PUSH1 0x40 MLOAD DUP1 SWAP2 SUB SWAP1 REVERT JUMPDEST PUSH1 0x0 TIMESTAMP PUSH1 0x1 PUSH1 0x0 DUP6 DUP2 MSTORE PUSH1 0x20 ADD SWAP1 DUP2 MSTORE PUSH1 0x20 ADD PUSH1 0x0 KECCAK256 PUSH1 0x3 ADD SLOAD PUSH2 0x1229 SWAP2 SWAP1 PUSH2 0x1EE5 JUMP JUMPDEST GT PUSH2 0x1269 JUMPI PUSH1 0x40 MLOAD PUSH32 0x8C379A000000000000000000000000000000000000000000000000000000000 DUP2 MSTORE PUSH1 0x4 ADD PUSH2 0x1260 SWAP1 PUSH2 0x2718 JUMP JUMPDEST PUSH1 0x40 MLOAD DUP1 SWAP2 SUB SWAP1 REVERT JUMPDEST DUP1 ISZERO PUSH2 0x1309 JUMPI PUSH1 0x1 PUSH1 0x0 DUP4 DUP2 MSTORE PUSH1 0x20 ADD SWAP1 DUP2 MSTORE PUSH1 0x20 ADD PUSH1 0x0 KECCAK256 PUSH1 0x5 ADD PUSH1 0x0 DUP2 SLOAD DUP1 SWAP3 SWAP2 SWAP1 PUSH2 0x1296 SWAP1 PUSH2 0x20D2 JUMP JUMPDEST SWAP2 SWAP1 POP SSTORE POP PUSH1 0x1 PUSH1 0x2 PUSH1 0x0 CALLER PUSH20 0xFFFFFFFFFFFFFFFFFFFFFFFFFFFFFFFFFFFFFFFF AND PUSH20 0xFFFFFFFFFFFFFFFFFFFFFFFFFFFFFFFFFFFFFFFF AND DUP2 MSTORE PUSH1 0x20 ADD SWAP1 DUP2 MSTORE PUSH1 0x20 ADD PUSH1 0x0 KECCAK256 PUSH1 0x0 DUP5 DUP2 MSTORE PUSH1 0x20 ADD SWAP1 DUP2 MSTORE PUSH1 0x20 ADD PUSH1 0x0 KECCAK256 PUSH1 0x0 PUSH2 0x100 EXP DUP2 SLOAD DUP2 PUSH1 0xFF MUL NOT AND SWAP1 DUP4 ISZERO ISZERO MUL OR SWAP1 SSTORE POP PUSH2 0x139F JUMP JUMPDEST PUSH1 0x1 PUSH1 0x0 DUP4 DUP2 MSTORE PUSH1 0x20 ADD SWAP1 DUP2 MSTORE PUSH1 0x20 ADD PUSH1 0x0 KECCAK256 PUSH1 0x6 ADD PUSH1 0x0 DUP2 SLOAD DUP1 SWAP3 SWAP2 SWAP1 PUSH2 0x1330 SWAP1 PUSH2 0x20D2 JUMP JUMPDEST SWAP2 SWAP1 POP SSTORE POP PUSH1 0x1 PUSH1 0x3 PUSH1 0x0 CALLER PUSH20 0xFFFFFFFFFFFFFFFFFFFFFFFFFFFFFFFFFFFFFFFF AND PUSH20 0xFFFFFFFFFFFFFFFFFFFFFFFFFFFFFFFFFFFFFFFF AND DUP2 MSTORE PUSH1 0x20 ADD SWAP1 DUP2 MSTORE PUSH1 0x20 ADD PUSH1 0x0 KECCAK256 PUSH1 0x0 DUP5 DUP2 MSTORE PUSH1 0x20 ADD SWAP1 DUP2 MSTORE PUSH1 0x20 ADD PUSH1 0x0 KECCAK256 PUSH1 0x0 PUSH2 0x100 EXP DUP2 SLOAD DUP2 PUSH1 0xFF MUL NOT AND SWAP1 DUP4 ISZERO ISZERO MUL OR SWAP1 SSTORE POP JUMPDEST CALLER PUSH20 0xFFFFFFFFFFFFFFFFFFFFFFFFFFFFFFFFFFFFFFFF AND DUP2 ISZERO ISZERO DUP4 PUSH32 0x86ABFCE99B7DD908BEC0169288797F85049EC73CBE046ED9DE818FAB3A497AE0 PUSH1 0x40 MLOAD PUSH1 0x40 MLOAD DUP1 SWAP2 SUB SWAP1 LOG4 POP POP JUMP JUMPDEST PUSH1 0x0 ISZERO ISZERO PUSH2 0x13F7 DUP3 PUSH2 0xEFE JUMP JUMPDEST ISZERO ISZERO EQ PUSH2 0x1439 JUMPI PUSH1 0x40 MLOAD PUSH32 0x8C379A000000000000000000000000000000000000000000000000000000000 DUP2 MSTORE PUSH1 0x4 ADD PUSH2 0x1430 SWAP1 PUSH2 0x2784 JUMP JUMPDEST PUSH1 0x40 MLOAD DUP1 SWAP2 SUB SWAP1 REVERT JUMPDEST PUSH1 0x1 ISZERO ISZERO PUSH2 0x1446 CALLER PUSH2 0xEFE JUMP JUMPDEST ISZERO ISZERO EQ PUSH2 0x1488 JUMPI PUSH1 0x40 MLOAD PUSH32 0x8C379A000000000000000000000000000000000000000000000000000000000 DUP2 MSTORE PUSH1 0x4 ADD PUSH2 0x147F SWAP1 PUSH2 0x27F0 JUMP JUMPDEST PUSH1 0x40 MLOAD DUP1 SWAP2 SUB SWAP1 REVERT JUMPDEST PUSH1 0x0 PUSH2 0x149F PUSH2 0x1496 DUP4 PUSH2 0x15C3 JUMP JUMPDEST PUSH1 0x2 PUSH1 0x22 PUSH2 0x9A1 JUMP JUMPDEST SWAP1 POP PUSH1 0x0 DUP1 SLOAD SWAP1 PUSH2 0x100 EXP SWAP1 DIV PUSH20 0xFFFFFFFFFFFFFFFFFFFFFFFFFFFFFFFFFFFFFFFF AND PUSH20 0xFFFFFFFFFFFFFFFFFFFFFFFFFFFFFFFFFFFFFFFF AND PUSH4 0xE980602 DUP4 DUP4 PUSH1 0x40 MLOAD DUP4 PUSH4 0xFFFFFFFF AND PUSH1 0xE0 SHL DUP2 MSTORE PUSH1 0x4 ADD PUSH2 0x14FC SWAP3 SWAP2 SWAP1 PUSH2 0x24CA JUMP JUMPDEST PUSH1 0x20 PUSH1 0x40 MLOAD DUP1 DUP4 SUB DUP2 PUSH1 0x0 DUP8 GAS CALL ISZERO DUP1 ISZERO PUSH2 0x151B JUMPI RETURNDATASIZE PUSH1 0x0 DUP1 RETURNDATACOPY RETURNDATASIZE PUSH1 0x0 REVERT JUMPDEST POP POP POP POP PUSH1 0x40 MLOAD RETURNDATASIZE PUSH1 0x1F NOT PUSH1 0x1F DUP3 ADD AND DUP3 ADD DUP1 PUSH1 0x40 MSTORE POP DUP2 ADD SWAP1 PUSH2 0x153F SWAP2 SWAP1 PUSH2 0x250F JUMP JUMPDEST POP POP POP JUMP JUMPDEST PUSH2 0x258 DUP2 JUMP JUMPDEST PUSH1 0x9 PUSH1 0x0 SWAP1 SLOAD SWAP1 PUSH2 0x100 EXP SWAP1 DIV PUSH20 0xFFFFFFFFFFFFFFFFFFFFFFFFFFFFFFFFFFFFFFFF AND DUP2 JUMP JUMPDEST PUSH1 0x2 PUSH1 0x20 MSTORE DUP2 PUSH1 0x0 MSTORE PUSH1 0x40 PUSH1 0x0 KECCAK256 PUSH1 0x20 MSTORE DUP1 PUSH1 0x0 MSTORE PUSH1 0x40 PUSH1 0x0 KECCAK256 PUSH1 0x0 SWAP2 POP SWAP2 POP SWAP1 SLOAD SWAP1 PUSH2 0x100 EXP SWAP1 DIV PUSH1 0xFF AND DUP2 JUMP JUMPDEST PUSH1 0x0 DUP1 SLOAD SWAP1 PUSH2 0x100 EXP SWAP1 DIV PUSH20 0xFFFFFFFFFFFFFFFFFFFFFFFFFFFFFFFFFFFFFFFF AND DUP2 JUMP JUMPDEST PUSH1 0x60 PUSH2 0x15E9 DUP3 PUSH20 0xFFFFFFFFFFFFFFFFFFFFFFFFFFFFFFFFFFFFFFFF AND PUSH1 0x14 PUSH1 0xFF AND PUSH2 0x15F0 JUMP JUMPDEST SWAP1 POP SWAP2 SWAP1 POP JUMP JUMPDEST PUSH1 0x60 PUSH1 0x0 PUSH1 0x2 DUP4 PUSH1 0x2 PUSH2 0x1603 SWAP2 SWAP1 PUSH2 0x2810 JUMP JUMPDEST PUSH2 0x160D SWAP2 SWAP1 PUSH2 0x2218 JUMP JUMPDEST PUSH8 0xFFFFFFFFFFFFFFFF DUP2 GT ISZERO PUSH2 0x1626 JUMPI PUSH2 0x1625 PUSH2 0x1B48 JUMP JUMPDEST JUMPDEST PUSH1 0x40 MLOAD SWAP1 DUP1 DUP3 MSTORE DUP1 PUSH1 0x1F ADD PUSH1 0x1F NOT AND PUSH1 0x20 ADD DUP3 ADD PUSH1 0x40 MSTORE DUP1 ISZERO PUSH2 0x1658 JUMPI DUP2 PUSH1 0x20 ADD PUSH1 0x1 DUP3 MUL DUP1 CALLDATASIZE DUP4 CALLDATACOPY DUP1 DUP3 ADD SWAP2 POP POP SWAP1 POP JUMPDEST POP SWAP1 POP PUSH32 0x3000000000000000000000000000000000000000000000000000000000000000 DUP2 PUSH1 0x0 DUP2 MLOAD DUP2 LT PUSH2 0x1690 JUMPI PUSH2 0x168F PUSH2 0x20A3 JUMP JUMPDEST JUMPDEST PUSH1 0x20 ADD ADD SWAP1 PUSH31 0xFFFFFFFFFFFFFFFFFFFFFFFFFFFFFFFFFFFFFFFFFFFFFFFFFFFFFFFFFFFFFF NOT AND SWAP1 DUP2 PUSH1 0x0 BYTE SWAP1 MSTORE8 POP PUSH32 0x7800000000000000000000000000000000000000000000000000000000000000 DUP2 PUSH1 0x1 DUP2 MLOAD DUP2 LT PUSH2 0x16F4 JUMPI PUSH2 0x16F3 PUSH2 0x20A3 JUMP JUMPDEST JUMPDEST PUSH1 0x20 ADD ADD SWAP1 PUSH31 0xFFFFFFFFFFFFFFFFFFFFFFFFFFFFFFFFFFFFFFFFFFFFFFFFFFFFFFFFFFFFFF NOT AND SWAP1 DUP2 PUSH1 0x0 BYTE SWAP1 MSTORE8 POP PUSH1 0x0 PUSH1 0x1 DUP5 PUSH1 0x2 PUSH2 0x1734 SWAP2 SWAP1 PUSH2 0x2810 JUMP JUMPDEST PUSH2 0x173E SWAP2 SWAP1 PUSH2 0x2218 JUMP JUMPDEST SWAP1 POP JUMPDEST PUSH1 0x1 DUP2 GT ISZERO PUSH2 0x17DE JUMPI PUSH32 0x3031323334353637383961626364656600000000000000000000000000000000 PUSH1 0xF DUP7 AND PUSH1 0x10 DUP2 LT PUSH2 0x1780 JUMPI PUSH2 0x177F PUSH2 0x20A3 JUMP JUMPDEST JUMPDEST BYTE PUSH1 0xF8 SHL DUP3 DUP3 DUP2 MLOAD DUP2 LT PUSH2 0x1797 JUMPI PUSH2 0x1796 PUSH2 0x20A3 JUMP JUMPDEST JUMPDEST PUSH1 0x20 ADD ADD SWAP1 PUSH31 0xFFFFFFFFFFFFFFFFFFFFFFFFFFFFFFFFFFFFFFFFFFFFFFFFFFFFFFFFFFFFFF NOT AND SWAP1 DUP2 PUSH1 0x0 BYTE SWAP1 MSTORE8 POP PUSH1 0x4 DUP6 SWAP1 SHR SWAP5 POP DUP1 PUSH2 0x17D7 SWAP1 PUSH2 0x2852 JUMP JUMPDEST SWAP1 POP PUSH2 0x1741 JUMP JUMPDEST POP PUSH1 0x0 DUP5 EQ PUSH2 0x1822 JUMPI PUSH1 0x40 MLOAD PUSH32 0x8C379A000000000000000000000000000000000000000000000000000000000 DUP2 MSTORE PUSH1 0x4 ADD PUSH2 0x1819 SWAP1 PUSH2 0x28C7 JUMP JUMPDEST PUSH1 0x40 MLOAD DUP1 SWAP2 SUB SWAP1 REVERT JUMPDEST DUP1 SWAP2 POP POP SWAP3 SWAP2 POP POP JUMP JUMPDEST PUSH1 0x0 PUSH1 0x40 MLOAD SWAP1 POP SWAP1 JUMP JUMPDEST PUSH1 0x0 DUP1 REVERT JUMPDEST PUSH1 0x0 DUP1 REVERT JUMPDEST PUSH1 0x0 DUP2 SWAP1 POP SWAP2 SWAP1 POP JUMP JUMPDEST PUSH2 0x1853 DUP2 PUSH2 0x1840 JUMP JUMPDEST DUP2 EQ PUSH2 0x185E JUMPI PUSH1 0x0 DUP1 REVERT JUMPDEST POP JUMP JUMPDEST PUSH1 0x0 DUP2 CALLDATALOAD SWAP1 POP PUSH2 0x1870 DUP2 PUSH2 0x184A JUMP JUMPDEST SWAP3 SWAP2 POP POP JUMP JUMPDEST PUSH1 0x0 PUSH1 0x20 DUP3 DUP5 SUB SLT ISZERO PUSH2 0x188C JUMPI PUSH2 0x188B PUSH2 0x1836 JUMP JUMPDEST JUMPDEST PUSH1 0x0 PUSH2 0x189A DUP5 DUP3 DUP6 ADD PUSH2 0x1861 JUMP JUMPDEST SWAP2 POP POP SWAP3 SWAP2 POP POP JUMP JUMPDEST PUSH1 0x0 PUSH20 0xFFFFFFFFFFFFFFFFFFFFFFFFFFFFFFFFFFFFFFFF DUP3 AND SWAP1 POP SWAP2 SWAP1 POP JUMP JUMPDEST PUSH1 0x0 PUSH2 0x18CE DUP3 PUSH2 0x18A3 JUMP JUMPDEST SWAP1 POP SWAP2 SWAP1 POP JUMP JUMPDEST PUSH2 0x18DE DUP2 PUSH2 0x18C3 JUMP JUMPDEST DUP3 MSTORE POP POP JUMP JUMPDEST PUSH2 0x18ED DUP2 PUSH2 0x1840 JUMP JUMPDEST DUP3 MSTORE POP POP JUMP JUMPDEST PUSH1 0x0 DUP2 MLOAD SWAP1 POP SWAP2 SWAP1 POP JUMP JUMPDEST PUSH1 0x0 DUP3 DUP3 MSTORE PUSH1 0x20 DUP3 ADD SWAP1 POP SWAP3 SWAP2 POP POP JUMP JUMPDEST PUSH1 0x0 JUMPDEST DUP4 DUP2 LT ISZERO PUSH2 0x192D JUMPI DUP1 DUP3 ADD MLOAD DUP2 DUP5 ADD MSTORE PUSH1 0x20 DUP2 ADD SWAP1 POP PUSH2 0x1912 JUMP JUMPDEST PUSH1 0x0 DUP5 DUP5 ADD MSTORE POP POP POP POP JUMP JUMPDEST PUSH1 0x0 PUSH1 0x1F NOT PUSH1 0x1F DUP4 ADD AND SWAP1 POP SWAP2 SWAP1 POP JUMP JUMPDEST PUSH1 0x0 PUSH2 0x1955 DUP3 PUSH2 0x18F3 JUMP JUMPDEST PUSH2 0x195F DUP2 DUP6 PUSH2 0x18FE JUMP JUMPDEST SWAP4 POP PUSH2 0x196F DUP2 DUP6 PUSH1 0x20 DUP7 ADD PUSH2 0x190F JUMP JUMPDEST PUSH2 0x1978 DUP2 PUSH2 0x1939 JUMP JUMPDEST DUP5 ADD SWAP2 POP POP SWAP3 SWAP2 POP POP JUMP JUMPDEST PUSH1 0x0 DUP2 ISZERO ISZERO SWAP1 POP SWAP2 SWAP1 POP JUMP JUMPDEST PUSH2 0x1998 DUP2 PUSH2 0x1983 JUMP JUMPDEST DUP3 MSTORE POP POP JUMP JUMPDEST PUSH1 0x0 PUSH2 0x120 DUP3 ADD SWAP1 POP PUSH2 0x19B4 PUSH1 0x0 DUP4 ADD DUP13 PUSH2 0x18D5 JUMP JUMPDEST PUSH2 0x19C1 PUSH1 0x20 DUP4 ADD DUP12 PUSH2 0x18E4 JUMP JUMPDEST DUP2 DUP2 SUB PUSH1 0x40 DUP4 ADD MSTORE PUSH2 0x19D3 DUP2 DUP11 PUSH2 0x194A JUMP JUMPDEST SWAP1 POP PUSH2 0x19E2 PUSH1 0x60 DUP4 ADD DUP10 PUSH2 0x18E4 JUMP JUMPDEST PUSH2 0x19EF PUSH1 0x80 DUP4 ADD DUP9 PUSH2 0x198F JUMP JUMPDEST PUSH2 0x19FC PUSH1 0xA0 DUP4 ADD DUP8 PUSH2 0x198F JUMP JUMPDEST PUSH2 0x1A09 PUSH1 0xC0 DUP4 ADD DUP7 PUSH2 0x18E4 JUMP JUMPDEST PUSH2 0x1A16 PUSH1 0xE0 DUP4 ADD DUP6 PUSH2 0x18E4 JUMP JUMPDEST PUSH2 0x1A24 PUSH2 0x100 DUP4 ADD DUP5 PUSH2 0x18D5 JUMP JUMPDEST SWAP11 SWAP10 POP POP POP POP POP POP POP POP POP POP JUMP JUMPDEST PUSH1 0x0 PUSH32 0xFFFFFFFF00000000000000000000000000000000000000000000000000000000 DUP3 AND SWAP1 POP SWAP2 SWAP1 POP JUMP JUMPDEST PUSH2 0x1A67 DUP2 PUSH2 0x1A32 JUMP JUMPDEST DUP2 EQ PUSH2 0x1A72 JUMPI PUSH1 0x0 DUP1 REVERT JUMPDEST POP JUMP JUMPDEST PUSH1 0x0 DUP2 CALLDATALOAD SWAP1 POP PUSH2 0x1A84 DUP2 PUSH2 0x1A5E JUMP JUMPDEST SWAP3 SWAP2 POP POP JUMP JUMPDEST PUSH1 0x0 PUSH1 0x20 DUP3 DUP5 SUB SLT ISZERO PUSH2 0x1AA0 JUMPI PUSH2 0x1A9F PUSH2 0x1836 JUMP JUMPDEST JUMPDEST PUSH1 0x0 PUSH2 0x1AAE DUP5 DUP3 DUP6 ADD PUSH2 0x1A75 JUMP JUMPDEST SWAP2 POP POP SWAP3 SWAP2 POP POP JUMP JUMPDEST PUSH1 0x0 PUSH1 0x20 DUP3 ADD SWAP1 POP PUSH2 0x1ACC PUSH1 0x0 DUP4 ADD DUP5 PUSH2 0x198F JUMP JUMPDEST SWAP3 SWAP2 POP POP JUMP JUMPDEST PUSH2 0x1ADB DUP2 PUSH2 0x18C3 JUMP JUMPDEST DUP2 EQ PUSH2 0x1AE6 JUMPI PUSH1 0x0 DUP1 REVERT JUMPDEST POP JUMP JUMPDEST PUSH1 0x0 DUP2 CALLDATALOAD SWAP1 POP PUSH2 0x1AF8 DUP2 PUSH2 0x1AD2 JUMP JUMPDEST SWAP3 SWAP2 POP POP JUMP JUMPDEST PUSH1 0x0 DUP1 PUSH1 0x40 DUP4 DUP6 SUB SLT ISZERO PUSH2 0x1B15 JUMPI PUSH2 0x1B14 PUSH2 0x1836 JUMP JUMPDEST JUMPDEST PUSH1 0x0 PUSH2 0x1B23 DUP6 DUP3 DUP7 ADD PUSH2 0x1AE9 JUMP JUMPDEST SWAP3 POP POP PUSH1 0x20 PUSH2 0x1B34 DUP6 DUP3 DUP7 ADD PUSH2 0x1861 JUMP JUMPDEST SWAP2 POP POP SWAP3 POP SWAP3 SWAP1 POP JUMP JUMPDEST PUSH1 0x0 DUP1 REVERT JUMPDEST PUSH1 0x0 DUP1 REVERT JUMPDEST PUSH32 0x4E487B7100000000000000000000000000000000000000000000000000000000 PUSH1 0x0 MSTORE PUSH1 0x41 PUSH1 0x4 MSTORE PUSH1 0x24 PUSH1 0x0 REVERT JUMPDEST PUSH2 0x1B80 DUP3 PUSH2 0x1939 JUMP JUMPDEST DUP2 ADD DUP2 DUP2 LT PUSH8 0xFFFFFFFFFFFFFFFF DUP3 GT OR ISZERO PUSH2 0x1B9F JUMPI PUSH2 0x1B9E PUSH2 0x1B48 JUMP JUMPDEST JUMPDEST DUP1 PUSH1 0x40 MSTORE POP POP POP JUMP JUMPDEST PUSH1 0x0 PUSH2 0x1BB2 PUSH2 0x182C JUMP JUMPDEST SWAP1 POP PUSH2 0x1BBE DUP3 DUP3 PUSH2 0x1B77 JUMP JUMPDEST SWAP2 SWAP1 POP JUMP JUMPDEST PUSH1 0x0 PUSH8 0xFFFFFFFFFFFFFFFF DUP3 GT ISZERO PUSH2 0x1BDE JUMPI PUSH2 0x1BDD PUSH2 0x1B48 JUMP JUMPDEST JUMPDEST PUSH2 0x1BE7 DUP3 PUSH2 0x1939 JUMP JUMPDEST SWAP1 POP PUSH1 0x20 DUP2 ADD SWAP1 POP SWAP2 SWAP1 POP JUMP JUMPDEST DUP3 DUP2 DUP4 CALLDATACOPY PUSH1 0x0 DUP4 DUP4 ADD MSTORE POP POP POP JUMP JUMPDEST PUSH1 0x0 PUSH2 0x1C16 PUSH2 0x1C11 DUP5 PUSH2 0x1BC3 JUMP JUMPDEST PUSH2 0x1BA8 JUMP JUMPDEST SWAP1 POP DUP3 DUP2 MSTORE PUSH1 0x20 DUP2 ADD DUP5 DUP5 DUP5 ADD GT ISZERO PUSH2 0x1C32 JUMPI PUSH2 0x1C31 PUSH2 0x1B43 JUMP JUMPDEST JUMPDEST PUSH2 0x1C3D DUP5 DUP3 DUP6 PUSH2 0x1BF4 JUMP JUMPDEST POP SWAP4 SWAP3 POP POP POP JUMP JUMPDEST PUSH1 0x0 DUP3 PUSH1 0x1F DUP4 ADD SLT PUSH2 0x1C5A JUMPI PUSH2 0x1C59 PUSH2 0x1B3E JUMP JUMPDEST JUMPDEST DUP2 CALLDATALOAD PUSH2 0x1C6A DUP5 DUP3 PUSH1 0x20 DUP7 ADD PUSH2 0x1C03 JUMP JUMPDEST SWAP2 POP POP SWAP3 SWAP2 POP POP JUMP JUMPDEST PUSH1 0x0 DUP1 PUSH1 0x0 PUSH1 0x60 DUP5 DUP7 SUB SLT ISZERO PUSH2 0x1C8C JUMPI PUSH2 0x1C8B PUSH2 0x1836 JUMP JUMPDEST JUMPDEST PUSH1 0x0 DUP5 ADD CALLDATALOAD PUSH8 0xFFFFFFFFFFFFFFFF DUP2 GT ISZERO PUSH2 0x1CAA JUMPI PUSH2 0x1CA9 PUSH2 0x183B JUMP JUMPDEST JUMPDEST PUSH2 0x1CB6 DUP7 DUP3 DUP8 ADD PUSH2 0x1C45 JUMP JUMPDEST SWAP4 POP POP PUSH1 0x20 PUSH2 0x1CC7 DUP7 DUP3 DUP8 ADD PUSH2 0x1861 JUMP JUMPDEST SWAP3 POP POP PUSH1 0x40 PUSH2 0x1CD8 DUP7 DUP3 DUP8 ADD PUSH2 0x1861 JUMP JUMPDEST SWAP2 POP POP SWAP3 POP SWAP3 POP SWAP3 JUMP JUMPDEST PUSH1 0x0 PUSH1 0x20 DUP3 ADD SWAP1 POP DUP2 DUP2 SUB PUSH1 0x0 DUP4 ADD MSTORE PUSH2 0x1CFC DUP2 DUP5 PUSH2 0x194A JUMP JUMPDEST SWAP1 POP SWAP3 SWAP2 POP POP JUMP JUMPDEST PUSH1 0x0 PUSH1 0x20 DUP3 ADD SWAP1 POP PUSH2 0x1D19 PUSH1 0x0 DUP4 ADD DUP5 PUSH2 0x18E4 JUMP JUMPDEST SWAP3 SWAP2 POP POP JUMP JUMPDEST PUSH1 0x0 DUP1 PUSH1 0x0 DUP1 PUSH1 0x80 DUP6 DUP8 SUB SLT ISZERO PUSH2 0x1D39 JUMPI PUSH2 0x1D38 PUSH2 0x1836 JUMP JUMPDEST JUMPDEST PUSH1 0x0 PUSH2 0x1D47 DUP8 DUP3 DUP9 ADD PUSH2 0x1AE9 JUMP JUMPDEST SWAP5 POP POP PUSH1 0x20 PUSH2 0x1D58 DUP8 DUP3 DUP9 ADD PUSH2 0x1861 JUMP JUMPDEST SWAP4 POP POP PUSH1 0x40 DUP6 ADD CALLDATALOAD PUSH8 0xFFFFFFFFFFFFFFFF DUP2 GT ISZERO PUSH2 0x1D79 JUMPI PUSH2 0x1D78 PUSH2 0x183B JUMP JUMPDEST JUMPDEST PUSH2 0x1D85 DUP8 DUP3 DUP9 ADD PUSH2 0x1C45 JUMP JUMPDEST SWAP3 POP POP PUSH1 0x60 PUSH2 0x1D96 DUP8 DUP3 DUP9 ADD PUSH2 0x1861 JUMP JUMPDEST SWAP2 POP POP SWAP3 SWAP6 SWAP2 SWAP5 POP SWAP3 POP JUMP JUMPDEST PUSH1 0x0 PUSH1 0x20 DUP3 ADD SWAP1 POP PUSH2 0x1DB7 PUSH1 0x0 DUP4 ADD DUP5 PUSH2 0x18D5 JUMP JUMPDEST SWAP3 SWAP2 POP POP JUMP JUMPDEST PUSH1 0x0 PUSH1 0x20 DUP3 DUP5 SUB SLT ISZERO PUSH2 0x1DD3 JUMPI PUSH2 0x1DD2 PUSH2 0x1836 JUMP JUMPDEST JUMPDEST PUSH1 0x0 PUSH2 0x1DE1 DUP5 DUP3 DUP6 ADD PUSH2 0x1AE9 JUMP JUMPDEST SWAP2 POP POP SWAP3 SWAP2 POP POP JUMP JUMPDEST PUSH2 0x1DF3 DUP2 PUSH2 0x1983 JUMP JUMPDEST DUP2 EQ PUSH2 0x1DFE JUMPI PUSH1 0x0 DUP1 REVERT JUMPDEST POP JUMP JUMPDEST PUSH1 0x0 DUP2 CALLDATALOAD SWAP1 POP PUSH2 0x1E10 DUP2 PUSH2 0x1DEA JUMP JUMPDEST SWAP3 SWAP2 POP POP JUMP JUMPDEST PUSH1 0x0 DUP1 PUSH1 0x40 DUP4 DUP6 SUB SLT ISZERO PUSH2 0x1E2D JUMPI PUSH2 0x1E2C PUSH2 0x1836 JUMP JUMPDEST JUMPDEST PUSH1 0x0 PUSH2 0x1E3B DUP6 DUP3 DUP7 ADD PUSH2 0x1861 JUMP JUMPDEST SWAP3 POP POP PUSH1 0x20 PUSH2 0x1E4C DUP6 DUP3 DUP7 ADD PUSH2 0x1E01 JUMP JUMPDEST SWAP2 POP POP SWAP3 POP SWAP3 SWAP1 POP JUMP JUMPDEST PUSH32 0x4E487B7100000000000000000000000000000000000000000000000000000000 PUSH1 0x0 MSTORE PUSH1 0x22 PUSH1 0x4 MSTORE PUSH1 0x24 PUSH1 0x0 REVERT JUMPDEST PUSH1 0x0 PUSH1 0x2 DUP3 DIV SWAP1 POP PUSH1 0x1 DUP3 AND DUP1 PUSH2 0x1E9D JUMPI PUSH1 0x7F DUP3 AND SWAP2 POP JUMPDEST PUSH1 0x20 DUP3 LT DUP2 SUB PUSH2 0x1EB0 JUMPI PUSH2 0x1EAF PUSH2 0x1E56 JUMP JUMPDEST JUMPDEST POP SWAP2 SWAP1 POP JUMP JUMPDEST PUSH32 0x4E487B7100000000000000000000000000000000000000000000000000000000 PUSH1 0x0 MSTORE PUSH1 0x11 PUSH1 0x4 MSTORE PUSH1 0x24 PUSH1 0x0 REVERT JUMPDEST PUSH1 0x0 PUSH2 0x1EF0 DUP3 PUSH2 0x1840 JUMP JUMPDEST SWAP2 POP PUSH2 0x1EFB DUP4 PUSH2 0x1840 JUMP JUMPDEST SWAP3 POP DUP3 DUP3 SUB SWAP1 POP DUP2 DUP2 GT ISZERO PUSH2 0x1F13 JUMPI PUSH2 0x1F12 PUSH2 0x1EB6 JUMP JUMPDEST JUMPDEST SWAP3 SWAP2 POP POP JUMP JUMPDEST PUSH32 0x766F74696E672063616E207374696C6C2068617070656E2E0000000000000000 PUSH1 0x0 DUP3 ADD MSTORE POP JUMP JUMPDEST PUSH1 0x0 PUSH2 0x1F4F PUSH1 0x18 DUP4 PUSH2 0x18FE JUMP JUMPDEST SWAP2 POP PUSH2 0x1F5A DUP3 PUSH2 0x1F19 JUMP JUMPDEST PUSH1 0x20 DUP3 ADD SWAP1 POP SWAP2 SWAP1 POP JUMP JUMPDEST PUSH1 0x0 PUSH1 0x20 DUP3 ADD SWAP1 POP DUP2 DUP2 SUB PUSH1 0x0 DUP4 ADD MSTORE PUSH2 0x1F7E DUP2 PUSH2 0x1F42 JUMP JUMPDEST SWAP1 POP SWAP2 SWAP1 POP JUMP JUMPDEST PUSH32 0x6F6E6C79206D656D626572732063616E20636C6F73652070726F706F73616C73 PUSH1 0x0 DUP3 ADD MSTORE POP JUMP JUMPDEST PUSH1 0x0 PUSH2 0x1FBB PUSH1 0x20 DUP4 PUSH2 0x18FE JUMP JUMPDEST SWAP2 POP PUSH2 0x1FC6 DUP3 PUSH2 0x1F85 JUMP JUMPDEST PUSH1 0x20 DUP3 ADD SWAP1 POP SWAP2 SWAP1 POP JUMP JUMPDEST PUSH1 0x0 PUSH1 0x20 DUP3 ADD SWAP1 POP DUP2 DUP2 SUB PUSH1 0x0 DUP4 ADD MSTORE PUSH2 0x1FEA DUP2 PUSH2 0x1FAE JUMP JUMPDEST SWAP1 POP SWAP2 SWAP1 POP JUMP JUMPDEST PUSH1 0x0 DUP2 SWAP1 POP SWAP3 SWAP2 POP POP JUMP JUMPDEST POP JUMP JUMPDEST PUSH1 0x0 PUSH2 0x200C PUSH1 0x0 DUP4 PUSH2 0x1FF1 JUMP JUMPDEST SWAP2 POP PUSH2 0x2017 DUP3 PUSH2 0x1FFC JUMP JUMPDEST PUSH1 0x0 DUP3 ADD SWAP1 POP SWAP2 SWAP1 POP JUMP JUMPDEST PUSH1 0x0 PUSH2 0x202D DUP3 PUSH2 0x1FFF JUMP JUMPDEST SWAP2 POP DUP2 SWAP1 POP SWAP2 SWAP1 POP JUMP JUMPDEST PUSH32 0x7061796D656E74206469646E277420776F726B00000000000000000000000000 PUSH1 0x0 DUP3 ADD MSTORE POP JUMP JUMPDEST PUSH1 0x0 PUSH2 0x206D PUSH1 0x13 DUP4 PUSH2 0x18FE JUMP JUMPDEST SWAP2 POP PUSH2 0x2078 DUP3 PUSH2 0x2037 JUMP JUMPDEST PUSH1 0x20 DUP3 ADD SWAP1 POP SWAP2 SWAP1 POP JUMP JUMPDEST PUSH1 0x0 PUSH1 0x20 DUP3 ADD SWAP1 POP DUP2 DUP2 SUB PUSH1 0x0 DUP4 ADD MSTORE PUSH2 0x209C DUP2 PUSH2 0x2060 JUMP JUMPDEST SWAP1 POP SWAP2 SWAP1 POP JUMP JUMPDEST PUSH32 0x4E487B7100000000000000000000000000000000000000000000000000000000 PUSH1 0x0 MSTORE PUSH1 0x32 PUSH1 0x4 MSTORE PUSH1 0x24 PUSH1 0x0 REVERT JUMPDEST PUSH1 0x0 PUSH2 0x20DD DUP3 PUSH2 0x1840 JUMP JUMPDEST SWAP2 POP PUSH32 0xFFFFFFFFFFFFFFFFFFFFFFFFFFFFFFFFFFFFFFFFFFFFFFFFFFFFFFFFFFFFFFFF DUP3 SUB PUSH2 0x210F JUMPI PUSH2 0x210E PUSH2 0x1EB6 JUMP JUMPDEST JUMPDEST PUSH1 0x1 DUP3 ADD SWAP1 POP SWAP2 SWAP1 POP JUMP JUMPDEST PUSH32 0x6465626174696E6720706572696F64206973206C657373207468616E206D696E PUSH1 0x0 DUP3 ADD MSTORE PUSH32 0x20616C6C6F776564000000000000000000000000000000000000000000000000 PUSH1 0x20 DUP3 ADD MSTORE POP JUMP JUMPDEST PUSH1 0x0 PUSH2 0x2176 PUSH1 0x28 DUP4 PUSH2 0x18FE JUMP JUMPDEST SWAP2 POP PUSH2 0x2181 DUP3 PUSH2 0x211A JUMP JUMPDEST PUSH1 0x40 DUP3 ADD SWAP1 POP SWAP2 SWAP1 POP JUMP JUMPDEST PUSH1 0x0 PUSH1 0x20 DUP3 ADD SWAP1 POP DUP2 DUP2 SUB PUSH1 0x0 DUP4 ADD MSTORE PUSH2 0x21A5 DUP2 PUSH2 0x2169 JUMP JUMPDEST SWAP1 POP SWAP2 SWAP1 POP JUMP JUMPDEST PUSH32 0x6F6E6C79206D656D626572732063616E206F70656E2070726F706F73616C7300 PUSH1 0x0 DUP3 ADD MSTORE POP JUMP JUMPDEST PUSH1 0x0 PUSH2 0x21E2 PUSH1 0x1F DUP4 PUSH2 0x18FE JUMP JUMPDEST SWAP2 POP PUSH2 0x21ED DUP3 PUSH2 0x21AC JUMP JUMPDEST PUSH1 0x20 DUP3 ADD SWAP1 POP SWAP2 SWAP1 POP JUMP JUMPDEST PUSH1 0x0 PUSH1 0x20 DUP3 ADD SWAP1 POP DUP2 DUP2 SUB PUSH1 0x0 DUP4 ADD MSTORE PUSH2 0x2211 DUP2 PUSH2 0x21D5 JUMP JUMPDEST SWAP1 POP SWAP2 SWAP1 POP JUMP JUMPDEST PUSH1 0x0 PUSH2 0x2223 DUP3 PUSH2 0x1840 JUMP JUMPDEST SWAP2 POP PUSH2 0x222E DUP4 PUSH2 0x1840 JUMP JUMPDEST SWAP3 POP DUP3 DUP3 ADD SWAP1 POP DUP1 DUP3 GT ISZERO PUSH2 0x2246 JUMPI PUSH2 0x2245 PUSH2 0x1EB6 JUMP JUMPDEST JUMPDEST SWAP3 SWAP2 POP POP JUMP JUMPDEST PUSH1 0x0 DUP2 SWAP1 POP DUP2 PUSH1 0x0 MSTORE PUSH1 0x20 PUSH1 0x0 KECCAK256 SWAP1 POP SWAP2 SWAP1 POP JUMP JUMPDEST PUSH1 0x0 PUSH1 0x20 PUSH1 0x1F DUP4 ADD DIV SWAP1 POP SWAP2 SWAP1 POP JUMP JUMPDEST PUSH1 0x0 DUP3 DUP3 SHL SWAP1 POP SWAP3 SWAP2 POP POP JUMP JUMPDEST PUSH1 0x0 PUSH1 0x8 DUP4 MUL PUSH2 0x22AE PUSH32 0xFFFFFFFFFFFFFFFFFFFFFFFFFFFFFFFFFFFFFFFFFFFFFFFFFFFFFFFFFFFFFFFF DUP3 PUSH2 0x2271 JUMP JUMPDEST PUSH2 0x22B8 DUP7 DUP4 PUSH2 0x2271 JUMP JUMPDEST SWAP6 POP DUP1 NOT DUP5 AND SWAP4 POP DUP1 DUP7 AND DUP5 OR SWAP3 POP POP POP SWAP4 SWAP3 POP POP POP JUMP JUMPDEST PUSH1 0x0 DUP2 SWAP1 POP SWAP2 SWAP1 POP JUMP JUMPDEST PUSH1 0x0 PUSH2 0x22F5 PUSH2 0x22F0 PUSH2 0x22EB DUP5 PUSH2 0x1840 JUMP JUMPDEST PUSH2 0x22D0 JUMP JUMPDEST PUSH2 0x1840 JUMP JUMPDEST SWAP1 POP SWAP2 SWAP1 POP JUMP JUMPDEST PUSH1 0x0 DUP2 SWAP1 POP SWAP2 SWAP1 POP JUMP JUMPDEST PUSH2 0x230F DUP4 PUSH2 0x22DA JUMP JUMPDEST PUSH2 0x2323 PUSH2 0x231B DUP3 PUSH2 0x22FC JUMP JUMPDEST DUP5 DUP5 SLOAD PUSH2 0x227E JUMP JUMPDEST DUP3 SSTORE POP POP POP POP JUMP JUMPDEST PUSH1 0x0 SWAP1 JUMP JUMPDEST PUSH2 0x2338 PUSH2 0x232B JUMP JUMPDEST PUSH2 0x2343 DUP2 DUP5 DUP5 PUSH2 0x2306 JUMP JUMPDEST POP POP POP JUMP JUMPDEST JUMPDEST DUP2 DUP2 LT ISZERO PUSH2 0x2367 JUMPI PUSH2 0x235C PUSH1 0x0 DUP3 PUSH2 0x2330 JUMP JUMPDEST PUSH1 0x1 DUP2 ADD SWAP1 POP PUSH2 0x2349 JUMP JUMPDEST POP POP JUMP JUMPDEST PUSH1 0x1F DUP3 GT ISZERO PUSH2 0x23AC JUMPI PUSH2 0x237D DUP2 PUSH2 0x224C JUMP JUMPDEST PUSH2 0x2386 DUP5 PUSH2 0x2261 JUMP JUMPDEST DUP2 ADD PUSH1 0x20 DUP6 LT ISZERO PUSH2 0x2395 JUMPI DUP2 SWAP1 POP JUMPDEST PUSH2 0x23A9 PUSH2 0x23A1 DUP6 PUSH2 0x2261 JUMP JUMPDEST DUP4 ADD DUP3 PUSH2 0x2348 JUMP JUMPDEST POP POP JUMPDEST POP POP POP JUMP JUMPDEST PUSH1 0x0 DUP3 DUP3 SHR SWAP1 POP SWAP3 SWAP2 POP POP JUMP JUMPDEST PUSH1 0x0 PUSH2 0x23CF PUSH1 0x0 NOT DUP5 PUSH1 0x8 MUL PUSH2 0x23B1 JUMP JUMPDEST NOT DUP1 DUP4 AND SWAP2 POP POP SWAP3 SWAP2 POP POP JUMP JUMPDEST PUSH1 0x0 PUSH2 0x23E8 DUP4 DUP4 PUSH2 0x23BE JUMP JUMPDEST SWAP2 POP DUP3 PUSH1 0x2 MUL DUP3 OR SWAP1 POP SWAP3 SWAP2 POP POP JUMP JUMPDEST PUSH2 0x2401 DUP3 PUSH2 0x18F3 JUMP JUMPDEST PUSH8 0xFFFFFFFFFFFFFFFF DUP2 GT ISZERO PUSH2 0x241A JUMPI PUSH2 0x2419 PUSH2 0x1B48 JUMP JUMPDEST JUMPDEST PUSH2 0x2424 DUP3 SLOAD PUSH2 0x1E85 JUMP JUMPDEST PUSH2 0x242F DUP3 DUP3 DUP6 PUSH2 0x236B JUMP JUMPDEST PUSH1 0x0 PUSH1 0x20 SWAP1 POP PUSH1 0x1F DUP4 GT PUSH1 0x1 DUP2 EQ PUSH2 0x2462 JUMPI PUSH1 0x0 DUP5 ISZERO PUSH2 0x2450 JUMPI DUP3 DUP8 ADD MLOAD SWAP1 POP JUMPDEST PUSH2 0x245A DUP6 DUP3 PUSH2 0x23DC JUMP JUMPDEST DUP7 SSTORE POP PUSH2 0x24C2 JUMP JUMPDEST PUSH1 0x1F NOT DUP5 AND PUSH2 0x2470 DUP7 PUSH2 0x224C JUMP JUMPDEST PUSH1 0x0 JUMPDEST DUP3 DUP2 LT ISZERO PUSH2 0x2498 JUMPI DUP5 DUP10 ADD MLOAD DUP3 SSTORE PUSH1 0x1 DUP3 ADD SWAP2 POP PUSH1 0x20 DUP6 ADD SWAP5 POP PUSH1 0x20 DUP2 ADD SWAP1 POP PUSH2 0x2473 JUMP JUMPDEST DUP7 DUP4 LT ISZERO PUSH2 0x24B5 JUMPI DUP5 DUP10 ADD MLOAD PUSH2 0x24B1 PUSH1 0x1F DUP10 AND DUP3 PUSH2 0x23BE JUMP JUMPDEST DUP4 SSTORE POP JUMPDEST PUSH1 0x1 PUSH1 0x2 DUP9 MUL ADD DUP9 SSTORE POP POP POP JUMPDEST POP POP POP POP POP POP JUMP JUMPDEST PUSH1 0x0 PUSH1 0x40 DUP3 ADD SWAP1 POP PUSH2 0x24DF PUSH1 0x0 DUP4 ADD DUP6 PUSH2 0x18D5 JUMP JUMPDEST DUP2 DUP2 SUB PUSH1 0x20 DUP4 ADD MSTORE PUSH2 0x24F1 DUP2 DUP5 PUSH2 0x194A JUMP JUMPDEST SWAP1 POP SWAP4 SWAP3 POP POP POP JUMP JUMPDEST PUSH1 0x0 DUP2 MLOAD SWAP1 POP PUSH2 0x2509 DUP2 PUSH2 0x184A JUMP JUMPDEST SWAP3 SWAP2 POP POP JUMP JUMPDEST PUSH1 0x0 PUSH1 0x20 DUP3 DUP5 SUB SLT ISZERO PUSH2 0x2525 JUMPI PUSH2 0x2524 PUSH2 0x1836 JUMP JUMPDEST JUMPDEST PUSH1 0x0 PUSH2 0x2533 DUP5 DUP3 DUP6 ADD PUSH2 0x24FA JUMP JUMPDEST SWAP2 POP POP SWAP3 SWAP2 POP POP JUMP JUMPDEST PUSH32 0x6F6E6C79206D656D626572732063616E20766F7465206F6E2070726F706F7361 PUSH1 0x0 DUP3 ADD MSTORE PUSH32 0x6C73000000000000000000000000000000000000000000000000000000000000 PUSH1 0x20 DUP3 ADD MSTORE POP JUMP JUMPDEST PUSH1 0x0 PUSH2 0x2598 PUSH1 0x22 DUP4 PUSH2 0x18FE JUMP JUMPDEST SWAP2 POP PUSH2 0x25A3 DUP3 PUSH2 0x253C JUMP JUMPDEST PUSH1 0x40 DUP3 ADD SWAP1 POP SWAP2 SWAP1 POP JUMP JUMPDEST PUSH1 0x0 PUSH1 0x20 DUP3 ADD SWAP1 POP DUP2 DUP2 SUB PUSH1 0x0 DUP4 ADD MSTORE PUSH2 0x25C7 DUP2 PUSH2 0x258B JUMP JUMPDEST SWAP1 POP SWAP2 SWAP1 POP JUMP JUMPDEST PUSH32 0x70726F706F73616C206D757374206265206F70656E20746F20766F7465000000 PUSH1 0x0 DUP3 ADD MSTORE POP JUMP JUMPDEST PUSH1 0x0 PUSH2 0x2604 PUSH1 0x1D DUP4 PUSH2 0x18FE JUMP JUMPDEST SWAP2 POP PUSH2 0x260F DUP3 PUSH2 0x25CE JUMP JUMPDEST PUSH1 0x20 DUP3 ADD SWAP1 POP SWAP2 SWAP1 POP JUMP JUMPDEST PUSH1 0x0 PUSH1 0x20 DUP3 ADD SWAP1 POP DUP2 DUP2 SUB PUSH1 0x0 DUP4 ADD MSTORE PUSH2 0x2633 DUP2 PUSH2 0x25F7 JUMP JUMPDEST SWAP1 POP SWAP2 SWAP1 POP JUMP JUMPDEST PUSH32 0x53656E6465722068617320616C72656164792063617374656420746865697220 PUSH1 0x0 DUP3 ADD MSTORE PUSH32 0x766F74652E000000000000000000000000000000000000000000000000000000 PUSH1 0x20 DUP3 ADD MSTORE POP JUMP JUMPDEST PUSH1 0x0 PUSH2 0x2696 PUSH1 0x25 DUP4 PUSH2 0x18FE JUMP JUMPDEST SWAP2 POP PUSH2 0x26A1 DUP3 PUSH2 0x263A JUMP JUMPDEST PUSH1 0x40 DUP3 ADD SWAP1 POP SWAP2 SWAP1 POP JUMP JUMPDEST PUSH1 0x0 PUSH1 0x20 DUP3 ADD SWAP1 POP DUP2 DUP2 SUB PUSH1 0x0 DUP4 ADD MSTORE PUSH2 0x26C5 DUP2 PUSH2 0x2689 JUMP JUMPDEST SWAP1 POP SWAP2 SWAP1 POP JUMP JUMPDEST PUSH32 0x63616E6E6F7420766F746520616674657220646561646C696E652E0000000000 PUSH1 0x0 DUP3 ADD MSTORE POP JUMP JUMPDEST PUSH1 0x0 PUSH2 0x2702 PUSH1 0x1B DUP4 PUSH2 0x18FE JUMP JUMPDEST SWAP2 POP PUSH2 0x270D DUP3 PUSH2 0x26CC JUMP JUMPDEST PUSH1 0x20 DUP3 ADD SWAP1 POP SWAP2 SWAP1 POP JUMP JUMPDEST PUSH1 0x0 PUSH1 0x20 DUP3 ADD SWAP1 POP DUP2 DUP2 SUB PUSH1 0x0 DUP4 ADD MSTORE PUSH2 0x2731 DUP2 PUSH2 0x26F5 JUMP JUMPDEST SWAP1 POP SWAP2 SWAP1 POP JUMP JUMPDEST PUSH32 0x6D656D62657220697320616C726561647920617070726F766564000000000000 PUSH1 0x0 DUP3 ADD MSTORE POP JUMP JUMPDEST PUSH1 0x0 PUSH2 0x276E PUSH1 0x1A DUP4 PUSH2 0x18FE JUMP JUMPDEST SWAP2 POP PUSH2 0x2779 DUP3 PUSH2 0x2738 JUMP JUMPDEST PUSH1 0x20 DUP3 ADD SWAP1 POP SWAP2 SWAP1 POP JUMP JUMPDEST PUSH1 0x0 PUSH1 0x20 DUP3 ADD SWAP1 POP DUP2 DUP2 SUB PUSH1 0x0 DUP4 ADD MSTORE PUSH2 0x279D DUP2 PUSH2 0x2761 JUMP JUMPDEST SWAP1 POP SWAP2 SWAP1 POP JUMP JUMPDEST PUSH32 0x6F6E6C79206D656D6265722063616E20617070726F7665000000000000000000 PUSH1 0x0 DUP3 ADD MSTORE POP JUMP JUMPDEST PUSH1 0x0 PUSH2 0x27DA PUSH1 0x17 DUP4 PUSH2 0x18FE JUMP JUMPDEST SWAP2 POP PUSH2 0x27E5 DUP3 PUSH2 0x27A4 JUMP JUMPDEST PUSH1 0x20 DUP3 ADD SWAP1 POP SWAP2 SWAP1 POP JUMP JUMPDEST PUSH1 0x0 PUSH1 0x20 DUP3 ADD SWAP1 POP DUP2 DUP2 SUB PUSH1 0x0 DUP4 ADD MSTORE PUSH2 0x2809 DUP2 PUSH2 0x27CD JUMP JUMPDEST SWAP1 POP SWAP2 SWAP1 POP JUMP JUMPDEST PUSH1 0x0 PUSH2 0x281B DUP3 PUSH2 0x1840 JUMP JUMPDEST SWAP2 POP PUSH2 0x2826 DUP4 PUSH2 0x1840 JUMP JUMPDEST SWAP3 POP DUP3 DUP3 MUL PUSH2 0x2834 DUP2 PUSH2 0x1840 JUMP JUMPDEST SWAP2 POP DUP3 DUP3 DIV DUP5 EQ DUP4 ISZERO OR PUSH2 0x284B JUMPI PUSH2 0x284A PUSH2 0x1EB6 JUMP JUMPDEST JUMPDEST POP SWAP3 SWAP2 POP POP JUMP JUMPDEST PUSH1 0x0 PUSH2 0x285D DUP3 PUSH2 0x1840 JUMP JUMPDEST SWAP2 POP PUSH1 0x0 DUP3 SUB PUSH2 0x2870 JUMPI PUSH2 0x286F PUSH2 0x1EB6 JUMP JUMPDEST JUMPDEST PUSH1 0x1 DUP3 SUB SWAP1 POP SWAP2 SWAP1 POP JUMP JUMPDEST PUSH32 0x537472696E67733A20686578206C656E67746820696E73756666696369656E74 PUSH1 0x0 DUP3 ADD MSTORE POP JUMP JUMPDEST PUSH1 0x0 PUSH2 0x28B1 PUSH1 0x20 DUP4 PUSH2 0x18FE JUMP JUMPDEST SWAP2 POP PUSH2 0x28BC DUP3 PUSH2 0x287B JUMP JUMPDEST PUSH1 0x20 DUP3 ADD SWAP1 POP SWAP2 SWAP1 POP JUMP JUMPDEST PUSH1 0x0 PUSH1 0x20 DUP3 ADD SWAP1 POP DUP2 DUP2 SUB PUSH1 0x0 DUP4 ADD MSTORE PUSH2 0x28E0 DUP2 PUSH2 0x28A4 JUMP JUMPDEST SWAP1 POP SWAP2 SWAP1 POP JUMP INVALID LOG2 PUSH5 0x6970667358 0x22 SLT KECCAK256 ORIGIN PUSH21 0x1BC9F87645AFBAC0F5FF570C60C53BF2677CFB9F78 CALLDATACOPY SHL 0x22 0xB8 0x5E ADDRESS 0xA9 SWAP9 ISZERO PUSH5 0x736F6C6343 STOP ADDMOD SLT STOP CALLER PUSH1 0x80 PUSH1 0x40 MSTORE PUSH1 0x40 MLOAD DUP1 PUSH1 0x60 ADD PUSH1 0x40 MSTORE DUP1 PUSH1 0x31 DUP2 MSTORE PUSH1 0x20 ADD PUSH3 0x3057 PUSH1 0x31 SWAP2 CODECOPY PUSH1 0x8 SWAP1 DUP2 PUSH3 0x2E SWAP2 SWAP1 PUSH3 0x34F JUMP JUMPDEST POP CALLVALUE DUP1 ISZERO PUSH3 0x3C JUMPI PUSH1 0x0 DUP1 REVERT JUMPDEST POP PUSH1 0x40 MLOAD DUP1 PUSH1 0x40 ADD PUSH1 0x40 MSTORE DUP1 PUSH1 0xF DUP2 MSTORE PUSH1 0x20 ADD PUSH32 0x436F6C6C656374696F6E7328544D290000000000000000000000000000000000 DUP2 MSTORE POP PUSH1 0x40 MLOAD DUP1 PUSH1 0x40 ADD PUSH1 0x40 MSTORE DUP1 PUSH1 0x4 DUP2 MSTORE PUSH1 0x20 ADD PUSH32 0x434F4C5400000000000000000000000000000000000000000000000000000000 DUP2 MSTORE POP DUP2 PUSH1 0x0 SWAP1 DUP2 PUSH3 0xBA SWAP2 SWAP1 PUSH3 0x34F JUMP JUMPDEST POP DUP1 PUSH1 0x1 SWAP1 DUP2 PUSH3 0xCC SWAP2 SWAP1 PUSH3 0x34F JUMP JUMPDEST POP POP POP PUSH3 0x436 JUMP JUMPDEST PUSH1 0x0 DUP2 MLOAD SWAP1 POP SWAP2 SWAP1 POP JUMP JUMPDEST PUSH32 0x4E487B7100000000000000000000000000000000000000000000000000000000 PUSH1 0x0 MSTORE PUSH1 0x41 PUSH1 0x4 MSTORE PUSH1 0x24 PUSH1 0x0 REVERT JUMPDEST PUSH32 0x4E487B7100000000000000000000000000000000000000000000000000000000 PUSH1 0x0 MSTORE PUSH1 0x22 PUSH1 0x4 MSTORE PUSH1 0x24 PUSH1 0x0 REVERT JUMPDEST PUSH1 0x0 PUSH1 0x2 DUP3 DIV SWAP1 POP PUSH1 0x1 DUP3 AND DUP1 PUSH3 0x157 JUMPI PUSH1 0x7F DUP3 AND SWAP2 POP JUMPDEST PUSH1 0x20 DUP3 LT DUP2 SUB PUSH3 0x16D JUMPI PUSH3 0x16C PUSH3 0x10F JUMP JUMPDEST JUMPDEST POP SWAP2 SWAP1 POP JUMP JUMPDEST PUSH1 0x0 DUP2 SWAP1 POP DUP2 PUSH1 0x0 MSTORE PUSH1 0x20 PUSH1 0x0 KECCAK256 SWAP1 POP SWAP2 SWAP1 POP JUMP JUMPDEST PUSH1 0x0 PUSH1 0x20 PUSH1 0x1F DUP4 ADD DIV SWAP1 POP SWAP2 SWAP1 POP JUMP JUMPDEST PUSH1 0x0 DUP3 DUP3 SHL SWAP1 POP SWAP3 SWAP2 POP POP JUMP JUMPDEST PUSH1 0x0 PUSH1 0x8 DUP4 MUL PUSH3 0x1D7 PUSH32 0xFFFFFFFFFFFFFFFFFFFFFFFFFFFFFFFFFFFFFFFFFFFFFFFFFFFFFFFFFFFFFFFF DUP3 PUSH3 0x198 JUMP JUMPDEST PUSH3 0x1E3 DUP7 DUP4 PUSH3 0x198 JUMP JUMPDEST SWAP6 POP DUP1 NOT DUP5 AND SWAP4 POP DUP1 DUP7 AND DUP5 OR SWAP3 POP POP POP SWAP4 SWAP3 POP POP POP JUMP JUMPDEST PUSH1 0x0 DUP2 SWAP1 POP SWAP2 SWAP1 POP JUMP JUMPDEST PUSH1 0x0 DUP2 SWAP1 POP SWAP2 SWAP1 POP JUMP JUMPDEST PUSH1 0x0 PUSH3 0x230 PUSH3 0x22A PUSH3 0x224 DUP5 PUSH3 0x1FB JUMP JUMPDEST PUSH3 0x205 JUMP JUMPDEST PUSH3 0x1FB JUMP JUMPDEST SWAP1 POP SWAP2 SWAP1 POP JUMP JUMPDEST PUSH1 0x0 DUP2 SWAP1 POP SWAP2 SWAP1 POP JUMP JUMPDEST PUSH3 0x24C DUP4 PUSH3 0x20F JUMP JUMPDEST PUSH3 0x264 PUSH3 0x25B DUP3 PUSH3 0x237 JUMP JUMPDEST DUP5 DUP5 SLOAD PUSH3 0x1A5 JUMP JUMPDEST DUP3 SSTORE POP POP POP POP JUMP JUMPDEST PUSH1 0x0 SWAP1 JUMP JUMPDEST PUSH3 0x27B PUSH3 0x26C JUMP JUMPDEST PUSH3 0x288 DUP2 DUP5 DUP5 PUSH3 0x241 JUMP JUMPDEST POP POP POP JUMP JUMPDEST JUMPDEST DUP2 DUP2 LT ISZERO PUSH3 0x2B0 JUMPI PUSH3 0x2A4 PUSH1 0x0 DUP3 PUSH3 0x271 JUMP JUMPDEST PUSH1 0x1 DUP2 ADD SWAP1 POP PUSH3 0x28E JUMP JUMPDEST POP POP JUMP JUMPDEST PUSH1 0x1F DUP3 GT ISZERO PUSH3 0x2FF JUMPI PUSH3 0x2C9 DUP2 PUSH3 0x173 JUMP JUMPDEST PUSH3 0x2D4 DUP5 PUSH3 0x188 JUMP JUMPDEST DUP2 ADD PUSH1 0x20 DUP6 LT ISZERO PUSH3 0x2E4 JUMPI DUP2 SWAP1 POP JUMPDEST PUSH3 0x2FC PUSH3 0x2F3 DUP6 PUSH3 0x188 JUMP JUMPDEST DUP4 ADD DUP3 PUSH3 0x28D JUMP JUMPDEST POP POP JUMPDEST POP POP POP JUMP JUMPDEST PUSH1 0x0 DUP3 DUP3 SHR SWAP1 POP SWAP3 SWAP2 POP POP JUMP JUMPDEST PUSH1 0x0 PUSH3 0x324 PUSH1 0x0 NOT DUP5 PUSH1 0x8 MUL PUSH3 0x304 JUMP JUMPDEST NOT DUP1 DUP4 AND SWAP2 POP POP SWAP3 SWAP2 POP POP JUMP JUMPDEST PUSH1 0x0 PUSH3 0x33F DUP4 DUP4 PUSH3 0x311 JUMP JUMPDEST SWAP2 POP DUP3 PUSH1 0x2 MUL DUP3 OR SWAP1 POP SWAP3 SWAP2 POP POP JUMP JUMPDEST PUSH3 0x35A DUP3 PUSH3 0xD5 JUMP JUMPDEST PUSH8 0xFFFFFFFFFFFFFFFF DUP2 GT ISZERO PUSH3 0x376 JUMPI PUSH3 0x375 PUSH3 0xE0 JUMP JUMPDEST JUMPDEST PUSH3 0x382 DUP3 SLOAD PUSH3 0x13E JUMP JUMPDEST PUSH3 0x38F DUP3 DUP3 DUP6 PUSH3 0x2B4 JUMP JUMPDEST PUSH1 0x0 PUSH1 0x20 SWAP1 POP PUSH1 0x1F DUP4 GT PUSH1 0x1 DUP2 EQ PUSH3 0x3C7 JUMPI PUSH1 0x0 DUP5 ISZERO PUSH3 0x3B2 JUMPI DUP3 DUP8 ADD MLOAD SWAP1 POP JUMPDEST PUSH3 0x3BE DUP6 DUP3 PUSH3 0x331 JUMP JUMPDEST DUP7 SSTORE POP PUSH3 0x42E JUMP JUMPDEST PUSH1 0x1F NOT DUP5 AND PUSH3 0x3D7 DUP7 PUSH3 0x173 JUMP JUMPDEST PUSH1 0x0 JUMPDEST DUP3 DUP2 LT ISZERO PUSH3 0x401 JUMPI DUP5 DUP10 ADD MLOAD DUP3 SSTORE PUSH1 0x1 DUP3 ADD SWAP2 POP PUSH1 0x20 DUP6 ADD SWAP5 POP PUSH1 0x20 DUP2 ADD SWAP1 POP PUSH3 0x3DA JUMP JUMPDEST DUP7 DUP4 LT ISZERO PUSH3 0x421 JUMPI DUP5 DUP10 ADD MLOAD PUSH3 0x41D PUSH1 0x1F DUP10 AND DUP3 PUSH3 0x311 JUMP JUMPDEST DUP4 SSTORE POP JUMPDEST PUSH1 0x1 PUSH1 0x2 DUP9 MUL ADD DUP9 SSTORE POP POP POP JUMPDEST POP POP POP POP POP POP JUMP JUMPDEST PUSH2 0x2C11 DUP1 PUSH3 0x446 PUSH1 0x0 CODECOPY PUSH1 0x0 RETURN INVALID PUSH1 0x80 PUSH1 0x40 MSTORE CALLVALUE DUP1 ISZERO PUSH2 0x10 JUMPI PUSH1 0x0 DUP1 REVERT JUMPDEST POP PUSH1 0x4 CALLDATASIZE LT PUSH2 0x10B JUMPI PUSH1 0x0 CALLDATALOAD PUSH1 0xE0 SHR DUP1 PUSH4 0x6352211E GT PUSH2 0xA2 JUMPI DUP1 PUSH4 0x95D89B41 GT PUSH2 0x71 JUMPI DUP1 PUSH4 0x95D89B41 EQ PUSH2 0x2F0 JUMPI DUP1 PUSH4 0xA22CB465 EQ PUSH2 0x30E JUMPI DUP1 PUSH4 0xB88D4FDE EQ PUSH2 0x32A JUMPI DUP1 PUSH4 0xC87B56DD EQ PUSH2 0x346 JUMPI DUP1 PUSH4 0xE985E9C5 EQ PUSH2 0x376 JUMPI PUSH2 0x10B JUMP JUMPDEST DUP1 PUSH4 0x6352211E EQ PUSH2 0x230 JUMPI DUP1 PUSH4 0x70A08231 EQ PUSH2 0x260 JUMPI DUP1 PUSH4 0x89C19DDB EQ PUSH2 0x290 JUMPI DUP1 PUSH4 0x947B59AE EQ PUSH2 0x2C0 JUMPI PUSH2 0x10B JUMP JUMPDEST DUP1 PUSH4 0x95EA7B3 GT PUSH2 0xDE JUMPI DUP1 PUSH4 0x95EA7B3 EQ PUSH2 0x1AC JUMPI DUP1 PUSH4 0xE980602 EQ PUSH2 0x1C8 JUMPI DUP1 PUSH4 0x23B872DD EQ PUSH2 0x1F8 JUMPI DUP1 PUSH4 0x42842E0E EQ PUSH2 0x214 JUMPI PUSH2 0x10B JUMP JUMPDEST DUP1 PUSH4 0x1FFC9A7 EQ PUSH2 0x110 JUMPI DUP1 PUSH4 0x6661ABD EQ PUSH2 0x140 JUMPI DUP1 PUSH4 0x6FDDE03 EQ PUSH2 0x15E JUMPI DUP1 PUSH4 0x81812FC EQ PUSH2 0x17C JUMPI JUMPDEST PUSH1 0x0 DUP1 REVERT JUMPDEST PUSH2 0x12A PUSH1 0x4 DUP1 CALLDATASIZE SUB DUP2 ADD SWAP1 PUSH2 0x125 SWAP2 SWAP1 PUSH2 0x18F7 JUMP JUMPDEST PUSH2 0x3A6 JUMP JUMPDEST PUSH1 0x40 MLOAD PUSH2 0x137 SWAP2 SWAP1 PUSH2 0x193F JUMP JUMPDEST PUSH1 0x40 MLOAD DUP1 SWAP2 SUB SWAP1 RETURN JUMPDEST PUSH2 0x148 PUSH2 0x548 JUMP JUMPDEST PUSH1 0x40 MLOAD PUSH2 0x155 SWAP2 SWAP1 PUSH2 0x1973 JUMP JUMPDEST PUSH1 0x40 MLOAD DUP1 SWAP2 SUB SWAP1 RETURN JUMPDEST PUSH2 0x166 PUSH2 0x54E JUMP JUMPDEST PUSH1 0x40 MLOAD PUSH2 0x173 SWAP2 SWAP1 PUSH2 0x1A1E JUMP JUMPDEST PUSH1 0x40 MLOAD DUP1 SWAP2 SUB SWAP1 RETURN JUMPDEST PUSH2 0x196 PUSH1 0x4 DUP1 CALLDATASIZE SUB DUP2 ADD SWAP1 PUSH2 0x191 SWAP2 SWAP1 PUSH2 0x1A6C JUMP JUMPDEST PUSH2 0x5E0 JUMP JUMPDEST PUSH1 0x40 MLOAD PUSH2 0x1A3 SWAP2 SWAP1 PUSH2 0x1ADA JUMP JUMPDEST PUSH1 0x40 MLOAD DUP1 SWAP2 SUB SWAP1 RETURN JUMPDEST PUSH2 0x1C6 PUSH1 0x4 DUP1 CALLDATASIZE SUB DUP2 ADD SWAP1 PUSH2 0x1C1 SWAP2 SWAP1 PUSH2 0x1B21 JUMP JUMPDEST PUSH2 0x626 JUMP JUMPDEST STOP JUMPDEST PUSH2 0x1E2 PUSH1 0x4 DUP1 CALLDATASIZE SUB DUP2 ADD SWAP1 PUSH2 0x1DD SWAP2 SWAP1 PUSH2 0x1C96 JUMP JUMPDEST PUSH2 0x73D JUMP JUMPDEST PUSH1 0x40 MLOAD PUSH2 0x1EF SWAP2 SWAP1 PUSH2 0x1973 JUMP JUMPDEST PUSH1 0x40 MLOAD DUP1 SWAP2 SUB SWAP1 RETURN JUMPDEST PUSH2 0x212 PUSH1 0x4 DUP1 CALLDATASIZE SUB DUP2 ADD SWAP1 PUSH2 0x20D SWAP2 SWAP1 PUSH2 0x1CF2 JUMP JUMPDEST PUSH2 0x82B JUMP JUMPDEST STOP JUMPDEST PUSH2 0x22E PUSH1 0x4 DUP1 CALLDATASIZE SUB DUP2 ADD SWAP1 PUSH2 0x229 SWAP2 SWAP1 PUSH2 0x1CF2 JUMP JUMPDEST PUSH2 0x88B JUMP JUMPDEST STOP JUMPDEST PUSH2 0x24A PUSH1 0x4 DUP1 CALLDATASIZE SUB DUP2 ADD SWAP1 PUSH2 0x245 SWAP2 SWAP1 PUSH2 0x1A6C JUMP JUMPDEST PUSH2 0x8AB JUMP JUMPDEST PUSH1 0x40 MLOAD PUSH2 0x257 SWAP2 SWAP1 PUSH2 0x1ADA JUMP JUMPDEST PUSH1 0x40 MLOAD DUP1 SWAP2 SUB SWAP1 RETURN JUMPDEST PUSH2 0x27A PUSH1 0x4 DUP1 CALLDATASIZE SUB DUP2 ADD SWAP1 PUSH2 0x275 SWAP2 SWAP1 PUSH2 0x1D45 JUMP JUMPDEST PUSH2 0x931 JUMP JUMPDEST PUSH1 0x40 MLOAD PUSH2 0x287 SWAP2 SWAP1 PUSH2 0x1973 JUMP JUMPDEST PUSH1 0x40 MLOAD DUP1 SWAP2 SUB SWAP1 RETURN JUMPDEST PUSH2 0x2AA PUSH1 0x4 DUP1 CALLDATASIZE SUB DUP2 ADD SWAP1 PUSH2 0x2A5 SWAP2 SWAP1 PUSH2 0x1D72 JUMP JUMPDEST PUSH2 0x9E8 JUMP JUMPDEST PUSH1 0x40 MLOAD PUSH2 0x2B7 SWAP2 SWAP1 PUSH2 0x1A1E JUMP JUMPDEST PUSH1 0x40 MLOAD DUP1 SWAP2 SUB SWAP1 RETURN JUMPDEST PUSH2 0x2DA PUSH1 0x4 DUP1 CALLDATASIZE SUB DUP2 ADD SWAP1 PUSH2 0x2D5 SWAP2 SWAP1 PUSH2 0x1DEA JUMP JUMPDEST PUSH2 0xA14 JUMP JUMPDEST PUSH1 0x40 MLOAD PUSH2 0x2E7 SWAP2 SWAP1 PUSH2 0x1973 JUMP JUMPDEST PUSH1 0x40 MLOAD DUP1 SWAP2 SUB SWAP1 RETURN JUMPDEST PUSH2 0x2F8 PUSH2 0xA27 JUMP JUMPDEST PUSH1 0x40 MLOAD PUSH2 0x305 SWAP2 SWAP1 PUSH2 0x1A1E JUMP JUMPDEST PUSH1 0x40 MLOAD DUP1 SWAP2 SUB SWAP1 RETURN JUMPDEST PUSH2 0x328 PUSH1 0x4 DUP1 CALLDATASIZE SUB DUP2 ADD SWAP1 PUSH2 0x323 SWAP2 SWAP1 PUSH2 0x1E5F JUMP JUMPDEST PUSH2 0xAB9 JUMP JUMPDEST STOP JUMPDEST PUSH2 0x344 PUSH1 0x4 DUP1 CALLDATASIZE SUB DUP2 ADD SWAP1 PUSH2 0x33F SWAP2 SWAP1 PUSH2 0x1F40 JUMP JUMPDEST PUSH2 0xACF JUMP JUMPDEST STOP JUMPDEST PUSH2 0x360 PUSH1 0x4 DUP1 CALLDATASIZE SUB DUP2 ADD SWAP1 PUSH2 0x35B SWAP2 SWAP1 PUSH2 0x1A6C JUMP JUMPDEST PUSH2 0xB31 JUMP JUMPDEST PUSH1 0x40 MLOAD PUSH2 0x36D SWAP2 SWAP1 PUSH2 0x1A1E JUMP JUMPDEST PUSH1 0x40 MLOAD DUP1 SWAP2 SUB SWAP1 RETURN JUMPDEST PUSH2 0x390 PUSH1 0x4 DUP1 CALLDATASIZE SUB DUP2 ADD SWAP1 PUSH2 0x38B SWAP2 SWAP1 PUSH2 0x1FC3 JUMP JUMPDEST PUSH2 0xCCB JUMP JUMPDEST PUSH1 0x40 MLOAD PUSH2 0x39D SWAP2 SWAP1 PUSH2 0x193F JUMP JUMPDEST PUSH1 0x40 MLOAD DUP1 SWAP2 SUB SWAP1 RETURN JUMPDEST PUSH1 0x0 PUSH32 0x80AC58CD00000000000000000000000000000000000000000000000000000000 PUSH28 0xFFFFFFFFFFFFFFFFFFFFFFFFFFFFFFFFFFFFFFFFFFFFFFFFFFFFFFFF NOT AND DUP3 PUSH28 0xFFFFFFFFFFFFFFFFFFFFFFFFFFFFFFFFFFFFFFFFFFFFFFFFFFFFFFFF NOT AND EQ DUP1 PUSH2 0x471 JUMPI POP PUSH32 0x5B5E139F00000000000000000000000000000000000000000000000000000000 PUSH28 0xFFFFFFFFFFFFFFFFFFFFFFFFFFFFFFFFFFFFFFFFFFFFFFFFFFFFFFFF NOT AND DUP3 PUSH28 0xFFFFFFFFFFFFFFFFFFFFFFFFFFFFFFFFFFFFFFFFFFFFFFFFFFFFFFFF NOT AND EQ JUMPDEST DUP1 PUSH2 0x4D9 JUMPI POP PUSH32 0x1FFC9A700000000000000000000000000000000000000000000000000000000 PUSH28 0xFFFFFFFFFFFFFFFFFFFFFFFFFFFFFFFFFFFFFFFFFFFFFFFFFFFFFFFF NOT AND DUP3 PUSH28 0xFFFFFFFFFFFFFFFFFFFFFFFFFFFFFFFFFFFFFFFFFFFFFFFFFFFFFFFF NOT AND EQ JUMPDEST DUP1 PUSH2 0x541 JUMPI POP PUSH32 0x9C85451100000000000000000000000000000000000000000000000000000000 PUSH28 0xFFFFFFFFFFFFFFFFFFFFFFFFFFFFFFFFFFFFFFFFFFFFFFFFFFFFFFFF NOT AND DUP3 PUSH28 0xFFFFFFFFFFFFFFFFFFFFFFFFFFFFFFFFFFFFFFFFFFFFFFFFFFFFFFFF NOT AND EQ JUMPDEST SWAP1 POP SWAP2 SWAP1 POP JUMP JUMPDEST PUSH1 0x7 SLOAD DUP2 JUMP JUMPDEST PUSH1 0x60 PUSH1 0x0 DUP1 SLOAD PUSH2 0x55D SWAP1 PUSH2 0x2032 JUMP JUMPDEST DUP1 PUSH1 0x1F ADD PUSH1 0x20 DUP1 SWAP2 DIV MUL PUSH1 0x20 ADD PUSH1 0x40 MLOAD SWAP1 DUP2 ADD PUSH1 0x40 MSTORE DUP1 SWAP3 SWAP2 SWAP1 DUP2 DUP2 MSTORE PUSH1 0x20 ADD DUP3 DUP1 SLOAD PUSH2 0x589 SWAP1 PUSH2 0x2032 JUMP JUMPDEST DUP1 ISZERO PUSH2 0x5D6 JUMPI DUP1 PUSH1 0x1F LT PUSH2 0x5AB JUMPI PUSH2 0x100 DUP1 DUP4 SLOAD DIV MUL DUP4 MSTORE SWAP2 PUSH1 0x20 ADD SWAP2 PUSH2 0x5D6 JUMP JUMPDEST DUP3 ADD SWAP2 SWAP1 PUSH1 0x0 MSTORE PUSH1 0x20 PUSH1 0x0 KECCAK256 SWAP1 JUMPDEST DUP2 SLOAD DUP2 MSTORE SWAP1 PUSH1 0x1 ADD SWAP1 PUSH1 0x20 ADD DUP1 DUP4 GT PUSH2 0x5B9 JUMPI DUP3 SWAP1 SUB PUSH1 0x1F AND DUP3 ADD SWAP2 JUMPDEST POP POP POP POP POP SWAP1 POP SWAP1 JUMP JUMPDEST PUSH1 0x0 PUSH2 0x5EB DUP3 PUSH2 0xD5F JUMP JUMPDEST PUSH1 0x4 PUSH1 0x0 DUP4 DUP2 MSTORE PUSH1 0x20 ADD SWAP1 DUP2 MSTORE PUSH1 0x20 ADD PUSH1 0x0 KECCAK256 PUSH1 0x0 SWAP1 SLOAD SWAP1 PUSH2 0x100 EXP SWAP1 DIV PUSH20 0xFFFFFFFFFFFFFFFFFFFFFFFFFFFFFFFFFFFFFFFF AND SWAP1 POP SWAP2 SWAP1 POP JUMP JUMPDEST PUSH1 0x0 PUSH2 0x631 DUP3 PUSH2 0x8AB JUMP JUMPDEST SWAP1 POP DUP1 PUSH20 0xFFFFFFFFFFFFFFFFFFFFFFFFFFFFFFFFFFFFFFFF AND DUP4 PUSH20 0xFFFFFFFFFFFFFFFFFFFFFFFFFFFFFFFFFFFFFFFF AND SUB PUSH2 0x6A1 JUMPI PUSH1 0x40 MLOAD PUSH32 0x8C379A000000000000000000000000000000000000000000000000000000000 DUP2 MSTORE PUSH1 0x4 ADD PUSH2 0x698 SWAP1 PUSH2 0x20D5 JUMP JUMPDEST PUSH1 0x40 MLOAD DUP1 SWAP2 SUB SWAP1 REVERT JUMPDEST DUP1 PUSH20 0xFFFFFFFFFFFFFFFFFFFFFFFFFFFFFFFFFFFFFFFF AND PUSH2 0x6C0 PUSH2 0xDAA JUMP JUMPDEST PUSH20 0xFFFFFFFFFFFFFFFFFFFFFFFFFFFFFFFFFFFFFFFF AND EQ DUP1 PUSH2 0x6EF JUMPI POP PUSH2 0x6EE DUP2 PUSH2 0x6E9 PUSH2 0xDAA JUMP JUMPDEST PUSH2 0xCCB JUMP JUMPDEST JUMPDEST PUSH2 0x72E JUMPI PUSH1 0x40 MLOAD PUSH32 0x8C379A000000000000000000000000000000000000000000000000000000000 DUP2 MSTORE PUSH1 0x4 ADD PUSH2 0x725 SWAP1 PUSH2 0x2167 JUMP JUMPDEST PUSH1 0x40 MLOAD DUP1 SWAP2 SUB SWAP1 REVERT JUMPDEST PUSH2 0x738 DUP4 DUP4 PUSH2 0xDB2 JUMP JUMPDEST POP POP POP JUMP JUMPDEST PUSH1 0x0 DUP1 PUSH1 0x0 SWAP1 POP JUMPDEST PUSH1 0x7 SLOAD DUP2 LT ISZERO PUSH2 0x7D2 JUMPI DUP3 DUP1 MLOAD SWAP1 PUSH1 0x20 ADD KECCAK256 PUSH1 0x6 PUSH1 0x0 DUP4 DUP2 MSTORE PUSH1 0x20 ADD SWAP1 DUP2 MSTORE PUSH1 0x20 ADD PUSH1 0x0 KECCAK256 PUSH1 0x40 MLOAD PUSH2 0x777 SWAP2 SWAP1 PUSH2 0x222A JUMP JUMPDEST PUSH1 0x40 MLOAD DUP1 SWAP2 SUB SWAP1 KECCAK256 SUB PUSH2 0x7BF JUMPI PUSH1 0x40 MLOAD PUSH32 0x8C379A000000000000000000000000000000000000000000000000000000000 DUP2 MSTORE PUSH1 0x4 ADD PUSH2 0x7B6 SWAP1 PUSH2 0x228D JUMP JUMPDEST PUSH1 0x40 MLOAD DUP1 SWAP2 SUB SWAP1 REVERT JUMPDEST DUP1 DUP1 PUSH2 0x7CA SWAP1 PUSH2 0x22DC JUMP JUMPDEST SWAP2 POP POP PUSH2 0x745 JUMP JUMPDEST POP PUSH1 0x0 PUSH1 0x7 SLOAD SWAP1 POP PUSH2 0x7E6 DUP5 PUSH1 0x7 SLOAD PUSH2 0xE6B JUMP JUMPDEST DUP3 PUSH1 0x6 PUSH1 0x0 PUSH1 0x7 SLOAD DUP2 MSTORE PUSH1 0x20 ADD SWAP1 DUP2 MSTORE PUSH1 0x20 ADD PUSH1 0x0 KECCAK256 SWAP1 DUP2 PUSH2 0x808 SWAP2 SWAP1 PUSH2 0x24D0 JUMP JUMPDEST POP PUSH1 0x7 PUSH1 0x0 DUP2 SLOAD DUP1 SWAP3 SWAP2 SWAP1 PUSH2 0x81C SWAP1 PUSH2 0x22DC JUMP JUMPDEST SWAP2 SWAP1 POP SSTORE POP DUP1 SWAP2 POP POP SWAP3 SWAP2 POP POP JUMP JUMPDEST PUSH2 0x83C PUSH2 0x836 PUSH2 0xDAA JUMP JUMPDEST DUP3 PUSH2 0xE89 JUMP JUMPDEST PUSH2 0x87B JUMPI PUSH1 0x40 MLOAD PUSH32 0x8C379A000000000000000000000000000000000000000000000000000000000 DUP2 MSTORE PUSH1 0x4 ADD PUSH2 0x872 SWAP1 PUSH2 0x2614 JUMP JUMPDEST PUSH1 0x40 MLOAD DUP1 SWAP2 SUB SWAP1 REVERT JUMPDEST PUSH2 0x886 DUP4 DUP4 DUP4 PUSH2 0xF1E JUMP JUMPDEST POP POP POP JUMP JUMPDEST PUSH2 0x8A6 DUP4 DUP4 DUP4 PUSH1 0x40 MLOAD DUP1 PUSH1 0x20 ADD PUSH1 0x40 MSTORE DUP1 PUSH1 0x0 DUP2 MSTORE POP PUSH2 0xACF JUMP JUMPDEST POP POP POP JUMP JUMPDEST PUSH1 0x0 DUP1 PUSH2 0x8B7 DUP4 PUSH2 0x1217 JUMP JUMPDEST SWAP1 POP PUSH1 0x0 PUSH20 0xFFFFFFFFFFFFFFFFFFFFFFFFFFFFFFFFFFFFFFFF AND DUP2 PUSH20 0xFFFFFFFFFFFFFFFFFFFFFFFFFFFFFFFFFFFFFFFF AND SUB PUSH2 0x928 JUMPI PUSH1 0x40 MLOAD PUSH32 0x8C379A000000000000000000000000000000000000000000000000000000000 DUP2 MSTORE PUSH1 0x4 ADD PUSH2 0x91F SWAP1 PUSH2 0x2680 JUMP JUMPDEST PUSH1 0x40 MLOAD DUP1 SWAP2 SUB SWAP1 REVERT JUMPDEST DUP1 SWAP2 POP POP SWAP2 SWAP1 POP JUMP JUMPDEST PUSH1 0x0 DUP1 PUSH20 0xFFFFFFFFFFFFFFFFFFFFFFFFFFFFFFFFFFFFFFFF AND DUP3 PUSH20 0xFFFFFFFFFFFFFFFFFFFFFFFFFFFFFFFFFFFFFFFF AND SUB PUSH2 0x9A1 JUMPI PUSH1 0x40 MLOAD PUSH32 0x8C379A000000000000000000000000000000000000000000000000000000000 DUP2 MSTORE PUSH1 0x4 ADD PUSH2 0x998 SWAP1 PUSH2 0x2712 JUMP JUMPDEST PUSH1 0x40 MLOAD DUP1 SWAP2 SUB SWAP1 REVERT JUMPDEST PUSH1 0x3 PUSH1 0x0 DUP4 PUSH20 0xFFFFFFFFFFFFFFFFFFFFFFFFFFFFFFFFFFFFFFFF AND PUSH20 0xFFFFFFFFFFFFFFFFFFFFFFFFFFFFFFFFFFFFFFFF AND DUP2 MSTORE PUSH1 0x20 ADD SWAP1 DUP2 MSTORE PUSH1 0x20 ADD PUSH1 0x0 KECCAK256 SLOAD SWAP1 POP SWAP2 SWAP1 POP JUMP JUMPDEST PUSH1 0x60 DUP3 DUP3 PUSH1 0x40 MLOAD PUSH1 0x20 ADD PUSH2 0x9FD SWAP3 SWAP2 SWAP1 PUSH2 0x276E JUMP JUMPDEST PUSH1 0x40 MLOAD PUSH1 0x20 DUP2 DUP4 SUB SUB DUP2 MSTORE SWAP1 PUSH1 0x40 MSTORE SWAP1 POP SWAP3 SWAP2 POP POP JUMP JUMPDEST PUSH1 0x0 PUSH2 0xA20 CALLER DUP4 PUSH2 0x73D JUMP JUMPDEST SWAP1 POP SWAP2 SWAP1 POP JUMP JUMPDEST PUSH1 0x60 PUSH1 0x1 DUP1 SLOAD PUSH2 0xA36 SWAP1 PUSH2 0x2032 JUMP JUMPDEST DUP1 PUSH1 0x1F ADD PUSH1 0x20 DUP1 SWAP2 DIV MUL PUSH1 0x20 ADD PUSH1 0x40 MLOAD SWAP1 DUP2 ADD PUSH1 0x40 MSTORE DUP1 SWAP3 SWAP2 SWAP1 DUP2 DUP2 MSTORE PUSH1 0x20 ADD DUP3 DUP1 SLOAD PUSH2 0xA62 SWAP1 PUSH2 0x2032 JUMP JUMPDEST DUP1 ISZERO PUSH2 0xAAF JUMPI DUP1 PUSH1 0x1F LT PUSH2 0xA84 JUMPI PUSH2 0x100 DUP1 DUP4 SLOAD DIV MUL DUP4 MSTORE SWAP2 PUSH1 0x20 ADD SWAP2 PUSH2 0xAAF JUMP JUMPDEST DUP3 ADD SWAP2 SWAP1 PUSH1 0x0 MSTORE PUSH1 0x20 PUSH1 0x0 KECCAK256 SWAP1 JUMPDEST DUP2 SLOAD DUP2 MSTORE SWAP1 PUSH1 0x1 ADD SWAP1 PUSH1 0x20 ADD DUP1 DUP4 GT PUSH2 0xA92 JUMPI DUP3 SWAP1 SUB PUSH1 0x1F AND DUP3 ADD SWAP2 JUMPDEST POP POP POP POP POP SWAP1 POP SWAP1 JUMP JUMPDEST PUSH2 0xACB PUSH2 0xAC4 PUSH2 0xDAA JUMP JUMPDEST DUP4 DUP4 PUSH2 0x1254 JUMP JUMPDEST POP POP JUMP JUMPDEST PUSH2 0xAE0 PUSH2 0xADA PUSH2 0xDAA JUMP JUMPDEST DUP4 PUSH2 0xE89 JUMP JUMPDEST PUSH2 0xB1F JUMPI PUSH1 0x40 MLOAD PUSH32 0x8C379A000000000000000000000000000000000000000000000000000000000 DUP2 MSTORE PUSH1 0x4 ADD PUSH2 0xB16 SWAP1 PUSH2 0x2614 JUMP JUMPDEST PUSH1 0x40 MLOAD DUP1 SWAP2 SUB SWAP1 REVERT JUMPDEST PUSH2 0xB2B DUP5 DUP5 DUP5 DUP5 PUSH2 0x13C0 JUMP JUMPDEST POP POP POP POP JUMP JUMPDEST PUSH1 0x60 PUSH1 0x0 PUSH1 0x6 PUSH1 0x0 DUP5 DUP2 MSTORE PUSH1 0x20 ADD SWAP1 DUP2 MSTORE PUSH1 0x20 ADD PUSH1 0x0 KECCAK256 DUP1 SLOAD PUSH2 0xB53 SWAP1 PUSH2 0x2032 JUMP JUMPDEST SWAP1 POP GT PUSH2 0xB95 JUMPI PUSH1 0x40 MLOAD PUSH32 0x8C379A000000000000000000000000000000000000000000000000000000000 DUP2 MSTORE PUSH1 0x4 ADD PUSH2 0xB8C SWAP1 PUSH2 0x27DE JUMP JUMPDEST PUSH1 0x40 MLOAD DUP1 SWAP2 SUB SWAP1 REVERT JUMPDEST PUSH2 0xCC4 PUSH1 0x8 DUP1 SLOAD PUSH2 0xBA5 SWAP1 PUSH2 0x2032 JUMP JUMPDEST DUP1 PUSH1 0x1F ADD PUSH1 0x20 DUP1 SWAP2 DIV MUL PUSH1 0x20 ADD PUSH1 0x40 MLOAD SWAP1 DUP2 ADD PUSH1 0x40 MSTORE DUP1 SWAP3 SWAP2 SWAP1 DUP2 DUP2 MSTORE PUSH1 0x20 ADD DUP3 DUP1 SLOAD PUSH2 0xBD1 SWAP1 PUSH2 0x2032 JUMP JUMPDEST DUP1 ISZERO PUSH2 0xC1E JUMPI DUP1 PUSH1 0x1F LT PUSH2 0xBF3 JUMPI PUSH2 0x100 DUP1 DUP4 SLOAD DIV MUL DUP4 MSTORE SWAP2 PUSH1 0x20 ADD SWAP2 PUSH2 0xC1E JUMP JUMPDEST DUP3 ADD SWAP2 SWAP1 PUSH1 0x0 MSTORE PUSH1 0x20 PUSH1 0x0 KECCAK256 SWAP1 JUMPDEST DUP2 SLOAD DUP2 MSTORE SWAP1 PUSH1 0x1 ADD SWAP1 PUSH1 0x20 ADD DUP1 DUP4 GT PUSH2 0xC01 JUMPI DUP3 SWAP1 SUB PUSH1 0x1F AND DUP3 ADD SWAP2 JUMPDEST POP POP POP POP POP PUSH1 0x6 PUSH1 0x0 DUP6 DUP2 MSTORE PUSH1 0x20 ADD SWAP1 DUP2 MSTORE PUSH1 0x20 ADD PUSH1 0x0 KECCAK256 DUP1 SLOAD PUSH2 0xC41 SWAP1 PUSH2 0x2032 JUMP JUMPDEST DUP1 PUSH1 0x1F ADD PUSH1 0x20 DUP1 SWAP2 DIV MUL PUSH1 0x20 ADD PUSH1 0x40 MLOAD SWAP1 DUP2 ADD PUSH1 0x40 MSTORE DUP1 SWAP3 SWAP2 SWAP1 DUP2 DUP2 MSTORE PUSH1 0x20 ADD DUP3 DUP1 SLOAD PUSH2 0xC6D SWAP1 PUSH2 0x2032 JUMP JUMPDEST DUP1 ISZERO PUSH2 0xCBA JUMPI DUP1 PUSH1 0x1F LT PUSH2 0xC8F JUMPI PUSH2 0x100 DUP1 DUP4 SLOAD DIV MUL DUP4 MSTORE SWAP2 PUSH1 0x20 ADD SWAP2 PUSH2 0xCBA JUMP JUMPDEST DUP3 ADD SWAP2 SWAP1 PUSH1 0x0 MSTORE PUSH1 0x20 PUSH1 0x0 KECCAK256 SWAP1 JUMPDEST DUP2 SLOAD DUP2 MSTORE SWAP1 PUSH1 0x1 ADD SWAP1 PUSH1 0x20 ADD DUP1 DUP4 GT PUSH2 0xC9D JUMPI DUP3 SWAP1 SUB PUSH1 0x1F AND DUP3 ADD SWAP2 JUMPDEST POP POP POP POP POP PUSH2 0x9E8 JUMP JUMPDEST SWAP1 POP SWAP2 SWAP1 POP JUMP JUMPDEST PUSH1 0x0 PUSH1 0x5 PUSH1 0x0 DUP5 PUSH20 0xFFFFFFFFFFFFFFFFFFFFFFFFFFFFFFFFFFFFFFFF AND PUSH20 0xFFFFFFFFFFFFFFFFFFFFFFFFFFFFFFFFFFFFFFFF AND DUP2 MSTORE PUSH1 0x20 ADD SWAP1 DUP2 MSTORE PUSH1 0x20 ADD PUSH1 0x0 KECCAK256 PUSH1 0x0 DUP4 PUSH20 0xFFFFFFFFFFFFFFFFFFFFFFFFFFFFFFFFFFFFFFFF AND PUSH20 0xFFFFFFFFFFFFFFFFFFFFFFFFFFFFFFFFFFFFFFFF AND DUP2 MSTORE PUSH1 0x20 ADD SWAP1 DUP2 MSTORE PUSH1 0x20 ADD PUSH1 0x0 KECCAK256 PUSH1 0x0 SWAP1 SLOAD SWAP1 PUSH2 0x100 EXP SWAP1 DIV PUSH1 0xFF AND SWAP1 POP SWAP3 SWAP2 POP POP JUMP JUMPDEST PUSH2 0xD68 DUP2 PUSH2 0x141C JUMP JUMPDEST PUSH2 0xDA7 JUMPI PUSH1 0x40 MLOAD PUSH32 0x8C379A000000000000000000000000000000000000000000000000000000000 DUP2 MSTORE PUSH1 0x4 ADD PUSH2 0xD9E SWAP1 PUSH2 0x2680 JUMP JUMPDEST PUSH1 0x40 MLOAD DUP1 SWAP2 SUB SWAP1 REVERT JUMPDEST POP JUMP JUMPDEST PUSH1 0x0 CALLER SWAP1 POP SWAP1 JUMP JUMPDEST DUP2 PUSH1 0x4 PUSH1 0x0 DUP4 DUP2 MSTORE PUSH1 0x20 ADD SWAP1 DUP2 MSTORE PUSH1 0x20 ADD PUSH1 0x0 KECCAK256 PUSH1 0x0 PUSH2 0x100 EXP DUP2 SLOAD DUP2 PUSH20 0xFFFFFFFFFFFFFFFFFFFFFFFFFFFFFFFFFFFFFFFF MUL NOT AND SWAP1 DUP4 PUSH20 0xFFFFFFFFFFFFFFFFFFFFFFFFFFFFFFFFFFFFFFFF AND MUL OR SWAP1 SSTORE POP DUP1 DUP3 PUSH20 0xFFFFFFFFFFFFFFFFFFFFFFFFFFFFFFFFFFFFFFFF AND PUSH2 0xE25 DUP4 PUSH2 0x8AB JUMP JUMPDEST PUSH20 0xFFFFFFFFFFFFFFFFFFFFFFFFFFFFFFFFFFFFFFFF AND PUSH32 0x8C5BE1E5EBEC7D5BD14F71427D1E84F3DD0314C0F7B2291E5B200AC8C7C3B925 PUSH1 0x40 MLOAD PUSH1 0x40 MLOAD DUP1 SWAP2 SUB SWAP1 LOG4 POP POP JUMP JUMPDEST PUSH2 0xE85 DUP3 DUP3 PUSH1 0x40 MLOAD DUP1 PUSH1 0x20 ADD PUSH1 0x40 MSTORE DUP1 PUSH1 0x0 DUP2 MSTORE POP PUSH2 0x145D JUMP JUMPDEST POP POP JUMP JUMPDEST PUSH1 0x0 DUP1 PUSH2 0xE95 DUP4 PUSH2 0x8AB JUMP JUMPDEST SWAP1 POP DUP1 PUSH20 0xFFFFFFFFFFFFFFFFFFFFFFFFFFFFFFFFFFFFFFFF AND DUP5 PUSH20 0xFFFFFFFFFFFFFFFFFFFFFFFFFFFFFFFFFFFFFFFF AND EQ DUP1 PUSH2 0xED7 JUMPI POP PUSH2 0xED6 DUP2 DUP6 PUSH2 0xCCB JUMP JUMPDEST JUMPDEST DUP1 PUSH2 0xF15 JUMPI POP DUP4 PUSH20 0xFFFFFFFFFFFFFFFFFFFFFFFFFFFFFFFFFFFFFFFF AND PUSH2 0xEFD DUP5 PUSH2 0x5E0 JUMP JUMPDEST PUSH20 0xFFFFFFFFFFFFFFFFFFFFFFFFFFFFFFFFFFFFFFFF AND EQ JUMPDEST SWAP2 POP POP SWAP3 SWAP2 POP POP JUMP JUMPDEST DUP3 PUSH20 0xFFFFFFFFFFFFFFFFFFFFFFFFFFFFFFFFFFFFFFFF AND PUSH2 0xF3E DUP3 PUSH2 0x8AB JUMP JUMPDEST PUSH20 0xFFFFFFFFFFFFFFFFFFFFFFFFFFFFFFFFFFFFFFFF AND EQ PUSH2 0xF94 JUMPI PUSH1 0x40 MLOAD PUSH32 0x8C379A000000000000000000000000000000000000000000000000000000000 DUP2 MSTORE PUSH1 0x4 ADD PUSH2 0xF8B SWAP1 PUSH2 0x2870 JUMP JUMPDEST PUSH1 0x40 MLOAD DUP1 SWAP2 SUB SWAP1 REVERT JUMPDEST PUSH1 0x0 PUSH20 0xFFFFFFFFFFFFFFFFFFFFFFFFFFFFFFFFFFFFFFFF AND DUP3 PUSH20 0xFFFFFFFFFFFFFFFFFFFFFFFFFFFFFFFFFFFFFFFF AND SUB PUSH2 0x1003 JUMPI PUSH1 0x40 MLOAD PUSH32 0x8C379A000000000000000000000000000000000000000000000000000000000 DUP2 MSTORE PUSH1 0x4 ADD PUSH2 0xFFA SWAP1 PUSH2 0x2902 JUMP JUMPDEST PUSH1 0x40 MLOAD DUP1 SWAP2 SUB SWAP1 REVERT JUMPDEST PUSH2 0x1010 DUP4 DUP4 DUP4 PUSH1 0x1 PUSH2 0x14B8 JUMP JUMPDEST DUP3 PUSH20 0xFFFFFFFFFFFFFFFFFFFFFFFFFFFFFFFFFFFFFFFF AND PUSH2 0x1030 DUP3 PUSH2 0x8AB JUMP JUMPDEST PUSH20 0xFFFFFFFFFFFFFFFFFFFFFFFFFFFFFFFFFFFFFFFF AND EQ PUSH2 0x1086 JUMPI PUSH1 0x40 MLOAD PUSH32 0x8C379A000000000000000000000000000000000000000000000000000000000 DUP2 MSTORE PUSH1 0x4 ADD PUSH2 0x107D SWAP1 PUSH2 0x2870 JUMP JUMPDEST PUSH1 0x40 MLOAD DUP1 SWAP2 SUB SWAP1 REVERT JUMPDEST PUSH1 0x4 PUSH1 0x0 DUP3 DUP2 MSTORE PUSH1 0x20 ADD SWAP1 DUP2 MSTORE PUSH1 0x20 ADD PUSH1 0x0 KECCAK256 PUSH1 0x0 PUSH2 0x100 EXP DUP2 SLOAD SWAP1 PUSH20 0xFFFFFFFFFFFFFFFFFFFFFFFFFFFFFFFFFFFFFFFF MUL NOT AND SWAP1 SSTORE PUSH1 0x1 PUSH1 0x3 PUSH1 0x0 DUP6 PUSH20 0xFFFFFFFFFFFFFFFFFFFFFFFFFFFFFFFFFFFFFFFF AND PUSH20 0xFFFFFFFFFFFFFFFFFFFFFFFFFFFFFFFFFFFFFFFF AND DUP2 MSTORE PUSH1 0x20 ADD SWAP1 DUP2 MSTORE PUSH1 0x20 ADD PUSH1 0x0 KECCAK256 PUSH1 0x0 DUP3 DUP3 SLOAD SUB SWAP3 POP POP DUP2 SWAP1 SSTORE POP PUSH1 0x1 PUSH1 0x3 PUSH1 0x0 DUP5 PUSH20 0xFFFFFFFFFFFFFFFFFFFFFFFFFFFFFFFFFFFFFFFF AND PUSH20 0xFFFFFFFFFFFFFFFFFFFFFFFFFFFFFFFFFFFFFFFF AND DUP2 MSTORE PUSH1 0x20 ADD SWAP1 DUP2 MSTORE PUSH1 0x20 ADD PUSH1 0x0 KECCAK256 PUSH1 0x0 DUP3 DUP3 SLOAD ADD SWAP3 POP POP DUP2 SWAP1 SSTORE POP DUP2 PUSH1 0x2 PUSH1 0x0 DUP4 DUP2 MSTORE PUSH1 0x20 ADD SWAP1 DUP2 MSTORE PUSH1 0x20 ADD PUSH1 0x0 KECCAK256 PUSH1 0x0 PUSH2 0x100 EXP DUP2 SLOAD DUP2 PUSH20 0xFFFFFFFFFFFFFFFFFFFFFFFFFFFFFFFFFFFFFFFF MUL NOT AND SWAP1 DUP4 PUSH20 0xFFFFFFFFFFFFFFFFFFFFFFFFFFFFFFFFFFFFFFFF AND MUL OR SWAP1 SSTORE POP DUP1 DUP3 PUSH20 0xFFFFFFFFFFFFFFFFFFFFFFFFFFFFFFFFFFFFFFFF AND DUP5 PUSH20 0xFFFFFFFFFFFFFFFFFFFFFFFFFFFFFFFFFFFFFFFF AND PUSH32 0xDDF252AD1BE2C89B69C2B068FC378DAA952BA7F163C4A11628F55A4DF523B3EF PUSH1 0x40 MLOAD PUSH1 0x40 MLOAD DUP1 SWAP2 SUB SWAP1 LOG4 PUSH2 0x1212 DUP4 DUP4 DUP4 PUSH1 0x1 PUSH2 0x14BE JUMP JUMPDEST POP POP POP JUMP JUMPDEST PUSH1 0x0 PUSH1 0x2 PUSH1 0x0 DUP4 DUP2 MSTORE PUSH1 0x20 ADD SWAP1 DUP2 MSTORE PUSH1 0x20 ADD PUSH1 0x0 KECCAK256 PUSH1 0x0 SWAP1 SLOAD SWAP1 PUSH2 0x100 EXP SWAP1 DIV PUSH20 0xFFFFFFFFFFFFFFFFFFFFFFFFFFFFFFFFFFFFFFFF AND SWAP1 POP SWAP2 SWAP1 POP JUMP JUMPDEST DUP2 PUSH20 0xFFFFFFFFFFFFFFFFFFFFFFFFFFFFFFFFFFFFFFFF AND DUP4 PUSH20 0xFFFFFFFFFFFFFFFFFFFFFFFFFFFFFFFFFFFFFFFF AND SUB PUSH2 0x12C2 JUMPI PUSH1 0x40 MLOAD PUSH32 0x8C379A000000000000000000000000000000000000000000000000000000000 DUP2 MSTORE PUSH1 0x4 ADD PUSH2 0x12B9 SWAP1 PUSH2 0x296E JUMP JUMPDEST PUSH1 0x40 MLOAD DUP1 SWAP2 SUB SWAP1 REVERT JUMPDEST DUP1 PUSH1 0x5 PUSH1 0x0 DUP6 PUSH20 0xFFFFFFFFFFFFFFFFFFFFFFFFFFFFFFFFFFFFFFFF AND PUSH20 0xFFFFFFFFFFFFFFFFFFFFFFFFFFFFFFFFFFFFFFFF AND DUP2 MSTORE PUSH1 0x20 ADD SWAP1 DUP2 MSTORE PUSH1 0x20 ADD PUSH1 0x0 KECCAK256 PUSH1 0x0 DUP5 PUSH20 0xFFFFFFFFFFFFFFFFFFFFFFFFFFFFFFFFFFFFFFFF AND PUSH20 0xFFFFFFFFFFFFFFFFFFFFFFFFFFFFFFFFFFFFFFFF AND DUP2 MSTORE PUSH1 0x20 ADD SWAP1 DUP2 MSTORE PUSH1 0x20 ADD PUSH1 0x0 KECCAK256 PUSH1 0x0 PUSH2 0x100 EXP DUP2 SLOAD DUP2 PUSH1 0xFF MUL NOT AND SWAP1 DUP4 ISZERO ISZERO MUL OR SWAP1 SSTORE POP DUP2 PUSH20 0xFFFFFFFFFFFFFFFFFFFFFFFFFFFFFFFFFFFFFFFF AND DUP4 PUSH20 0xFFFFFFFFFFFFFFFFFFFFFFFFFFFFFFFFFFFFFFFF AND PUSH32 0x17307EAB39AB6107E8899845AD3D59BD9653F200F220920489CA2B5937696C31 DUP4 PUSH1 0x40 MLOAD PUSH2 0x13B3 SWAP2 SWAP1 PUSH2 0x193F JUMP JUMPDEST PUSH1 0x40 MLOAD DUP1 SWAP2 SUB SWAP1 LOG3 POP POP POP JUMP JUMPDEST PUSH2 0x13CB DUP5 DUP5 DUP5 PUSH2 0xF1E JUMP JUMPDEST PUSH2 0x13D7 DUP5 DUP5 DUP5 DUP5 PUSH2 0x14C4 JUMP JUMPDEST PUSH2 0x1416 JUMPI PUSH1 0x40 MLOAD PUSH32 0x8C379A000000000000000000000000000000000000000000000000000000000 DUP2 MSTORE PUSH1 0x4 ADD PUSH2 0x140D SWAP1 PUSH2 0x2A00 JUMP JUMPDEST PUSH1 0x40 MLOAD DUP1 SWAP2 SUB SWAP1 REVERT JUMPDEST POP POP POP POP JUMP JUMPDEST PUSH1 0x0 DUP1 PUSH20 0xFFFFFFFFFFFFFFFFFFFFFFFFFFFFFFFFFFFFFFFF AND PUSH2 0x143E DUP4 PUSH2 0x1217 JUMP JUMPDEST PUSH20 0xFFFFFFFFFFFFFFFFFFFFFFFFFFFFFFFFFFFFFFFF AND EQ ISZERO SWAP1 POP SWAP2 SWAP1 POP JUMP JUMPDEST PUSH2 0x1467 DUP4 DUP4 PUSH2 0x164B JUMP JUMPDEST PUSH2 0x1474 PUSH1 0x0 DUP5 DUP5 DUP5 PUSH2 0x14C4 JUMP JUMPDEST PUSH2 0x14B3 JUMPI PUSH1 0x40 MLOAD PUSH32 0x8C379A000000000000000000000000000000000000000000000000000000000 DUP2 MSTORE PUSH1 0x4 ADD PUSH2 0x14AA SWAP1 PUSH2 0x2A00 JUMP JUMPDEST PUSH1 0x40 MLOAD DUP1 SWAP2 SUB SWAP1 REVERT JUMPDEST POP POP POP JUMP JUMPDEST POP POP POP POP JUMP JUMPDEST POP POP POP POP JUMP JUMPDEST PUSH1 0x0 PUSH2 0x14E5 DUP5 PUSH20 0xFFFFFFFFFFFFFFFFFFFFFFFFFFFFFFFFFFFFFFFF AND PUSH2 0x1868 JUMP JUMPDEST ISZERO PUSH2 0x163E JUMPI DUP4 PUSH20 0xFFFFFFFFFFFFFFFFFFFFFFFFFFFFFFFFFFFFFFFF AND PUSH4 0x150B7A02 PUSH2 0x150E PUSH2 0xDAA JUMP JUMPDEST DUP8 DUP7 DUP7 PUSH1 0x40 MLOAD DUP6 PUSH4 0xFFFFFFFF AND PUSH1 0xE0 SHL DUP2 MSTORE PUSH1 0x4 ADD PUSH2 0x1530 SWAP5 SWAP4 SWAP3 SWAP2 SWAP1 PUSH2 0x2A75 JUMP JUMPDEST PUSH1 0x20 PUSH1 0x40 MLOAD DUP1 DUP4 SUB DUP2 PUSH1 0x0 DUP8 GAS CALL SWAP3 POP POP POP DUP1 ISZERO PUSH2 0x156C JUMPI POP PUSH1 0x40 MLOAD RETURNDATASIZE PUSH1 0x1F NOT PUSH1 0x1F DUP3 ADD AND DUP3 ADD DUP1 PUSH1 0x40 MSTORE POP DUP2 ADD SWAP1 PUSH2 0x1569 SWAP2 SWAP1 PUSH2 0x2AD6 JUMP JUMPDEST PUSH1 0x1 JUMPDEST PUSH2 0x15EE JUMPI RETURNDATASIZE DUP1 PUSH1 0x0 DUP2 EQ PUSH2 0x159C JUMPI PUSH1 0x40 MLOAD SWAP2 POP PUSH1 0x1F NOT PUSH1 0x3F RETURNDATASIZE ADD AND DUP3 ADD PUSH1 0x40 MSTORE RETURNDATASIZE DUP3 MSTORE RETURNDATASIZE PUSH1 0x0 PUSH1 0x20 DUP5 ADD RETURNDATACOPY PUSH2 0x15A1 JUMP JUMPDEST PUSH1 0x60 SWAP2 POP JUMPDEST POP PUSH1 0x0 DUP2 MLOAD SUB PUSH2 0x15E6 JUMPI PUSH1 0x40 MLOAD PUSH32 0x8C379A000000000000000000000000000000000000000000000000000000000 DUP2 MSTORE PUSH1 0x4 ADD PUSH2 0x15DD SWAP1 PUSH2 0x2A00 JUMP JUMPDEST PUSH1 0x40 MLOAD DUP1 SWAP2 SUB SWAP1 REVERT JUMPDEST DUP1 MLOAD DUP2 PUSH1 0x20 ADD REVERT JUMPDEST PUSH4 0x150B7A02 PUSH1 0xE0 SHL PUSH28 0xFFFFFFFFFFFFFFFFFFFFFFFFFFFFFFFFFFFFFFFFFFFFFFFFFFFFFFFF NOT AND DUP2 PUSH28 0xFFFFFFFFFFFFFFFFFFFFFFFFFFFFFFFFFFFFFFFFFFFFFFFFFFFFFFFF NOT AND EQ SWAP2 POP POP PUSH2 0x1643 JUMP JUMPDEST PUSH1 0x1 SWAP1 POP JUMPDEST SWAP5 SWAP4 POP POP POP POP JUMP JUMPDEST PUSH1 0x0 PUSH20 0xFFFFFFFFFFFFFFFFFFFFFFFFFFFFFFFFFFFFFFFF AND DUP3 PUSH20 0xFFFFFFFFFFFFFFFFFFFFFFFFFFFFFFFFFFFFFFFF AND SUB PUSH2 0x16BA JUMPI PUSH1 0x40 MLOAD PUSH32 0x8C379A000000000000000000000000000000000000000000000000000000000 DUP2 MSTORE PUSH1 0x4 ADD PUSH2 0x16B1 SWAP1 PUSH2 0x2B4F JUMP JUMPDEST PUSH1 0x40 MLOAD DUP1 SWAP2 SUB SWAP1 REVERT JUMPDEST PUSH2 0x16C3 DUP2 PUSH2 0x141C JUMP JUMPDEST ISZERO PUSH2 0x1703 JUMPI PUSH1 0x40 MLOAD PUSH32 0x8C379A000000000000000000000000000000000000000000000000000000000 DUP2 MSTORE PUSH1 0x4 ADD PUSH2 0x16FA SWAP1 PUSH2 0x2BBB JUMP JUMPDEST PUSH1 0x40 MLOAD DUP1 SWAP2 SUB SWAP1 REVERT JUMPDEST PUSH2 0x1711 PUSH1 0x0 DUP4 DUP4 PUSH1 0x1 PUSH2 0x14B8 JUMP JUMPDEST PUSH2 0x171A DUP2 PUSH2 0x141C JUMP JUMPDEST ISZERO PUSH2 0x175A JUMPI PUSH1 0x40 MLOAD PUSH32 0x8C379A000000000000000000000000000000000000000000000000000000000 DUP2 MSTORE PUSH1 0x4 ADD PUSH2 0x1751 SWAP1 PUSH2 0x2BBB JUMP JUMPDEST PUSH1 0x40 MLOAD DUP1 SWAP2 SUB SWAP1 REVERT JUMPDEST PUSH1 0x1 PUSH1 0x3 PUSH1 0x0 DUP5 PUSH20 0xFFFFFFFFFFFFFFFFFFFFFFFFFFFFFFFFFFFFFFFF AND PUSH20 0xFFFFFFFFFFFFFFFFFFFFFFFFFFFFFFFFFFFFFFFF AND DUP2 MSTORE PUSH1 0x20 ADD SWAP1 DUP2 MSTORE PUSH1 0x20 ADD PUSH1 0x0 KECCAK256 PUSH1 0x0 DUP3 DUP3 SLOAD ADD SWAP3 POP POP DUP2 SWAP1 SSTORE POP DUP2 PUSH1 0x2 PUSH1 0x0 DUP4 DUP2 MSTORE PUSH1 0x20 ADD SWAP1 DUP2 MSTORE PUSH1 0x20 ADD PUSH1 0x0 KECCAK256 PUSH1 0x0 PUSH2 0x100 EXP DUP2 SLOAD DUP2 PUSH20 0xFFFFFFFFFFFFFFFFFFFFFFFFFFFFFFFFFFFFFFFF MUL NOT AND SWAP1 DUP4 PUSH20 0xFFFFFFFFFFFFFFFFFFFFFFFFFFFFFFFFFFFFFFFF AND MUL OR SWAP1 SSTORE POP DUP1 DUP3 PUSH20 0xFFFFFFFFFFFFFFFFFFFFFFFFFFFFFFFFFFFFFFFF AND PUSH1 0x0 PUSH20 0xFFFFFFFFFFFFFFFFFFFFFFFFFFFFFFFFFFFFFFFF AND PUSH32 0xDDF252AD1BE2C89B69C2B068FC378DAA952BA7F163C4A11628F55A4DF523B3EF PUSH1 0x40 MLOAD PUSH1 0x40 MLOAD DUP1 SWAP2 SUB SWAP1 LOG4 PUSH2 0x1864 PUSH1 0x0 DUP4 DUP4 PUSH1 0x1 PUSH2 0x14BE JUMP JUMPDEST POP POP JUMP JUMPDEST PUSH1 0x0 DUP1 DUP3 PUSH20 0xFFFFFFFFFFFFFFFFFFFFFFFFFFFFFFFFFFFFFFFF AND EXTCODESIZE GT SWAP1 POP SWAP2 SWAP1 POP JUMP JUMPDEST PUSH1 0x0 PUSH1 0x40 MLOAD SWAP1 POP SWAP1 JUMP JUMPDEST PUSH1 0x0 DUP1 REVERT JUMPDEST PUSH1 0x0 DUP1 REVERT JUMPDEST PUSH1 0x0 PUSH32 0xFFFFFFFF00000000000000000000000000000000000000000000000000000000 DUP3 AND SWAP1 POP SWAP2 SWAP1 POP JUMP JUMPDEST PUSH2 0x18D4 DUP2 PUSH2 0x189F JUMP JUMPDEST DUP2 EQ PUSH2 0x18DF JUMPI PUSH1 0x0 DUP1 REVERT JUMPDEST POP JUMP JUMPDEST PUSH1 0x0 DUP2 CALLDATALOAD SWAP1 POP PUSH2 0x18F1 DUP2 PUSH2 0x18CB JUMP JUMPDEST SWAP3 SWAP2 POP POP JUMP JUMPDEST PUSH1 0x0 PUSH1 0x20 DUP3 DUP5 SUB SLT ISZERO PUSH2 0x190D JUMPI PUSH2 0x190C PUSH2 0x1895 JUMP JUMPDEST JUMPDEST PUSH1 0x0 PUSH2 0x191B DUP5 DUP3 DUP6 ADD PUSH2 0x18E2 JUMP JUMPDEST SWAP2 POP POP SWAP3 SWAP2 POP POP JUMP JUMPDEST PUSH1 0x0 DUP2 ISZERO ISZERO SWAP1 POP SWAP2 SWAP1 POP JUMP JUMPDEST PUSH2 0x1939 DUP2 PUSH2 0x1924 JUMP JUMPDEST DUP3 MSTORE POP POP JUMP JUMPDEST PUSH1 0x0 PUSH1 0x20 DUP3 ADD SWAP1 POP PUSH2 0x1954 PUSH1 0x0 DUP4 ADD DUP5 PUSH2 0x1930 JUMP JUMPDEST SWAP3 SWAP2 POP POP JUMP JUMPDEST PUSH1 0x0 DUP2 SWAP1 POP SWAP2 SWAP1 POP JUMP JUMPDEST PUSH2 0x196D DUP2 PUSH2 0x195A JUMP JUMPDEST DUP3 MSTORE POP POP JUMP JUMPDEST PUSH1 0x0 PUSH1 0x20 DUP3 ADD SWAP1 POP PUSH2 0x1988 PUSH1 0x0 DUP4 ADD DUP5 PUSH2 0x1964 JUMP JUMPDEST SWAP3 SWAP2 POP POP JUMP JUMPDEST PUSH1 0x0 DUP2 MLOAD SWAP1 POP SWAP2 SWAP1 POP JUMP JUMPDEST PUSH1 0x0 DUP3 DUP3 MSTORE PUSH1 0x20 DUP3 ADD SWAP1 POP SWAP3 SWAP2 POP POP JUMP JUMPDEST PUSH1 0x0 JUMPDEST DUP4 DUP2 LT ISZERO PUSH2 0x19C8 JUMPI DUP1 DUP3 ADD MLOAD DUP2 DUP5 ADD MSTORE PUSH1 0x20 DUP2 ADD SWAP1 POP PUSH2 0x19AD JUMP JUMPDEST PUSH1 0x0 DUP5 DUP5 ADD MSTORE POP POP POP POP JUMP JUMPDEST PUSH1 0x0 PUSH1 0x1F NOT PUSH1 0x1F DUP4 ADD AND SWAP1 POP SWAP2 SWAP1 POP JUMP JUMPDEST PUSH1 0x0 PUSH2 0x19F0 DUP3 PUSH2 0x198E JUMP JUMPDEST PUSH2 0x19FA DUP2 DUP6 PUSH2 0x1999 JUMP JUMPDEST SWAP4 POP PUSH2 0x1A0A DUP2 DUP6 PUSH1 0x20 DUP7 ADD PUSH2 0x19AA JUMP JUMPDEST PUSH2 0x1A13 DUP2 PUSH2 0x19D4 JUMP JUMPDEST DUP5 ADD SWAP2 POP POP SWAP3 SWAP2 POP POP JUMP JUMPDEST PUSH1 0x0 PUSH1 0x20 DUP3 ADD SWAP1 POP DUP2 DUP2 SUB PUSH1 0x0 DUP4 ADD MSTORE PUSH2 0x1A38 DUP2 DUP5 PUSH2 0x19E5 JUMP JUMPDEST SWAP1 POP SWAP3 SWAP2 POP POP JUMP JUMPDEST PUSH2 0x1A49 DUP2 PUSH2 0x195A JUMP JUMPDEST DUP2 EQ PUSH2 0x1A54 JUMPI PUSH1 0x0 DUP1 REVERT JUMPDEST POP JUMP JUMPDEST PUSH1 0x0 DUP2 CALLDATALOAD SWAP1 POP PUSH2 0x1A66 DUP2 PUSH2 0x1A40 JUMP JUMPDEST SWAP3 SWAP2 POP POP JUMP JUMPDEST PUSH1 0x0 PUSH1 0x20 DUP3 DUP5 SUB SLT ISZERO PUSH2 0x1A82 JUMPI PUSH2 0x1A81 PUSH2 0x1895 JUMP JUMPDEST JUMPDEST PUSH1 0x0 PUSH2 0x1A90 DUP5 DUP3 DUP6 ADD PUSH2 0x1A57 JUMP JUMPDEST SWAP2 POP POP SWAP3 SWAP2 POP POP JUMP JUMPDEST PUSH1 0x0 PUSH20 0xFFFFFFFFFFFFFFFFFFFFFFFFFFFFFFFFFFFFFFFF DUP3 AND SWAP1 POP SWAP2 SWAP1 POP JUMP JUMPDEST PUSH1 0x0 PUSH2 0x1AC4 DUP3 PUSH2 0x1A99 JUMP JUMPDEST SWAP1 POP SWAP2 SWAP1 POP JUMP JUMPDEST PUSH2 0x1AD4 DUP2 PUSH2 0x1AB9 JUMP JUMPDEST DUP3 MSTORE POP POP JUMP JUMPDEST PUSH1 0x0 PUSH1 0x20 DUP3 ADD SWAP1 POP PUSH2 0x1AEF PUSH1 0x0 DUP4 ADD DUP5 PUSH2 0x1ACB JUMP JUMPDEST SWAP3 SWAP2 POP POP JUMP JUMPDEST PUSH2 0x1AFE DUP2 PUSH2 0x1AB9 JUMP JUMPDEST DUP2 EQ PUSH2 0x1B09 JUMPI PUSH1 0x0 DUP1 REVERT JUMPDEST POP JUMP JUMPDEST PUSH1 0x0 DUP2 CALLDATALOAD SWAP1 POP PUSH2 0x1B1B DUP2 PUSH2 0x1AF5 JUMP JUMPDEST SWAP3 SWAP2 POP POP JUMP JUMPDEST PUSH1 0x0 DUP1 PUSH1 0x40 DUP4 DUP6 SUB SLT ISZERO PUSH2 0x1B38 JUMPI PUSH2 0x1B37 PUSH2 0x1895 JUMP JUMPDEST JUMPDEST PUSH1 0x0 PUSH2 0x1B46 DUP6 DUP3 DUP7 ADD PUSH2 0x1B0C JUMP JUMPDEST SWAP3 POP POP PUSH1 0x20 PUSH2 0x1B57 DUP6 DUP3 DUP7 ADD PUSH2 0x1A57 JUMP JUMPDEST SWAP2 POP POP SWAP3 POP SWAP3 SWAP1 POP JUMP JUMPDEST PUSH1 0x0 DUP1 REVERT JUMPDEST PUSH1 0x0 DUP1 REVERT JUMPDEST PUSH32 0x4E487B7100000000000000000000000000000000000000000000000000000000 PUSH1 0x0 MSTORE PUSH1 0x41 PUSH1 0x4 MSTORE PUSH1 0x24 PUSH1 0x0 REVERT JUMPDEST PUSH2 0x1BA3 DUP3 PUSH2 0x19D4 JUMP JUMPDEST DUP2 ADD DUP2 DUP2 LT PUSH8 0xFFFFFFFFFFFFFFFF DUP3 GT OR ISZERO PUSH2 0x1BC2 JUMPI PUSH2 0x1BC1 PUSH2 0x1B6B JUMP JUMPDEST JUMPDEST DUP1 PUSH1 0x40 MSTORE POP POP POP JUMP JUMPDEST PUSH1 0x0 PUSH2 0x1BD5 PUSH2 0x188B JUMP JUMPDEST SWAP1 POP PUSH2 0x1BE1 DUP3 DUP3 PUSH2 0x1B9A JUMP JUMPDEST SWAP2 SWAP1 POP JUMP JUMPDEST PUSH1 0x0 PUSH8 0xFFFFFFFFFFFFFFFF DUP3 GT ISZERO PUSH2 0x1C01 JUMPI PUSH2 0x1C00 PUSH2 0x1B6B JUMP JUMPDEST JUMPDEST PUSH2 0x1C0A DUP3 PUSH2 0x19D4 JUMP JUMPDEST SWAP1 POP PUSH1 0x20 DUP2 ADD SWAP1 POP SWAP2 SWAP1 POP JUMP JUMPDEST DUP3 DUP2 DUP4 CALLDATACOPY PUSH1 0x0 DUP4 DUP4 ADD MSTORE POP POP POP JUMP JUMPDEST PUSH1 0x0 PUSH2 0x1C39 PUSH2 0x1C34 DUP5 PUSH2 0x1BE6 JUMP JUMPDEST PUSH2 0x1BCB JUMP JUMPDEST SWAP1 POP DUP3 DUP2 MSTORE PUSH1 0x20 DUP2 ADD DUP5 DUP5 DUP5 ADD GT ISZERO PUSH2 0x1C55 JUMPI PUSH2 0x1C54 PUSH2 0x1B66 JUMP JUMPDEST JUMPDEST PUSH2 0x1C60 DUP5 DUP3 DUP6 PUSH2 0x1C17 JUMP JUMPDEST POP SWAP4 SWAP3 POP POP POP JUMP JUMPDEST PUSH1 0x0 DUP3 PUSH1 0x1F DUP4 ADD SLT PUSH2 0x1C7D JUMPI PUSH2 0x1C7C PUSH2 0x1B61 JUMP JUMPDEST JUMPDEST DUP2 CALLDATALOAD PUSH2 0x1C8D DUP5 DUP3 PUSH1 0x20 DUP7 ADD PUSH2 0x1C26 JUMP JUMPDEST SWAP2 POP POP SWAP3 SWAP2 POP POP JUMP JUMPDEST PUSH1 0x0 DUP1 PUSH1 0x40 DUP4 DUP6 SUB SLT ISZERO PUSH2 0x1CAD JUMPI PUSH2 0x1CAC PUSH2 0x1895 JUMP JUMPDEST JUMPDEST PUSH1 0x0 PUSH2 0x1CBB DUP6 DUP3 DUP7 ADD PUSH2 0x1B0C JUMP JUMPDEST SWAP3 POP POP PUSH1 0x20 DUP4 ADD CALLDATALOAD PUSH8 0xFFFFFFFFFFFFFFFF DUP2 GT ISZERO PUSH2 0x1CDC JUMPI PUSH2 0x1CDB PUSH2 0x189A JUMP JUMPDEST JUMPDEST PUSH2 0x1CE8 DUP6 DUP3 DUP7 ADD PUSH2 0x1C68 JUMP JUMPDEST SWAP2 POP POP SWAP3 POP SWAP3 SWAP1 POP JUMP JUMPDEST PUSH1 0x0 DUP1 PUSH1 0x0 PUSH1 0x60 DUP5 DUP7 SUB SLT ISZERO PUSH2 0x1D0B JUMPI PUSH2 0x1D0A PUSH2 0x1895 JUMP JUMPDEST JUMPDEST PUSH1 0x0 PUSH2 0x1D19 DUP7 DUP3 DUP8 ADD PUSH2 0x1B0C JUMP JUMPDEST SWAP4 POP POP PUSH1 0x20 PUSH2 0x1D2A DUP7 DUP3 DUP8 ADD PUSH2 0x1B0C JUMP JUMPDEST SWAP3 POP POP PUSH1 0x40 PUSH2 0x1D3B DUP7 DUP3 DUP8 ADD PUSH2 0x1A57 JUMP JUMPDEST SWAP2 POP POP SWAP3 POP SWAP3 POP SWAP3 JUMP JUMPDEST PUSH1 0x0 PUSH1 0x20 DUP3 DUP5 SUB SLT ISZERO PUSH2 0x1D5B JUMPI PUSH2 0x1D5A PUSH2 0x1895 JUMP JUMPDEST JUMPDEST PUSH1 0x0 PUSH2 0x1D69 DUP5 DUP3 DUP6 ADD PUSH2 0x1B0C JUMP JUMPDEST SWAP2 POP POP SWAP3 SWAP2 POP POP JUMP JUMPDEST PUSH1 0x0 DUP1 PUSH1 0x40 DUP4 DUP6 SUB SLT ISZERO PUSH2 0x1D89 JUMPI PUSH2 0x1D88 PUSH2 0x1895 JUMP JUMPDEST JUMPDEST PUSH1 0x0 DUP4 ADD CALLDATALOAD PUSH8 0xFFFFFFFFFFFFFFFF DUP2 GT ISZERO PUSH2 0x1DA7 JUMPI PUSH2 0x1DA6 PUSH2 0x189A JUMP JUMPDEST JUMPDEST PUSH2 0x1DB3 DUP6 DUP3 DUP7 ADD PUSH2 0x1C68 JUMP JUMPDEST SWAP3 POP POP PUSH1 0x20 DUP4 ADD CALLDATALOAD PUSH8 0xFFFFFFFFFFFFFFFF DUP2 GT ISZERO PUSH2 0x1DD4 JUMPI PUSH2 0x1DD3 PUSH2 0x189A JUMP JUMPDEST JUMPDEST PUSH2 0x1DE0 DUP6 DUP3 DUP7 ADD PUSH2 0x1C68 JUMP JUMPDEST SWAP2 POP POP SWAP3 POP SWAP3 SWAP1 POP JUMP JUMPDEST PUSH1 0x0 PUSH1 0x20 DUP3 DUP5 SUB SLT ISZERO PUSH2 0x1E00 JUMPI PUSH2 0x1DFF PUSH2 0x1895 JUMP JUMPDEST JUMPDEST PUSH1 0x0 DUP3 ADD CALLDATALOAD PUSH8 0xFFFFFFFFFFFFFFFF DUP2 GT ISZERO PUSH2 0x1E1E JUMPI PUSH2 0x1E1D PUSH2 0x189A JUMP JUMPDEST JUMPDEST PUSH2 0x1E2A DUP5 DUP3 DUP6 ADD PUSH2 0x1C68 JUMP JUMPDEST SWAP2 POP POP SWAP3 SWAP2 POP POP JUMP JUMPDEST PUSH2 0x1E3C DUP2 PUSH2 0x1924 JUMP JUMPDEST DUP2 EQ PUSH2 0x1E47 JUMPI PUSH1 0x0 DUP1 REVERT JUMPDEST POP JUMP JUMPDEST PUSH1 0x0 DUP2 CALLDATALOAD SWAP1 POP PUSH2 0x1E59 DUP2 PUSH2 0x1E33 JUMP JUMPDEST SWAP3 SWAP2 POP POP JUMP JUMPDEST PUSH1 0x0 DUP1 PUSH1 0x40 DUP4 DUP6 SUB SLT ISZERO PUSH2 0x1E76 JUMPI PUSH2 0x1E75 PUSH2 0x1895 JUMP JUMPDEST JUMPDEST PUSH1 0x0 PUSH2 0x1E84 DUP6 DUP3 DUP7 ADD PUSH2 0x1B0C JUMP JUMPDEST SWAP3 POP POP PUSH1 0x20 PUSH2 0x1E95 DUP6 DUP3 DUP7 ADD PUSH2 0x1E4A JUMP JUMPDEST SWAP2 POP POP SWAP3 POP SWAP3 SWAP1 POP JUMP JUMPDEST PUSH1 0x0 PUSH8 0xFFFFFFFFFFFFFFFF DUP3 GT ISZERO PUSH2 0x1EBA JUMPI PUSH2 0x1EB9 PUSH2 0x1B6B JUMP JUMPDEST JUMPDEST PUSH2 0x1EC3 DUP3 PUSH2 0x19D4 JUMP JUMPDEST SWAP1 POP PUSH1 0x20 DUP2 ADD SWAP1 POP SWAP2 SWAP1 POP JUMP JUMPDEST PUSH1 0x0 PUSH2 0x1EE3 PUSH2 0x1EDE DUP5 PUSH2 0x1E9F JUMP JUMPDEST PUSH2 0x1BCB JUMP JUMPDEST SWAP1 POP DUP3 DUP2 MSTORE PUSH1 0x20 DUP2 ADD DUP5 DUP5 DUP5 ADD GT ISZERO PUSH2 0x1EFF JUMPI PUSH2 0x1EFE PUSH2 0x1B66 JUMP JUMPDEST JUMPDEST PUSH2 0x1F0A DUP5 DUP3 DUP6 PUSH2 0x1C17 JUMP JUMPDEST POP SWAP4 SWAP3 POP POP POP JUMP JUMPDEST PUSH1 0x0 DUP3 PUSH1 0x1F DUP4 ADD SLT PUSH2 0x1F27 JUMPI PUSH2 0x1F26 PUSH2 0x1B61 JUMP JUMPDEST JUMPDEST DUP2 CALLDATALOAD PUSH2 0x1F37 DUP5 DUP3 PUSH1 0x20 DUP7 ADD PUSH2 0x1ED0 JUMP JUMPDEST SWAP2 POP POP SWAP3 SWAP2 POP POP JUMP JUMPDEST PUSH1 0x0 DUP1 PUSH1 0x0 DUP1 PUSH1 0x80 DUP6 DUP8 SUB SLT ISZERO PUSH2 0x1F5A JUMPI PUSH2 0x1F59 PUSH2 0x1895 JUMP JUMPDEST JUMPDEST PUSH1 0x0 PUSH2 0x1F68 DUP8 DUP3 DUP9 ADD PUSH2 0x1B0C JUMP JUMPDEST SWAP5 POP POP PUSH1 0x20 PUSH2 0x1F79 DUP8 DUP3 DUP9 ADD PUSH2 0x1B0C JUMP JUMPDEST SWAP4 POP POP PUSH1 0x40 PUSH2 0x1F8A DUP8 DUP3 DUP9 ADD PUSH2 0x1A57 JUMP JUMPDEST SWAP3 POP POP PUSH1 0x60 DUP6 ADD CALLDATALOAD PUSH8 0xFFFFFFFFFFFFFFFF DUP2 GT ISZERO PUSH2 0x1FAB JUMPI PUSH2 0x1FAA PUSH2 0x189A JUMP JUMPDEST JUMPDEST PUSH2 0x1FB7 DUP8 DUP3 DUP9 ADD PUSH2 0x1F12 JUMP JUMPDEST SWAP2 POP POP SWAP3 SWAP6 SWAP2 SWAP5 POP SWAP3 POP JUMP JUMPDEST PUSH1 0x0 DUP1 PUSH1 0x40 DUP4 DUP6 SUB SLT ISZERO PUSH2 0x1FDA JUMPI PUSH2 0x1FD9 PUSH2 0x1895 JUMP JUMPDEST JUMPDEST PUSH1 0x0 PUSH2 0x1FE8 DUP6 DUP3 DUP7 ADD PUSH2 0x1B0C JUMP JUMPDEST SWAP3 POP POP PUSH1 0x20 PUSH2 0x1FF9 DUP6 DUP3 DUP7 ADD PUSH2 0x1B0C JUMP JUMPDEST SWAP2 POP POP SWAP3 POP SWAP3 SWAP1 POP JUMP JUMPDEST PUSH32 0x4E487B7100000000000000000000000000000000000000000000000000000000 PUSH1 0x0 MSTORE PUSH1 0x22 PUSH1 0x4 MSTORE PUSH1 0x24 PUSH1 0x0 REVERT JUMPDEST PUSH1 0x0 PUSH1 0x2 DUP3 DIV SWAP1 POP PUSH1 0x1 DUP3 AND DUP1 PUSH2 0x204A JUMPI PUSH1 0x7F DUP3 AND SWAP2 POP JUMPDEST PUSH1 0x20 DUP3 LT DUP2 SUB PUSH2 0x205D JUMPI PUSH2 0x205C PUSH2 0x2003 JUMP JUMPDEST JUMPDEST POP SWAP2 SWAP1 POP JUMP JUMPDEST PUSH32 0x4552433732313A20617070726F76616C20746F2063757272656E74206F776E65 PUSH1 0x0 DUP3 ADD MSTORE PUSH32 0x7200000000000000000000000000000000000000000000000000000000000000 PUSH1 0x20 DUP3 ADD MSTORE POP JUMP JUMPDEST PUSH1 0x0 PUSH2 0x20BF PUSH1 0x21 DUP4 PUSH2 0x1999 JUMP JUMPDEST SWAP2 POP PUSH2 0x20CA DUP3 PUSH2 0x2063 JUMP JUMPDEST PUSH1 0x40 DUP3 ADD SWAP1 POP SWAP2 SWAP1 POP JUMP JUMPDEST PUSH1 0x0 PUSH1 0x20 DUP3 ADD SWAP1 POP DUP2 DUP2 SUB PUSH1 0x0 DUP4 ADD MSTORE PUSH2 0x20EE DUP2 PUSH2 0x20B2 JUMP JUMPDEST SWAP1 POP SWAP2 SWAP1 POP JUMP JUMPDEST PUSH32 0x4552433732313A20617070726F76652063616C6C6572206973206E6F7420746F PUSH1 0x0 DUP3 ADD MSTORE PUSH32 0x6B656E206F776E6572206F7220617070726F76656420666F7220616C6C000000 PUSH1 0x20 DUP3 ADD MSTORE POP JUMP JUMPDEST PUSH1 0x0 PUSH2 0x2151 PUSH1 0x3D DUP4 PUSH2 0x1999 JUMP JUMPDEST SWAP2 POP PUSH2 0x215C DUP3 PUSH2 0x20F5 JUMP JUMPDEST PUSH1 0x40 DUP3 ADD SWAP1 POP SWAP2 SWAP1 POP JUMP JUMPDEST PUSH1 0x0 PUSH1 0x20 DUP3 ADD SWAP1 POP DUP2 DUP2 SUB PUSH1 0x0 DUP4 ADD MSTORE PUSH2 0x2180 DUP2 PUSH2 0x2144 JUMP JUMPDEST SWAP1 POP SWAP2 SWAP1 POP JUMP JUMPDEST PUSH1 0x0 DUP2 SWAP1 POP SWAP3 SWAP2 POP POP JUMP JUMPDEST PUSH1 0x0 DUP2 SWAP1 POP DUP2 PUSH1 0x0 MSTORE PUSH1 0x20 PUSH1 0x0 KECCAK256 SWAP1 POP SWAP2 SWAP1 POP JUMP JUMPDEST PUSH1 0x0 DUP2 SLOAD PUSH2 0x21B4 DUP2 PUSH2 0x2032 JUMP JUMPDEST PUSH2 0x21BE DUP2 DUP7 PUSH2 0x2187 JUMP JUMPDEST SWAP5 POP PUSH1 0x1 DUP3 AND PUSH1 0x0 DUP2 EQ PUSH2 0x21D9 JUMPI PUSH1 0x1 DUP2 EQ PUSH2 0x21EE JUMPI PUSH2 0x2221 JUMP JUMPDEST PUSH1 0xFF NOT DUP4 AND DUP7 MSTORE DUP2 ISZERO ISZERO DUP3 MUL DUP7 ADD SWAP4 POP PUSH2 0x2221 JUMP JUMPDEST PUSH2 0x21F7 DUP6 PUSH2 0x2192 JUMP JUMPDEST PUSH1 0x0 JUMPDEST DUP4 DUP2 LT ISZERO PUSH2 0x2219 JUMPI DUP2 SLOAD DUP2 DUP10 ADD MSTORE PUSH1 0x1 DUP3 ADD SWAP2 POP PUSH1 0x20 DUP2 ADD SWAP1 POP PUSH2 0x21FA JUMP JUMPDEST DUP4 DUP9 ADD SWAP6 POP POP POP JUMPDEST POP POP POP SWAP3 SWAP2 POP POP JUMP JUMPDEST PUSH1 0x0 PUSH2 0x2236 DUP3 DUP5 PUSH2 0x21A7 JUMP JUMPDEST SWAP2 POP DUP2 SWAP1 POP SWAP3 SWAP2 POP POP JUMP JUMPDEST PUSH32 0x63616E2774206D696E74206475706C6963617465000000000000000000000000 PUSH1 0x0 DUP3 ADD MSTORE POP JUMP JUMPDEST PUSH1 0x0 PUSH2 0x2277 PUSH1 0x14 DUP4 PUSH2 0x1999 JUMP JUMPDEST SWAP2 POP PUSH2 0x2282 DUP3 PUSH2 0x2241 JUMP JUMPDEST PUSH1 0x20 DUP3 ADD SWAP1 POP SWAP2 SWAP1 POP JUMP JUMPDEST PUSH1 0x0 PUSH1 0x20 DUP3 ADD SWAP1 POP DUP2 DUP2 SUB PUSH1 0x0 DUP4 ADD MSTORE PUSH2 0x22A6 DUP2 PUSH2 0x226A JUMP JUMPDEST SWAP1 POP SWAP2 SWAP1 POP JUMP JUMPDEST PUSH32 0x4E487B7100000000000000000000000000000000000000000000000000000000 PUSH1 0x0 MSTORE PUSH1 0x11 PUSH1 0x4 MSTORE PUSH1 0x24 PUSH1 0x0 REVERT JUMPDEST PUSH1 0x0 PUSH2 0x22E7 DUP3 PUSH2 0x195A JUMP JUMPDEST SWAP2 POP PUSH32 0xFFFFFFFFFFFFFFFFFFFFFFFFFFFFFFFFFFFFFFFFFFFFFFFFFFFFFFFFFFFFFFFF DUP3 SUB PUSH2 0x2319 JUMPI PUSH2 0x2318 PUSH2 0x22AD JUMP JUMPDEST JUMPDEST PUSH1 0x1 DUP3 ADD SWAP1 POP SWAP2 SWAP1 POP JUMP JUMPDEST PUSH1 0x0 DUP2 SWAP1 POP DUP2 PUSH1 0x0 MSTORE PUSH1 0x20 PUSH1 0x0 KECCAK256 SWAP1 POP SWAP2 SWAP1 POP JUMP JUMPDEST PUSH1 0x0 PUSH1 0x20 PUSH1 0x1F DUP4 ADD DIV SWAP1 POP SWAP2 SWAP1 POP JUMP JUMPDEST PUSH1 0x0 DUP3 DUP3 SHL SWAP1 POP SWAP3 SWAP2 POP POP JUMP JUMPDEST PUSH1 0x0 PUSH1 0x8 DUP4 MUL PUSH2 0x2386 PUSH32 0xFFFFFFFFFFFFFFFFFFFFFFFFFFFFFFFFFFFFFFFFFFFFFFFFFFFFFFFFFFFFFFFF DUP3 PUSH2 0x2349 JUMP JUMPDEST PUSH2 0x2390 DUP7 DUP4 PUSH2 0x2349 JUMP JUMPDEST SWAP6 POP DUP1 NOT DUP5 AND SWAP4 POP DUP1 DUP7 AND DUP5 OR SWAP3 POP POP POP SWAP4 SWAP3 POP POP POP JUMP JUMPDEST PUSH1 0x0 DUP2 SWAP1 POP SWAP2 SWAP1 POP JUMP JUMPDEST PUSH1 0x0 PUSH2 0x23CD PUSH2 0x23C8 PUSH2 0x23C3 DUP5 PUSH2 0x195A JUMP JUMPDEST PUSH2 0x23A8 JUMP JUMPDEST PUSH2 0x195A JUMP JUMPDEST SWAP1 POP SWAP2 SWAP1 POP JUMP JUMPDEST PUSH1 0x0 DUP2 SWAP1 POP SWAP2 SWAP1 POP JUMP JUMPDEST PUSH2 0x23E7 DUP4 PUSH2 0x23B2 JUMP JUMPDEST PUSH2 0x23FB PUSH2 0x23F3 DUP3 PUSH2 0x23D4 JUMP JUMPDEST DUP5 DUP5 SLOAD PUSH2 0x2356 JUMP JUMPDEST DUP3 SSTORE POP POP POP POP JUMP JUMPDEST PUSH1 0x0 SWAP1 JUMP JUMPDEST PUSH2 0x2410 PUSH2 0x2403 JUMP JUMPDEST PUSH2 0x241B DUP2 DUP5 DUP5 PUSH2 0x23DE JUMP JUMPDEST POP POP POP JUMP JUMPDEST JUMPDEST DUP2 DUP2 LT ISZERO PUSH2 0x243F JUMPI PUSH2 0x2434 PUSH1 0x0 DUP3 PUSH2 0x2408 JUMP JUMPDEST PUSH1 0x1 DUP2 ADD SWAP1 POP PUSH2 0x2421 JUMP JUMPDEST POP POP JUMP JUMPDEST PUSH1 0x1F DUP3 GT ISZERO PUSH2 0x2484 JUMPI PUSH2 0x2455 DUP2 PUSH2 0x2324 JUMP JUMPDEST PUSH2 0x245E DUP5 PUSH2 0x2339 JUMP JUMPDEST DUP2 ADD PUSH1 0x20 DUP6 LT ISZERO PUSH2 0x246D JUMPI DUP2 SWAP1 POP JUMPDEST PUSH2 0x2481 PUSH2 0x2479 DUP6 PUSH2 0x2339 JUMP JUMPDEST DUP4 ADD DUP3 PUSH2 0x2420 JUMP JUMPDEST POP POP JUMPDEST POP POP POP JUMP JUMPDEST PUSH1 0x0 DUP3 DUP3 SHR SWAP1 POP SWAP3 SWAP2 POP POP JUMP JUMPDEST PUSH1 0x0 PUSH2 0x24A7 PUSH1 0x0 NOT DUP5 PUSH1 0x8 MUL PUSH2 0x2489 JUMP JUMPDEST NOT DUP1 DUP4 AND SWAP2 POP POP SWAP3 SWAP2 POP POP JUMP JUMPDEST PUSH1 0x0 PUSH2 0x24C0 DUP4 DUP4 PUSH2 0x2496 JUMP JUMPDEST SWAP2 POP DUP3 PUSH1 0x2 MUL DUP3 OR SWAP1 POP SWAP3 SWAP2 POP POP JUMP JUMPDEST PUSH2 0x24D9 DUP3 PUSH2 0x198E JUMP JUMPDEST PUSH8 0xFFFFFFFFFFFFFFFF DUP2 GT ISZERO PUSH2 0x24F2 JUMPI PUSH2 0x24F1 PUSH2 0x1B6B JUMP JUMPDEST JUMPDEST PUSH2 0x24FC DUP3 SLOAD PUSH2 0x2032 JUMP JUMPDEST PUSH2 0x2507 DUP3 DUP3 DUP6 PUSH2 0x2443 JUMP JUMPDEST PUSH1 0x0 PUSH1 0x20 SWAP1 POP PUSH1 0x1F DUP4 GT PUSH1 0x1 DUP2 EQ PUSH2 0x253A JUMPI PUSH1 0x0 DUP5 ISZERO PUSH2 0x2528 JUMPI DUP3 DUP8 ADD MLOAD SWAP1 POP JUMPDEST PUSH2 0x2532 DUP6 DUP3 PUSH2 0x24B4 JUMP JUMPDEST DUP7 SSTORE POP PUSH2 0x259A JUMP JUMPDEST PUSH1 0x1F NOT DUP5 AND PUSH2 0x2548 DUP7 PUSH2 0x2324 JUMP JUMPDEST PUSH1 0x0 JUMPDEST DUP3 DUP2 LT ISZERO PUSH2 0x2570 JUMPI DUP5 DUP10 ADD MLOAD DUP3 SSTORE PUSH1 0x1 DUP3 ADD SWAP2 POP PUSH1 0x20 DUP6 ADD SWAP5 POP PUSH1 0x20 DUP2 ADD SWAP1 POP PUSH2 0x254B JUMP JUMPDEST DUP7 DUP4 LT ISZERO PUSH2 0x258D JUMPI DUP5 DUP10 ADD MLOAD PUSH2 0x2589 PUSH1 0x1F DUP10 AND DUP3 PUSH2 0x2496 JUMP JUMPDEST DUP4 SSTORE POP JUMPDEST PUSH1 0x1 PUSH1 0x2 DUP9 MUL ADD DUP9 SSTORE POP POP POP JUMPDEST POP POP POP POP POP POP JUMP JUMPDEST PUSH32 0x4552433732313A2063616C6C6572206973206E6F7420746F6B656E206F776E65 PUSH1 0x0 DUP3 ADD MSTORE PUSH32 0x72206F7220617070726F76656400000000000000000000000000000000000000 PUSH1 0x20 DUP3 ADD MSTORE POP JUMP JUMPDEST PUSH1 0x0 PUSH2 0x25FE PUSH1 0x2D DUP4 PUSH2 0x1999 JUMP JUMPDEST SWAP2 POP PUSH2 0x2609 DUP3 PUSH2 0x25A2 JUMP JUMPDEST PUSH1 0x40 DUP3 ADD SWAP1 POP SWAP2 SWAP1 POP JUMP JUMPDEST PUSH1 0x0 PUSH1 0x20 DUP3 ADD SWAP1 POP DUP2 DUP2 SUB PUSH1 0x0 DUP4 ADD MSTORE PUSH2 0x262D DUP2 PUSH2 0x25F1 JUMP JUMPDEST SWAP1 POP SWAP2 SWAP1 POP JUMP JUMPDEST PUSH32 0x4552433732313A20696E76616C696420746F6B656E2049440000000000000000 PUSH1 0x0 DUP3 ADD MSTORE POP JUMP JUMPDEST PUSH1 0x0 PUSH2 0x266A PUSH1 0x18 DUP4 PUSH2 0x1999 JUMP JUMPDEST SWAP2 POP PUSH2 0x2675 DUP3 PUSH2 0x2634 JUMP JUMPDEST PUSH1 0x20 DUP3 ADD SWAP1 POP SWAP2 SWAP1 POP JUMP JUMPDEST PUSH1 0x0 PUSH1 0x20 DUP3 ADD SWAP1 POP DUP2 DUP2 SUB PUSH1 0x0 DUP4 ADD MSTORE PUSH2 0x2699 DUP2 PUSH2 0x265D JUMP JUMPDEST SWAP1 POP SWAP2 SWAP1 POP JUMP JUMPDEST PUSH32 0x4552433732313A2061646472657373207A65726F206973206E6F742061207661 PUSH1 0x0 DUP3 ADD MSTORE PUSH32 0x6C6964206F776E65720000000000000000000000000000000000000000000000 PUSH1 0x20 DUP3 ADD MSTORE POP JUMP JUMPDEST PUSH1 0x0 PUSH2 0x26FC PUSH1 0x29 DUP4 PUSH2 0x1999 JUMP JUMPDEST SWAP2 POP PUSH2 0x2707 DUP3 PUSH2 0x26A0 JUMP JUMPDEST PUSH1 0x40 DUP3 ADD SWAP1 POP SWAP2 SWAP1 POP JUMP JUMPDEST PUSH1 0x0 PUSH1 0x20 DUP3 ADD SWAP1 POP DUP2 DUP2 SUB PUSH1 0x0 DUP4 ADD MSTORE PUSH2 0x272B DUP2 PUSH2 0x26EF JUMP JUMPDEST SWAP1 POP SWAP2 SWAP1 POP JUMP JUMPDEST PUSH1 0x0 DUP2 SWAP1 POP SWAP3 SWAP2 POP POP JUMP JUMPDEST PUSH1 0x0 PUSH2 0x2748 DUP3 PUSH2 0x198E JUMP JUMPDEST PUSH2 0x2752 DUP2 DUP6 PUSH2 0x2732 JUMP JUMPDEST SWAP4 POP PUSH2 0x2762 DUP2 DUP6 PUSH1 0x20 DUP7 ADD PUSH2 0x19AA JUMP JUMPDEST DUP1 DUP5 ADD SWAP2 POP POP SWAP3 SWAP2 POP POP JUMP JUMPDEST PUSH1 0x0 PUSH2 0x277A DUP3 DUP6 PUSH2 0x273D JUMP JUMPDEST SWAP2 POP PUSH2 0x2786 DUP3 DUP5 PUSH2 0x273D JUMP JUMPDEST SWAP2 POP DUP2 SWAP1 POP SWAP4 SWAP3 POP POP POP JUMP JUMPDEST PUSH32 0x746F6B656E494420776173206E6F742076616C69642E00000000000000000000 PUSH1 0x0 DUP3 ADD MSTORE POP JUMP JUMPDEST PUSH1 0x0 PUSH2 0x27C8 PUSH1 0x16 DUP4 PUSH2 0x1999 JUMP JUMPDEST SWAP2 POP PUSH2 0x27D3 DUP3 PUSH2 0x2792 JUMP JUMPDEST PUSH1 0x20 DUP3 ADD SWAP1 POP SWAP2 SWAP1 POP JUMP JUMPDEST PUSH1 0x0 PUSH1 0x20 DUP3 ADD SWAP1 POP DUP2 DUP2 SUB PUSH1 0x0 DUP4 ADD MSTORE PUSH2 0x27F7 DUP2 PUSH2 0x27BB JUMP JUMPDEST SWAP1 POP SWAP2 SWAP1 POP JUMP JUMPDEST PUSH32 0x4552433732313A207472616E736665722066726F6D20696E636F727265637420 PUSH1 0x0 DUP3 ADD MSTORE PUSH32 0x6F776E6572000000000000000000000000000000000000000000000000000000 PUSH1 0x20 DUP3 ADD MSTORE POP JUMP JUMPDEST PUSH1 0x0 PUSH2 0x285A PUSH1 0x25 DUP4 PUSH2 0x1999 JUMP JUMPDEST SWAP2 POP PUSH2 0x2865 DUP3 PUSH2 0x27FE JUMP JUMPDEST PUSH1 0x40 DUP3 ADD SWAP1 POP SWAP2 SWAP1 POP JUMP JUMPDEST PUSH1 0x0 PUSH1 0x20 DUP3 ADD SWAP1 POP DUP2 DUP2 SUB PUSH1 0x0 DUP4 ADD MSTORE PUSH2 0x2889 DUP2 PUSH2 0x284D JUMP JUMPDEST SWAP1 POP SWAP2 SWAP1 POP JUMP JUMPDEST PUSH32 0x4552433732313A207472616E7366657220746F20746865207A65726F20616464 PUSH1 0x0 DUP3 ADD MSTORE PUSH32 0x7265737300000000000000000000000000000000000000000000000000000000 PUSH1 0x20 DUP3 ADD MSTORE POP JUMP JUMPDEST PUSH1 0x0 PUSH2 0x28EC PUSH1 0x24 DUP4 PUSH2 0x1999 JUMP JUMPDEST SWAP2 POP PUSH2 0x28F7 DUP3 PUSH2 0x2890 JUMP JUMPDEST PUSH1 0x40 DUP3 ADD SWAP1 POP SWAP2 SWAP1 POP JUMP JUMPDEST PUSH1 0x0 PUSH1 0x20 DUP3 ADD SWAP1 POP DUP2 DUP2 SUB PUSH1 0x0 DUP4 ADD MSTORE PUSH2 0x291B DUP2 PUSH2 0x28DF JUMP JUMPDEST SWAP1 POP SWAP2 SWAP1 POP JUMP JUMPDEST PUSH32 0x4552433732313A20617070726F766520746F2063616C6C657200000000000000 PUSH1 0x0 DUP3 ADD MSTORE POP JUMP JUMPDEST PUSH1 0x0 PUSH2 0x2958 PUSH1 0x19 DUP4 PUSH2 0x1999 JUMP JUMPDEST SWAP2 POP PUSH2 0x2963 DUP3 PUSH2 0x2922 JUMP JUMPDEST PUSH1 0x20 DUP3 ADD SWAP1 POP SWAP2 SWAP1 POP JUMP JUMPDEST PUSH1 0x0 PUSH1 0x20 DUP3 ADD SWAP1 POP DUP2 DUP2 SUB PUSH1 0x0 DUP4 ADD MSTORE PUSH2 0x2987 DUP2 PUSH2 0x294B JUMP JUMPDEST SWAP1 POP SWAP2 SWAP1 POP JUMP JUMPDEST PUSH32 0x4552433732313A207472616E7366657220746F206E6F6E204552433732315265 PUSH1 0x0 DUP3 ADD MSTORE PUSH32 0x63656976657220696D706C656D656E7465720000000000000000000000000000 PUSH1 0x20 DUP3 ADD MSTORE POP JUMP JUMPDEST PUSH1 0x0 PUSH2 0x29EA PUSH1 0x32 DUP4 PUSH2 0x1999 JUMP JUMPDEST SWAP2 POP PUSH2 0x29F5 DUP3 PUSH2 0x298E JUMP JUMPDEST PUSH1 0x40 DUP3 ADD SWAP1 POP SWAP2 SWAP1 POP JUMP JUMPDEST PUSH1 0x0 PUSH1 0x20 DUP3 ADD SWAP1 POP DUP2 DUP2 SUB PUSH1 0x0 DUP4 ADD MSTORE PUSH2 0x2A19 DUP2 PUSH2 0x29DD JUMP JUMPDEST SWAP1 POP SWAP2 SWAP1 POP JUMP JUMPDEST PUSH1 0x0 DUP2 MLOAD SWAP1 POP SWAP2 SWAP1 POP JUMP JUMPDEST PUSH1 0x0 DUP3 DUP3 MSTORE PUSH1 0x20 DUP3 ADD SWAP1 POP SWAP3 SWAP2 POP POP JUMP JUMPDEST PUSH1 0x0 PUSH2 0x2A47 DUP3 PUSH2 0x2A20 JUMP JUMPDEST PUSH2 0x2A51 DUP2 DUP6 PUSH2 0x2A2B JUMP JUMPDEST SWAP4 POP PUSH2 0x2A61 DUP2 DUP6 PUSH1 0x20 DUP7 ADD PUSH2 0x19AA JUMP JUMPDEST PUSH2 0x2A6A DUP2 PUSH2 0x19D4 JUMP JUMPDEST DUP5 ADD SWAP2 POP POP SWAP3 SWAP2 POP POP JUMP JUMPDEST PUSH1 0x0 PUSH1 0x80 DUP3 ADD SWAP1 POP PUSH2 0x2A8A PUSH1 0x0 DUP4 ADD DUP8 PUSH2 0x1ACB JUMP JUMPDEST PUSH2 0x2A97 PUSH1 0x20 DUP4 ADD DUP7 PUSH2 0x1ACB JUMP JUMPDEST PUSH2 0x2AA4 PUSH1 0x40 DUP4 ADD DUP6 PUSH2 0x1964 JUMP JUMPDEST DUP2 DUP2 SUB PUSH1 0x60 DUP4 ADD MSTORE PUSH2 0x2AB6 DUP2 DUP5 PUSH2 0x2A3C JUMP JUMPDEST SWAP1 POP SWAP6 SWAP5 POP POP POP POP POP JUMP JUMPDEST PUSH1 0x0 DUP2 MLOAD SWAP1 POP PUSH2 0x2AD0 DUP2 PUSH2 0x18CB JUMP JUMPDEST SWAP3 SWAP2 POP POP JUMP JUMPDEST PUSH1 0x0 PUSH1 0x20 DUP3 DUP5 SUB SLT ISZERO PUSH2 0x2AEC JUMPI PUSH2 0x2AEB PUSH2 0x1895 JUMP JUMPDEST JUMPDEST PUSH1 0x0 PUSH2 0x2AFA DUP5 DUP3 DUP6 ADD PUSH2 0x2AC1 JUMP JUMPDEST SWAP2 POP POP SWAP3 SWAP2 POP POP JUMP JUMPDEST PUSH32 0x4552433732313A206D696E7420746F20746865207A65726F2061646472657373 PUSH1 0x0 DUP3 ADD MSTORE POP JUMP JUMPDEST PUSH1 0x0 PUSH2 0x2B39 PUSH1 0x20 DUP4 PUSH2 0x1999 JUMP JUMPDEST SWAP2 POP PUSH2 0x2B44 DUP3 PUSH2 0x2B03 JUMP JUMPDEST PUSH1 0x20 DUP3 ADD SWAP1 POP SWAP2 SWAP1 POP JUMP JUMPDEST PUSH1 0x0 PUSH1 0x20 DUP3 ADD SWAP1 POP DUP2 DUP2 SUB PUSH1 0x0 DUP4 ADD MSTORE PUSH2 0x2B68 DUP2 PUSH2 0x2B2C JUMP JUMPDEST SWAP1 POP SWAP2 SWAP1 POP JUMP JUMPDEST PUSH32 0x4552433732313A20746F6B656E20616C7265616479206D696E74656400000000 PUSH1 0x0 DUP3 ADD MSTORE POP JUMP JUMPDEST PUSH1 0x0 PUSH2 0x2BA5 PUSH1 0x1C DUP4 PUSH2 0x1999 JUMP JUMPDEST SWAP2 POP PUSH2 0x2BB0 DUP3 PUSH2 0x2B6F JUMP JUMPDEST PUSH1 0x20 DUP3 ADD SWAP1 POP SWAP2 SWAP1 POP JUMP JUMPDEST PUSH1 0x0 PUSH1 0x20 DUP3 ADD SWAP1 POP DUP2 DUP2 SUB PUSH1 0x0 DUP4 ADD MSTORE PUSH2 0x2BD4 DUP2 PUSH2 0x2B98 JUMP JUMPDEST SWAP1 POP SWAP2 SWAP1 POP JUMP INVALID LOG2 PUSH5 0x6970667358 0x22 SLT KECCAK256 SWAP14 PUSH1 0xCD BASEFEE SWAP7 0xBA 0xB0 PUSH2 0x4B96 PUSH17 0x408C4430AA0E2511E89F8FE28979E3881A EXTCODECOPY PC 0x22 0x2B PUSH5 0x736F6C6343 STOP ADDMOD SLT STOP CALLER PUSH9 0x747470733A2F2F616E PUSH5 0x726F6D6564 PUSH2 0x2E63 PUSH20 0x2E76697267696E69612E6564752F6363632F6970 PUSH7 0x732F66696C6573 0x2F 0x4C PUSH6 0x742773206669 PUSH15 0x64206F75743A20576166666C657320 PUSH16 0x722050616E636B6165733F3F50726568 PUSH6 0x617420776166 PUSH7 0x6C652069726F6E KECCAK256 PUSH2 0x6363 PUSH16 0x7264696E6720746F206D616E75666163 PUSH21 0x75726572277320696E737472756374696F6E732E20 0x49 PUSH15 0x2061206C6172676520626F776C2C20 PUSH24 0x6869736B20666C6F75722C2073756761722C2062616B696E PUSH8 0x20706F776465722C KECCAK256 PUSH2 0x6E64 KECCAK256 PUSH20 0x616C743B20736574206173696465210000000000 "
		},
		"gasEstimates": {
			"creation": {
				"codeDepositCost": "2105000",
				"executionCost": "infinite",
				"totalCost": "infinite"
			},
			"external": {
				"addMember(address)": "infinite",
				"closeProposal(uint256)": "infinite",
				"curator()": "2580",
				"howToJoin()": "infinite",
				"isMember(address)": "infinite",
				"minProposalDebatePeriod()": "373",
				"newProposal(address,uint256,string,uint256)": "infinite",
				"nftmanager()": "2621",
				"numberOfProposals()": "2452",
				"proposals(uint256)": "infinite",
				"purpose()": "infinite",
				"requestMembership()": "infinite",
				"reservedEther()": "2474",
				"substring(string,uint256,uint256)": "infinite",
				"supportsInterface(bytes4)": "730",
				"tokens()": "2559",
				"vote(uint256,bool)": "infinite",
				"votedNo(address,uint256)": "3177",
				"votedYes(address,uint256)": "3175"
			}
		},
		"methodIdentifiers": {
			"addMember(address)": "ca6d56dc",
			"closeProposal(uint256)": "0386a016",
			"curator()": "e66f53b7",
			"howToJoin()": "c65c90cc",
			"isMember(address)": "a230c524",
			"minProposalDebatePeriod()": "d6b78768",
			"newProposal(address,uint256,string,uint256)": "2e6fb097",
			"nftmanager()": "eb38603f",
			"numberOfProposals()": "8d7af473",
			"proposals(uint256)": "013cf08b",
			"purpose()": "70740aab",
			"requestMembership()": "7b10b293",
			"reservedEther()": "237b2197",
			"substring(string,uint256,uint256)": "1dcd9b55",
			"supportsInterface(bytes4)": "01ffc9a7",
			"tokens()": "9d63848a",
			"vote(uint256,bool)": "c9d27afe",
			"votedNo(address,uint256)": "1a384287",
			"votedYes(address,uint256)": "ea3fad66"
		}
	},
	"abi": [
		{
			"inputs": [],
			"stateMutability": "nonpayable",
			"type": "constructor"
		},
		{
			"anonymous": false,
			"inputs": [
				{
					"indexed": true,
					"internalType": "uint256",
					"name": "proposalID",
					"type": "uint256"
				},
				{
					"indexed": true,
					"internalType": "address",
					"name": "recipient",
					"type": "address"
				},
				{
					"indexed": true,
					"internalType": "uint256",
					"name": "amount",
					"type": "uint256"
				},
				{
					"indexed": false,
					"internalType": "string",
					"name": "description",
					"type": "string"
				}
			],
			"name": "NewProposal",
			"type": "event"
		},
		{
			"anonymous": false,
			"inputs": [
				{
					"indexed": true,
					"internalType": "uint256",
					"name": "proposalID",
					"type": "uint256"
				},
				{
					"indexed": true,
					"internalType": "bool",
					"name": "result",
					"type": "bool"
				}
			],
			"name": "ProposalClosed",
			"type": "event"
		},
		{
			"anonymous": false,
			"inputs": [
				{
					"indexed": true,
					"internalType": "uint256",
					"name": "proposalID",
					"type": "uint256"
				},
				{
					"indexed": true,
					"internalType": "bool",
					"name": "position",
					"type": "bool"
				},
				{
					"indexed": true,
					"internalType": "address",
					"name": "voter",
					"type": "address"
				}
			],
			"name": "Voted",
			"type": "event"
		},
		{
			"inputs": [
				{
					"internalType": "address",
					"name": "who",
					"type": "address"
				}
			],
			"name": "addMember",
			"outputs": [],
			"stateMutability": "nonpayable",
			"type": "function"
		},
		{
			"inputs": [
				{
					"internalType": "uint256",
					"name": "proposalID",
					"type": "uint256"
				}
			],
			"name": "closeProposal",
			"outputs": [],
			"stateMutability": "nonpayable",
			"type": "function"
		},
		{
			"inputs": [],
			"name": "curator",
			"outputs": [
				{
					"internalType": "address",
					"name": "",
					"type": "address"
				}
			],
			"stateMutability": "view",
			"type": "function"
		},
		{
			"inputs": [],
			"name": "howToJoin",
			"outputs": [
				{
					"internalType": "string",
					"name": "",
					"type": "string"
				}
			],
			"stateMutability": "view",
			"type": "function"
		},
		{
			"inputs": [
				{
					"internalType": "address",
					"name": "who",
					"type": "address"
				}
			],
			"name": "isMember",
			"outputs": [
				{
					"internalType": "bool",
					"name": "",
					"type": "bool"
				}
			],
			"stateMutability": "view",
			"type": "function"
		},
		{
			"inputs": [],
			"name": "minProposalDebatePeriod",
			"outputs": [
				{
					"internalType": "uint256",
					"name": "",
					"type": "uint256"
				}
			],
			"stateMutability": "view",
			"type": "function"
		},
		{
			"inputs": [
				{
					"internalType": "address",
					"name": "recipient",
					"type": "address"
				},
				{
					"internalType": "uint256",
					"name": "amount",
					"type": "uint256"
				},
				{
					"internalType": "string",
					"name": "description",
					"type": "string"
				},
				{
					"internalType": "uint256",
					"name": "debatingPeriod",
					"type": "uint256"
				}
			],
			"name": "newProposal",
			"outputs": [
				{
					"internalType": "uint256",
					"name": "",
					"type": "uint256"
				}
			],
			"stateMutability": "payable",
			"type": "function"
		},
		{
			"inputs": [],
			"name": "nftmanager",
			"outputs": [
				{
					"internalType": "address",
					"name": "",
					"type": "address"
				}
			],
			"stateMutability": "view",
			"type": "function"
		},
		{
			"inputs": [],
			"name": "numberOfProposals",
			"outputs": [
				{
					"internalType": "uint256",
					"name": "",
					"type": "uint256"
				}
			],
			"stateMutability": "view",
			"type": "function"
		},
		{
			"inputs": [
				{
					"internalType": "uint256",
					"name": "",
					"type": "uint256"
				}
			],
			"name": "proposals",
			"outputs": [
				{
					"internalType": "address",
					"name": "recipient",
					"type": "address"
				},
				{
					"internalType": "uint256",
					"name": "amount",
					"type": "uint256"
				},
				{
					"internalType": "string",
					"name": "description",
					"type": "string"
				},
				{
					"internalType": "uint256",
					"name": "votingDeadline",
					"type": "uint256"
				},
				{
					"internalType": "bool",
					"name": "open",
					"type": "bool"
				},
				{
					"internalType": "bool",
					"name": "proposalPassed",
					"type": "bool"
				},
				{
					"internalType": "uint256",
					"name": "yea",
					"type": "uint256"
				},
				{
					"internalType": "uint256",
					"name": "nay",
					"type": "uint256"
				},
				{
					"internalType": "address",
					"name": "creator",
					"type": "address"
				}
			],
			"stateMutability": "view",
			"type": "function"
		},
		{
			"inputs": [],
			"name": "purpose",
			"outputs": [
				{
					"internalType": "string",
					"name": "",
					"type": "string"
				}
			],
			"stateMutability": "view",
			"type": "function"
		},
		{
			"inputs": [],
			"name": "requestMembership",
			"outputs": [],
			"stateMutability": "nonpayable",
			"type": "function"
		},
		{
			"inputs": [],
			"name": "reservedEther",
			"outputs": [
				{
					"internalType": "uint256",
					"name": "",
					"type": "uint256"
				}
			],
			"stateMutability": "view",
			"type": "function"
		},
		{
			"inputs": [
				{
					"internalType": "string",
					"name": "str",
					"type": "string"
				},
				{
					"internalType": "uint256",
					"name": "startIndex",
					"type": "uint256"
				},
				{
					"internalType": "uint256",
					"name": "endIndex",
					"type": "uint256"
				}
			],
			"name": "substring",
			"outputs": [
				{
					"internalType": "string",
					"name": "",
					"type": "string"
				}
			],
			"stateMutability": "pure",
			"type": "function"
		},
		{
			"inputs": [
				{
					"internalType": "bytes4",
					"name": "interfaceID",
					"type": "bytes4"
				}
			],
			"name": "supportsInterface",
			"outputs": [
				{
					"internalType": "bool",
					"name": "",
					"type": "bool"
				}
			],
			"stateMutability": "pure",
			"type": "function"
		},
		{
			"inputs": [],
			"name": "tokens",
			"outputs": [
				{
					"internalType": "address",
					"name": "",
					"type": "address"
				}
			],
			"stateMutability": "view",
			"type": "function"
		},
		{
			"inputs": [
				{
					"internalType": "uint256",
					"name": "proposalID",
					"type": "uint256"
				},
				{
					"internalType": "bool",
					"name": "supportsProposal",
					"type": "bool"
				}
			],
			"name": "vote",
			"outputs": [],
			"stateMutability": "nonpayable",
			"type": "function"
		},
		{
			"inputs": [
				{
					"internalType": "address",
					"name": "",
					"type": "address"
				},
				{
					"internalType": "uint256",
					"name": "",
					"type": "uint256"
				}
			],
			"name": "votedNo",
			"outputs": [
				{
					"internalType": "bool",
					"name": "",
					"type": "bool"
				}
			],
			"stateMutability": "view",
			"type": "function"
		},
		{
			"inputs": [
				{
					"internalType": "address",
					"name": "",
					"type": "address"
				},
				{
					"internalType": "uint256",
					"name": "",
					"type": "uint256"
				}
			],
			"name": "votedYes",
			"outputs": [
				{
					"internalType": "bool",
					"name": "",
					"type": "bool"
				}
			],
			"stateMutability": "view",
			"type": "function"
		},
		{
			"stateMutability": "payable",
			"type": "receive"
		}
	]
}