{
	"data": {
		"bytecode": {
			"linkReferences": {},
			"object": "608060405260008060146101000a81548160ff02191690831515021790555060008060156101000a81548160ff021916908315150217905550600060025534801561004957600080fd5b50336000806101000a81548173ffffffffffffffffffffffffffffffffffffffff021916908373ffffffffffffffffffffffffffffffffffffffff16021790555061277e806100996000396000f3fe60806040526004361061014f5760003560e01c80639c8f9f23116100b6578063ca7c4dba1161006f578063ca7c4dba146105e4578063d3c51d911461060f578063d826f88f1461064c578063e8078d9414610663578063e86dea4a1461066d578063feffe7e414610698576102a9565b80639c8f9f23146104e85780639fed4ad814610511578063a56dfe4a14610547578063add010a514610572578063b4f40c611461058e578063b7c56525146105b9576102a9565b80634b94f50e116101085780634b94f50e146103c25780634f54a081146103ed5780635dfd8773146104185780637ff879e3146104435780638d729abb1461048057806395d89b41146104bd576102a9565b806301ffc9a7146102ae5780630c55699c146102eb578063180b0d7e14610316578063276184ae146103415780632bfdf3071461036c578063313ce56714610397576102a9565b366102a95760011515600060159054906101000a900460ff161515146101aa576040517f08c379a00000000000000000000000000000000000000000000000000000000081526004016101a19061192b565b60405180910390fd5b60001515600060149054906101000a900460ff16151514610200576040517f08c379a00000000000000000000000000000000000000000000000000000000081526004016101f790611997565b60405180910390fd5b60006006549050346005600082825461021991906119f0565b925050819055506005546004546102309190611a53565b6006819055506000600654826102469190611a84565b9050600c54600b54826102599190611ab8565b6102639190611a53565b600e600082825461027491906119f0565b925050819055507f8866993f7c029be4215942b34c1545282b8f28836579f2687fe96a5a6bf7770460405160405180910390a1005b600080fd5b3480156102ba57600080fd5b506102d560048036038101906102d09190611b66565b6106c1565b6040516102e29190611bae565b60405180910390f35b3480156102f757600080fd5b506103006107fb565b60405161030d9190611bd8565b60405180910390f35b34801561032257600080fd5b5061032b610801565b6040516103389190611bd8565b60405180910390f35b34801561034d57600080fd5b50610356610807565b6040516103639190611c34565b60405180910390f35b34801561037857600080fd5b5061038161082d565b60405161038e9190611bd8565b60405180910390f35b3480156103a357600080fd5b506103ac610833565b6040516103b99190611bd8565b60405180910390f35b3480156103ce57600080fd5b506103d7610839565b6040516103e49190611bd8565b60405180910390f35b3480156103f957600080fd5b506104026108c9565b60405161040f9190611c34565b60405180910390f35b34801561042457600080fd5b5061042d6108ef565b60405161043a9190611bd8565b60405180910390f35b34801561044f57600080fd5b5061046a60048036038101906104659190611ca7565b6108f5565b6040516104779190611bae565b60405180910390f35b34801561048c57600080fd5b506104a760048036038101906104a29190611cfa565b610bb8565b6040516104b49190611bd8565b60405180910390f35b3480156104c957600080fd5b506104d2610bd0565b6040516104df9190611da6565b60405180910390f35b3480156104f457600080fd5b5061050f600480360381019061050a9190611dc8565b610c5e565b005b34801561051d57600080fd5b50610526610f1b565b60405161053e9c9b9a99989796959493929190611df5565b60405180910390f35b34801561055357600080fd5b5061055c6110b4565b6040516105699190611bd8565b60405180910390f35b61058c60048036038101906105879190611ebd565b6110ba565b005b34801561059a57600080fd5b506105a36114fe565b6040516105b09190611bd8565b60405180910390f35b3480156105c557600080fd5b506105ce611504565b6040516105db9190611bd8565b60405180910390f35b3480156105f057600080fd5b506105f96115b5565b6040516106069190611bd8565b60405180910390f35b34801561061b57600080fd5b5061063660048036038101906106319190611cfa565b61164d565b6040516106439190611bd8565b60405180910390f35b34801561065857600080fd5b50610661611665565b005b61066b61166a565b005b34801561067957600080fd5b50610682611884565b60405161068f9190611bd8565b60405180910390f35b3480156106a457600080fd5b506106bf60048036038101906106ba9190611cfa565b61188a565b005b60007f5f8d5fe4000000000000000000000000000000000000000000000000000000007bffffffffffffffffffffffffffffffffffffffffffffffffffffffff1916827bffffffffffffffffffffffffffffffffffffffffffffffffffffffff1916148061078c57507f01ffc9a7000000000000000000000000000000000000000000000000000000007bffffffffffffffffffffffffffffffffffffffffffffffffffffffff1916827bffffffffffffffffffffffffffffffffffffffffffffffffffffffff1916145b806107f457507f7ff879e3000000000000000000000000000000000000000000000000000000007bffffffffffffffffffffffffffffffffffffffffffffffffffffffff1916827bffffffffffffffffffffffffffffffffffffffffffffffffffffffff1916145b9050919050565b60055481565b600c5481565b600860009054906101000a900473ffffffffffffffffffffffffffffffffffffffff1681565b600e5481565b60015481565b60006005546006543073ffffffffffffffffffffffffffffffffffffffff1663ca7c4dba6040518163ffffffff1660e01b8152600401602060405180830381865afa15801561088c573d6000803e3d6000fd5b505050506040513d601f19601f820116820180604052508101906108b09190611f4d565b6108ba9190611ab8565b6108c49190611a53565b905090565b600760009054906101000a900473ffffffffffffffffffffffffffffffffffffffff1681565b600d5481565b600060011515600060159054906101000a900460ff1615151461094d576040517f08c379a00000000000000000000000000000000000000000000000000000000081526004016109449061192b565b60405180910390fd5b60001515600060149054906101000a900460ff161515146109a3576040517f08c379a000000000000000000000000000000000000000000000000000000000815260040161099a90611997565b60405180910390fd5b600860009054906101000a900473ffffffffffffffffffffffffffffffffffffffff1673ffffffffffffffffffffffffffffffffffffffff168273ffffffffffffffffffffffffffffffffffffffff1614610a33576040517f08c379a0000000000000000000000000000000000000000000000000000000008152600401610a2a90611fc6565b60405180910390fd5b600060055490508360066000828254610a4c91906119f0565b92505081905550600654600454610a639190611a53565b600581905550600060055482610a799190611a84565b9050600c54600b5482610a8c9190611ab8565b610a969190611a53565b600d6000828254610aa791906119f0565b9250508190555060008673ffffffffffffffffffffffffffffffffffffffff1682600c54600b54610ad89190611a53565b610ae29190611ab8565b83610aed9190611a84565b604051610af990612017565b60006040518083038185875af1925050503d8060008114610b36576040519150601f19603f3d011682016040523d82523d6000602084013e610b3b565b606091505b5050905080610b7f576040517f08c379a0000000000000000000000000000000000000000000000000000000008152600401610b7690612078565b60405180910390fd5b7f8866993f7c029be4215942b34c1545282b8f28836579f2687fe96a5a6bf7770460405160405180910390a18093505050509392505050565b600a6020528060005260406000206000915090505481565b60038054610bdd906120c7565b80601f0160208091040260200160405190810160405280929190818152602001828054610c09906120c7565b8015610c565780601f10610c2b57610100808354040283529160200191610c56565b820191906000526020600020905b815481529060010190602001808311610c3957829003601f168201915b505050505081565b600060055460065483610c719190611ab8565b610c7b9190611a53565b9050600960003373ffffffffffffffffffffffffffffffffffffffff1673ffffffffffffffffffffffffffffffffffffffff16815260200190815260200160002054821015610cff576040517f08c379a0000000000000000000000000000000000000000000000000000000008152600401610cf690612144565b60405180910390fd5b8160056000828254610d119190611a84565b925050819055508060066000828254610d2a9190611a84565b92505081905550600654600554610d419190611ab8565b6004819055506001600060146101000a81548160ff021916908315150217905550600860009054906101000a900473ffffffffffffffffffffffffffffffffffffffff1673ffffffffffffffffffffffffffffffffffffffff1663a9059cbb600860009054906101000a900473ffffffffffffffffffffffffffffffffffffffff16836040518363ffffffff1660e01b8152600401610de1929190612164565b6020604051808303816000875af1158015610e00573d6000803e3d6000fd5b505050506040513d601f19601f82011682018060405250810190610e2491906121b9565b5060008060146101000a81548160ff02191690831515021790555081600960003373ffffffffffffffffffffffffffffffffffffffff1673ffffffffffffffffffffffffffffffffffffffff1681526020019081526020016000206000828254610e8e9190611a84565b9250508190555080600a60003373ffffffffffffffffffffffffffffffffffffffff1673ffffffffffffffffffffffffffffffffffffffff1681526020019081526020016000206000828254610ee49190611a84565b925050819055507f8866993f7c029be4215942b34c1545282b8f28836579f2687fe96a5a6bf7770460405160405180910390a15050565b60006060806000806000806000806000806000306003600860009054906101000a900473ffffffffffffffffffffffffffffffffffffffff1673ffffffffffffffffffffffffffffffffffffffff166306fdde036040518163ffffffff1660e01b8152600401600060405180830381865afa158015610f9e573d6000803e3d6000fd5b505050506040513d6000823e3d601f19601f82011682018060405250810190610fc7919061230c565b600860009054906101000a900473ffffffffffffffffffffffffffffffffffffffff16600454600554600654600b54600c54600154600d54600e548a805461100e906120c7565b80601f016020809104026020016040519081016040528092919081815260200182805461103a906120c7565b80156110875780601f1061105c57610100808354040283529160200191611087565b820191906000526020600020905b81548152906001019060200180831161106a57829003601f168201915b50505050509a509b509b509b509b509b509b509b509b509b509b509b509b50909192939495969798999a9b565b60065481565b60001515600060159054906101000a900460ff16151514611110576040517f08c379a0000000000000000000000000000000000000000000000000000000008152600401611107906123a1565b60405180910390fd5b3373ffffffffffffffffffffffffffffffffffffffff1660008054906101000a900473ffffffffffffffffffffffffffffffffffffffff1673ffffffffffffffffffffffffffffffffffffffff161461119e576040517f08c379a00000000000000000000000000000000000000000000000000000000081526004016111959061240d565b60405180910390fd5b81600860006101000a81548173ffffffffffffffffffffffffffffffffffffffff021916908373ffffffffffffffffffffffffffffffffffffffff1602179055508173ffffffffffffffffffffffffffffffffffffffff1663313ce5676040518163ffffffff1660e01b8152600401602060405180830381865afa15801561122a573d6000803e3d6000fd5b505050506040513d601f19601f8201168201806040525081019061124e9190612466565b60ff16600181905550346005819055508460068190555083600b8190555082600c819055508173ffffffffffffffffffffffffffffffffffffffff166395d89b416040518163ffffffff1660e01b8152600401600060405180830381865afa1580156112be573d6000803e3d6000fd5b505050506040513d6000823e3d601f19601f820116820180604052508101906112e7919061230c565b600390816112f5919061263f565b506000600d819055506000600e819055506006546005546113169190611ab8565b600481905550600860009054906101000a900473ffffffffffffffffffffffffffffffffffffffff1673ffffffffffffffffffffffffffffffffffffffff166323b872dd3330886040518463ffffffff1660e01b815260040161137b93929190612711565b6020604051808303816000875af115801561139a573d6000803e3d6000fd5b505050506040513d601f19601f820116820180604052508101906113be91906121b9565b5080600760006101000a81548173ffffffffffffffffffffffffffffffffffffffff021916908373ffffffffffffffffffffffffffffffffffffffff160217905550600554600960003373ffffffffffffffffffffffffffffffffffffffff1673ffffffffffffffffffffffffffffffffffffffff168152602001908152602001600020600082825461145191906119f0565b92505081905550600654600a60003373ffffffffffffffffffffffffffffffffffffffff1673ffffffffffffffffffffffffffffffffffffffff16815260200190815260200160002060008282546114a991906119f0565b925050819055507f8866993f7c029be4215942b34c1545282b8f28836579f2687fe96a5a6bf7770460405160405180910390a16001600060156101000a81548160ff0219169083151502179055505050505050565b60045481565b60006002600760009054906101000a900473ffffffffffffffffffffffffffffffffffffffff1673ffffffffffffffffffffffffffffffffffffffff1663a035b1fe6040518163ffffffff1660e01b8152600401602060405180830381865afa158015611575573d6000803e3d6000fd5b505050506040513d601f19601f820116820180604052508101906115999190611f4d565b6005546115a69190611ab8565b6115b09190611ab8565b905090565b6000600760009054906101000a900473ffffffffffffffffffffffffffffffffffffffff1673ffffffffffffffffffffffffffffffffffffffff1663a035b1fe6040518163ffffffff1660e01b8152600401602060405180830381865afa158015611624573d6000803e3d6000fd5b505050506040513d601f19601f820116820180604052508101906116489190611f4d565b905090565b60096020528060005260406000206000915090505481565b600080fd5b60006005546006543461167d9190611ab8565b6116879190611a53565b9050346005600082825461169b91906119f0565b9250508190555080600660008282546116b491906119f0565b925050819055506006546005546116cb9190611ab8565b6004819055506001600060146101000a81548160ff021916908315150217905550600860009054906101000a900473ffffffffffffffffffffffffffffffffffffffff1673ffffffffffffffffffffffffffffffffffffffff166323b872dd3330846040518463ffffffff1660e01b815260040161174b93929190612711565b6020604051808303816000875af115801561176a573d6000803e3d6000fd5b505050506040513d601f19601f8201168201806040525081019061178e91906121b9565b5060008060146101000a81548160ff02191690831515021790555034600960003373ffffffffffffffffffffffffffffffffffffffff1673ffffffffffffffffffffffffffffffffffffffff16815260200190815260200160002060008282546117f891906119f0565b9250508190555080600a60003373ffffffffffffffffffffffffffffffffffffffff1673ffffffffffffffffffffffffffffffffffffffff168152602001908152602001600020600082825461184e91906119f0565b925050819055507f8866993f7c029be4215942b34c1545282b8f28836579f2687fe96a5a6bf7770460405160405180910390a150565b600b5481565b80600760006101000a81548173ffffffffffffffffffffffffffffffffffffffff021916908373ffffffffffffffffffffffffffffffffffffffff16021790555050565b600082825260208201905092915050565b7f706f6f6c206861736e2774206265656e20637265617465642079657400000000600082015250565b6000611915601c836118ce565b9150611920826118df565b602082019050919050565b6000602082019050818103600083015261194481611908565b9050919050565b7f53656c6563746976652073746f7070696e672e00000000000000000000000000600082015250565b60006119816013836118ce565b915061198c8261194b565b602082019050919050565b600060208201905081810360008301526119b081611974565b9050919050565b6000819050919050565b7f4e487b7100000000000000000000000000000000000000000000000000000000600052601160045260246000fd5b60006119fb826119b7565b9150611a06836119b7565b9250828201905080821115611a1e57611a1d6119c1565b5b92915050565b7f4e487b7100000000000000000000000000000000000000000000000000000000600052601260045260246000fd5b6000611a5e826119b7565b9150611a69836119b7565b925082611a7957611a78611a24565b5b828204905092915050565b6000611a8f826119b7565b9150611a9a836119b7565b9250828203905081811115611ab257611ab16119c1565b5b92915050565b6000611ac3826119b7565b9150611ace836119b7565b9250828202611adc816119b7565b91508282048414831517611af357611af26119c1565b5b5092915050565b6000604051905090565b600080fd5b600080fd5b60007fffffffff0000000000000000000000000000000000000000000000000000000082169050919050565b611b4381611b0e565b8114611b4e57600080fd5b50565b600081359050611b6081611b3a565b92915050565b600060208284031215611b7c57611b7b611b04565b5b6000611b8a84828501611b51565b91505092915050565b60008115159050919050565b611ba881611b93565b82525050565b6000602082019050611bc36000830184611b9f565b92915050565b611bd2816119b7565b82525050565b6000602082019050611bed6000830184611bc9565b92915050565b600073ffffffffffffffffffffffffffffffffffffffff82169050919050565b6000611c1e82611bf3565b9050919050565b611c2e81611c13565b82525050565b6000602082019050611c496000830184611c25565b92915050565b611c5881611c13565b8114611c6357600080fd5b50565b600081359050611c7581611c4f565b92915050565b611c84816119b7565b8114611c8f57600080fd5b50565b600081359050611ca181611c7b565b92915050565b600080600060608486031215611cc057611cbf611b04565b5b6000611cce86828701611c66565b9350506020611cdf86828701611c92565b9250506040611cf086828701611c66565b9150509250925092565b600060208284031215611d1057611d0f611b04565b5b6000611d1e84828501611c66565b91505092915050565b600081519050919050565b60005b83811015611d50578082015181840152602081019050611d35565b60008484015250505050565b6000601f19601f8301169050919050565b6000611d7882611d27565b611d8281856118ce565b9350611d92818560208601611d32565b611d9b81611d5c565b840191505092915050565b60006020820190508181036000830152611dc08184611d6d565b905092915050565b600060208284031215611dde57611ddd611b04565b5b6000611dec84828501611c92565b91505092915050565b600061018082019050611e0b600083018f611c25565b8181036020830152611e1d818e611d6d565b90508181036040830152611e31818d611d6d565b9050611e40606083018c611c25565b611e4d608083018b611bc9565b611e5a60a083018a611bc9565b611e6760c0830189611bc9565b611e7460e0830188611bc9565b611e82610100830187611bc9565b611e90610120830186611bc9565b611e9e610140830185611bc9565b611eac610160830184611bc9565b9d9c50505050505050505050505050565b600080600080600060a08688031215611ed957611ed8611b04565b5b6000611ee788828901611c92565b9550506020611ef888828901611c92565b9450506040611f0988828901611c92565b9350506060611f1a88828901611c66565b9250506080611f2b88828901611c66565b9150509295509295909350565b600081519050611f4781611c7b565b92915050565b600060208284031215611f6357611f62611b04565b5b6000611f7184828501611f38565b91505092915050565b7f6e6f207363616d7320746f646179000000000000000000000000000000000000600082015250565b6000611fb0600e836118ce565b9150611fbb82611f7a565b602082019050919050565b60006020820190508181036000830152611fdf81611fa3565b9050919050565b600081905092915050565b50565b6000612001600083611fe6565b915061200c82611ff1565b600082019050919050565b600061202282611ff4565b9150819050919050565b7f7061796d656e74206469646e277420776f726b00000000000000000000000000600082015250565b60006120626013836118ce565b915061206d8261202c565b602082019050919050565b6000602082019050818103600083015261209181612055565b9050919050565b7f4e487b7100000000000000000000000000000000000000000000000000000000600052602260045260246000fd5b600060028204905060018216806120df57607f821691505b6020821081036120f2576120f1612098565b5b50919050565b7f6e6f7420656e6f7567687420657468657220746f207769746864726177000000600082015250565b600061212e601d836118ce565b9150612139826120f8565b602082019050919050565b6000602082019050818103600083015261215d81612121565b9050919050565b60006040820190506121796000830185611c25565b6121866020830184611bc9565b9392505050565b61219681611b93565b81146121a157600080fd5b50565b6000815190506121b38161218d565b92915050565b6000602082840312156121cf576121ce611b04565b5b60006121dd848285016121a4565b91505092915050565b600080fd5b600080fd5b7f4e487b7100000000000000000000000000000000000000000000000000000000600052604160045260246000fd5b61222882611d5c565b810181811067ffffffffffffffff82111715612247576122466121f0565b5b80604052505050565b600061225a611afa565b9050612266828261221f565b919050565b600067ffffffffffffffff821115612286576122856121f0565b5b61228f82611d5c565b9050602081019050919050565b60006122af6122aa8461226b565b612250565b9050828152602081018484840111156122cb576122ca6121eb565b5b6122d6848285611d32565b509392505050565b600082601f8301126122f3576122f26121e6565b5b815161230384826020860161229c565b91505092915050565b60006020828403121561232257612321611b04565b5b600082015167ffffffffffffffff8111156123405761233f611b09565b5b61234c848285016122de565b91505092915050565b7f4445582063616e206f6e6c792062652063726561746564206f6e636500000000600082015250565b600061238b601c836118ce565b915061239682612355565b602082019050919050565b600060208201905081810360008301526123ba8161237e565b9050919050565b7f4f6e6c79206465706c6f7965722063616e20637265617465506f6f6c00000000600082015250565b60006123f7601c836118ce565b9150612402826123c1565b602082019050919050565b60006020820190508181036000830152612426816123ea565b9050919050565b600060ff82169050919050565b6124438161242d565b811461244e57600080fd5b50565b6000815190506124608161243a565b92915050565b60006020828403121561247c5761247b611b04565b5b600061248a84828501612451565b91505092915050565b60008190508160005260206000209050919050565b60006020601f8301049050919050565b600082821b905092915050565b6000600883026124f57fffffffffffffffffffffffffffffffffffffffffffffffffffffffffffffffff826124b8565b6124ff86836124b8565b95508019841693508086168417925050509392505050565b6000819050919050565b600061253c612537612532846119b7565b612517565b6119b7565b9050919050565b6000819050919050565b61255683612521565b61256a61256282612543565b8484546124c5565b825550505050565b600090565b61257f612572565b61258a81848461254d565b505050565b5b818110156125ae576125a3600082612577565b600181019050612590565b5050565b601f8211156125f3576125c481612493565b6125cd846124a8565b810160208510156125dc578190505b6125f06125e8856124a8565b83018261258f565b50505b505050565b600082821c905092915050565b6000612616600019846008026125f8565b1980831691505092915050565b600061262f8383612605565b9150826002028217905092915050565b61264882611d27565b67ffffffffffffffff811115612661576126606121f0565b5b61266b82546120c7565b6126768282856125b2565b600060209050601f8311600181146126a95760008415612697578287015190505b6126a18582612623565b865550612709565b601f1984166126b786612493565b60005b828110156126df578489015182556001820191506020850194506020810190506126ba565b868310156126fc57848901516126f8601f891682612605565b8355505b6001600288020188555050505b505050505050565b60006060820190506127266000830186611c25565b6127336020830185611c25565b6127406040830184611bc9565b94935050505056fea26469706673582212202b0719b71a03425a4152706b9eeb5fa5319739d56357d580021d1af2222b5e5e64736f6c63430008120033",
			"opcodes": "PUSH1 0x80 PUSH1 0x40 MSTORE PUSH1 0x0 DUP1 PUSH1 0x14 PUSH2 0x100 EXP DUP2 SLOAD DUP2 PUSH1 0xFF MUL NOT AND SWAP1 DUP4 ISZERO ISZERO MUL OR SWAP1 SSTORE POP PUSH1 0x0 DUP1 PUSH1 0x15 PUSH2 0x100 EXP DUP2 SLOAD DUP2 PUSH1 0xFF MUL NOT AND SWAP1 DUP4 ISZERO ISZERO MUL OR SWAP1 SSTORE POP PUSH1 0x0 PUSH1 0x2 SSTORE CALLVALUE DUP1 ISZERO PUSH2 0x49 JUMPI PUSH1 0x0 DUP1 REVERT JUMPDEST POP CALLER PUSH1 0x0 DUP1 PUSH2 0x100 EXP DUP2 SLOAD DUP2 PUSH20 0xFFFFFFFFFFFFFFFFFFFFFFFFFFFFFFFFFFFFFFFF MUL NOT AND SWAP1 DUP4 PUSH20 0xFFFFFFFFFFFFFFFFFFFFFFFFFFFFFFFFFFFFFFFF AND MUL OR SWAP1 SSTORE POP PUSH2 0x277E DUP1 PUSH2 0x99 PUSH1 0x0 CODECOPY PUSH1 0x0 RETURN INVALID PUSH1 0x80 PUSH1 0x40 MSTORE PUSH1 0x4 CALLDATASIZE LT PUSH2 0x14F JUMPI PUSH1 0x0 CALLDATALOAD PUSH1 0xE0 SHR DUP1 PUSH4 0x9C8F9F23 GT PUSH2 0xB6 JUMPI DUP1 PUSH4 0xCA7C4DBA GT PUSH2 0x6F JUMPI DUP1 PUSH4 0xCA7C4DBA EQ PUSH2 0x5E4 JUMPI DUP1 PUSH4 0xD3C51D91 EQ PUSH2 0x60F JUMPI DUP1 PUSH4 0xD826F88F EQ PUSH2 0x64C JUMPI DUP1 PUSH4 0xE8078D94 EQ PUSH2 0x663 JUMPI DUP1 PUSH4 0xE86DEA4A EQ PUSH2 0x66D JUMPI DUP1 PUSH4 0xFEFFE7E4 EQ PUSH2 0x698 JUMPI PUSH2 0x2A9 JUMP JUMPDEST DUP1 PUSH4 0x9C8F9F23 EQ PUSH2 0x4E8 JUMPI DUP1 PUSH4 0x9FED4AD8 EQ PUSH2 0x511 JUMPI DUP1 PUSH4 0xA56DFE4A EQ PUSH2 0x547 JUMPI DUP1 PUSH4 0xADD010A5 EQ PUSH2 0x572 JUMPI DUP1 PUSH4 0xB4F40C61 EQ PUSH2 0x58E JUMPI DUP1 PUSH4 0xB7C56525 EQ PUSH2 0x5B9 JUMPI PUSH2 0x2A9 JUMP JUMPDEST DUP1 PUSH4 0x4B94F50E GT PUSH2 0x108 JUMPI DUP1 PUSH4 0x4B94F50E EQ PUSH2 0x3C2 JUMPI DUP1 PUSH4 0x4F54A081 EQ PUSH2 0x3ED JUMPI DUP1 PUSH4 0x5DFD8773 EQ PUSH2 0x418 JUMPI DUP1 PUSH4 0x7FF879E3 EQ PUSH2 0x443 JUMPI DUP1 PUSH4 0x8D729ABB EQ PUSH2 0x480 JUMPI DUP1 PUSH4 0x95D89B41 EQ PUSH2 0x4BD JUMPI PUSH2 0x2A9 JUMP JUMPDEST DUP1 PUSH4 0x1FFC9A7 EQ PUSH2 0x2AE JUMPI DUP1 PUSH4 0xC55699C EQ PUSH2 0x2EB JUMPI DUP1 PUSH4 0x180B0D7E EQ PUSH2 0x316 JUMPI DUP1 PUSH4 0x276184AE EQ PUSH2 0x341 JUMPI DUP1 PUSH4 0x2BFDF307 EQ PUSH2 0x36C JUMPI DUP1 PUSH4 0x313CE567 EQ PUSH2 0x397 JUMPI PUSH2 0x2A9 JUMP JUMPDEST CALLDATASIZE PUSH2 0x2A9 JUMPI PUSH1 0x1 ISZERO ISZERO PUSH1 0x0 PUSH1 0x15 SWAP1 SLOAD SWAP1 PUSH2 0x100 EXP SWAP1 DIV PUSH1 0xFF AND ISZERO ISZERO EQ PUSH2 0x1AA JUMPI PUSH1 0x40 MLOAD PUSH32 0x8C379A000000000000000000000000000000000000000000000000000000000 DUP2 MSTORE PUSH1 0x4 ADD PUSH2 0x1A1 SWAP1 PUSH2 0x192B JUMP JUMPDEST PUSH1 0x40 MLOAD DUP1 SWAP2 SUB SWAP1 REVERT JUMPDEST PUSH1 0x0 ISZERO ISZERO PUSH1 0x0 PUSH1 0x14 SWAP1 SLOAD SWAP1 PUSH2 0x100 EXP SWAP1 DIV PUSH1 0xFF AND ISZERO ISZERO EQ PUSH2 0x200 JUMPI PUSH1 0x40 MLOAD PUSH32 0x8C379A000000000000000000000000000000000000000000000000000000000 DUP2 MSTORE PUSH1 0x4 ADD PUSH2 0x1F7 SWAP1 PUSH2 0x1997 JUMP JUMPDEST PUSH1 0x40 MLOAD DUP1 SWAP2 SUB SWAP1 REVERT JUMPDEST PUSH1 0x0 PUSH1 0x6 SLOAD SWAP1 POP CALLVALUE PUSH1 0x5 PUSH1 0x0 DUP3 DUP3 SLOAD PUSH2 0x219 SWAP2 SWAP1 PUSH2 0x19F0 JUMP JUMPDEST SWAP3 POP POP DUP2 SWAP1 SSTORE POP PUSH1 0x5 SLOAD PUSH1 0x4 SLOAD PUSH2 0x230 SWAP2 SWAP1 PUSH2 0x1A53 JUMP JUMPDEST PUSH1 0x6 DUP2 SWAP1 SSTORE POP PUSH1 0x0 PUSH1 0x6 SLOAD DUP3 PUSH2 0x246 SWAP2 SWAP1 PUSH2 0x1A84 JUMP JUMPDEST SWAP1 POP PUSH1 0xC SLOAD PUSH1 0xB SLOAD DUP3 PUSH2 0x259 SWAP2 SWAP1 PUSH2 0x1AB8 JUMP JUMPDEST PUSH2 0x263 SWAP2 SWAP1 PUSH2 0x1A53 JUMP JUMPDEST PUSH1 0xE PUSH1 0x0 DUP3 DUP3 SLOAD PUSH2 0x274 SWAP2 SWAP1 PUSH2 0x19F0 JUMP JUMPDEST SWAP3 POP POP DUP2 SWAP1 SSTORE POP PUSH32 0x8866993F7C029BE4215942B34C1545282B8F28836579F2687FE96A5A6BF77704 PUSH1 0x40 MLOAD PUSH1 0x40 MLOAD DUP1 SWAP2 SUB SWAP1 LOG1 STOP JUMPDEST PUSH1 0x0 DUP1 REVERT JUMPDEST CALLVALUE DUP1 ISZERO PUSH2 0x2BA JUMPI PUSH1 0x0 DUP1 REVERT JUMPDEST POP PUSH2 0x2D5 PUSH1 0x4 DUP1 CALLDATASIZE SUB DUP2 ADD SWAP1 PUSH2 0x2D0 SWAP2 SWAP1 PUSH2 0x1B66 JUMP JUMPDEST PUSH2 0x6C1 JUMP JUMPDEST PUSH1 0x40 MLOAD PUSH2 0x2E2 SWAP2 SWAP1 PUSH2 0x1BAE JUMP JUMPDEST PUSH1 0x40 MLOAD DUP1 SWAP2 SUB SWAP1 RETURN JUMPDEST CALLVALUE DUP1 ISZERO PUSH2 0x2F7 JUMPI PUSH1 0x0 DUP1 REVERT JUMPDEST POP PUSH2 0x300 PUSH2 0x7FB JUMP JUMPDEST PUSH1 0x40 MLOAD PUSH2 0x30D SWAP2 SWAP1 PUSH2 0x1BD8 JUMP JUMPDEST PUSH1 0x40 MLOAD DUP1 SWAP2 SUB SWAP1 RETURN JUMPDEST CALLVALUE DUP1 ISZERO PUSH2 0x322 JUMPI PUSH1 0x0 DUP1 REVERT JUMPDEST POP PUSH2 0x32B PUSH2 0x801 JUMP JUMPDEST PUSH1 0x40 MLOAD PUSH2 0x338 SWAP2 SWAP1 PUSH2 0x1BD8 JUMP JUMPDEST PUSH1 0x40 MLOAD DUP1 SWAP2 SUB SWAP1 RETURN JUMPDEST CALLVALUE DUP1 ISZERO PUSH2 0x34D JUMPI PUSH1 0x0 DUP1 REVERT JUMPDEST POP PUSH2 0x356 PUSH2 0x807 JUMP JUMPDEST PUSH1 0x40 MLOAD PUSH2 0x363 SWAP2 SWAP1 PUSH2 0x1C34 JUMP JUMPDEST PUSH1 0x40 MLOAD DUP1 SWAP2 SUB SWAP1 RETURN JUMPDEST CALLVALUE DUP1 ISZERO PUSH2 0x378 JUMPI PUSH1 0x0 DUP1 REVERT JUMPDEST POP PUSH2 0x381 PUSH2 0x82D JUMP JUMPDEST PUSH1 0x40 MLOAD PUSH2 0x38E SWAP2 SWAP1 PUSH2 0x1BD8 JUMP JUMPDEST PUSH1 0x40 MLOAD DUP1 SWAP2 SUB SWAP1 RETURN JUMPDEST CALLVALUE DUP1 ISZERO PUSH2 0x3A3 JUMPI PUSH1 0x0 DUP1 REVERT JUMPDEST POP PUSH2 0x3AC PUSH2 0x833 JUMP JUMPDEST PUSH1 0x40 MLOAD PUSH2 0x3B9 SWAP2 SWAP1 PUSH2 0x1BD8 JUMP JUMPDEST PUSH1 0x40 MLOAD DUP1 SWAP2 SUB SWAP1 RETURN JUMPDEST CALLVALUE DUP1 ISZERO PUSH2 0x3CE JUMPI PUSH1 0x0 DUP1 REVERT JUMPDEST POP PUSH2 0x3D7 PUSH2 0x839 JUMP JUMPDEST PUSH1 0x40 MLOAD PUSH2 0x3E4 SWAP2 SWAP1 PUSH2 0x1BD8 JUMP JUMPDEST PUSH1 0x40 MLOAD DUP1 SWAP2 SUB SWAP1 RETURN JUMPDEST CALLVALUE DUP1 ISZERO PUSH2 0x3F9 JUMPI PUSH1 0x0 DUP1 REVERT JUMPDEST POP PUSH2 0x402 PUSH2 0x8C9 JUMP JUMPDEST PUSH1 0x40 MLOAD PUSH2 0x40F SWAP2 SWAP1 PUSH2 0x1C34 JUMP JUMPDEST PUSH1 0x40 MLOAD DUP1 SWAP2 SUB SWAP1 RETURN JUMPDEST CALLVALUE DUP1 ISZERO PUSH2 0x424 JUMPI PUSH1 0x0 DUP1 REVERT JUMPDEST POP PUSH2 0x42D PUSH2 0x8EF JUMP JUMPDEST PUSH1 0x40 MLOAD PUSH2 0x43A SWAP2 SWAP1 PUSH2 0x1BD8 JUMP JUMPDEST PUSH1 0x40 MLOAD DUP1 SWAP2 SUB SWAP1 RETURN JUMPDEST CALLVALUE DUP1 ISZERO PUSH2 0x44F JUMPI PUSH1 0x0 DUP1 REVERT JUMPDEST POP PUSH2 0x46A PUSH1 0x4 DUP1 CALLDATASIZE SUB DUP2 ADD SWAP1 PUSH2 0x465 SWAP2 SWAP1 PUSH2 0x1CA7 JUMP JUMPDEST PUSH2 0x8F5 JUMP JUMPDEST PUSH1 0x40 MLOAD PUSH2 0x477 SWAP2 SWAP1 PUSH2 0x1BAE JUMP JUMPDEST PUSH1 0x40 MLOAD DUP1 SWAP2 SUB SWAP1 RETURN JUMPDEST CALLVALUE DUP1 ISZERO PUSH2 0x48C JUMPI PUSH1 0x0 DUP1 REVERT JUMPDEST POP PUSH2 0x4A7 PUSH1 0x4 DUP1 CALLDATASIZE SUB DUP2 ADD SWAP1 PUSH2 0x4A2 SWAP2 SWAP1 PUSH2 0x1CFA JUMP JUMPDEST PUSH2 0xBB8 JUMP JUMPDEST PUSH1 0x40 MLOAD PUSH2 0x4B4 SWAP2 SWAP1 PUSH2 0x1BD8 JUMP JUMPDEST PUSH1 0x40 MLOAD DUP1 SWAP2 SUB SWAP1 RETURN JUMPDEST CALLVALUE DUP1 ISZERO PUSH2 0x4C9 JUMPI PUSH1 0x0 DUP1 REVERT JUMPDEST POP PUSH2 0x4D2 PUSH2 0xBD0 JUMP JUMPDEST PUSH1 0x40 MLOAD PUSH2 0x4DF SWAP2 SWAP1 PUSH2 0x1DA6 JUMP JUMPDEST PUSH1 0x40 MLOAD DUP1 SWAP2 SUB SWAP1 RETURN JUMPDEST CALLVALUE DUP1 ISZERO PUSH2 0x4F4 JUMPI PUSH1 0x0 DUP1 REVERT JUMPDEST POP PUSH2 0x50F PUSH1 0x4 DUP1 CALLDATASIZE SUB DUP2 ADD SWAP1 PUSH2 0x50A SWAP2 SWAP1 PUSH2 0x1DC8 JUMP JUMPDEST PUSH2 0xC5E JUMP JUMPDEST STOP JUMPDEST CALLVALUE DUP1 ISZERO PUSH2 0x51D JUMPI PUSH1 0x0 DUP1 REVERT JUMPDEST POP PUSH2 0x526 PUSH2 0xF1B JUMP JUMPDEST PUSH1 0x40 MLOAD PUSH2 0x53E SWAP13 SWAP12 SWAP11 SWAP10 SWAP9 SWAP8 SWAP7 SWAP6 SWAP5 SWAP4 SWAP3 SWAP2 SWAP1 PUSH2 0x1DF5 JUMP JUMPDEST PUSH1 0x40 MLOAD DUP1 SWAP2 SUB SWAP1 RETURN JUMPDEST CALLVALUE DUP1 ISZERO PUSH2 0x553 JUMPI PUSH1 0x0 DUP1 REVERT JUMPDEST POP PUSH2 0x55C PUSH2 0x10B4 JUMP JUMPDEST PUSH1 0x40 MLOAD PUSH2 0x569 SWAP2 SWAP1 PUSH2 0x1BD8 JUMP JUMPDEST PUSH1 0x40 MLOAD DUP1 SWAP2 SUB SWAP1 RETURN JUMPDEST PUSH2 0x58C PUSH1 0x4 DUP1 CALLDATASIZE SUB DUP2 ADD SWAP1 PUSH2 0x587 SWAP2 SWAP1 PUSH2 0x1EBD JUMP JUMPDEST PUSH2 0x10BA JUMP JUMPDEST STOP JUMPDEST CALLVALUE DUP1 ISZERO PUSH2 0x59A JUMPI PUSH1 0x0 DUP1 REVERT JUMPDEST POP PUSH2 0x5A3 PUSH2 0x14FE JUMP JUMPDEST PUSH1 0x40 MLOAD PUSH2 0x5B0 SWAP2 SWAP1 PUSH2 0x1BD8 JUMP JUMPDEST PUSH1 0x40 MLOAD DUP1 SWAP2 SUB SWAP1 RETURN JUMPDEST CALLVALUE DUP1 ISZERO PUSH2 0x5C5 JUMPI PUSH1 0x0 DUP1 REVERT JUMPDEST POP PUSH2 0x5CE PUSH2 0x1504 JUMP JUMPDEST PUSH1 0x40 MLOAD PUSH2 0x5DB SWAP2 SWAP1 PUSH2 0x1BD8 JUMP JUMPDEST PUSH1 0x40 MLOAD DUP1 SWAP2 SUB SWAP1 RETURN JUMPDEST CALLVALUE DUP1 ISZERO PUSH2 0x5F0 JUMPI PUSH1 0x0 DUP1 REVERT JUMPDEST POP PUSH2 0x5F9 PUSH2 0x15B5 JUMP JUMPDEST PUSH1 0x40 MLOAD PUSH2 0x606 SWAP2 SWAP1 PUSH2 0x1BD8 JUMP JUMPDEST PUSH1 0x40 MLOAD DUP1 SWAP2 SUB SWAP1 RETURN JUMPDEST CALLVALUE DUP1 ISZERO PUSH2 0x61B JUMPI PUSH1 0x0 DUP1 REVERT JUMPDEST POP PUSH2 0x636 PUSH1 0x4 DUP1 CALLDATASIZE SUB DUP2 ADD SWAP1 PUSH2 0x631 SWAP2 SWAP1 PUSH2 0x1CFA JUMP JUMPDEST PUSH2 0x164D JUMP JUMPDEST PUSH1 0x40 MLOAD PUSH2 0x643 SWAP2 SWAP1 PUSH2 0x1BD8 JUMP JUMPDEST PUSH1 0x40 MLOAD DUP1 SWAP2 SUB SWAP1 RETURN JUMPDEST CALLVALUE DUP1 ISZERO PUSH2 0x658 JUMPI PUSH1 0x0 DUP1 REVERT JUMPDEST POP PUSH2 0x661 PUSH2 0x1665 JUMP JUMPDEST STOP JUMPDEST PUSH2 0x66B PUSH2 0x166A JUMP JUMPDEST STOP JUMPDEST CALLVALUE DUP1 ISZERO PUSH2 0x679 JUMPI PUSH1 0x0 DUP1 REVERT JUMPDEST POP PUSH2 0x682 PUSH2 0x1884 JUMP JUMPDEST PUSH1 0x40 MLOAD PUSH2 0x68F SWAP2 SWAP1 PUSH2 0x1BD8 JUMP JUMPDEST PUSH1 0x40 MLOAD DUP1 SWAP2 SUB SWAP1 RETURN JUMPDEST CALLVALUE DUP1 ISZERO PUSH2 0x6A4 JUMPI PUSH1 0x0 DUP1 REVERT JUMPDEST POP PUSH2 0x6BF PUSH1 0x4 DUP1 CALLDATASIZE SUB DUP2 ADD SWAP1 PUSH2 0x6BA SWAP2 SWAP1 PUSH2 0x1CFA JUMP JUMPDEST PUSH2 0x188A JUMP JUMPDEST STOP JUMPDEST PUSH1 0x0 PUSH32 0x5F8D5FE400000000000000000000000000000000000000000000000000000000 PUSH28 0xFFFFFFFFFFFFFFFFFFFFFFFFFFFFFFFFFFFFFFFFFFFFFFFFFFFFFFFF NOT AND DUP3 PUSH28 0xFFFFFFFFFFFFFFFFFFFFFFFFFFFFFFFFFFFFFFFFFFFFFFFFFFFFFFFF NOT AND EQ DUP1 PUSH2 0x78C JUMPI POP PUSH32 0x1FFC9A700000000000000000000000000000000000000000000000000000000 PUSH28 0xFFFFFFFFFFFFFFFFFFFFFFFFFFFFFFFFFFFFFFFFFFFFFFFFFFFFFFFF NOT AND DUP3 PUSH28 0xFFFFFFFFFFFFFFFFFFFFFFFFFFFFFFFFFFFFFFFFFFFFFFFFFFFFFFFF NOT AND EQ JUMPDEST DUP1 PUSH2 0x7F4 JUMPI POP PUSH32 0x7FF879E300000000000000000000000000000000000000000000000000000000 PUSH28 0xFFFFFFFFFFFFFFFFFFFFFFFFFFFFFFFFFFFFFFFFFFFFFFFFFFFFFFFF NOT AND DUP3 PUSH28 0xFFFFFFFFFFFFFFFFFFFFFFFFFFFFFFFFFFFFFFFFFFFFFFFFFFFFFFFF NOT AND EQ JUMPDEST SWAP1 POP SWAP2 SWAP1 POP JUMP JUMPDEST PUSH1 0x5 SLOAD DUP2 JUMP JUMPDEST PUSH1 0xC SLOAD DUP2 JUMP JUMPDEST PUSH1 0x8 PUSH1 0x0 SWAP1 SLOAD SWAP1 PUSH2 0x100 EXP SWAP1 DIV PUSH20 0xFFFFFFFFFFFFFFFFFFFFFFFFFFFFFFFFFFFFFFFF AND DUP2 JUMP JUMPDEST PUSH1 0xE SLOAD DUP2 JUMP JUMPDEST PUSH1 0x1 SLOAD DUP2 JUMP JUMPDEST PUSH1 0x0 PUSH1 0x5 SLOAD PUSH1 0x6 SLOAD ADDRESS PUSH20 0xFFFFFFFFFFFFFFFFFFFFFFFFFFFFFFFFFFFFFFFF AND PUSH4 0xCA7C4DBA PUSH1 0x40 MLOAD DUP2 PUSH4 0xFFFFFFFF AND PUSH1 0xE0 SHL DUP2 MSTORE PUSH1 0x4 ADD PUSH1 0x20 PUSH1 0x40 MLOAD DUP1 DUP4 SUB DUP2 DUP7 GAS STATICCALL ISZERO DUP1 ISZERO PUSH2 0x88C JUMPI RETURNDATASIZE PUSH1 0x0 DUP1 RETURNDATACOPY RETURNDATASIZE PUSH1 0x0 REVERT JUMPDEST POP POP POP POP PUSH1 0x40 MLOAD RETURNDATASIZE PUSH1 0x1F NOT PUSH1 0x1F DUP3 ADD AND DUP3 ADD DUP1 PUSH1 0x40 MSTORE POP DUP2 ADD SWAP1 PUSH2 0x8B0 SWAP2 SWAP1 PUSH2 0x1F4D JUMP JUMPDEST PUSH2 0x8BA SWAP2 SWAP1 PUSH2 0x1AB8 JUMP JUMPDEST PUSH2 0x8C4 SWAP2 SWAP1 PUSH2 0x1A53 JUMP JUMPDEST SWAP1 POP SWAP1 JUMP JUMPDEST PUSH1 0x7 PUSH1 0x0 SWAP1 SLOAD SWAP1 PUSH2 0x100 EXP SWAP1 DIV PUSH20 0xFFFFFFFFFFFFFFFFFFFFFFFFFFFFFFFFFFFFFFFF AND DUP2 JUMP JUMPDEST PUSH1 0xD SLOAD DUP2 JUMP JUMPDEST PUSH1 0x0 PUSH1 0x1 ISZERO ISZERO PUSH1 0x0 PUSH1 0x15 SWAP1 SLOAD SWAP1 PUSH2 0x100 EXP SWAP1 DIV PUSH1 0xFF AND ISZERO ISZERO EQ PUSH2 0x94D JUMPI PUSH1 0x40 MLOAD PUSH32 0x8C379A000000000000000000000000000000000000000000000000000000000 DUP2 MSTORE PUSH1 0x4 ADD PUSH2 0x944 SWAP1 PUSH2 0x192B JUMP JUMPDEST PUSH1 0x40 MLOAD DUP1 SWAP2 SUB SWAP1 REVERT JUMPDEST PUSH1 0x0 ISZERO ISZERO PUSH1 0x0 PUSH1 0x14 SWAP1 SLOAD SWAP1 PUSH2 0x100 EXP SWAP1 DIV PUSH1 0xFF AND ISZERO ISZERO EQ PUSH2 0x9A3 JUMPI PUSH1 0x40 MLOAD PUSH32 0x8C379A000000000000000000000000000000000000000000000000000000000 DUP2 MSTORE PUSH1 0x4 ADD PUSH2 0x99A SWAP1 PUSH2 0x1997 JUMP JUMPDEST PUSH1 0x40 MLOAD DUP1 SWAP2 SUB SWAP1 REVERT JUMPDEST PUSH1 0x8 PUSH1 0x0 SWAP1 SLOAD SWAP1 PUSH2 0x100 EXP SWAP1 DIV PUSH20 0xFFFFFFFFFFFFFFFFFFFFFFFFFFFFFFFFFFFFFFFF AND PUSH20 0xFFFFFFFFFFFFFFFFFFFFFFFFFFFFFFFFFFFFFFFF AND DUP3 PUSH20 0xFFFFFFFFFFFFFFFFFFFFFFFFFFFFFFFFFFFFFFFF AND EQ PUSH2 0xA33 JUMPI PUSH1 0x40 MLOAD PUSH32 0x8C379A000000000000000000000000000000000000000000000000000000000 DUP2 MSTORE PUSH1 0x4 ADD PUSH2 0xA2A SWAP1 PUSH2 0x1FC6 JUMP JUMPDEST PUSH1 0x40 MLOAD DUP1 SWAP2 SUB SWAP1 REVERT JUMPDEST PUSH1 0x0 PUSH1 0x5 SLOAD SWAP1 POP DUP4 PUSH1 0x6 PUSH1 0x0 DUP3 DUP3 SLOAD PUSH2 0xA4C SWAP2 SWAP1 PUSH2 0x19F0 JUMP JUMPDEST SWAP3 POP POP DUP2 SWAP1 SSTORE POP PUSH1 0x6 SLOAD PUSH1 0x4 SLOAD PUSH2 0xA63 SWAP2 SWAP1 PUSH2 0x1A53 JUMP JUMPDEST PUSH1 0x5 DUP2 SWAP1 SSTORE POP PUSH1 0x0 PUSH1 0x5 SLOAD DUP3 PUSH2 0xA79 SWAP2 SWAP1 PUSH2 0x1A84 JUMP JUMPDEST SWAP1 POP PUSH1 0xC SLOAD PUSH1 0xB SLOAD DUP3 PUSH2 0xA8C SWAP2 SWAP1 PUSH2 0x1AB8 JUMP JUMPDEST PUSH2 0xA96 SWAP2 SWAP1 PUSH2 0x1A53 JUMP JUMPDEST PUSH1 0xD PUSH1 0x0 DUP3 DUP3 SLOAD PUSH2 0xAA7 SWAP2 SWAP1 PUSH2 0x19F0 JUMP JUMPDEST SWAP3 POP POP DUP2 SWAP1 SSTORE POP PUSH1 0x0 DUP7 PUSH20 0xFFFFFFFFFFFFFFFFFFFFFFFFFFFFFFFFFFFFFFFF AND DUP3 PUSH1 0xC SLOAD PUSH1 0xB SLOAD PUSH2 0xAD8 SWAP2 SWAP1 PUSH2 0x1A53 JUMP JUMPDEST PUSH2 0xAE2 SWAP2 SWAP1 PUSH2 0x1AB8 JUMP JUMPDEST DUP4 PUSH2 0xAED SWAP2 SWAP1 PUSH2 0x1A84 JUMP JUMPDEST PUSH1 0x40 MLOAD PUSH2 0xAF9 SWAP1 PUSH2 0x2017 JUMP JUMPDEST PUSH1 0x0 PUSH1 0x40 MLOAD DUP1 DUP4 SUB DUP2 DUP6 DUP8 GAS CALL SWAP3 POP POP POP RETURNDATASIZE DUP1 PUSH1 0x0 DUP2 EQ PUSH2 0xB36 JUMPI PUSH1 0x40 MLOAD SWAP2 POP PUSH1 0x1F NOT PUSH1 0x3F RETURNDATASIZE ADD AND DUP3 ADD PUSH1 0x40 MSTORE RETURNDATASIZE DUP3 MSTORE RETURNDATASIZE PUSH1 0x0 PUSH1 0x20 DUP5 ADD RETURNDATACOPY PUSH2 0xB3B JUMP JUMPDEST PUSH1 0x60 SWAP2 POP JUMPDEST POP POP SWAP1 POP DUP1 PUSH2 0xB7F JUMPI PUSH1 0x40 MLOAD PUSH32 0x8C379A000000000000000000000000000000000000000000000000000000000 DUP2 MSTORE PUSH1 0x4 ADD PUSH2 0xB76 SWAP1 PUSH2 0x2078 JUMP JUMPDEST PUSH1 0x40 MLOAD DUP1 SWAP2 SUB SWAP1 REVERT JUMPDEST PUSH32 0x8866993F7C029BE4215942B34C1545282B8F28836579F2687FE96A5A6BF77704 PUSH1 0x40 MLOAD PUSH1 0x40 MLOAD DUP1 SWAP2 SUB SWAP1 LOG1 DUP1 SWAP4 POP POP POP POP SWAP4 SWAP3 POP POP POP JUMP JUMPDEST PUSH1 0xA PUSH1 0x20 MSTORE DUP1 PUSH1 0x0 MSTORE PUSH1 0x40 PUSH1 0x0 KECCAK256 PUSH1 0x0 SWAP2 POP SWAP1 POP SLOAD DUP2 JUMP JUMPDEST PUSH1 0x3 DUP1 SLOAD PUSH2 0xBDD SWAP1 PUSH2 0x20C7 JUMP JUMPDEST DUP1 PUSH1 0x1F ADD PUSH1 0x20 DUP1 SWAP2 DIV MUL PUSH1 0x20 ADD PUSH1 0x40 MLOAD SWAP1 DUP2 ADD PUSH1 0x40 MSTORE DUP1 SWAP3 SWAP2 SWAP1 DUP2 DUP2 MSTORE PUSH1 0x20 ADD DUP3 DUP1 SLOAD PUSH2 0xC09 SWAP1 PUSH2 0x20C7 JUMP JUMPDEST DUP1 ISZERO PUSH2 0xC56 JUMPI DUP1 PUSH1 0x1F LT PUSH2 0xC2B JUMPI PUSH2 0x100 DUP1 DUP4 SLOAD DIV MUL DUP4 MSTORE SWAP2 PUSH1 0x20 ADD SWAP2 PUSH2 0xC56 JUMP JUMPDEST DUP3 ADD SWAP2 SWAP1 PUSH1 0x0 MSTORE PUSH1 0x20 PUSH1 0x0 KECCAK256 SWAP1 JUMPDEST DUP2 SLOAD DUP2 MSTORE SWAP1 PUSH1 0x1 ADD SWAP1 PUSH1 0x20 ADD DUP1 DUP4 GT PUSH2 0xC39 JUMPI DUP3 SWAP1 SUB PUSH1 0x1F AND DUP3 ADD SWAP2 JUMPDEST POP POP POP POP POP DUP2 JUMP JUMPDEST PUSH1 0x0 PUSH1 0x5 SLOAD PUSH1 0x6 SLOAD DUP4 PUSH2 0xC71 SWAP2 SWAP1 PUSH2 0x1AB8 JUMP JUMPDEST PUSH2 0xC7B SWAP2 SWAP1 PUSH2 0x1A53 JUMP JUMPDEST SWAP1 POP PUSH1 0x9 PUSH1 0x0 CALLER PUSH20 0xFFFFFFFFFFFFFFFFFFFFFFFFFFFFFFFFFFFFFFFF AND PUSH20 0xFFFFFFFFFFFFFFFFFFFFFFFFFFFFFFFFFFFFFFFF AND DUP2 MSTORE PUSH1 0x20 ADD SWAP1 DUP2 MSTORE PUSH1 0x20 ADD PUSH1 0x0 KECCAK256 SLOAD DUP3 LT ISZERO PUSH2 0xCFF JUMPI PUSH1 0x40 MLOAD PUSH32 0x8C379A000000000000000000000000000000000000000000000000000000000 DUP2 MSTORE PUSH1 0x4 ADD PUSH2 0xCF6 SWAP1 PUSH2 0x2144 JUMP JUMPDEST PUSH1 0x40 MLOAD DUP1 SWAP2 SUB SWAP1 REVERT JUMPDEST DUP2 PUSH1 0x5 PUSH1 0x0 DUP3 DUP3 SLOAD PUSH2 0xD11 SWAP2 SWAP1 PUSH2 0x1A84 JUMP JUMPDEST SWAP3 POP POP DUP2 SWAP1 SSTORE POP DUP1 PUSH1 0x6 PUSH1 0x0 DUP3 DUP3 SLOAD PUSH2 0xD2A SWAP2 SWAP1 PUSH2 0x1A84 JUMP JUMPDEST SWAP3 POP POP DUP2 SWAP1 SSTORE POP PUSH1 0x6 SLOAD PUSH1 0x5 SLOAD PUSH2 0xD41 SWAP2 SWAP1 PUSH2 0x1AB8 JUMP JUMPDEST PUSH1 0x4 DUP2 SWAP1 SSTORE POP PUSH1 0x1 PUSH1 0x0 PUSH1 0x14 PUSH2 0x100 EXP DUP2 SLOAD DUP2 PUSH1 0xFF MUL NOT AND SWAP1 DUP4 ISZERO ISZERO MUL OR SWAP1 SSTORE POP PUSH1 0x8 PUSH1 0x0 SWAP1 SLOAD SWAP1 PUSH2 0x100 EXP SWAP1 DIV PUSH20 0xFFFFFFFFFFFFFFFFFFFFFFFFFFFFFFFFFFFFFFFF AND PUSH20 0xFFFFFFFFFFFFFFFFFFFFFFFFFFFFFFFFFFFFFFFF AND PUSH4 0xA9059CBB PUSH1 0x8 PUSH1 0x0 SWAP1 SLOAD SWAP1 PUSH2 0x100 EXP SWAP1 DIV PUSH20 0xFFFFFFFFFFFFFFFFFFFFFFFFFFFFFFFFFFFFFFFF AND DUP4 PUSH1 0x40 MLOAD DUP4 PUSH4 0xFFFFFFFF AND PUSH1 0xE0 SHL DUP2 MSTORE PUSH1 0x4 ADD PUSH2 0xDE1 SWAP3 SWAP2 SWAP1 PUSH2 0x2164 JUMP JUMPDEST PUSH1 0x20 PUSH1 0x40 MLOAD DUP1 DUP4 SUB DUP2 PUSH1 0x0 DUP8 GAS CALL ISZERO DUP1 ISZERO PUSH2 0xE00 JUMPI RETURNDATASIZE PUSH1 0x0 DUP1 RETURNDATACOPY RETURNDATASIZE PUSH1 0x0 REVERT JUMPDEST POP POP POP POP PUSH1 0x40 MLOAD RETURNDATASIZE PUSH1 0x1F NOT PUSH1 0x1F DUP3 ADD AND DUP3 ADD DUP1 PUSH1 0x40 MSTORE POP DUP2 ADD SWAP1 PUSH2 0xE24 SWAP2 SWAP1 PUSH2 0x21B9 JUMP JUMPDEST POP PUSH1 0x0 DUP1 PUSH1 0x14 PUSH2 0x100 EXP DUP2 SLOAD DUP2 PUSH1 0xFF MUL NOT AND SWAP1 DUP4 ISZERO ISZERO MUL OR SWAP1 SSTORE POP DUP2 PUSH1 0x9 PUSH1 0x0 CALLER PUSH20 0xFFFFFFFFFFFFFFFFFFFFFFFFFFFFFFFFFFFFFFFF AND PUSH20 0xFFFFFFFFFFFFFFFFFFFFFFFFFFFFFFFFFFFFFFFF AND DUP2 MSTORE PUSH1 0x20 ADD SWAP1 DUP2 MSTORE PUSH1 0x20 ADD PUSH1 0x0 KECCAK256 PUSH1 0x0 DUP3 DUP3 SLOAD PUSH2 0xE8E SWAP2 SWAP1 PUSH2 0x1A84 JUMP JUMPDEST SWAP3 POP POP DUP2 SWAP1 SSTORE POP DUP1 PUSH1 0xA PUSH1 0x0 CALLER PUSH20 0xFFFFFFFFFFFFFFFFFFFFFFFFFFFFFFFFFFFFFFFF AND PUSH20 0xFFFFFFFFFFFFFFFFFFFFFFFFFFFFFFFFFFFFFFFF AND DUP2 MSTORE PUSH1 0x20 ADD SWAP1 DUP2 MSTORE PUSH1 0x20 ADD PUSH1 0x0 KECCAK256 PUSH1 0x0 DUP3 DUP3 SLOAD PUSH2 0xEE4 SWAP2 SWAP1 PUSH2 0x1A84 JUMP JUMPDEST SWAP3 POP POP DUP2 SWAP1 SSTORE POP PUSH32 0x8866993F7C029BE4215942B34C1545282B8F28836579F2687FE96A5A6BF77704 PUSH1 0x40 MLOAD PUSH1 0x40 MLOAD DUP1 SWAP2 SUB SWAP1 LOG1 POP POP JUMP JUMPDEST PUSH1 0x0 PUSH1 0x60 DUP1 PUSH1 0x0 DUP1 PUSH1 0x0 DUP1 PUSH1 0x0 DUP1 PUSH1 0x0 DUP1 PUSH1 0x0 ADDRESS PUSH1 0x3 PUSH1 0x8 PUSH1 0x0 SWAP1 SLOAD SWAP1 PUSH2 0x100 EXP SWAP1 DIV PUSH20 0xFFFFFFFFFFFFFFFFFFFFFFFFFFFFFFFFFFFFFFFF AND PUSH20 0xFFFFFFFFFFFFFFFFFFFFFFFFFFFFFFFFFFFFFFFF AND PUSH4 0x6FDDE03 PUSH1 0x40 MLOAD DUP2 PUSH4 0xFFFFFFFF AND PUSH1 0xE0 SHL DUP2 MSTORE PUSH1 0x4 ADD PUSH1 0x0 PUSH1 0x40 MLOAD DUP1 DUP4 SUB DUP2 DUP7 GAS STATICCALL ISZERO DUP1 ISZERO PUSH2 0xF9E JUMPI RETURNDATASIZE PUSH1 0x0 DUP1 RETURNDATACOPY RETURNDATASIZE PUSH1 0x0 REVERT JUMPDEST POP POP POP POP PUSH1 0x40 MLOAD RETURNDATASIZE PUSH1 0x0 DUP3 RETURNDATACOPY RETURNDATASIZE PUSH1 0x1F NOT PUSH1 0x1F DUP3 ADD AND DUP3 ADD DUP1 PUSH1 0x40 MSTORE POP DUP2 ADD SWAP1 PUSH2 0xFC7 SWAP2 SWAP1 PUSH2 0x230C JUMP JUMPDEST PUSH1 0x8 PUSH1 0x0 SWAP1 SLOAD SWAP1 PUSH2 0x100 EXP SWAP1 DIV PUSH20 0xFFFFFFFFFFFFFFFFFFFFFFFFFFFFFFFFFFFFFFFF AND PUSH1 0x4 SLOAD PUSH1 0x5 SLOAD PUSH1 0x6 SLOAD PUSH1 0xB SLOAD PUSH1 0xC SLOAD PUSH1 0x1 SLOAD PUSH1 0xD SLOAD PUSH1 0xE SLOAD DUP11 DUP1 SLOAD PUSH2 0x100E SWAP1 PUSH2 0x20C7 JUMP JUMPDEST DUP1 PUSH1 0x1F ADD PUSH1 0x20 DUP1 SWAP2 DIV MUL PUSH1 0x20 ADD PUSH1 0x40 MLOAD SWAP1 DUP2 ADD PUSH1 0x40 MSTORE DUP1 SWAP3 SWAP2 SWAP1 DUP2 DUP2 MSTORE PUSH1 0x20 ADD DUP3 DUP1 SLOAD PUSH2 0x103A SWAP1 PUSH2 0x20C7 JUMP JUMPDEST DUP1 ISZERO PUSH2 0x1087 JUMPI DUP1 PUSH1 0x1F LT PUSH2 0x105C JUMPI PUSH2 0x100 DUP1 DUP4 SLOAD DIV MUL DUP4 MSTORE SWAP2 PUSH1 0x20 ADD SWAP2 PUSH2 0x1087 JUMP JUMPDEST DUP3 ADD SWAP2 SWAP1 PUSH1 0x0 MSTORE PUSH1 0x20 PUSH1 0x0 KECCAK256 SWAP1 JUMPDEST DUP2 SLOAD DUP2 MSTORE SWAP1 PUSH1 0x1 ADD SWAP1 PUSH1 0x20 ADD DUP1 DUP4 GT PUSH2 0x106A JUMPI DUP3 SWAP1 SUB PUSH1 0x1F AND DUP3 ADD SWAP2 JUMPDEST POP POP POP POP POP SWAP11 POP SWAP12 POP SWAP12 POP SWAP12 POP SWAP12 POP SWAP12 POP SWAP12 POP SWAP12 POP SWAP12 POP SWAP12 POP SWAP12 POP SWAP12 POP SWAP12 POP SWAP1 SWAP2 SWAP3 SWAP4 SWAP5 SWAP6 SWAP7 SWAP8 SWAP9 SWAP10 SWAP11 SWAP12 JUMP JUMPDEST PUSH1 0x6 SLOAD DUP2 JUMP JUMPDEST PUSH1 0x0 ISZERO ISZERO PUSH1 0x0 PUSH1 0x15 SWAP1 SLOAD SWAP1 PUSH2 0x100 EXP SWAP1 DIV PUSH1 0xFF AND ISZERO ISZERO EQ PUSH2 0x1110 JUMPI PUSH1 0x40 MLOAD PUSH32 0x8C379A000000000000000000000000000000000000000000000000000000000 DUP2 MSTORE PUSH1 0x4 ADD PUSH2 0x1107 SWAP1 PUSH2 0x23A1 JUMP JUMPDEST PUSH1 0x40 MLOAD DUP1 SWAP2 SUB SWAP1 REVERT JUMPDEST CALLER PUSH20 0xFFFFFFFFFFFFFFFFFFFFFFFFFFFFFFFFFFFFFFFF AND PUSH1 0x0 DUP1 SLOAD SWAP1 PUSH2 0x100 EXP SWAP1 DIV PUSH20 0xFFFFFFFFFFFFFFFFFFFFFFFFFFFFFFFFFFFFFFFF AND PUSH20 0xFFFFFFFFFFFFFFFFFFFFFFFFFFFFFFFFFFFFFFFF AND EQ PUSH2 0x119E JUMPI PUSH1 0x40 MLOAD PUSH32 0x8C379A000000000000000000000000000000000000000000000000000000000 DUP2 MSTORE PUSH1 0x4 ADD PUSH2 0x1195 SWAP1 PUSH2 0x240D JUMP JUMPDEST PUSH1 0x40 MLOAD DUP1 SWAP2 SUB SWAP1 REVERT JUMPDEST DUP2 PUSH1 0x8 PUSH1 0x0 PUSH2 0x100 EXP DUP2 SLOAD DUP2 PUSH20 0xFFFFFFFFFFFFFFFFFFFFFFFFFFFFFFFFFFFFFFFF MUL NOT AND SWAP1 DUP4 PUSH20 0xFFFFFFFFFFFFFFFFFFFFFFFFFFFFFFFFFFFFFFFF AND MUL OR SWAP1 SSTORE POP DUP2 PUSH20 0xFFFFFFFFFFFFFFFFFFFFFFFFFFFFFFFFFFFFFFFF AND PUSH4 0x313CE567 PUSH1 0x40 MLOAD DUP2 PUSH4 0xFFFFFFFF AND PUSH1 0xE0 SHL DUP2 MSTORE PUSH1 0x4 ADD PUSH1 0x20 PUSH1 0x40 MLOAD DUP1 DUP4 SUB DUP2 DUP7 GAS STATICCALL ISZERO DUP1 ISZERO PUSH2 0x122A JUMPI RETURNDATASIZE PUSH1 0x0 DUP1 RETURNDATACOPY RETURNDATASIZE PUSH1 0x0 REVERT JUMPDEST POP POP POP POP PUSH1 0x40 MLOAD RETURNDATASIZE PUSH1 0x1F NOT PUSH1 0x1F DUP3 ADD AND DUP3 ADD DUP1 PUSH1 0x40 MSTORE POP DUP2 ADD SWAP1 PUSH2 0x124E SWAP2 SWAP1 PUSH2 0x2466 JUMP JUMPDEST PUSH1 0xFF AND PUSH1 0x1 DUP2 SWAP1 SSTORE POP CALLVALUE PUSH1 0x5 DUP2 SWAP1 SSTORE POP DUP5 PUSH1 0x6 DUP2 SWAP1 SSTORE POP DUP4 PUSH1 0xB DUP2 SWAP1 SSTORE POP DUP3 PUSH1 0xC DUP2 SWAP1 SSTORE POP DUP2 PUSH20 0xFFFFFFFFFFFFFFFFFFFFFFFFFFFFFFFFFFFFFFFF AND PUSH4 0x95D89B41 PUSH1 0x40 MLOAD DUP2 PUSH4 0xFFFFFFFF AND PUSH1 0xE0 SHL DUP2 MSTORE PUSH1 0x4 ADD PUSH1 0x0 PUSH1 0x40 MLOAD DUP1 DUP4 SUB DUP2 DUP7 GAS STATICCALL ISZERO DUP1 ISZERO PUSH2 0x12BE JUMPI RETURNDATASIZE PUSH1 0x0 DUP1 RETURNDATACOPY RETURNDATASIZE PUSH1 0x0 REVERT JUMPDEST POP POP POP POP PUSH1 0x40 MLOAD RETURNDATASIZE PUSH1 0x0 DUP3 RETURNDATACOPY RETURNDATASIZE PUSH1 0x1F NOT PUSH1 0x1F DUP3 ADD AND DUP3 ADD DUP1 PUSH1 0x40 MSTORE POP DUP2 ADD SWAP1 PUSH2 0x12E7 SWAP2 SWAP1 PUSH2 0x230C JUMP JUMPDEST PUSH1 0x3 SWAP1 DUP2 PUSH2 0x12F5 SWAP2 SWAP1 PUSH2 0x263F JUMP JUMPDEST POP PUSH1 0x0 PUSH1 0xD DUP2 SWAP1 SSTORE POP PUSH1 0x0 PUSH1 0xE DUP2 SWAP1 SSTORE POP PUSH1 0x6 SLOAD PUSH1 0x5 SLOAD PUSH2 0x1316 SWAP2 SWAP1 PUSH2 0x1AB8 JUMP JUMPDEST PUSH1 0x4 DUP2 SWAP1 SSTORE POP PUSH1 0x8 PUSH1 0x0 SWAP1 SLOAD SWAP1 PUSH2 0x100 EXP SWAP1 DIV PUSH20 0xFFFFFFFFFFFFFFFFFFFFFFFFFFFFFFFFFFFFFFFF AND PUSH20 0xFFFFFFFFFFFFFFFFFFFFFFFFFFFFFFFFFFFFFFFF AND PUSH4 0x23B872DD CALLER ADDRESS DUP9 PUSH1 0x40 MLOAD DUP5 PUSH4 0xFFFFFFFF AND PUSH1 0xE0 SHL DUP2 MSTORE PUSH1 0x4 ADD PUSH2 0x137B SWAP4 SWAP3 SWAP2 SWAP1 PUSH2 0x2711 JUMP JUMPDEST PUSH1 0x20 PUSH1 0x40 MLOAD DUP1 DUP4 SUB DUP2 PUSH1 0x0 DUP8 GAS CALL ISZERO DUP1 ISZERO PUSH2 0x139A JUMPI RETURNDATASIZE PUSH1 0x0 DUP1 RETURNDATACOPY RETURNDATASIZE PUSH1 0x0 REVERT JUMPDEST POP POP POP POP PUSH1 0x40 MLOAD RETURNDATASIZE PUSH1 0x1F NOT PUSH1 0x1F DUP3 ADD AND DUP3 ADD DUP1 PUSH1 0x40 MSTORE POP DUP2 ADD SWAP1 PUSH2 0x13BE SWAP2 SWAP1 PUSH2 0x21B9 JUMP JUMPDEST POP DUP1 PUSH1 0x7 PUSH1 0x0 PUSH2 0x100 EXP DUP2 SLOAD DUP2 PUSH20 0xFFFFFFFFFFFFFFFFFFFFFFFFFFFFFFFFFFFFFFFF MUL NOT AND SWAP1 DUP4 PUSH20 0xFFFFFFFFFFFFFFFFFFFFFFFFFFFFFFFFFFFFFFFF AND MUL OR SWAP1 SSTORE POP PUSH1 0x5 SLOAD PUSH1 0x9 PUSH1 0x0 CALLER PUSH20 0xFFFFFFFFFFFFFFFFFFFFFFFFFFFFFFFFFFFFFFFF AND PUSH20 0xFFFFFFFFFFFFFFFFFFFFFFFFFFFFFFFFFFFFFFFF AND DUP2 MSTORE PUSH1 0x20 ADD SWAP1 DUP2 MSTORE PUSH1 0x20 ADD PUSH1 0x0 KECCAK256 PUSH1 0x0 DUP3 DUP3 SLOAD PUSH2 0x1451 SWAP2 SWAP1 PUSH2 0x19F0 JUMP JUMPDEST SWAP3 POP POP DUP2 SWAP1 SSTORE POP PUSH1 0x6 SLOAD PUSH1 0xA PUSH1 0x0 CALLER PUSH20 0xFFFFFFFFFFFFFFFFFFFFFFFFFFFFFFFFFFFFFFFF AND PUSH20 0xFFFFFFFFFFFFFFFFFFFFFFFFFFFFFFFFFFFFFFFF AND DUP2 MSTORE PUSH1 0x20 ADD SWAP1 DUP2 MSTORE PUSH1 0x20 ADD PUSH1 0x0 KECCAK256 PUSH1 0x0 DUP3 DUP3 SLOAD PUSH2 0x14A9 SWAP2 SWAP1 PUSH2 0x19F0 JUMP JUMPDEST SWAP3 POP POP DUP2 SWAP1 SSTORE POP PUSH32 0x8866993F7C029BE4215942B34C1545282B8F28836579F2687FE96A5A6BF77704 PUSH1 0x40 MLOAD PUSH1 0x40 MLOAD DUP1 SWAP2 SUB SWAP1 LOG1 PUSH1 0x1 PUSH1 0x0 PUSH1 0x15 PUSH2 0x100 EXP DUP2 SLOAD DUP2 PUSH1 0xFF MUL NOT AND SWAP1 DUP4 ISZERO ISZERO MUL OR SWAP1 SSTORE POP POP POP POP POP POP JUMP JUMPDEST PUSH1 0x4 SLOAD DUP2 JUMP JUMPDEST PUSH1 0x0 PUSH1 0x2 PUSH1 0x7 PUSH1 0x0 SWAP1 SLOAD SWAP1 PUSH2 0x100 EXP SWAP1 DIV PUSH20 0xFFFFFFFFFFFFFFFFFFFFFFFFFFFFFFFFFFFFFFFF AND PUSH20 0xFFFFFFFFFFFFFFFFFFFFFFFFFFFFFFFFFFFFFFFF AND PUSH4 0xA035B1FE PUSH1 0x40 MLOAD DUP2 PUSH4 0xFFFFFFFF AND PUSH1 0xE0 SHL DUP2 MSTORE PUSH1 0x4 ADD PUSH1 0x20 PUSH1 0x40 MLOAD DUP1 DUP4 SUB DUP2 DUP7 GAS STATICCALL ISZERO DUP1 ISZERO PUSH2 0x1575 JUMPI RETURNDATASIZE PUSH1 0x0 DUP1 RETURNDATACOPY RETURNDATASIZE PUSH1 0x0 REVERT JUMPDEST POP POP POP POP PUSH1 0x40 MLOAD RETURNDATASIZE PUSH1 0x1F NOT PUSH1 0x1F DUP3 ADD AND DUP3 ADD DUP1 PUSH1 0x40 MSTORE POP DUP2 ADD SWAP1 PUSH2 0x1599 SWAP2 SWAP1 PUSH2 0x1F4D JUMP JUMPDEST PUSH1 0x5 SLOAD PUSH2 0x15A6 SWAP2 SWAP1 PUSH2 0x1AB8 JUMP JUMPDEST PUSH2 0x15B0 SWAP2 SWAP1 PUSH2 0x1AB8 JUMP JUMPDEST SWAP1 POP SWAP1 JUMP JUMPDEST PUSH1 0x0 PUSH1 0x7 PUSH1 0x0 SWAP1 SLOAD SWAP1 PUSH2 0x100 EXP SWAP1 DIV PUSH20 0xFFFFFFFFFFFFFFFFFFFFFFFFFFFFFFFFFFFFFFFF AND PUSH20 0xFFFFFFFFFFFFFFFFFFFFFFFFFFFFFFFFFFFFFFFF AND PUSH4 0xA035B1FE PUSH1 0x40 MLOAD DUP2 PUSH4 0xFFFFFFFF AND PUSH1 0xE0 SHL DUP2 MSTORE PUSH1 0x4 ADD PUSH1 0x20 PUSH1 0x40 MLOAD DUP1 DUP4 SUB DUP2 DUP7 GAS STATICCALL ISZERO DUP1 ISZERO PUSH2 0x1624 JUMPI RETURNDATASIZE PUSH1 0x0 DUP1 RETURNDATACOPY RETURNDATASIZE PUSH1 0x0 REVERT JUMPDEST POP POP POP POP PUSH1 0x40 MLOAD RETURNDATASIZE PUSH1 0x1F NOT PUSH1 0x1F DUP3 ADD AND DUP3 ADD DUP1 PUSH1 0x40 MSTORE POP DUP2 ADD SWAP1 PUSH2 0x1648 SWAP2 SWAP1 PUSH2 0x1F4D JUMP JUMPDEST SWAP1 POP SWAP1 JUMP JUMPDEST PUSH1 0x9 PUSH1 0x20 MSTORE DUP1 PUSH1 0x0 MSTORE PUSH1 0x40 PUSH1 0x0 KECCAK256 PUSH1 0x0 SWAP2 POP SWAP1 POP SLOAD DUP2 JUMP JUMPDEST PUSH1 0x0 DUP1 REVERT JUMPDEST PUSH1 0x0 PUSH1 0x5 SLOAD PUSH1 0x6 SLOAD CALLVALUE PUSH2 0x167D SWAP2 SWAP1 PUSH2 0x1AB8 JUMP JUMPDEST PUSH2 0x1687 SWAP2 SWAP1 PUSH2 0x1A53 JUMP JUMPDEST SWAP1 POP CALLVALUE PUSH1 0x5 PUSH1 0x0 DUP3 DUP3 SLOAD PUSH2 0x169B SWAP2 SWAP1 PUSH2 0x19F0 JUMP JUMPDEST SWAP3 POP POP DUP2 SWAP1 SSTORE POP DUP1 PUSH1 0x6 PUSH1 0x0 DUP3 DUP3 SLOAD PUSH2 0x16B4 SWAP2 SWAP1 PUSH2 0x19F0 JUMP JUMPDEST SWAP3 POP POP DUP2 SWAP1 SSTORE POP PUSH1 0x6 SLOAD PUSH1 0x5 SLOAD PUSH2 0x16CB SWAP2 SWAP1 PUSH2 0x1AB8 JUMP JUMPDEST PUSH1 0x4 DUP2 SWAP1 SSTORE POP PUSH1 0x1 PUSH1 0x0 PUSH1 0x14 PUSH2 0x100 EXP DUP2 SLOAD DUP2 PUSH1 0xFF MUL NOT AND SWAP1 DUP4 ISZERO ISZERO MUL OR SWAP1 SSTORE POP PUSH1 0x8 PUSH1 0x0 SWAP1 SLOAD SWAP1 PUSH2 0x100 EXP SWAP1 DIV PUSH20 0xFFFFFFFFFFFFFFFFFFFFFFFFFFFFFFFFFFFFFFFF AND PUSH20 0xFFFFFFFFFFFFFFFFFFFFFFFFFFFFFFFFFFFFFFFF AND PUSH4 0x23B872DD CALLER ADDRESS DUP5 PUSH1 0x40 MLOAD DUP5 PUSH4 0xFFFFFFFF AND PUSH1 0xE0 SHL DUP2 MSTORE PUSH1 0x4 ADD PUSH2 0x174B SWAP4 SWAP3 SWAP2 SWAP1 PUSH2 0x2711 JUMP JUMPDEST PUSH1 0x20 PUSH1 0x40 MLOAD DUP1 DUP4 SUB DUP2 PUSH1 0x0 DUP8 GAS CALL ISZERO DUP1 ISZERO PUSH2 0x176A JUMPI RETURNDATASIZE PUSH1 0x0 DUP1 RETURNDATACOPY RETURNDATASIZE PUSH1 0x0 REVERT JUMPDEST POP POP POP POP PUSH1 0x40 MLOAD RETURNDATASIZE PUSH1 0x1F NOT PUSH1 0x1F DUP3 ADD AND DUP3 ADD DUP1 PUSH1 0x40 MSTORE POP DUP2 ADD SWAP1 PUSH2 0x178E SWAP2 SWAP1 PUSH2 0x21B9 JUMP JUMPDEST POP PUSH1 0x0 DUP1 PUSH1 0x14 PUSH2 0x100 EXP DUP2 SLOAD DUP2 PUSH1 0xFF MUL NOT AND SWAP1 DUP4 ISZERO ISZERO MUL OR SWAP1 SSTORE POP CALLVALUE PUSH1 0x9 PUSH1 0x0 CALLER PUSH20 0xFFFFFFFFFFFFFFFFFFFFFFFFFFFFFFFFFFFFFFFF AND PUSH20 0xFFFFFFFFFFFFFFFFFFFFFFFFFFFFFFFFFFFFFFFF AND DUP2 MSTORE PUSH1 0x20 ADD SWAP1 DUP2 MSTORE PUSH1 0x20 ADD PUSH1 0x0 KECCAK256 PUSH1 0x0 DUP3 DUP3 SLOAD PUSH2 0x17F8 SWAP2 SWAP1 PUSH2 0x19F0 JUMP JUMPDEST SWAP3 POP POP DUP2 SWAP1 SSTORE POP DUP1 PUSH1 0xA PUSH1 0x0 CALLER PUSH20 0xFFFFFFFFFFFFFFFFFFFFFFFFFFFFFFFFFFFFFFFF AND PUSH20 0xFFFFFFFFFFFFFFFFFFFFFFFFFFFFFFFFFFFFFFFF AND DUP2 MSTORE PUSH1 0x20 ADD SWAP1 DUP2 MSTORE PUSH1 0x20 ADD PUSH1 0x0 KECCAK256 PUSH1 0x0 DUP3 DUP3 SLOAD PUSH2 0x184E SWAP2 SWAP1 PUSH2 0x19F0 JUMP JUMPDEST SWAP3 POP POP DUP2 SWAP1 SSTORE POP PUSH32 0x8866993F7C029BE4215942B34C1545282B8F28836579F2687FE96A5A6BF77704 PUSH1 0x40 MLOAD PUSH1 0x40 MLOAD DUP1 SWAP2 SUB SWAP1 LOG1 POP JUMP JUMPDEST PUSH1 0xB SLOAD DUP2 JUMP JUMPDEST DUP1 PUSH1 0x7 PUSH1 0x0 PUSH2 0x100 EXP DUP2 SLOAD DUP2 PUSH20 0xFFFFFFFFFFFFFFFFFFFFFFFFFFFFFFFFFFFFFFFF MUL NOT AND SWAP1 DUP4 PUSH20 0xFFFFFFFFFFFFFFFFFFFFFFFFFFFFFFFFFFFFFFFF AND MUL OR SWAP1 SSTORE POP POP JUMP JUMPDEST PUSH1 0x0 DUP3 DUP3 MSTORE PUSH1 0x20 DUP3 ADD SWAP1 POP SWAP3 SWAP2 POP POP JUMP JUMPDEST PUSH32 0x706F6F6C206861736E2774206265656E20637265617465642079657400000000 PUSH1 0x0 DUP3 ADD MSTORE POP JUMP JUMPDEST PUSH1 0x0 PUSH2 0x1915 PUSH1 0x1C DUP4 PUSH2 0x18CE JUMP JUMPDEST SWAP2 POP PUSH2 0x1920 DUP3 PUSH2 0x18DF JUMP JUMPDEST PUSH1 0x20 DUP3 ADD SWAP1 POP SWAP2 SWAP1 POP JUMP JUMPDEST PUSH1 0x0 PUSH1 0x20 DUP3 ADD SWAP1 POP DUP2 DUP2 SUB PUSH1 0x0 DUP4 ADD MSTORE PUSH2 0x1944 DUP2 PUSH2 0x1908 JUMP JUMPDEST SWAP1 POP SWAP2 SWAP1 POP JUMP JUMPDEST PUSH32 0x53656C6563746976652073746F7070696E672E00000000000000000000000000 PUSH1 0x0 DUP3 ADD MSTORE POP JUMP JUMPDEST PUSH1 0x0 PUSH2 0x1981 PUSH1 0x13 DUP4 PUSH2 0x18CE JUMP JUMPDEST SWAP2 POP PUSH2 0x198C DUP3 PUSH2 0x194B JUMP JUMPDEST PUSH1 0x20 DUP3 ADD SWAP1 POP SWAP2 SWAP1 POP JUMP JUMPDEST PUSH1 0x0 PUSH1 0x20 DUP3 ADD SWAP1 POP DUP2 DUP2 SUB PUSH1 0x0 DUP4 ADD MSTORE PUSH2 0x19B0 DUP2 PUSH2 0x1974 JUMP JUMPDEST SWAP1 POP SWAP2 SWAP1 POP JUMP JUMPDEST PUSH1 0x0 DUP2 SWAP1 POP SWAP2 SWAP1 POP JUMP JUMPDEST PUSH32 0x4E487B7100000000000000000000000000000000000000000000000000000000 PUSH1 0x0 MSTORE PUSH1 0x11 PUSH1 0x4 MSTORE PUSH1 0x24 PUSH1 0x0 REVERT JUMPDEST PUSH1 0x0 PUSH2 0x19FB DUP3 PUSH2 0x19B7 JUMP JUMPDEST SWAP2 POP PUSH2 0x1A06 DUP4 PUSH2 0x19B7 JUMP JUMPDEST SWAP3 POP DUP3 DUP3 ADD SWAP1 POP DUP1 DUP3 GT ISZERO PUSH2 0x1A1E JUMPI PUSH2 0x1A1D PUSH2 0x19C1 JUMP JUMPDEST JUMPDEST SWAP3 SWAP2 POP POP JUMP JUMPDEST PUSH32 0x4E487B7100000000000000000000000000000000000000000000000000000000 PUSH1 0x0 MSTORE PUSH1 0x12 PUSH1 0x4 MSTORE PUSH1 0x24 PUSH1 0x0 REVERT JUMPDEST PUSH1 0x0 PUSH2 0x1A5E DUP3 PUSH2 0x19B7 JUMP JUMPDEST SWAP2 POP PUSH2 0x1A69 DUP4 PUSH2 0x19B7 JUMP JUMPDEST SWAP3 POP DUP3 PUSH2 0x1A79 JUMPI PUSH2 0x1A78 PUSH2 0x1A24 JUMP JUMPDEST JUMPDEST DUP3 DUP3 DIV SWAP1 POP SWAP3 SWAP2 POP POP JUMP JUMPDEST PUSH1 0x0 PUSH2 0x1A8F DUP3 PUSH2 0x19B7 JUMP JUMPDEST SWAP2 POP PUSH2 0x1A9A DUP4 PUSH2 0x19B7 JUMP JUMPDEST SWAP3 POP DUP3 DUP3 SUB SWAP1 POP DUP2 DUP2 GT ISZERO PUSH2 0x1AB2 JUMPI PUSH2 0x1AB1 PUSH2 0x19C1 JUMP JUMPDEST JUMPDEST SWAP3 SWAP2 POP POP JUMP JUMPDEST PUSH1 0x0 PUSH2 0x1AC3 DUP3 PUSH2 0x19B7 JUMP JUMPDEST SWAP2 POP PUSH2 0x1ACE DUP4 PUSH2 0x19B7 JUMP JUMPDEST SWAP3 POP DUP3 DUP3 MUL PUSH2 0x1ADC DUP2 PUSH2 0x19B7 JUMP JUMPDEST SWAP2 POP DUP3 DUP3 DIV DUP5 EQ DUP4 ISZERO OR PUSH2 0x1AF3 JUMPI PUSH2 0x1AF2 PUSH2 0x19C1 JUMP JUMPDEST JUMPDEST POP SWAP3 SWAP2 POP POP JUMP JUMPDEST PUSH1 0x0 PUSH1 0x40 MLOAD SWAP1 POP SWAP1 JUMP JUMPDEST PUSH1 0x0 DUP1 REVERT JUMPDEST PUSH1 0x0 DUP1 REVERT JUMPDEST PUSH1 0x0 PUSH32 0xFFFFFFFF00000000000000000000000000000000000000000000000000000000 DUP3 AND SWAP1 POP SWAP2 SWAP1 POP JUMP JUMPDEST PUSH2 0x1B43 DUP2 PUSH2 0x1B0E JUMP JUMPDEST DUP2 EQ PUSH2 0x1B4E JUMPI PUSH1 0x0 DUP1 REVERT JUMPDEST POP JUMP JUMPDEST PUSH1 0x0 DUP2 CALLDATALOAD SWAP1 POP PUSH2 0x1B60 DUP2 PUSH2 0x1B3A JUMP JUMPDEST SWAP3 SWAP2 POP POP JUMP JUMPDEST PUSH1 0x0 PUSH1 0x20 DUP3 DUP5 SUB SLT ISZERO PUSH2 0x1B7C JUMPI PUSH2 0x1B7B PUSH2 0x1B04 JUMP JUMPDEST JUMPDEST PUSH1 0x0 PUSH2 0x1B8A DUP5 DUP3 DUP6 ADD PUSH2 0x1B51 JUMP JUMPDEST SWAP2 POP POP SWAP3 SWAP2 POP POP JUMP JUMPDEST PUSH1 0x0 DUP2 ISZERO ISZERO SWAP1 POP SWAP2 SWAP1 POP JUMP JUMPDEST PUSH2 0x1BA8 DUP2 PUSH2 0x1B93 JUMP JUMPDEST DUP3 MSTORE POP POP JUMP JUMPDEST PUSH1 0x0 PUSH1 0x20 DUP3 ADD SWAP1 POP PUSH2 0x1BC3 PUSH1 0x0 DUP4 ADD DUP5 PUSH2 0x1B9F JUMP JUMPDEST SWAP3 SWAP2 POP POP JUMP JUMPDEST PUSH2 0x1BD2 DUP2 PUSH2 0x19B7 JUMP JUMPDEST DUP3 MSTORE POP POP JUMP JUMPDEST PUSH1 0x0 PUSH1 0x20 DUP3 ADD SWAP1 POP PUSH2 0x1BED PUSH1 0x0 DUP4 ADD DUP5 PUSH2 0x1BC9 JUMP JUMPDEST SWAP3 SWAP2 POP POP JUMP JUMPDEST PUSH1 0x0 PUSH20 0xFFFFFFFFFFFFFFFFFFFFFFFFFFFFFFFFFFFFFFFF DUP3 AND SWAP1 POP SWAP2 SWAP1 POP JUMP JUMPDEST PUSH1 0x0 PUSH2 0x1C1E DUP3 PUSH2 0x1BF3 JUMP JUMPDEST SWAP1 POP SWAP2 SWAP1 POP JUMP JUMPDEST PUSH2 0x1C2E DUP2 PUSH2 0x1C13 JUMP JUMPDEST DUP3 MSTORE POP POP JUMP JUMPDEST PUSH1 0x0 PUSH1 0x20 DUP3 ADD SWAP1 POP PUSH2 0x1C49 PUSH1 0x0 DUP4 ADD DUP5 PUSH2 0x1C25 JUMP JUMPDEST SWAP3 SWAP2 POP POP JUMP JUMPDEST PUSH2 0x1C58 DUP2 PUSH2 0x1C13 JUMP JUMPDEST DUP2 EQ PUSH2 0x1C63 JUMPI PUSH1 0x0 DUP1 REVERT JUMPDEST POP JUMP JUMPDEST PUSH1 0x0 DUP2 CALLDATALOAD SWAP1 POP PUSH2 0x1C75 DUP2 PUSH2 0x1C4F JUMP JUMPDEST SWAP3 SWAP2 POP POP JUMP JUMPDEST PUSH2 0x1C84 DUP2 PUSH2 0x19B7 JUMP JUMPDEST DUP2 EQ PUSH2 0x1C8F JUMPI PUSH1 0x0 DUP1 REVERT JUMPDEST POP JUMP JUMPDEST PUSH1 0x0 DUP2 CALLDATALOAD SWAP1 POP PUSH2 0x1CA1 DUP2 PUSH2 0x1C7B JUMP JUMPDEST SWAP3 SWAP2 POP POP JUMP JUMPDEST PUSH1 0x0 DUP1 PUSH1 0x0 PUSH1 0x60 DUP5 DUP7 SUB SLT ISZERO PUSH2 0x1CC0 JUMPI PUSH2 0x1CBF PUSH2 0x1B04 JUMP JUMPDEST JUMPDEST PUSH1 0x0 PUSH2 0x1CCE DUP7 DUP3 DUP8 ADD PUSH2 0x1C66 JUMP JUMPDEST SWAP4 POP POP PUSH1 0x20 PUSH2 0x1CDF DUP7 DUP3 DUP8 ADD PUSH2 0x1C92 JUMP JUMPDEST SWAP3 POP POP PUSH1 0x40 PUSH2 0x1CF0 DUP7 DUP3 DUP8 ADD PUSH2 0x1C66 JUMP JUMPDEST SWAP2 POP POP SWAP3 POP SWAP3 POP SWAP3 JUMP JUMPDEST PUSH1 0x0 PUSH1 0x20 DUP3 DUP5 SUB SLT ISZERO PUSH2 0x1D10 JUMPI PUSH2 0x1D0F PUSH2 0x1B04 JUMP JUMPDEST JUMPDEST PUSH1 0x0 PUSH2 0x1D1E DUP5 DUP3 DUP6 ADD PUSH2 0x1C66 JUMP JUMPDEST SWAP2 POP POP SWAP3 SWAP2 POP POP JUMP JUMPDEST PUSH1 0x0 DUP2 MLOAD SWAP1 POP SWAP2 SWAP1 POP JUMP JUMPDEST PUSH1 0x0 JUMPDEST DUP4 DUP2 LT ISZERO PUSH2 0x1D50 JUMPI DUP1 DUP3 ADD MLOAD DUP2 DUP5 ADD MSTORE PUSH1 0x20 DUP2 ADD SWAP1 POP PUSH2 0x1D35 JUMP JUMPDEST PUSH1 0x0 DUP5 DUP5 ADD MSTORE POP POP POP POP JUMP JUMPDEST PUSH1 0x0 PUSH1 0x1F NOT PUSH1 0x1F DUP4 ADD AND SWAP1 POP SWAP2 SWAP1 POP JUMP JUMPDEST PUSH1 0x0 PUSH2 0x1D78 DUP3 PUSH2 0x1D27 JUMP JUMPDEST PUSH2 0x1D82 DUP2 DUP6 PUSH2 0x18CE JUMP JUMPDEST SWAP4 POP PUSH2 0x1D92 DUP2 DUP6 PUSH1 0x20 DUP7 ADD PUSH2 0x1D32 JUMP JUMPDEST PUSH2 0x1D9B DUP2 PUSH2 0x1D5C JUMP JUMPDEST DUP5 ADD SWAP2 POP POP SWAP3 SWAP2 POP POP JUMP JUMPDEST PUSH1 0x0 PUSH1 0x20 DUP3 ADD SWAP1 POP DUP2 DUP2 SUB PUSH1 0x0 DUP4 ADD MSTORE PUSH2 0x1DC0 DUP2 DUP5 PUSH2 0x1D6D JUMP JUMPDEST SWAP1 POP SWAP3 SWAP2 POP POP JUMP JUMPDEST PUSH1 0x0 PUSH1 0x20 DUP3 DUP5 SUB SLT ISZERO PUSH2 0x1DDE JUMPI PUSH2 0x1DDD PUSH2 0x1B04 JUMP JUMPDEST JUMPDEST PUSH1 0x0 PUSH2 0x1DEC DUP5 DUP3 DUP6 ADD PUSH2 0x1C92 JUMP JUMPDEST SWAP2 POP POP SWAP3 SWAP2 POP POP JUMP JUMPDEST PUSH1 0x0 PUSH2 0x180 DUP3 ADD SWAP1 POP PUSH2 0x1E0B PUSH1 0x0 DUP4 ADD DUP16 PUSH2 0x1C25 JUMP JUMPDEST DUP2 DUP2 SUB PUSH1 0x20 DUP4 ADD MSTORE PUSH2 0x1E1D DUP2 DUP15 PUSH2 0x1D6D JUMP JUMPDEST SWAP1 POP DUP2 DUP2 SUB PUSH1 0x40 DUP4 ADD MSTORE PUSH2 0x1E31 DUP2 DUP14 PUSH2 0x1D6D JUMP JUMPDEST SWAP1 POP PUSH2 0x1E40 PUSH1 0x60 DUP4 ADD DUP13 PUSH2 0x1C25 JUMP JUMPDEST PUSH2 0x1E4D PUSH1 0x80 DUP4 ADD DUP12 PUSH2 0x1BC9 JUMP JUMPDEST PUSH2 0x1E5A PUSH1 0xA0 DUP4 ADD DUP11 PUSH2 0x1BC9 JUMP JUMPDEST PUSH2 0x1E67 PUSH1 0xC0 DUP4 ADD DUP10 PUSH2 0x1BC9 JUMP JUMPDEST PUSH2 0x1E74 PUSH1 0xE0 DUP4 ADD DUP9 PUSH2 0x1BC9 JUMP JUMPDEST PUSH2 0x1E82 PUSH2 0x100 DUP4 ADD DUP8 PUSH2 0x1BC9 JUMP JUMPDEST PUSH2 0x1E90 PUSH2 0x120 DUP4 ADD DUP7 PUSH2 0x1BC9 JUMP JUMPDEST PUSH2 0x1E9E PUSH2 0x140 DUP4 ADD DUP6 PUSH2 0x1BC9 JUMP JUMPDEST PUSH2 0x1EAC PUSH2 0x160 DUP4 ADD DUP5 PUSH2 0x1BC9 JUMP JUMPDEST SWAP14 SWAP13 POP POP POP POP POP POP POP POP POP POP POP POP POP JUMP JUMPDEST PUSH1 0x0 DUP1 PUSH1 0x0 DUP1 PUSH1 0x0 PUSH1 0xA0 DUP7 DUP9 SUB SLT ISZERO PUSH2 0x1ED9 JUMPI PUSH2 0x1ED8 PUSH2 0x1B04 JUMP JUMPDEST JUMPDEST PUSH1 0x0 PUSH2 0x1EE7 DUP9 DUP3 DUP10 ADD PUSH2 0x1C92 JUMP JUMPDEST SWAP6 POP POP PUSH1 0x20 PUSH2 0x1EF8 DUP9 DUP3 DUP10 ADD PUSH2 0x1C92 JUMP JUMPDEST SWAP5 POP POP PUSH1 0x40 PUSH2 0x1F09 DUP9 DUP3 DUP10 ADD PUSH2 0x1C92 JUMP JUMPDEST SWAP4 POP POP PUSH1 0x60 PUSH2 0x1F1A DUP9 DUP3 DUP10 ADD PUSH2 0x1C66 JUMP JUMPDEST SWAP3 POP POP PUSH1 0x80 PUSH2 0x1F2B DUP9 DUP3 DUP10 ADD PUSH2 0x1C66 JUMP JUMPDEST SWAP2 POP POP SWAP3 SWAP6 POP SWAP3 SWAP6 SWAP1 SWAP4 POP JUMP JUMPDEST PUSH1 0x0 DUP2 MLOAD SWAP1 POP PUSH2 0x1F47 DUP2 PUSH2 0x1C7B JUMP JUMPDEST SWAP3 SWAP2 POP POP JUMP JUMPDEST PUSH1 0x0 PUSH1 0x20 DUP3 DUP5 SUB SLT ISZERO PUSH2 0x1F63 JUMPI PUSH2 0x1F62 PUSH2 0x1B04 JUMP JUMPDEST JUMPDEST PUSH1 0x0 PUSH2 0x1F71 DUP5 DUP3 DUP6 ADD PUSH2 0x1F38 JUMP JUMPDEST SWAP2 POP POP SWAP3 SWAP2 POP POP JUMP JUMPDEST PUSH32 0x6E6F207363616D7320746F646179000000000000000000000000000000000000 PUSH1 0x0 DUP3 ADD MSTORE POP JUMP JUMPDEST PUSH1 0x0 PUSH2 0x1FB0 PUSH1 0xE DUP4 PUSH2 0x18CE JUMP JUMPDEST SWAP2 POP PUSH2 0x1FBB DUP3 PUSH2 0x1F7A JUMP JUMPDEST PUSH1 0x20 DUP3 ADD SWAP1 POP SWAP2 SWAP1 POP JUMP JUMPDEST PUSH1 0x0 PUSH1 0x20 DUP3 ADD SWAP1 POP DUP2 DUP2 SUB PUSH1 0x0 DUP4 ADD MSTORE PUSH2 0x1FDF DUP2 PUSH2 0x1FA3 JUMP JUMPDEST SWAP1 POP SWAP2 SWAP1 POP JUMP JUMPDEST PUSH1 0x0 DUP2 SWAP1 POP SWAP3 SWAP2 POP POP JUMP JUMPDEST POP JUMP JUMPDEST PUSH1 0x0 PUSH2 0x2001 PUSH1 0x0 DUP4 PUSH2 0x1FE6 JUMP JUMPDEST SWAP2 POP PUSH2 0x200C DUP3 PUSH2 0x1FF1 JUMP JUMPDEST PUSH1 0x0 DUP3 ADD SWAP1 POP SWAP2 SWAP1 POP JUMP JUMPDEST PUSH1 0x0 PUSH2 0x2022 DUP3 PUSH2 0x1FF4 JUMP JUMPDEST SWAP2 POP DUP2 SWAP1 POP SWAP2 SWAP1 POP JUMP JUMPDEST PUSH32 0x7061796D656E74206469646E277420776F726B00000000000000000000000000 PUSH1 0x0 DUP3 ADD MSTORE POP JUMP JUMPDEST PUSH1 0x0 PUSH2 0x2062 PUSH1 0x13 DUP4 PUSH2 0x18CE JUMP JUMPDEST SWAP2 POP PUSH2 0x206D DUP3 PUSH2 0x202C JUMP JUMPDEST PUSH1 0x20 DUP3 ADD SWAP1 POP SWAP2 SWAP1 POP JUMP JUMPDEST PUSH1 0x0 PUSH1 0x20 DUP3 ADD SWAP1 POP DUP2 DUP2 SUB PUSH1 0x0 DUP4 ADD MSTORE PUSH2 0x2091 DUP2 PUSH2 0x2055 JUMP JUMPDEST SWAP1 POP SWAP2 SWAP1 POP JUMP JUMPDEST PUSH32 0x4E487B7100000000000000000000000000000000000000000000000000000000 PUSH1 0x0 MSTORE PUSH1 0x22 PUSH1 0x4 MSTORE PUSH1 0x24 PUSH1 0x0 REVERT JUMPDEST PUSH1 0x0 PUSH1 0x2 DUP3 DIV SWAP1 POP PUSH1 0x1 DUP3 AND DUP1 PUSH2 0x20DF JUMPI PUSH1 0x7F DUP3 AND SWAP2 POP JUMPDEST PUSH1 0x20 DUP3 LT DUP2 SUB PUSH2 0x20F2 JUMPI PUSH2 0x20F1 PUSH2 0x2098 JUMP JUMPDEST JUMPDEST POP SWAP2 SWAP1 POP JUMP JUMPDEST PUSH32 0x6E6F7420656E6F7567687420657468657220746F207769746864726177000000 PUSH1 0x0 DUP3 ADD MSTORE POP JUMP JUMPDEST PUSH1 0x0 PUSH2 0x212E PUSH1 0x1D DUP4 PUSH2 0x18CE JUMP JUMPDEST SWAP2 POP PUSH2 0x2139 DUP3 PUSH2 0x20F8 JUMP JUMPDEST PUSH1 0x20 DUP3 ADD SWAP1 POP SWAP2 SWAP1 POP JUMP JUMPDEST PUSH1 0x0 PUSH1 0x20 DUP3 ADD SWAP1 POP DUP2 DUP2 SUB PUSH1 0x0 DUP4 ADD MSTORE PUSH2 0x215D DUP2 PUSH2 0x2121 JUMP JUMPDEST SWAP1 POP SWAP2 SWAP1 POP JUMP JUMPDEST PUSH1 0x0 PUSH1 0x40 DUP3 ADD SWAP1 POP PUSH2 0x2179 PUSH1 0x0 DUP4 ADD DUP6 PUSH2 0x1C25 JUMP JUMPDEST PUSH2 0x2186 PUSH1 0x20 DUP4 ADD DUP5 PUSH2 0x1BC9 JUMP JUMPDEST SWAP4 SWAP3 POP POP POP JUMP JUMPDEST PUSH2 0x2196 DUP2 PUSH2 0x1B93 JUMP JUMPDEST DUP2 EQ PUSH2 0x21A1 JUMPI PUSH1 0x0 DUP1 REVERT JUMPDEST POP JUMP JUMPDEST PUSH1 0x0 DUP2 MLOAD SWAP1 POP PUSH2 0x21B3 DUP2 PUSH2 0x218D JUMP JUMPDEST SWAP3 SWAP2 POP POP JUMP JUMPDEST PUSH1 0x0 PUSH1 0x20 DUP3 DUP5 SUB SLT ISZERO PUSH2 0x21CF JUMPI PUSH2 0x21CE PUSH2 0x1B04 JUMP JUMPDEST JUMPDEST PUSH1 0x0 PUSH2 0x21DD DUP5 DUP3 DUP6 ADD PUSH2 0x21A4 JUMP JUMPDEST SWAP2 POP POP SWAP3 SWAP2 POP POP JUMP JUMPDEST PUSH1 0x0 DUP1 REVERT JUMPDEST PUSH1 0x0 DUP1 REVERT JUMPDEST PUSH32 0x4E487B7100000000000000000000000000000000000000000000000000000000 PUSH1 0x0 MSTORE PUSH1 0x41 PUSH1 0x4 MSTORE PUSH1 0x24 PUSH1 0x0 REVERT JUMPDEST PUSH2 0x2228 DUP3 PUSH2 0x1D5C JUMP JUMPDEST DUP2 ADD DUP2 DUP2 LT PUSH8 0xFFFFFFFFFFFFFFFF DUP3 GT OR ISZERO PUSH2 0x2247 JUMPI PUSH2 0x2246 PUSH2 0x21F0 JUMP JUMPDEST JUMPDEST DUP1 PUSH1 0x40 MSTORE POP POP POP JUMP JUMPDEST PUSH1 0x0 PUSH2 0x225A PUSH2 0x1AFA JUMP JUMPDEST SWAP1 POP PUSH2 0x2266 DUP3 DUP3 PUSH2 0x221F JUMP JUMPDEST SWAP2 SWAP1 POP JUMP JUMPDEST PUSH1 0x0 PUSH8 0xFFFFFFFFFFFFFFFF DUP3 GT ISZERO PUSH2 0x2286 JUMPI PUSH2 0x2285 PUSH2 0x21F0 JUMP JUMPDEST JUMPDEST PUSH2 0x228F DUP3 PUSH2 0x1D5C JUMP JUMPDEST SWAP1 POP PUSH1 0x20 DUP2 ADD SWAP1 POP SWAP2 SWAP1 POP JUMP JUMPDEST PUSH1 0x0 PUSH2 0x22AF PUSH2 0x22AA DUP5 PUSH2 0x226B JUMP JUMPDEST PUSH2 0x2250 JUMP JUMPDEST SWAP1 POP DUP3 DUP2 MSTORE PUSH1 0x20 DUP2 ADD DUP5 DUP5 DUP5 ADD GT ISZERO PUSH2 0x22CB JUMPI PUSH2 0x22CA PUSH2 0x21EB JUMP JUMPDEST JUMPDEST PUSH2 0x22D6 DUP5 DUP3 DUP6 PUSH2 0x1D32 JUMP JUMPDEST POP SWAP4 SWAP3 POP POP POP JUMP JUMPDEST PUSH1 0x0 DUP3 PUSH1 0x1F DUP4 ADD SLT PUSH2 0x22F3 JUMPI PUSH2 0x22F2 PUSH2 0x21E6 JUMP JUMPDEST JUMPDEST DUP2 MLOAD PUSH2 0x2303 DUP5 DUP3 PUSH1 0x20 DUP7 ADD PUSH2 0x229C JUMP JUMPDEST SWAP2 POP POP SWAP3 SWAP2 POP POP JUMP JUMPDEST PUSH1 0x0 PUSH1 0x20 DUP3 DUP5 SUB SLT ISZERO PUSH2 0x2322 JUMPI PUSH2 0x2321 PUSH2 0x1B04 JUMP JUMPDEST JUMPDEST PUSH1 0x0 DUP3 ADD MLOAD PUSH8 0xFFFFFFFFFFFFFFFF DUP2 GT ISZERO PUSH2 0x2340 JUMPI PUSH2 0x233F PUSH2 0x1B09 JUMP JUMPDEST JUMPDEST PUSH2 0x234C DUP5 DUP3 DUP6 ADD PUSH2 0x22DE JUMP JUMPDEST SWAP2 POP POP SWAP3 SWAP2 POP POP JUMP JUMPDEST PUSH32 0x4445582063616E206F6E6C792062652063726561746564206F6E636500000000 PUSH1 0x0 DUP3 ADD MSTORE POP JUMP JUMPDEST PUSH1 0x0 PUSH2 0x238B PUSH1 0x1C DUP4 PUSH2 0x18CE JUMP JUMPDEST SWAP2 POP PUSH2 0x2396 DUP3 PUSH2 0x2355 JUMP JUMPDEST PUSH1 0x20 DUP3 ADD SWAP1 POP SWAP2 SWAP1 POP JUMP JUMPDEST PUSH1 0x0 PUSH1 0x20 DUP3 ADD SWAP1 POP DUP2 DUP2 SUB PUSH1 0x0 DUP4 ADD MSTORE PUSH2 0x23BA DUP2 PUSH2 0x237E JUMP JUMPDEST SWAP1 POP SWAP2 SWAP1 POP JUMP JUMPDEST PUSH32 0x4F6E6C79206465706C6F7965722063616E20637265617465506F6F6C00000000 PUSH1 0x0 DUP3 ADD MSTORE POP JUMP JUMPDEST PUSH1 0x0 PUSH2 0x23F7 PUSH1 0x1C DUP4 PUSH2 0x18CE JUMP JUMPDEST SWAP2 POP PUSH2 0x2402 DUP3 PUSH2 0x23C1 JUMP JUMPDEST PUSH1 0x20 DUP3 ADD SWAP1 POP SWAP2 SWAP1 POP JUMP JUMPDEST PUSH1 0x0 PUSH1 0x20 DUP3 ADD SWAP1 POP DUP2 DUP2 SUB PUSH1 0x0 DUP4 ADD MSTORE PUSH2 0x2426 DUP2 PUSH2 0x23EA JUMP JUMPDEST SWAP1 POP SWAP2 SWAP1 POP JUMP JUMPDEST PUSH1 0x0 PUSH1 0xFF DUP3 AND SWAP1 POP SWAP2 SWAP1 POP JUMP JUMPDEST PUSH2 0x2443 DUP2 PUSH2 0x242D JUMP JUMPDEST DUP2 EQ PUSH2 0x244E JUMPI PUSH1 0x0 DUP1 REVERT JUMPDEST POP JUMP JUMPDEST PUSH1 0x0 DUP2 MLOAD SWAP1 POP PUSH2 0x2460 DUP2 PUSH2 0x243A JUMP JUMPDEST SWAP3 SWAP2 POP POP JUMP JUMPDEST PUSH1 0x0 PUSH1 0x20 DUP3 DUP5 SUB SLT ISZERO PUSH2 0x247C JUMPI PUSH2 0x247B PUSH2 0x1B04 JUMP JUMPDEST JUMPDEST PUSH1 0x0 PUSH2 0x248A DUP5 DUP3 DUP6 ADD PUSH2 0x2451 JUMP JUMPDEST SWAP2 POP POP SWAP3 SWAP2 POP POP JUMP JUMPDEST PUSH1 0x0 DUP2 SWAP1 POP DUP2 PUSH1 0x0 MSTORE PUSH1 0x20 PUSH1 0x0 KECCAK256 SWAP1 POP SWAP2 SWAP1 POP JUMP JUMPDEST PUSH1 0x0 PUSH1 0x20 PUSH1 0x1F DUP4 ADD DIV SWAP1 POP SWAP2 SWAP1 POP JUMP JUMPDEST PUSH1 0x0 DUP3 DUP3 SHL SWAP1 POP SWAP3 SWAP2 POP POP JUMP JUMPDEST PUSH1 0x0 PUSH1 0x8 DUP4 MUL PUSH2 0x24F5 PUSH32 0xFFFFFFFFFFFFFFFFFFFFFFFFFFFFFFFFFFFFFFFFFFFFFFFFFFFFFFFFFFFFFFFF DUP3 PUSH2 0x24B8 JUMP JUMPDEST PUSH2 0x24FF DUP7 DUP4 PUSH2 0x24B8 JUMP JUMPDEST SWAP6 POP DUP1 NOT DUP5 AND SWAP4 POP DUP1 DUP7 AND DUP5 OR SWAP3 POP POP POP SWAP4 SWAP3 POP POP POP JUMP JUMPDEST PUSH1 0x0 DUP2 SWAP1 POP SWAP2 SWAP1 POP JUMP JUMPDEST PUSH1 0x0 PUSH2 0x253C PUSH2 0x2537 PUSH2 0x2532 DUP5 PUSH2 0x19B7 JUMP JUMPDEST PUSH2 0x2517 JUMP JUMPDEST PUSH2 0x19B7 JUMP JUMPDEST SWAP1 POP SWAP2 SWAP1 POP JUMP JUMPDEST PUSH1 0x0 DUP2 SWAP1 POP SWAP2 SWAP1 POP JUMP JUMPDEST PUSH2 0x2556 DUP4 PUSH2 0x2521 JUMP JUMPDEST PUSH2 0x256A PUSH2 0x2562 DUP3 PUSH2 0x2543 JUMP JUMPDEST DUP5 DUP5 SLOAD PUSH2 0x24C5 JUMP JUMPDEST DUP3 SSTORE POP POP POP POP JUMP JUMPDEST PUSH1 0x0 SWAP1 JUMP JUMPDEST PUSH2 0x257F PUSH2 0x2572 JUMP JUMPDEST PUSH2 0x258A DUP2 DUP5 DUP5 PUSH2 0x254D JUMP JUMPDEST POP POP POP JUMP JUMPDEST JUMPDEST DUP2 DUP2 LT ISZERO PUSH2 0x25AE JUMPI PUSH2 0x25A3 PUSH1 0x0 DUP3 PUSH2 0x2577 JUMP JUMPDEST PUSH1 0x1 DUP2 ADD SWAP1 POP PUSH2 0x2590 JUMP JUMPDEST POP POP JUMP JUMPDEST PUSH1 0x1F DUP3 GT ISZERO PUSH2 0x25F3 JUMPI PUSH2 0x25C4 DUP2 PUSH2 0x2493 JUMP JUMPDEST PUSH2 0x25CD DUP5 PUSH2 0x24A8 JUMP JUMPDEST DUP2 ADD PUSH1 0x20 DUP6 LT ISZERO PUSH2 0x25DC JUMPI DUP2 SWAP1 POP JUMPDEST PUSH2 0x25F0 PUSH2 0x25E8 DUP6 PUSH2 0x24A8 JUMP JUMPDEST DUP4 ADD DUP3 PUSH2 0x258F JUMP JUMPDEST POP POP JUMPDEST POP POP POP JUMP JUMPDEST PUSH1 0x0 DUP3 DUP3 SHR SWAP1 POP SWAP3 SWAP2 POP POP JUMP JUMPDEST PUSH1 0x0 PUSH2 0x2616 PUSH1 0x0 NOT DUP5 PUSH1 0x8 MUL PUSH2 0x25F8 JUMP JUMPDEST NOT DUP1 DUP4 AND SWAP2 POP POP SWAP3 SWAP2 POP POP JUMP JUMPDEST PUSH1 0x0 PUSH2 0x262F DUP4 DUP4 PUSH2 0x2605 JUMP JUMPDEST SWAP2 POP DUP3 PUSH1 0x2 MUL DUP3 OR SWAP1 POP SWAP3 SWAP2 POP POP JUMP JUMPDEST PUSH2 0x2648 DUP3 PUSH2 0x1D27 JUMP JUMPDEST PUSH8 0xFFFFFFFFFFFFFFFF DUP2 GT ISZERO PUSH2 0x2661 JUMPI PUSH2 0x2660 PUSH2 0x21F0 JUMP JUMPDEST JUMPDEST PUSH2 0x266B DUP3 SLOAD PUSH2 0x20C7 JUMP JUMPDEST PUSH2 0x2676 DUP3 DUP3 DUP6 PUSH2 0x25B2 JUMP JUMPDEST PUSH1 0x0 PUSH1 0x20 SWAP1 POP PUSH1 0x1F DUP4 GT PUSH1 0x1 DUP2 EQ PUSH2 0x26A9 JUMPI PUSH1 0x0 DUP5 ISZERO PUSH2 0x2697 JUMPI DUP3 DUP8 ADD MLOAD SWAP1 POP JUMPDEST PUSH2 0x26A1 DUP6 DUP3 PUSH2 0x2623 JUMP JUMPDEST DUP7 SSTORE POP PUSH2 0x2709 JUMP JUMPDEST PUSH1 0x1F NOT DUP5 AND PUSH2 0x26B7 DUP7 PUSH2 0x2493 JUMP JUMPDEST PUSH1 0x0 JUMPDEST DUP3 DUP2 LT ISZERO PUSH2 0x26DF JUMPI DUP5 DUP10 ADD MLOAD DUP3 SSTORE PUSH1 0x1 DUP3 ADD SWAP2 POP PUSH1 0x20 DUP6 ADD SWAP5 POP PUSH1 0x20 DUP2 ADD SWAP1 POP PUSH2 0x26BA JUMP JUMPDEST DUP7 DUP4 LT ISZERO PUSH2 0x26FC JUMPI DUP5 DUP10 ADD MLOAD PUSH2 0x26F8 PUSH1 0x1F DUP10 AND DUP3 PUSH2 0x2605 JUMP JUMPDEST DUP4 SSTORE POP JUMPDEST PUSH1 0x1 PUSH1 0x2 DUP9 MUL ADD DUP9 SSTORE POP POP POP JUMPDEST POP POP POP POP POP POP JUMP JUMPDEST PUSH1 0x0 PUSH1 0x60 DUP3 ADD SWAP1 POP PUSH2 0x2726 PUSH1 0x0 DUP4 ADD DUP7 PUSH2 0x1C25 JUMP JUMPDEST PUSH2 0x2733 PUSH1 0x20 DUP4 ADD DUP6 PUSH2 0x1C25 JUMP JUMPDEST PUSH2 0x2740 PUSH1 0x40 DUP4 ADD DUP5 PUSH2 0x1BC9 JUMP JUMPDEST SWAP5 SWAP4 POP POP POP POP JUMP INVALID LOG2 PUSH5 0x6970667358 0x22 SLT KECCAK256 0x2B SMOD NOT 0xB7 BYTE SUB TIMESTAMP GAS COINBASE MSTORE PUSH17 0x6B9EEB5FA5319739D56357D580021D1AF2 0x22 0x2B 0x5E 0x5E PUSH5 0x736F6C6343 STOP ADDMOD SLT STOP CALLER "
		},
		"gasEstimates": {
			"creation": {
				"codeDepositCost": "2022000",
				"executionCost": "80048",
				"totalCost": "2102048"
			},
			"external": {
				"addLiquidity()": "infinite",
				"createPool(uint256,uint256,uint256,address,address)": "infinite",
				"decimals()": "2563",
				"erc20Address()": "2604",
				"etherLiquidityForAddress(address)": "2858",
				"etherPricer()": "2559",
				"feeDenominator()": "2497",
				"feeNumerator()": "2539",
				"feesEther()": "2496",
				"feesToken()": "2541",
				"getDEXinfo()": "infinite",
				"getEtherPrice()": "infinite",
				"getPoolLiquidityInUSDCents()": "infinite",
				"getTokenPrice()": "infinite",
				"k()": "2540",
				"onERC20Received(address,uint256,address)": "infinite",
				"removeLiquidity(uint256)": "infinite",
				"reset()": "207",
				"setEtherPricer(address)": "24854",
				"supportsInterface(bytes4)": "754",
				"symbol()": "infinite",
				"tokenLiquidityForAddress(address)": "2925",
				"x()": "2475",
				"y()": "2496"
			}
		},
		"methodIdentifiers": {
			"addLiquidity()": "e8078d94",
			"createPool(uint256,uint256,uint256,address,address)": "add010a5",
			"decimals()": "313ce567",
			"erc20Address()": "276184ae",
			"etherLiquidityForAddress(address)": "d3c51d91",
			"etherPricer()": "4f54a081",
			"feeDenominator()": "180b0d7e",
			"feeNumerator()": "e86dea4a",
			"feesEther()": "5dfd8773",
			"feesToken()": "2bfdf307",
			"getDEXinfo()": "9fed4ad8",
			"getEtherPrice()": "ca7c4dba",
			"getPoolLiquidityInUSDCents()": "b7c56525",
			"getTokenPrice()": "4b94f50e",
			"k()": "b4f40c61",
			"onERC20Received(address,uint256,address)": "7ff879e3",
			"removeLiquidity(uint256)": "9c8f9f23",
			"reset()": "d826f88f",
			"setEtherPricer(address)": "feffe7e4",
			"supportsInterface(bytes4)": "01ffc9a7",
			"symbol()": "95d89b41",
			"tokenLiquidityForAddress(address)": "8d729abb",
			"x()": "0c55699c",
			"y()": "a56dfe4a"
		}
	},
	"abi": [
		{
			"inputs": [],
			"stateMutability": "nonpayable",
			"type": "constructor"
		},
		{
			"anonymous": false,
			"inputs": [],
			"name": "liquidityChangeEvent",
			"type": "event"
		},
		{
			"inputs": [],
			"name": "addLiquidity",
			"outputs": [],
			"stateMutability": "payable",
			"type": "function"
		},
		{
			"inputs": [
				{
					"internalType": "uint256",
					"name": "_tokenAmount",
					"type": "uint256"
				},
				{
					"internalType": "uint256",
					"name": "_feeNumerator",
					"type": "uint256"
				},
				{
					"internalType": "uint256",
					"name": "_feeDenominator",
					"type": "uint256"
				},
				{
					"internalType": "address",
					"name": "_erc20token",
					"type": "address"
				},
				{
					"internalType": "address",
					"name": "_etherPricer",
					"type": "address"
				}
			],
			"name": "createPool",
			"outputs": [],
			"stateMutability": "payable",
			"type": "function"
		},
		{
			"inputs": [],
			"name": "decimals",
			"outputs": [
				{
					"internalType": "uint256",
					"name": "",
					"type": "uint256"
				}
			],
			"stateMutability": "view",
			"type": "function"
		},
		{
			"inputs": [],
			"name": "erc20Address",
			"outputs": [
				{
					"internalType": "address",
					"name": "",
					"type": "address"
				}
			],
			"stateMutability": "view",
			"type": "function"
		},
		{
			"inputs": [
				{
					"internalType": "address",
					"name": "",
					"type": "address"
				}
			],
			"name": "etherLiquidityForAddress",
			"outputs": [
				{
					"internalType": "uint256",
					"name": "",
					"type": "uint256"
				}
			],
			"stateMutability": "view",
			"type": "function"
		},
		{
			"inputs": [],
			"name": "etherPricer",
			"outputs": [
				{
					"internalType": "address",
					"name": "",
					"type": "address"
				}
			],
			"stateMutability": "view",
			"type": "function"
		},
		{
			"inputs": [],
			"name": "feeDenominator",
			"outputs": [
				{
					"internalType": "uint256",
					"name": "",
					"type": "uint256"
				}
			],
			"stateMutability": "view",
			"type": "function"
		},
		{
			"inputs": [],
			"name": "feeNumerator",
			"outputs": [
				{
					"internalType": "uint256",
					"name": "",
					"type": "uint256"
				}
			],
			"stateMutability": "view",
			"type": "function"
		},
		{
			"inputs": [],
			"name": "feesEther",
			"outputs": [
				{
					"internalType": "uint256",
					"name": "",
					"type": "uint256"
				}
			],
			"stateMutability": "view",
			"type": "function"
		},
		{
			"inputs": [],
			"name": "feesToken",
			"outputs": [
				{
					"internalType": "uint256",
					"name": "",
					"type": "uint256"
				}
			],
			"stateMutability": "view",
			"type": "function"
		},
		{
			"inputs": [],
			"name": "getDEXinfo",
			"outputs": [
				{
					"internalType": "address",
					"name": "",
					"type": "address"
				},
				{
					"internalType": "string",
					"name": "",
					"type": "string"
				},
				{
					"internalType": "string",
					"name": "",
					"type": "string"
				},
				{
					"internalType": "address",
					"name": "",
					"type": "address"
				},
				{
					"internalType": "uint256",
					"name": "",
					"type": "uint256"
				},
				{
					"internalType": "uint256",
					"name": "",
					"type": "uint256"
				},
				{
					"internalType": "uint256",
					"name": "",
					"type": "uint256"
				},
				{
					"internalType": "uint256",
					"name": "",
					"type": "uint256"
				},
				{
					"internalType": "uint256",
					"name": "",
					"type": "uint256"
				},
				{
					"internalType": "uint256",
					"name": "",
					"type": "uint256"
				},
				{
					"internalType": "uint256",
					"name": "",
					"type": "uint256"
				},
				{
					"internalType": "uint256",
					"name": "",
					"type": "uint256"
				}
			],
			"stateMutability": "view",
			"type": "function"
		},
		{
			"inputs": [],
			"name": "getEtherPrice",
			"outputs": [
				{
					"internalType": "uint256",
					"name": "",
					"type": "uint256"
				}
			],
			"stateMutability": "view",
			"type": "function"
		},
		{
			"inputs": [],
			"name": "getPoolLiquidityInUSDCents",
			"outputs": [
				{
					"internalType": "uint256",
					"name": "",
					"type": "uint256"
				}
			],
			"stateMutability": "view",
			"type": "function"
		},
		{
			"inputs": [],
			"name": "getTokenPrice",
			"outputs": [
				{
					"internalType": "uint256",
					"name": "",
					"type": "uint256"
				}
			],
			"stateMutability": "view",
			"type": "function"
		},
		{
			"inputs": [],
			"name": "k",
			"outputs": [
				{
					"internalType": "uint256",
					"name": "",
					"type": "uint256"
				}
			],
			"stateMutability": "view",
			"type": "function"
		},
		{
			"inputs": [
				{
					"internalType": "address",
					"name": "from",
					"type": "address"
				},
				{
					"internalType": "uint256",
					"name": "amount",
					"type": "uint256"
				},
				{
					"internalType": "address",
					"name": "erc20",
					"type": "address"
				}
			],
			"name": "onERC20Received",
			"outputs": [
				{
					"internalType": "bool",
					"name": "",
					"type": "bool"
				}
			],
			"stateMutability": "nonpayable",
			"type": "function"
		},
		{
			"inputs": [
				{
					"internalType": "uint256",
					"name": "amountEther",
					"type": "uint256"
				}
			],
			"name": "removeLiquidity",
			"outputs": [],
			"stateMutability": "nonpayable",
			"type": "function"
		},
		{
			"inputs": [],
			"name": "reset",
			"outputs": [],
			"stateMutability": "pure",
			"type": "function"
		},
		{
			"inputs": [
				{
					"internalType": "address",
					"name": "p",
					"type": "address"
				}
			],
			"name": "setEtherPricer",
			"outputs": [],
			"stateMutability": "nonpayable",
			"type": "function"
		},
		{
			"inputs": [
				{
					"internalType": "bytes4",
					"name": "interfaceID",
					"type": "bytes4"
				}
			],
			"name": "supportsInterface",
			"outputs": [
				{
					"internalType": "bool",
					"name": "",
					"type": "bool"
				}
			],
			"stateMutability": "pure",
			"type": "function"
		},
		{
			"inputs": [],
			"name": "symbol",
			"outputs": [
				{
					"internalType": "string",
					"name": "",
					"type": "string"
				}
			],
			"stateMutability": "view",
			"type": "function"
		},
		{
			"inputs": [
				{
					"internalType": "address",
					"name": "",
					"type": "address"
				}
			],
			"name": "tokenLiquidityForAddress",
			"outputs": [
				{
					"internalType": "uint256",
					"name": "",
					"type": "uint256"
				}
			],
			"stateMutability": "view",
			"type": "function"
		},
		{
			"inputs": [],
			"name": "x",
			"outputs": [
				{
					"internalType": "uint256",
					"name": "",
					"type": "uint256"
				}
			],
			"stateMutability": "view",
			"type": "function"
		},
		{
			"inputs": [],
			"name": "y",
			"outputs": [
				{
					"internalType": "uint256",
					"name": "",
					"type": "uint256"
				}
			],
			"stateMutability": "view",
			"type": "function"
		},
		{
			"stateMutability": "payable",
			"type": "receive"
		}
	]
}