{
	"data": {
		"bytecode": {
			"linkReferences": {},
			"object": "608060405234801561001057600080fd5b5033600560006101000a81548173ffffffffffffffffffffffffffffffffffffffff021916908373ffffffffffffffffffffffffffffffffffffffff1602179055506115fd806100616000396000f3fe608060405234801561001057600080fd5b50600436106100b45760003560e01c806377ca29471161007157806377ca2947146101b35780637fc29673146101e35780639cfeb679146101ed578063a30254e714610209578063c7a9f77b14610239578063dfd68b9114610257576100b4565b806301ffc9a7146100b9578063077f3b02146100e957806353acf8831461011957806365dd2f691461014957806371ae413d146101795780637241d75f14610197575b600080fd5b6100d360048036038101906100ce9190610a2b565b610287565b6040516100e09190610a73565b60405180910390f35b61010360048036038101906100fe9190610c0a565b610321565b6040516101109190610c75565b60405180910390f35b610133600480360381019061012e9190610c90565b610493565b6040516101409190610d3c565b60405180910390f35b610163600480360381019061015e9190610d5e565b610533565b6040516101709190610c75565b60405180910390f35b6101816105ec565b60405161018e9190610de8565b60405180910390f35b6101b160048036038101906101ac9190610e03565b610612565b005b6101cd60048036038101906101c89190610e72565b610803565b6040516101da9190610c75565b60405180910390f35b6101eb61083e565b005b61020760048036038101906102029190610efa565b610897565b005b610223600480360381019061021e9190610efa565b610981565b6040516102309190610a73565b60405180910390f35b6102416109a1565b60405161024e9190610c75565b60405180910390f35b610271600480360381019061026c9190610c90565b6109a7565b60405161027e9190610c75565b60405180910390f35b60007f1c95926d000000000000000000000000000000000000000000000000000000007bffffffffffffffffffffffffffffffffffffffffffffffffffffffff1916827bffffffffffffffffffffffffffffffffffffffffffffffffffffffff1916148061031a57506301ffc9a760e01b827bffffffffffffffffffffffffffffffffffffffffffffffffffffffff1916145b9050919050565b6000600560009054906101000a900473ffffffffffffffffffffffffffffffffffffffff1673ffffffffffffffffffffffffffffffffffffffff163373ffffffffffffffffffffffffffffffffffffffff1614806103c85750600160003373ffffffffffffffffffffffffffffffffffffffff1673ffffffffffffffffffffffffffffffffffffffff16815260200190815260200160002060009054906101000a900460ff165b610407576040517f08c379a00000000000000000000000000000000000000000000000000000000081526004016103fe90610f99565b60405180910390fd5b826004600080548152602001908152602001600020908161042891906111c5565b50816003600080548152602001908152602001600020819055506000547f1e5500ede7ec81cd4d6537a1a618f3424510f89d03c2252ee7c80e60a1278b6760405160405180910390a2600080815480929190610483906112c6565b9190505550600054905092915050565b600460205280600052604060002060009150905080546104b290610fe8565b80601f01602080910402602001604051908101604052809291908181526020018280546104de90610fe8565b801561052b5780601f106105005761010080835404028352916020019161052b565b820191906000526020600020905b81548152906001019060200180831161050e57829003601f168201915b505050505081565b600080600090506000805b6000548110156105c9576000600260008381526020019081526020016000208660405161056b919061134a565b908152602001604051809103902054905060008111156105b5576003600083815260200190815260200160002054836105a49190611361565b925080846105b29190611361565b93505b81806105c0906112c6565b9250505061053e565b81612710846105d89190611395565b6105e29190611406565b9350505050919050565b600560009054906101000a900473ffffffffffffffffffffffffffffffffffffffff1681565b600560009054906101000a900473ffffffffffffffffffffffffffffffffffffffff1673ffffffffffffffffffffffffffffffffffffffff163373ffffffffffffffffffffffffffffffffffffffff1614806106b75750600160003373ffffffffffffffffffffffffffffffffffffffff1673ffffffffffffffffffffffffffffffffffffffff16815260200190815260200160002060009054906101000a900460ff165b6106f6576040517f08c379a00000000000000000000000000000000000000000000000000000000081526004016106ed90610f99565b60405180910390fd5b60008210158015610708575060005482105b610747576040517f08c379a000000000000000000000000000000000000000000000000000000000815260040161073e90611483565b60405180910390fd5b600360008381526020019081526020016000205481111561079d576040517f08c379a000000000000000000000000000000000000000000000000000000000815260040161079490611515565b60405180910390fd5b8060026000848152602001908152602001600020846040516107bf919061134a565b908152602001604051809103902081905550817fef2ac44e203202a0e5ecc9974197e85354c58fc899e46eaa72f8aed9aa0b701d60405160405180910390a2505050565b600260205281600052604060002081805160208101820180518482526020830160208501208183528095505050505050600091509150505481565b60018060003373ffffffffffffffffffffffffffffffffffffffff1673ffffffffffffffffffffffffffffffffffffffff16815260200190815260200160002060006101000a81548160ff021916908315150217905550565b600560009054906101000a900473ffffffffffffffffffffffffffffffffffffffff1673ffffffffffffffffffffffffffffffffffffffff163373ffffffffffffffffffffffffffffffffffffffff1614610927576040517f08c379a000000000000000000000000000000000000000000000000000000000815260040161091e906115a7565b60405180910390fd5b60018060008373ffffffffffffffffffffffffffffffffffffffff1673ffffffffffffffffffffffffffffffffffffffff16815260200190815260200160002060006101000a81548160ff02191690831515021790555050565b60016020528060005260406000206000915054906101000a900460ff1681565b60005481565b60036020528060005260406000206000915090505481565b6000604051905090565b600080fd5b600080fd5b60007fffffffff0000000000000000000000000000000000000000000000000000000082169050919050565b610a08816109d3565b8114610a1357600080fd5b50565b600081359050610a25816109ff565b92915050565b600060208284031215610a4157610a406109c9565b5b6000610a4f84828501610a16565b91505092915050565b60008115159050919050565b610a6d81610a58565b82525050565b6000602082019050610a886000830184610a64565b92915050565b600080fd5b600080fd5b6000601f19601f8301169050919050565b7f4e487b7100000000000000000000000000000000000000000000000000000000600052604160045260246000fd5b610ae182610a98565b810181811067ffffffffffffffff82111715610b0057610aff610aa9565b5b80604052505050565b6000610b136109bf565b9050610b1f8282610ad8565b919050565b600067ffffffffffffffff821115610b3f57610b3e610aa9565b5b610b4882610a98565b9050602081019050919050565b82818337600083830152505050565b6000610b77610b7284610b24565b610b09565b905082815260208101848484011115610b9357610b92610a93565b5b610b9e848285610b55565b509392505050565b600082601f830112610bbb57610bba610a8e565b5b8135610bcb848260208601610b64565b91505092915050565b6000819050919050565b610be781610bd4565b8114610bf257600080fd5b50565b600081359050610c0481610bde565b92915050565b60008060408385031215610c2157610c206109c9565b5b600083013567ffffffffffffffff811115610c3f57610c3e6109ce565b5b610c4b85828601610ba6565b9250506020610c5c85828601610bf5565b9150509250929050565b610c6f81610bd4565b82525050565b6000602082019050610c8a6000830184610c66565b92915050565b600060208284031215610ca657610ca56109c9565b5b6000610cb484828501610bf5565b91505092915050565b600081519050919050565b600082825260208201905092915050565b60005b83811015610cf7578082015181840152602081019050610cdc565b60008484015250505050565b6000610d0e82610cbd565b610d188185610cc8565b9350610d28818560208601610cd9565b610d3181610a98565b840191505092915050565b60006020820190508181036000830152610d568184610d03565b905092915050565b600060208284031215610d7457610d736109c9565b5b600082013567ffffffffffffffff811115610d9257610d916109ce565b5b610d9e84828501610ba6565b91505092915050565b600073ffffffffffffffffffffffffffffffffffffffff82169050919050565b6000610dd282610da7565b9050919050565b610de281610dc7565b82525050565b6000602082019050610dfd6000830184610dd9565b92915050565b600080600060608486031215610e1c57610e1b6109c9565b5b600084013567ffffffffffffffff811115610e3a57610e396109ce565b5b610e4686828701610ba6565b9350506020610e5786828701610bf5565b9250506040610e6886828701610bf5565b9150509250925092565b60008060408385031215610e8957610e886109c9565b5b6000610e9785828601610bf5565b925050602083013567ffffffffffffffff811115610eb857610eb76109ce565b5b610ec485828601610ba6565b9150509250929050565b610ed781610dc7565b8114610ee257600080fd5b50565b600081359050610ef481610ece565b92915050565b600060208284031215610f1057610f0f6109c9565b5b6000610f1e84828501610ee5565b91505092915050565b7f63616c6c6572206d75737420626520696e7374727563746f72206f722064657360008201527f69676e6174656420544121000000000000000000000000000000000000000000602082015250565b6000610f83602b83610cc8565b9150610f8e82610f27565b604082019050919050565b60006020820190508181036000830152610fb281610f76565b9050919050565b7f4e487b7100000000000000000000000000000000000000000000000000000000600052602260045260246000fd5b6000600282049050600182168061100057607f821691505b60208210810361101357611012610fb9565b5b50919050565b60008190508160005260206000209050919050565b60006020601f8301049050919050565b600082821b905092915050565b60006008830261107b7fffffffffffffffffffffffffffffffffffffffffffffffffffffffffffffffff8261103e565b611085868361103e565b95508019841693508086168417925050509392505050565b6000819050919050565b60006110c26110bd6110b884610bd4565b61109d565b610bd4565b9050919050565b6000819050919050565b6110dc836110a7565b6110f06110e8826110c9565b84845461104b565b825550505050565b600090565b6111056110f8565b6111108184846110d3565b505050565b5b81811015611134576111296000826110fd565b600181019050611116565b5050565b601f8211156111795761114a81611019565b6111538461102e565b81016020851015611162578190505b61117661116e8561102e565b830182611115565b50505b505050565b600082821c905092915050565b600061119c6000198460080261117e565b1980831691505092915050565b60006111b5838361118b565b9150826002028217905092915050565b6111ce82610cbd565b67ffffffffffffffff8111156111e7576111e6610aa9565b5b6111f18254610fe8565b6111fc828285611138565b600060209050601f83116001811461122f576000841561121d578287015190505b61122785826111a9565b86555061128f565b601f19841661123d86611019565b60005b8281101561126557848901518255600182019150602085019450602081019050611240565b86831015611282578489015161127e601f89168261118b565b8355505b6001600288020188555050505b505050505050565b7f4e487b7100000000000000000000000000000000000000000000000000000000600052601160045260246000fd5b60006112d182610bd4565b91507fffffffffffffffffffffffffffffffffffffffffffffffffffffffffffffffff820361130357611302611297565b5b600182019050919050565b600081905092915050565b600061132482610cbd565b61132e818561130e565b935061133e818560208601610cd9565b80840191505092915050565b60006113568284611319565b915081905092915050565b600061136c82610bd4565b915061137783610bd4565b925082820190508082111561138f5761138e611297565b5b92915050565b60006113a082610bd4565b91506113ab83610bd4565b92508282026113b981610bd4565b915082820484148315176113d0576113cf611297565b5b5092915050565b7f4e487b7100000000000000000000000000000000000000000000000000000000600052601260045260246000fd5b600061141182610bd4565b915061141c83610bd4565b92508261142c5761142b6113d7565b5b828204905092915050565b7f61737369676e6d656e74204944206d7573742062652076616c69640000000000600082015250565b600061146d601b83610cc8565b915061147882611437565b602082019050919050565b6000602082019050818103600083015261149c81611460565b9050919050565b7f73636f7265206d757374206265206c6f776572207468616e206f72206571756160008201527f6c20746f206d61782073636f7265000000000000000000000000000000000000602082015250565b60006114ff602e83610cc8565b915061150a826114a3565b604082019050919050565b6000602082019050818103600083015261152e816114f2565b9050919050565b7f6f6e6c7920696e7374727563746f722063616e2064657369676e61746520544160008201527f7300000000000000000000000000000000000000000000000000000000000000602082015250565b6000611591602183610cc8565b915061159c82611535565b604082019050919050565b600060208201905081810360008301526115c081611584565b905091905056fea2646970667358221220cb851048d6ce70fd74fdcc1e9b059fc8d94b8113fafd9444186f8c406993793164736f6c63430008120033",
			"opcodes": "PUSH1 0x80 PUSH1 0x40 MSTORE CALLVALUE DUP1 ISZERO PUSH2 0x10 JUMPI PUSH1 0x0 DUP1 REVERT JUMPDEST POP CALLER PUSH1 0x5 PUSH1 0x0 PUSH2 0x100 EXP DUP2 SLOAD DUP2 PUSH20 0xFFFFFFFFFFFFFFFFFFFFFFFFFFFFFFFFFFFFFFFF MUL NOT AND SWAP1 DUP4 PUSH20 0xFFFFFFFFFFFFFFFFFFFFFFFFFFFFFFFFFFFFFFFF AND MUL OR SWAP1 SSTORE POP PUSH2 0x15FD DUP1 PUSH2 0x61 PUSH1 0x0 CODECOPY PUSH1 0x0 RETURN INVALID PUSH1 0x80 PUSH1 0x40 MSTORE CALLVALUE DUP1 ISZERO PUSH2 0x10 JUMPI PUSH1 0x0 DUP1 REVERT JUMPDEST POP PUSH1 0x4 CALLDATASIZE LT PUSH2 0xB4 JUMPI PUSH1 0x0 CALLDATALOAD PUSH1 0xE0 SHR DUP1 PUSH4 0x77CA2947 GT PUSH2 0x71 JUMPI DUP1 PUSH4 0x77CA2947 EQ PUSH2 0x1B3 JUMPI DUP1 PUSH4 0x7FC29673 EQ PUSH2 0x1E3 JUMPI DUP1 PUSH4 0x9CFEB679 EQ PUSH2 0x1ED JUMPI DUP1 PUSH4 0xA30254E7 EQ PUSH2 0x209 JUMPI DUP1 PUSH4 0xC7A9F77B EQ PUSH2 0x239 JUMPI DUP1 PUSH4 0xDFD68B91 EQ PUSH2 0x257 JUMPI PUSH2 0xB4 JUMP JUMPDEST DUP1 PUSH4 0x1FFC9A7 EQ PUSH2 0xB9 JUMPI DUP1 PUSH4 0x77F3B02 EQ PUSH2 0xE9 JUMPI DUP1 PUSH4 0x53ACF883 EQ PUSH2 0x119 JUMPI DUP1 PUSH4 0x65DD2F69 EQ PUSH2 0x149 JUMPI DUP1 PUSH4 0x71AE413D EQ PUSH2 0x179 JUMPI DUP1 PUSH4 0x7241D75F EQ PUSH2 0x197 JUMPI JUMPDEST PUSH1 0x0 DUP1 REVERT JUMPDEST PUSH2 0xD3 PUSH1 0x4 DUP1 CALLDATASIZE SUB DUP2 ADD SWAP1 PUSH2 0xCE SWAP2 SWAP1 PUSH2 0xA2B JUMP JUMPDEST PUSH2 0x287 JUMP JUMPDEST PUSH1 0x40 MLOAD PUSH2 0xE0 SWAP2 SWAP1 PUSH2 0xA73 JUMP JUMPDEST PUSH1 0x40 MLOAD DUP1 SWAP2 SUB SWAP1 RETURN JUMPDEST PUSH2 0x103 PUSH1 0x4 DUP1 CALLDATASIZE SUB DUP2 ADD SWAP1 PUSH2 0xFE SWAP2 SWAP1 PUSH2 0xC0A JUMP JUMPDEST PUSH2 0x321 JUMP JUMPDEST PUSH1 0x40 MLOAD PUSH2 0x110 SWAP2 SWAP1 PUSH2 0xC75 JUMP JUMPDEST PUSH1 0x40 MLOAD DUP1 SWAP2 SUB SWAP1 RETURN JUMPDEST PUSH2 0x133 PUSH1 0x4 DUP1 CALLDATASIZE SUB DUP2 ADD SWAP1 PUSH2 0x12E SWAP2 SWAP1 PUSH2 0xC90 JUMP JUMPDEST PUSH2 0x493 JUMP JUMPDEST PUSH1 0x40 MLOAD PUSH2 0x140 SWAP2 SWAP1 PUSH2 0xD3C JUMP JUMPDEST PUSH1 0x40 MLOAD DUP1 SWAP2 SUB SWAP1 RETURN JUMPDEST PUSH2 0x163 PUSH1 0x4 DUP1 CALLDATASIZE SUB DUP2 ADD SWAP1 PUSH2 0x15E SWAP2 SWAP1 PUSH2 0xD5E JUMP JUMPDEST PUSH2 0x533 JUMP JUMPDEST PUSH1 0x40 MLOAD PUSH2 0x170 SWAP2 SWAP1 PUSH2 0xC75 JUMP JUMPDEST PUSH1 0x40 MLOAD DUP1 SWAP2 SUB SWAP1 RETURN JUMPDEST PUSH2 0x181 PUSH2 0x5EC JUMP JUMPDEST PUSH1 0x40 MLOAD PUSH2 0x18E SWAP2 SWAP1 PUSH2 0xDE8 JUMP JUMPDEST PUSH1 0x40 MLOAD DUP1 SWAP2 SUB SWAP1 RETURN JUMPDEST PUSH2 0x1B1 PUSH1 0x4 DUP1 CALLDATASIZE SUB DUP2 ADD SWAP1 PUSH2 0x1AC SWAP2 SWAP1 PUSH2 0xE03 JUMP JUMPDEST PUSH2 0x612 JUMP JUMPDEST STOP JUMPDEST PUSH2 0x1CD PUSH1 0x4 DUP1 CALLDATASIZE SUB DUP2 ADD SWAP1 PUSH2 0x1C8 SWAP2 SWAP1 PUSH2 0xE72 JUMP JUMPDEST PUSH2 0x803 JUMP JUMPDEST PUSH1 0x40 MLOAD PUSH2 0x1DA SWAP2 SWAP1 PUSH2 0xC75 JUMP JUMPDEST PUSH1 0x40 MLOAD DUP1 SWAP2 SUB SWAP1 RETURN JUMPDEST PUSH2 0x1EB PUSH2 0x83E JUMP JUMPDEST STOP JUMPDEST PUSH2 0x207 PUSH1 0x4 DUP1 CALLDATASIZE SUB DUP2 ADD SWAP1 PUSH2 0x202 SWAP2 SWAP1 PUSH2 0xEFA JUMP JUMPDEST PUSH2 0x897 JUMP JUMPDEST STOP JUMPDEST PUSH2 0x223 PUSH1 0x4 DUP1 CALLDATASIZE SUB DUP2 ADD SWAP1 PUSH2 0x21E SWAP2 SWAP1 PUSH2 0xEFA JUMP JUMPDEST PUSH2 0x981 JUMP JUMPDEST PUSH1 0x40 MLOAD PUSH2 0x230 SWAP2 SWAP1 PUSH2 0xA73 JUMP JUMPDEST PUSH1 0x40 MLOAD DUP1 SWAP2 SUB SWAP1 RETURN JUMPDEST PUSH2 0x241 PUSH2 0x9A1 JUMP JUMPDEST PUSH1 0x40 MLOAD PUSH2 0x24E SWAP2 SWAP1 PUSH2 0xC75 JUMP JUMPDEST PUSH1 0x40 MLOAD DUP1 SWAP2 SUB SWAP1 RETURN JUMPDEST PUSH2 0x271 PUSH1 0x4 DUP1 CALLDATASIZE SUB DUP2 ADD SWAP1 PUSH2 0x26C SWAP2 SWAP1 PUSH2 0xC90 JUMP JUMPDEST PUSH2 0x9A7 JUMP JUMPDEST PUSH1 0x40 MLOAD PUSH2 0x27E SWAP2 SWAP1 PUSH2 0xC75 JUMP JUMPDEST PUSH1 0x40 MLOAD DUP1 SWAP2 SUB SWAP1 RETURN JUMPDEST PUSH1 0x0 PUSH32 0x1C95926D00000000000000000000000000000000000000000000000000000000 PUSH28 0xFFFFFFFFFFFFFFFFFFFFFFFFFFFFFFFFFFFFFFFFFFFFFFFFFFFFFFFF NOT AND DUP3 PUSH28 0xFFFFFFFFFFFFFFFFFFFFFFFFFFFFFFFFFFFFFFFFFFFFFFFFFFFFFFFF NOT AND EQ DUP1 PUSH2 0x31A JUMPI POP PUSH4 0x1FFC9A7 PUSH1 0xE0 SHL DUP3 PUSH28 0xFFFFFFFFFFFFFFFFFFFFFFFFFFFFFFFFFFFFFFFFFFFFFFFFFFFFFFFF NOT AND EQ JUMPDEST SWAP1 POP SWAP2 SWAP1 POP JUMP JUMPDEST PUSH1 0x0 PUSH1 0x5 PUSH1 0x0 SWAP1 SLOAD SWAP1 PUSH2 0x100 EXP SWAP1 DIV PUSH20 0xFFFFFFFFFFFFFFFFFFFFFFFFFFFFFFFFFFFFFFFF AND PUSH20 0xFFFFFFFFFFFFFFFFFFFFFFFFFFFFFFFFFFFFFFFF AND CALLER PUSH20 0xFFFFFFFFFFFFFFFFFFFFFFFFFFFFFFFFFFFFFFFF AND EQ DUP1 PUSH2 0x3C8 JUMPI POP PUSH1 0x1 PUSH1 0x0 CALLER PUSH20 0xFFFFFFFFFFFFFFFFFFFFFFFFFFFFFFFFFFFFFFFF AND PUSH20 0xFFFFFFFFFFFFFFFFFFFFFFFFFFFFFFFFFFFFFFFF AND DUP2 MSTORE PUSH1 0x20 ADD SWAP1 DUP2 MSTORE PUSH1 0x20 ADD PUSH1 0x0 KECCAK256 PUSH1 0x0 SWAP1 SLOAD SWAP1 PUSH2 0x100 EXP SWAP1 DIV PUSH1 0xFF AND JUMPDEST PUSH2 0x407 JUMPI PUSH1 0x40 MLOAD PUSH32 0x8C379A000000000000000000000000000000000000000000000000000000000 DUP2 MSTORE PUSH1 0x4 ADD PUSH2 0x3FE SWAP1 PUSH2 0xF99 JUMP JUMPDEST PUSH1 0x40 MLOAD DUP1 SWAP2 SUB SWAP1 REVERT JUMPDEST DUP3 PUSH1 0x4 PUSH1 0x0 DUP1 SLOAD DUP2 MSTORE PUSH1 0x20 ADD SWAP1 DUP2 MSTORE PUSH1 0x20 ADD PUSH1 0x0 KECCAK256 SWAP1 DUP2 PUSH2 0x428 SWAP2 SWAP1 PUSH2 0x11C5 JUMP JUMPDEST POP DUP2 PUSH1 0x3 PUSH1 0x0 DUP1 SLOAD DUP2 MSTORE PUSH1 0x20 ADD SWAP1 DUP2 MSTORE PUSH1 0x20 ADD PUSH1 0x0 KECCAK256 DUP2 SWAP1 SSTORE POP PUSH1 0x0 SLOAD PUSH32 0x1E5500EDE7EC81CD4D6537A1A618F3424510F89D03C2252EE7C80E60A1278B67 PUSH1 0x40 MLOAD PUSH1 0x40 MLOAD DUP1 SWAP2 SUB SWAP1 LOG2 PUSH1 0x0 DUP1 DUP2 SLOAD DUP1 SWAP3 SWAP2 SWAP1 PUSH2 0x483 SWAP1 PUSH2 0x12C6 JUMP JUMPDEST SWAP2 SWAP1 POP SSTORE POP PUSH1 0x0 SLOAD SWAP1 POP SWAP3 SWAP2 POP POP JUMP JUMPDEST PUSH1 0x4 PUSH1 0x20 MSTORE DUP1 PUSH1 0x0 MSTORE PUSH1 0x40 PUSH1 0x0 KECCAK256 PUSH1 0x0 SWAP2 POP SWAP1 POP DUP1 SLOAD PUSH2 0x4B2 SWAP1 PUSH2 0xFE8 JUMP JUMPDEST DUP1 PUSH1 0x1F ADD PUSH1 0x20 DUP1 SWAP2 DIV MUL PUSH1 0x20 ADD PUSH1 0x40 MLOAD SWAP1 DUP2 ADD PUSH1 0x40 MSTORE DUP1 SWAP3 SWAP2 SWAP1 DUP2 DUP2 MSTORE PUSH1 0x20 ADD DUP3 DUP1 SLOAD PUSH2 0x4DE SWAP1 PUSH2 0xFE8 JUMP JUMPDEST DUP1 ISZERO PUSH2 0x52B JUMPI DUP1 PUSH1 0x1F LT PUSH2 0x500 JUMPI PUSH2 0x100 DUP1 DUP4 SLOAD DIV MUL DUP4 MSTORE SWAP2 PUSH1 0x20 ADD SWAP2 PUSH2 0x52B JUMP JUMPDEST DUP3 ADD SWAP2 SWAP1 PUSH1 0x0 MSTORE PUSH1 0x20 PUSH1 0x0 KECCAK256 SWAP1 JUMPDEST DUP2 SLOAD DUP2 MSTORE SWAP1 PUSH1 0x1 ADD SWAP1 PUSH1 0x20 ADD DUP1 DUP4 GT PUSH2 0x50E JUMPI DUP3 SWAP1 SUB PUSH1 0x1F AND DUP3 ADD SWAP2 JUMPDEST POP POP POP POP POP DUP2 JUMP JUMPDEST PUSH1 0x0 DUP1 PUSH1 0x0 SWAP1 POP PUSH1 0x0 DUP1 JUMPDEST PUSH1 0x0 SLOAD DUP2 LT ISZERO PUSH2 0x5C9 JUMPI PUSH1 0x0 PUSH1 0x2 PUSH1 0x0 DUP4 DUP2 MSTORE PUSH1 0x20 ADD SWAP1 DUP2 MSTORE PUSH1 0x20 ADD PUSH1 0x0 KECCAK256 DUP7 PUSH1 0x40 MLOAD PUSH2 0x56B SWAP2 SWAP1 PUSH2 0x134A JUMP JUMPDEST SWAP1 DUP2 MSTORE PUSH1 0x20 ADD PUSH1 0x40 MLOAD DUP1 SWAP2 SUB SWAP1 KECCAK256 SLOAD SWAP1 POP PUSH1 0x0 DUP2 GT ISZERO PUSH2 0x5B5 JUMPI PUSH1 0x3 PUSH1 0x0 DUP4 DUP2 MSTORE PUSH1 0x20 ADD SWAP1 DUP2 MSTORE PUSH1 0x20 ADD PUSH1 0x0 KECCAK256 SLOAD DUP4 PUSH2 0x5A4 SWAP2 SWAP1 PUSH2 0x1361 JUMP JUMPDEST SWAP3 POP DUP1 DUP5 PUSH2 0x5B2 SWAP2 SWAP1 PUSH2 0x1361 JUMP JUMPDEST SWAP4 POP JUMPDEST DUP2 DUP1 PUSH2 0x5C0 SWAP1 PUSH2 0x12C6 JUMP JUMPDEST SWAP3 POP POP POP PUSH2 0x53E JUMP JUMPDEST DUP2 PUSH2 0x2710 DUP5 PUSH2 0x5D8 SWAP2 SWAP1 PUSH2 0x1395 JUMP JUMPDEST PUSH2 0x5E2 SWAP2 SWAP1 PUSH2 0x1406 JUMP JUMPDEST SWAP4 POP POP POP POP SWAP2 SWAP1 POP JUMP JUMPDEST PUSH1 0x5 PUSH1 0x0 SWAP1 SLOAD SWAP1 PUSH2 0x100 EXP SWAP1 DIV PUSH20 0xFFFFFFFFFFFFFFFFFFFFFFFFFFFFFFFFFFFFFFFF AND DUP2 JUMP JUMPDEST PUSH1 0x5 PUSH1 0x0 SWAP1 SLOAD SWAP1 PUSH2 0x100 EXP SWAP1 DIV PUSH20 0xFFFFFFFFFFFFFFFFFFFFFFFFFFFFFFFFFFFFFFFF AND PUSH20 0xFFFFFFFFFFFFFFFFFFFFFFFFFFFFFFFFFFFFFFFF AND CALLER PUSH20 0xFFFFFFFFFFFFFFFFFFFFFFFFFFFFFFFFFFFFFFFF AND EQ DUP1 PUSH2 0x6B7 JUMPI POP PUSH1 0x1 PUSH1 0x0 CALLER PUSH20 0xFFFFFFFFFFFFFFFFFFFFFFFFFFFFFFFFFFFFFFFF AND PUSH20 0xFFFFFFFFFFFFFFFFFFFFFFFFFFFFFFFFFFFFFFFF AND DUP2 MSTORE PUSH1 0x20 ADD SWAP1 DUP2 MSTORE PUSH1 0x20 ADD PUSH1 0x0 KECCAK256 PUSH1 0x0 SWAP1 SLOAD SWAP1 PUSH2 0x100 EXP SWAP1 DIV PUSH1 0xFF AND JUMPDEST PUSH2 0x6F6 JUMPI PUSH1 0x40 MLOAD PUSH32 0x8C379A000000000000000000000000000000000000000000000000000000000 DUP2 MSTORE PUSH1 0x4 ADD PUSH2 0x6ED SWAP1 PUSH2 0xF99 JUMP JUMPDEST PUSH1 0x40 MLOAD DUP1 SWAP2 SUB SWAP1 REVERT JUMPDEST PUSH1 0x0 DUP3 LT ISZERO DUP1 ISZERO PUSH2 0x708 JUMPI POP PUSH1 0x0 SLOAD DUP3 LT JUMPDEST PUSH2 0x747 JUMPI PUSH1 0x40 MLOAD PUSH32 0x8C379A000000000000000000000000000000000000000000000000000000000 DUP2 MSTORE PUSH1 0x4 ADD PUSH2 0x73E SWAP1 PUSH2 0x1483 JUMP JUMPDEST PUSH1 0x40 MLOAD DUP1 SWAP2 SUB SWAP1 REVERT JUMPDEST PUSH1 0x3 PUSH1 0x0 DUP4 DUP2 MSTORE PUSH1 0x20 ADD SWAP1 DUP2 MSTORE PUSH1 0x20 ADD PUSH1 0x0 KECCAK256 SLOAD DUP2 GT ISZERO PUSH2 0x79D JUMPI PUSH1 0x40 MLOAD PUSH32 0x8C379A000000000000000000000000000000000000000000000000000000000 DUP2 MSTORE PUSH1 0x4 ADD PUSH2 0x794 SWAP1 PUSH2 0x1515 JUMP JUMPDEST PUSH1 0x40 MLOAD DUP1 SWAP2 SUB SWAP1 REVERT JUMPDEST DUP1 PUSH1 0x2 PUSH1 0x0 DUP5 DUP2 MSTORE PUSH1 0x20 ADD SWAP1 DUP2 MSTORE PUSH1 0x20 ADD PUSH1 0x0 KECCAK256 DUP5 PUSH1 0x40 MLOAD PUSH2 0x7BF SWAP2 SWAP1 PUSH2 0x134A JUMP JUMPDEST SWAP1 DUP2 MSTORE PUSH1 0x20 ADD PUSH1 0x40 MLOAD DUP1 SWAP2 SUB SWAP1 KECCAK256 DUP2 SWAP1 SSTORE POP DUP2 PUSH32 0xEF2AC44E203202A0E5ECC9974197E85354C58FC899E46EAA72F8AED9AA0B701D PUSH1 0x40 MLOAD PUSH1 0x40 MLOAD DUP1 SWAP2 SUB SWAP1 LOG2 POP POP POP JUMP JUMPDEST PUSH1 0x2 PUSH1 0x20 MSTORE DUP2 PUSH1 0x0 MSTORE PUSH1 0x40 PUSH1 0x0 KECCAK256 DUP2 DUP1 MLOAD PUSH1 0x20 DUP2 ADD DUP3 ADD DUP1 MLOAD DUP5 DUP3 MSTORE PUSH1 0x20 DUP4 ADD PUSH1 0x20 DUP6 ADD KECCAK256 DUP2 DUP4 MSTORE DUP1 SWAP6 POP POP POP POP POP POP PUSH1 0x0 SWAP2 POP SWAP2 POP POP SLOAD DUP2 JUMP JUMPDEST PUSH1 0x1 DUP1 PUSH1 0x0 CALLER PUSH20 0xFFFFFFFFFFFFFFFFFFFFFFFFFFFFFFFFFFFFFFFF AND PUSH20 0xFFFFFFFFFFFFFFFFFFFFFFFFFFFFFFFFFFFFFFFF AND DUP2 MSTORE PUSH1 0x20 ADD SWAP1 DUP2 MSTORE PUSH1 0x20 ADD PUSH1 0x0 KECCAK256 PUSH1 0x0 PUSH2 0x100 EXP DUP2 SLOAD DUP2 PUSH1 0xFF MUL NOT AND SWAP1 DUP4 ISZERO ISZERO MUL OR SWAP1 SSTORE POP JUMP JUMPDEST PUSH1 0x5 PUSH1 0x0 SWAP1 SLOAD SWAP1 PUSH2 0x100 EXP SWAP1 DIV PUSH20 0xFFFFFFFFFFFFFFFFFFFFFFFFFFFFFFFFFFFFFFFF AND PUSH20 0xFFFFFFFFFFFFFFFFFFFFFFFFFFFFFFFFFFFFFFFF AND CALLER PUSH20 0xFFFFFFFFFFFFFFFFFFFFFFFFFFFFFFFFFFFFFFFF AND EQ PUSH2 0x927 JUMPI PUSH1 0x40 MLOAD PUSH32 0x8C379A000000000000000000000000000000000000000000000000000000000 DUP2 MSTORE PUSH1 0x4 ADD PUSH2 0x91E SWAP1 PUSH2 0x15A7 JUMP JUMPDEST PUSH1 0x40 MLOAD DUP1 SWAP2 SUB SWAP1 REVERT JUMPDEST PUSH1 0x1 DUP1 PUSH1 0x0 DUP4 PUSH20 0xFFFFFFFFFFFFFFFFFFFFFFFFFFFFFFFFFFFFFFFF AND PUSH20 0xFFFFFFFFFFFFFFFFFFFFFFFFFFFFFFFFFFFFFFFF AND DUP2 MSTORE PUSH1 0x20 ADD SWAP1 DUP2 MSTORE PUSH1 0x20 ADD PUSH1 0x0 KECCAK256 PUSH1 0x0 PUSH2 0x100 EXP DUP2 SLOAD DUP2 PUSH1 0xFF MUL NOT AND SWAP1 DUP4 ISZERO ISZERO MUL OR SWAP1 SSTORE POP POP JUMP JUMPDEST PUSH1 0x1 PUSH1 0x20 MSTORE DUP1 PUSH1 0x0 MSTORE PUSH1 0x40 PUSH1 0x0 KECCAK256 PUSH1 0x0 SWAP2 POP SLOAD SWAP1 PUSH2 0x100 EXP SWAP1 DIV PUSH1 0xFF AND DUP2 JUMP JUMPDEST PUSH1 0x0 SLOAD DUP2 JUMP JUMPDEST PUSH1 0x3 PUSH1 0x20 MSTORE DUP1 PUSH1 0x0 MSTORE PUSH1 0x40 PUSH1 0x0 KECCAK256 PUSH1 0x0 SWAP2 POP SWAP1 POP SLOAD DUP2 JUMP JUMPDEST PUSH1 0x0 PUSH1 0x40 MLOAD SWAP1 POP SWAP1 JUMP JUMPDEST PUSH1 0x0 DUP1 REVERT JUMPDEST PUSH1 0x0 DUP1 REVERT JUMPDEST PUSH1 0x0 PUSH32 0xFFFFFFFF00000000000000000000000000000000000000000000000000000000 DUP3 AND SWAP1 POP SWAP2 SWAP1 POP JUMP JUMPDEST PUSH2 0xA08 DUP2 PUSH2 0x9D3 JUMP JUMPDEST DUP2 EQ PUSH2 0xA13 JUMPI PUSH1 0x0 DUP1 REVERT JUMPDEST POP JUMP JUMPDEST PUSH1 0x0 DUP2 CALLDATALOAD SWAP1 POP PUSH2 0xA25 DUP2 PUSH2 0x9FF JUMP JUMPDEST SWAP3 SWAP2 POP POP JUMP JUMPDEST PUSH1 0x0 PUSH1 0x20 DUP3 DUP5 SUB SLT ISZERO PUSH2 0xA41 JUMPI PUSH2 0xA40 PUSH2 0x9C9 JUMP JUMPDEST JUMPDEST PUSH1 0x0 PUSH2 0xA4F DUP5 DUP3 DUP6 ADD PUSH2 0xA16 JUMP JUMPDEST SWAP2 POP POP SWAP3 SWAP2 POP POP JUMP JUMPDEST PUSH1 0x0 DUP2 ISZERO ISZERO SWAP1 POP SWAP2 SWAP1 POP JUMP JUMPDEST PUSH2 0xA6D DUP2 PUSH2 0xA58 JUMP JUMPDEST DUP3 MSTORE POP POP JUMP JUMPDEST PUSH1 0x0 PUSH1 0x20 DUP3 ADD SWAP1 POP PUSH2 0xA88 PUSH1 0x0 DUP4 ADD DUP5 PUSH2 0xA64 JUMP JUMPDEST SWAP3 SWAP2 POP POP JUMP JUMPDEST PUSH1 0x0 DUP1 REVERT JUMPDEST PUSH1 0x0 DUP1 REVERT JUMPDEST PUSH1 0x0 PUSH1 0x1F NOT PUSH1 0x1F DUP4 ADD AND SWAP1 POP SWAP2 SWAP1 POP JUMP JUMPDEST PUSH32 0x4E487B7100000000000000000000000000000000000000000000000000000000 PUSH1 0x0 MSTORE PUSH1 0x41 PUSH1 0x4 MSTORE PUSH1 0x24 PUSH1 0x0 REVERT JUMPDEST PUSH2 0xAE1 DUP3 PUSH2 0xA98 JUMP JUMPDEST DUP2 ADD DUP2 DUP2 LT PUSH8 0xFFFFFFFFFFFFFFFF DUP3 GT OR ISZERO PUSH2 0xB00 JUMPI PUSH2 0xAFF PUSH2 0xAA9 JUMP JUMPDEST JUMPDEST DUP1 PUSH1 0x40 MSTORE POP POP POP JUMP JUMPDEST PUSH1 0x0 PUSH2 0xB13 PUSH2 0x9BF JUMP JUMPDEST SWAP1 POP PUSH2 0xB1F DUP3 DUP3 PUSH2 0xAD8 JUMP JUMPDEST SWAP2 SWAP1 POP JUMP JUMPDEST PUSH1 0x0 PUSH8 0xFFFFFFFFFFFFFFFF DUP3 GT ISZERO PUSH2 0xB3F JUMPI PUSH2 0xB3E PUSH2 0xAA9 JUMP JUMPDEST JUMPDEST PUSH2 0xB48 DUP3 PUSH2 0xA98 JUMP JUMPDEST SWAP1 POP PUSH1 0x20 DUP2 ADD SWAP1 POP SWAP2 SWAP1 POP JUMP JUMPDEST DUP3 DUP2 DUP4 CALLDATACOPY PUSH1 0x0 DUP4 DUP4 ADD MSTORE POP POP POP JUMP JUMPDEST PUSH1 0x0 PUSH2 0xB77 PUSH2 0xB72 DUP5 PUSH2 0xB24 JUMP JUMPDEST PUSH2 0xB09 JUMP JUMPDEST SWAP1 POP DUP3 DUP2 MSTORE PUSH1 0x20 DUP2 ADD DUP5 DUP5 DUP5 ADD GT ISZERO PUSH2 0xB93 JUMPI PUSH2 0xB92 PUSH2 0xA93 JUMP JUMPDEST JUMPDEST PUSH2 0xB9E DUP5 DUP3 DUP6 PUSH2 0xB55 JUMP JUMPDEST POP SWAP4 SWAP3 POP POP POP JUMP JUMPDEST PUSH1 0x0 DUP3 PUSH1 0x1F DUP4 ADD SLT PUSH2 0xBBB JUMPI PUSH2 0xBBA PUSH2 0xA8E JUMP JUMPDEST JUMPDEST DUP2 CALLDATALOAD PUSH2 0xBCB DUP5 DUP3 PUSH1 0x20 DUP7 ADD PUSH2 0xB64 JUMP JUMPDEST SWAP2 POP POP SWAP3 SWAP2 POP POP JUMP JUMPDEST PUSH1 0x0 DUP2 SWAP1 POP SWAP2 SWAP1 POP JUMP JUMPDEST PUSH2 0xBE7 DUP2 PUSH2 0xBD4 JUMP JUMPDEST DUP2 EQ PUSH2 0xBF2 JUMPI PUSH1 0x0 DUP1 REVERT JUMPDEST POP JUMP JUMPDEST PUSH1 0x0 DUP2 CALLDATALOAD SWAP1 POP PUSH2 0xC04 DUP2 PUSH2 0xBDE JUMP JUMPDEST SWAP3 SWAP2 POP POP JUMP JUMPDEST PUSH1 0x0 DUP1 PUSH1 0x40 DUP4 DUP6 SUB SLT ISZERO PUSH2 0xC21 JUMPI PUSH2 0xC20 PUSH2 0x9C9 JUMP JUMPDEST JUMPDEST PUSH1 0x0 DUP4 ADD CALLDATALOAD PUSH8 0xFFFFFFFFFFFFFFFF DUP2 GT ISZERO PUSH2 0xC3F JUMPI PUSH2 0xC3E PUSH2 0x9CE JUMP JUMPDEST JUMPDEST PUSH2 0xC4B DUP6 DUP3 DUP7 ADD PUSH2 0xBA6 JUMP JUMPDEST SWAP3 POP POP PUSH1 0x20 PUSH2 0xC5C DUP6 DUP3 DUP7 ADD PUSH2 0xBF5 JUMP JUMPDEST SWAP2 POP POP SWAP3 POP SWAP3 SWAP1 POP JUMP JUMPDEST PUSH2 0xC6F DUP2 PUSH2 0xBD4 JUMP JUMPDEST DUP3 MSTORE POP POP JUMP JUMPDEST PUSH1 0x0 PUSH1 0x20 DUP3 ADD SWAP1 POP PUSH2 0xC8A PUSH1 0x0 DUP4 ADD DUP5 PUSH2 0xC66 JUMP JUMPDEST SWAP3 SWAP2 POP POP JUMP JUMPDEST PUSH1 0x0 PUSH1 0x20 DUP3 DUP5 SUB SLT ISZERO PUSH2 0xCA6 JUMPI PUSH2 0xCA5 PUSH2 0x9C9 JUMP JUMPDEST JUMPDEST PUSH1 0x0 PUSH2 0xCB4 DUP5 DUP3 DUP6 ADD PUSH2 0xBF5 JUMP JUMPDEST SWAP2 POP POP SWAP3 SWAP2 POP POP JUMP JUMPDEST PUSH1 0x0 DUP2 MLOAD SWAP1 POP SWAP2 SWAP1 POP JUMP JUMPDEST PUSH1 0x0 DUP3 DUP3 MSTORE PUSH1 0x20 DUP3 ADD SWAP1 POP SWAP3 SWAP2 POP POP JUMP JUMPDEST PUSH1 0x0 JUMPDEST DUP4 DUP2 LT ISZERO PUSH2 0xCF7 JUMPI DUP1 DUP3 ADD MLOAD DUP2 DUP5 ADD MSTORE PUSH1 0x20 DUP2 ADD SWAP1 POP PUSH2 0xCDC JUMP JUMPDEST PUSH1 0x0 DUP5 DUP5 ADD MSTORE POP POP POP POP JUMP JUMPDEST PUSH1 0x0 PUSH2 0xD0E DUP3 PUSH2 0xCBD JUMP JUMPDEST PUSH2 0xD18 DUP2 DUP6 PUSH2 0xCC8 JUMP JUMPDEST SWAP4 POP PUSH2 0xD28 DUP2 DUP6 PUSH1 0x20 DUP7 ADD PUSH2 0xCD9 JUMP JUMPDEST PUSH2 0xD31 DUP2 PUSH2 0xA98 JUMP JUMPDEST DUP5 ADD SWAP2 POP POP SWAP3 SWAP2 POP POP JUMP JUMPDEST PUSH1 0x0 PUSH1 0x20 DUP3 ADD SWAP1 POP DUP2 DUP2 SUB PUSH1 0x0 DUP4 ADD MSTORE PUSH2 0xD56 DUP2 DUP5 PUSH2 0xD03 JUMP JUMPDEST SWAP1 POP SWAP3 SWAP2 POP POP JUMP JUMPDEST PUSH1 0x0 PUSH1 0x20 DUP3 DUP5 SUB SLT ISZERO PUSH2 0xD74 JUMPI PUSH2 0xD73 PUSH2 0x9C9 JUMP JUMPDEST JUMPDEST PUSH1 0x0 DUP3 ADD CALLDATALOAD PUSH8 0xFFFFFFFFFFFFFFFF DUP2 GT ISZERO PUSH2 0xD92 JUMPI PUSH2 0xD91 PUSH2 0x9CE JUMP JUMPDEST JUMPDEST PUSH2 0xD9E DUP5 DUP3 DUP6 ADD PUSH2 0xBA6 JUMP JUMPDEST SWAP2 POP POP SWAP3 SWAP2 POP POP JUMP JUMPDEST PUSH1 0x0 PUSH20 0xFFFFFFFFFFFFFFFFFFFFFFFFFFFFFFFFFFFFFFFF DUP3 AND SWAP1 POP SWAP2 SWAP1 POP JUMP JUMPDEST PUSH1 0x0 PUSH2 0xDD2 DUP3 PUSH2 0xDA7 JUMP JUMPDEST SWAP1 POP SWAP2 SWAP1 POP JUMP JUMPDEST PUSH2 0xDE2 DUP2 PUSH2 0xDC7 JUMP JUMPDEST DUP3 MSTORE POP POP JUMP JUMPDEST PUSH1 0x0 PUSH1 0x20 DUP3 ADD SWAP1 POP PUSH2 0xDFD PUSH1 0x0 DUP4 ADD DUP5 PUSH2 0xDD9 JUMP JUMPDEST SWAP3 SWAP2 POP POP JUMP JUMPDEST PUSH1 0x0 DUP1 PUSH1 0x0 PUSH1 0x60 DUP5 DUP7 SUB SLT ISZERO PUSH2 0xE1C JUMPI PUSH2 0xE1B PUSH2 0x9C9 JUMP JUMPDEST JUMPDEST PUSH1 0x0 DUP5 ADD CALLDATALOAD PUSH8 0xFFFFFFFFFFFFFFFF DUP2 GT ISZERO PUSH2 0xE3A JUMPI PUSH2 0xE39 PUSH2 0x9CE JUMP JUMPDEST JUMPDEST PUSH2 0xE46 DUP7 DUP3 DUP8 ADD PUSH2 0xBA6 JUMP JUMPDEST SWAP4 POP POP PUSH1 0x20 PUSH2 0xE57 DUP7 DUP3 DUP8 ADD PUSH2 0xBF5 JUMP JUMPDEST SWAP3 POP POP PUSH1 0x40 PUSH2 0xE68 DUP7 DUP3 DUP8 ADD PUSH2 0xBF5 JUMP JUMPDEST SWAP2 POP POP SWAP3 POP SWAP3 POP SWAP3 JUMP JUMPDEST PUSH1 0x0 DUP1 PUSH1 0x40 DUP4 DUP6 SUB SLT ISZERO PUSH2 0xE89 JUMPI PUSH2 0xE88 PUSH2 0x9C9 JUMP JUMPDEST JUMPDEST PUSH1 0x0 PUSH2 0xE97 DUP6 DUP3 DUP7 ADD PUSH2 0xBF5 JUMP JUMPDEST SWAP3 POP POP PUSH1 0x20 DUP4 ADD CALLDATALOAD PUSH8 0xFFFFFFFFFFFFFFFF DUP2 GT ISZERO PUSH2 0xEB8 JUMPI PUSH2 0xEB7 PUSH2 0x9CE JUMP JUMPDEST JUMPDEST PUSH2 0xEC4 DUP6 DUP3 DUP7 ADD PUSH2 0xBA6 JUMP JUMPDEST SWAP2 POP POP SWAP3 POP SWAP3 SWAP1 POP JUMP JUMPDEST PUSH2 0xED7 DUP2 PUSH2 0xDC7 JUMP JUMPDEST DUP2 EQ PUSH2 0xEE2 JUMPI PUSH1 0x0 DUP1 REVERT JUMPDEST POP JUMP JUMPDEST PUSH1 0x0 DUP2 CALLDATALOAD SWAP1 POP PUSH2 0xEF4 DUP2 PUSH2 0xECE JUMP JUMPDEST SWAP3 SWAP2 POP POP JUMP JUMPDEST PUSH1 0x0 PUSH1 0x20 DUP3 DUP5 SUB SLT ISZERO PUSH2 0xF10 JUMPI PUSH2 0xF0F PUSH2 0x9C9 JUMP JUMPDEST JUMPDEST PUSH1 0x0 PUSH2 0xF1E DUP5 DUP3 DUP6 ADD PUSH2 0xEE5 JUMP JUMPDEST SWAP2 POP POP SWAP3 SWAP2 POP POP JUMP JUMPDEST PUSH32 0x63616C6C6572206D75737420626520696E7374727563746F72206F7220646573 PUSH1 0x0 DUP3 ADD MSTORE PUSH32 0x69676E6174656420544121000000000000000000000000000000000000000000 PUSH1 0x20 DUP3 ADD MSTORE POP JUMP JUMPDEST PUSH1 0x0 PUSH2 0xF83 PUSH1 0x2B DUP4 PUSH2 0xCC8 JUMP JUMPDEST SWAP2 POP PUSH2 0xF8E DUP3 PUSH2 0xF27 JUMP JUMPDEST PUSH1 0x40 DUP3 ADD SWAP1 POP SWAP2 SWAP1 POP JUMP JUMPDEST PUSH1 0x0 PUSH1 0x20 DUP3 ADD SWAP1 POP DUP2 DUP2 SUB PUSH1 0x0 DUP4 ADD MSTORE PUSH2 0xFB2 DUP2 PUSH2 0xF76 JUMP JUMPDEST SWAP1 POP SWAP2 SWAP1 POP JUMP JUMPDEST PUSH32 0x4E487B7100000000000000000000000000000000000000000000000000000000 PUSH1 0x0 MSTORE PUSH1 0x22 PUSH1 0x4 MSTORE PUSH1 0x24 PUSH1 0x0 REVERT JUMPDEST PUSH1 0x0 PUSH1 0x2 DUP3 DIV SWAP1 POP PUSH1 0x1 DUP3 AND DUP1 PUSH2 0x1000 JUMPI PUSH1 0x7F DUP3 AND SWAP2 POP JUMPDEST PUSH1 0x20 DUP3 LT DUP2 SUB PUSH2 0x1013 JUMPI PUSH2 0x1012 PUSH2 0xFB9 JUMP JUMPDEST JUMPDEST POP SWAP2 SWAP1 POP JUMP JUMPDEST PUSH1 0x0 DUP2 SWAP1 POP DUP2 PUSH1 0x0 MSTORE PUSH1 0x20 PUSH1 0x0 KECCAK256 SWAP1 POP SWAP2 SWAP1 POP JUMP JUMPDEST PUSH1 0x0 PUSH1 0x20 PUSH1 0x1F DUP4 ADD DIV SWAP1 POP SWAP2 SWAP1 POP JUMP JUMPDEST PUSH1 0x0 DUP3 DUP3 SHL SWAP1 POP SWAP3 SWAP2 POP POP JUMP JUMPDEST PUSH1 0x0 PUSH1 0x8 DUP4 MUL PUSH2 0x107B PUSH32 0xFFFFFFFFFFFFFFFFFFFFFFFFFFFFFFFFFFFFFFFFFFFFFFFFFFFFFFFFFFFFFFFF DUP3 PUSH2 0x103E JUMP JUMPDEST PUSH2 0x1085 DUP7 DUP4 PUSH2 0x103E JUMP JUMPDEST SWAP6 POP DUP1 NOT DUP5 AND SWAP4 POP DUP1 DUP7 AND DUP5 OR SWAP3 POP POP POP SWAP4 SWAP3 POP POP POP JUMP JUMPDEST PUSH1 0x0 DUP2 SWAP1 POP SWAP2 SWAP1 POP JUMP JUMPDEST PUSH1 0x0 PUSH2 0x10C2 PUSH2 0x10BD PUSH2 0x10B8 DUP5 PUSH2 0xBD4 JUMP JUMPDEST PUSH2 0x109D JUMP JUMPDEST PUSH2 0xBD4 JUMP JUMPDEST SWAP1 POP SWAP2 SWAP1 POP JUMP JUMPDEST PUSH1 0x0 DUP2 SWAP1 POP SWAP2 SWAP1 POP JUMP JUMPDEST PUSH2 0x10DC DUP4 PUSH2 0x10A7 JUMP JUMPDEST PUSH2 0x10F0 PUSH2 0x10E8 DUP3 PUSH2 0x10C9 JUMP JUMPDEST DUP5 DUP5 SLOAD PUSH2 0x104B JUMP JUMPDEST DUP3 SSTORE POP POP POP POP JUMP JUMPDEST PUSH1 0x0 SWAP1 JUMP JUMPDEST PUSH2 0x1105 PUSH2 0x10F8 JUMP JUMPDEST PUSH2 0x1110 DUP2 DUP5 DUP5 PUSH2 0x10D3 JUMP JUMPDEST POP POP POP JUMP JUMPDEST JUMPDEST DUP2 DUP2 LT ISZERO PUSH2 0x1134 JUMPI PUSH2 0x1129 PUSH1 0x0 DUP3 PUSH2 0x10FD JUMP JUMPDEST PUSH1 0x1 DUP2 ADD SWAP1 POP PUSH2 0x1116 JUMP JUMPDEST POP POP JUMP JUMPDEST PUSH1 0x1F DUP3 GT ISZERO PUSH2 0x1179 JUMPI PUSH2 0x114A DUP2 PUSH2 0x1019 JUMP JUMPDEST PUSH2 0x1153 DUP5 PUSH2 0x102E JUMP JUMPDEST DUP2 ADD PUSH1 0x20 DUP6 LT ISZERO PUSH2 0x1162 JUMPI DUP2 SWAP1 POP JUMPDEST PUSH2 0x1176 PUSH2 0x116E DUP6 PUSH2 0x102E JUMP JUMPDEST DUP4 ADD DUP3 PUSH2 0x1115 JUMP JUMPDEST POP POP JUMPDEST POP POP POP JUMP JUMPDEST PUSH1 0x0 DUP3 DUP3 SHR SWAP1 POP SWAP3 SWAP2 POP POP JUMP JUMPDEST PUSH1 0x0 PUSH2 0x119C PUSH1 0x0 NOT DUP5 PUSH1 0x8 MUL PUSH2 0x117E JUMP JUMPDEST NOT DUP1 DUP4 AND SWAP2 POP POP SWAP3 SWAP2 POP POP JUMP JUMPDEST PUSH1 0x0 PUSH2 0x11B5 DUP4 DUP4 PUSH2 0x118B JUMP JUMPDEST SWAP2 POP DUP3 PUSH1 0x2 MUL DUP3 OR SWAP1 POP SWAP3 SWAP2 POP POP JUMP JUMPDEST PUSH2 0x11CE DUP3 PUSH2 0xCBD JUMP JUMPDEST PUSH8 0xFFFFFFFFFFFFFFFF DUP2 GT ISZERO PUSH2 0x11E7 JUMPI PUSH2 0x11E6 PUSH2 0xAA9 JUMP JUMPDEST JUMPDEST PUSH2 0x11F1 DUP3 SLOAD PUSH2 0xFE8 JUMP JUMPDEST PUSH2 0x11FC DUP3 DUP3 DUP6 PUSH2 0x1138 JUMP JUMPDEST PUSH1 0x0 PUSH1 0x20 SWAP1 POP PUSH1 0x1F DUP4 GT PUSH1 0x1 DUP2 EQ PUSH2 0x122F JUMPI PUSH1 0x0 DUP5 ISZERO PUSH2 0x121D JUMPI DUP3 DUP8 ADD MLOAD SWAP1 POP JUMPDEST PUSH2 0x1227 DUP6 DUP3 PUSH2 0x11A9 JUMP JUMPDEST DUP7 SSTORE POP PUSH2 0x128F JUMP JUMPDEST PUSH1 0x1F NOT DUP5 AND PUSH2 0x123D DUP7 PUSH2 0x1019 JUMP JUMPDEST PUSH1 0x0 JUMPDEST DUP3 DUP2 LT ISZERO PUSH2 0x1265 JUMPI DUP5 DUP10 ADD MLOAD DUP3 SSTORE PUSH1 0x1 DUP3 ADD SWAP2 POP PUSH1 0x20 DUP6 ADD SWAP5 POP PUSH1 0x20 DUP2 ADD SWAP1 POP PUSH2 0x1240 JUMP JUMPDEST DUP7 DUP4 LT ISZERO PUSH2 0x1282 JUMPI DUP5 DUP10 ADD MLOAD PUSH2 0x127E PUSH1 0x1F DUP10 AND DUP3 PUSH2 0x118B JUMP JUMPDEST DUP4 SSTORE POP JUMPDEST PUSH1 0x1 PUSH1 0x2 DUP9 MUL ADD DUP9 SSTORE POP POP POP JUMPDEST POP POP POP POP POP POP JUMP JUMPDEST PUSH32 0x4E487B7100000000000000000000000000000000000000000000000000000000 PUSH1 0x0 MSTORE PUSH1 0x11 PUSH1 0x4 MSTORE PUSH1 0x24 PUSH1 0x0 REVERT JUMPDEST PUSH1 0x0 PUSH2 0x12D1 DUP3 PUSH2 0xBD4 JUMP JUMPDEST SWAP2 POP PUSH32 0xFFFFFFFFFFFFFFFFFFFFFFFFFFFFFFFFFFFFFFFFFFFFFFFFFFFFFFFFFFFFFFFF DUP3 SUB PUSH2 0x1303 JUMPI PUSH2 0x1302 PUSH2 0x1297 JUMP JUMPDEST JUMPDEST PUSH1 0x1 DUP3 ADD SWAP1 POP SWAP2 SWAP1 POP JUMP JUMPDEST PUSH1 0x0 DUP2 SWAP1 POP SWAP3 SWAP2 POP POP JUMP JUMPDEST PUSH1 0x0 PUSH2 0x1324 DUP3 PUSH2 0xCBD JUMP JUMPDEST PUSH2 0x132E DUP2 DUP6 PUSH2 0x130E JUMP JUMPDEST SWAP4 POP PUSH2 0x133E DUP2 DUP6 PUSH1 0x20 DUP7 ADD PUSH2 0xCD9 JUMP JUMPDEST DUP1 DUP5 ADD SWAP2 POP POP SWAP3 SWAP2 POP POP JUMP JUMPDEST PUSH1 0x0 PUSH2 0x1356 DUP3 DUP5 PUSH2 0x1319 JUMP JUMPDEST SWAP2 POP DUP2 SWAP1 POP SWAP3 SWAP2 POP POP JUMP JUMPDEST PUSH1 0x0 PUSH2 0x136C DUP3 PUSH2 0xBD4 JUMP JUMPDEST SWAP2 POP PUSH2 0x1377 DUP4 PUSH2 0xBD4 JUMP JUMPDEST SWAP3 POP DUP3 DUP3 ADD SWAP1 POP DUP1 DUP3 GT ISZERO PUSH2 0x138F JUMPI PUSH2 0x138E PUSH2 0x1297 JUMP JUMPDEST JUMPDEST SWAP3 SWAP2 POP POP JUMP JUMPDEST PUSH1 0x0 PUSH2 0x13A0 DUP3 PUSH2 0xBD4 JUMP JUMPDEST SWAP2 POP PUSH2 0x13AB DUP4 PUSH2 0xBD4 JUMP JUMPDEST SWAP3 POP DUP3 DUP3 MUL PUSH2 0x13B9 DUP2 PUSH2 0xBD4 JUMP JUMPDEST SWAP2 POP DUP3 DUP3 DIV DUP5 EQ DUP4 ISZERO OR PUSH2 0x13D0 JUMPI PUSH2 0x13CF PUSH2 0x1297 JUMP JUMPDEST JUMPDEST POP SWAP3 SWAP2 POP POP JUMP JUMPDEST PUSH32 0x4E487B7100000000000000000000000000000000000000000000000000000000 PUSH1 0x0 MSTORE PUSH1 0x12 PUSH1 0x4 MSTORE PUSH1 0x24 PUSH1 0x0 REVERT JUMPDEST PUSH1 0x0 PUSH2 0x1411 DUP3 PUSH2 0xBD4 JUMP JUMPDEST SWAP2 POP PUSH2 0x141C DUP4 PUSH2 0xBD4 JUMP JUMPDEST SWAP3 POP DUP3 PUSH2 0x142C JUMPI PUSH2 0x142B PUSH2 0x13D7 JUMP JUMPDEST JUMPDEST DUP3 DUP3 DIV SWAP1 POP SWAP3 SWAP2 POP POP JUMP JUMPDEST PUSH32 0x61737369676E6D656E74204944206D7573742062652076616C69640000000000 PUSH1 0x0 DUP3 ADD MSTORE POP JUMP JUMPDEST PUSH1 0x0 PUSH2 0x146D PUSH1 0x1B DUP4 PUSH2 0xCC8 JUMP JUMPDEST SWAP2 POP PUSH2 0x1478 DUP3 PUSH2 0x1437 JUMP JUMPDEST PUSH1 0x20 DUP3 ADD SWAP1 POP SWAP2 SWAP1 POP JUMP JUMPDEST PUSH1 0x0 PUSH1 0x20 DUP3 ADD SWAP1 POP DUP2 DUP2 SUB PUSH1 0x0 DUP4 ADD MSTORE PUSH2 0x149C DUP2 PUSH2 0x1460 JUMP JUMPDEST SWAP1 POP SWAP2 SWAP1 POP JUMP JUMPDEST PUSH32 0x73636F7265206D757374206265206C6F776572207468616E206F722065717561 PUSH1 0x0 DUP3 ADD MSTORE PUSH32 0x6C20746F206D61782073636F7265000000000000000000000000000000000000 PUSH1 0x20 DUP3 ADD MSTORE POP JUMP JUMPDEST PUSH1 0x0 PUSH2 0x14FF PUSH1 0x2E DUP4 PUSH2 0xCC8 JUMP JUMPDEST SWAP2 POP PUSH2 0x150A DUP3 PUSH2 0x14A3 JUMP JUMPDEST PUSH1 0x40 DUP3 ADD SWAP1 POP SWAP2 SWAP1 POP JUMP JUMPDEST PUSH1 0x0 PUSH1 0x20 DUP3 ADD SWAP1 POP DUP2 DUP2 SUB PUSH1 0x0 DUP4 ADD MSTORE PUSH2 0x152E DUP2 PUSH2 0x14F2 JUMP JUMPDEST SWAP1 POP SWAP2 SWAP1 POP JUMP JUMPDEST PUSH32 0x6F6E6C7920696E7374727563746F722063616E2064657369676E617465205441 PUSH1 0x0 DUP3 ADD MSTORE PUSH32 0x7300000000000000000000000000000000000000000000000000000000000000 PUSH1 0x20 DUP3 ADD MSTORE POP JUMP JUMPDEST PUSH1 0x0 PUSH2 0x1591 PUSH1 0x21 DUP4 PUSH2 0xCC8 JUMP JUMPDEST SWAP2 POP PUSH2 0x159C DUP3 PUSH2 0x1535 JUMP JUMPDEST PUSH1 0x40 DUP3 ADD SWAP1 POP SWAP2 SWAP1 POP JUMP JUMPDEST PUSH1 0x0 PUSH1 0x20 DUP3 ADD SWAP1 POP DUP2 DUP2 SUB PUSH1 0x0 DUP4 ADD MSTORE PUSH2 0x15C0 DUP2 PUSH2 0x1584 JUMP JUMPDEST SWAP1 POP SWAP2 SWAP1 POP JUMP INVALID LOG2 PUSH5 0x6970667358 0x22 SLT KECCAK256 0xCB DUP6 LT BASEFEE 0xD6 0xCE PUSH17 0xFD74FDCC1E9B059FC8D94B8113FAFD9444 XOR PUSH16 0x8C406993793164736F6C634300081200 CALLER "
		},
		"gasEstimates": {
			"creation": {
				"codeDepositCost": "1125800",
				"executionCost": "25433",
				"totalCost": "1151233"
			},
			"external": {
				"addAssignment(string,uint256)": "infinite",
				"addGrade(string,uint256,uint256)": "infinite",
				"assignment_names(uint256)": "infinite",
				"designateTA(address)": "27026",
				"getAverage(string)": "infinite",
				"instructor()": "2603",
				"max_scores(uint256)": "infinite",
				"num_assignments()": "2517",
				"requestTAAccess()": "24522",
				"scores(uint256,string)": "infinite",
				"supportsInterface(bytes4)": "682",
				"tas(address)": "2911"
			}
		},
		"methodIdentifiers": {
			"addAssignment(string,uint256)": "077f3b02",
			"addGrade(string,uint256,uint256)": "7241d75f",
			"assignment_names(uint256)": "53acf883",
			"designateTA(address)": "9cfeb679",
			"getAverage(string)": "65dd2f69",
			"instructor()": "71ae413d",
			"max_scores(uint256)": "dfd68b91",
			"num_assignments()": "c7a9f77b",
			"requestTAAccess()": "7fc29673",
			"scores(uint256,string)": "77ca2947",
			"supportsInterface(bytes4)": "01ffc9a7",
			"tas(address)": "a30254e7"
		}
	},
	"abi": [
		{
			"inputs": [],
			"stateMutability": "nonpayable",
			"type": "constructor"
		},
		{
			"anonymous": false,
			"inputs": [
				{
					"indexed": true,
					"internalType": "uint256",
					"name": "_id",
					"type": "uint256"
				}
			],
			"name": "assignmentCreationEvent",
			"type": "event"
		},
		{
			"anonymous": false,
			"inputs": [
				{
					"indexed": true,
					"internalType": "uint256",
					"name": "_id",
					"type": "uint256"
				}
			],
			"name": "gradeEntryEvent",
			"type": "event"
		},
		{
			"inputs": [
				{
					"internalType": "string",
					"name": "_name",
					"type": "string"
				},
				{
					"internalType": "uint256",
					"name": "_max_score",
					"type": "uint256"
				}
			],
			"name": "addAssignment",
			"outputs": [
				{
					"internalType": "uint256",
					"name": "",
					"type": "uint256"
				}
			],
			"stateMutability": "nonpayable",
			"type": "function"
		},
		{
			"inputs": [
				{
					"internalType": "string",
					"name": "_student",
					"type": "string"
				},
				{
					"internalType": "uint256",
					"name": "_assignment",
					"type": "uint256"
				},
				{
					"internalType": "uint256",
					"name": "_score",
					"type": "uint256"
				}
			],
			"name": "addGrade",
			"outputs": [],
			"stateMutability": "nonpayable",
			"type": "function"
		},
		{
			"inputs": [
				{
					"internalType": "uint256",
					"name": "",
					"type": "uint256"
				}
			],
			"name": "assignment_names",
			"outputs": [
				{
					"internalType": "string",
					"name": "",
					"type": "string"
				}
			],
			"stateMutability": "view",
			"type": "function"
		},
		{
			"inputs": [
				{
					"internalType": "address",
					"name": "_ta",
					"type": "address"
				}
			],
			"name": "designateTA",
			"outputs": [],
			"stateMutability": "nonpayable",
			"type": "function"
		},
		{
			"inputs": [
				{
					"internalType": "string",
					"name": "_student",
					"type": "string"
				}
			],
			"name": "getAverage",
			"outputs": [
				{
					"internalType": "uint256",
					"name": "",
					"type": "uint256"
				}
			],
			"stateMutability": "view",
			"type": "function"
		},
		{
			"inputs": [],
			"name": "instructor",
			"outputs": [
				{
					"internalType": "address",
					"name": "",
					"type": "address"
				}
			],
			"stateMutability": "view",
			"type": "function"
		},
		{
			"inputs": [
				{
					"internalType": "uint256",
					"name": "",
					"type": "uint256"
				}
			],
			"name": "max_scores",
			"outputs": [
				{
					"internalType": "uint256",
					"name": "",
					"type": "uint256"
				}
			],
			"stateMutability": "view",
			"type": "function"
		},
		{
			"inputs": [],
			"name": "num_assignments",
			"outputs": [
				{
					"internalType": "uint256",
					"name": "",
					"type": "uint256"
				}
			],
			"stateMutability": "view",
			"type": "function"
		},
		{
			"inputs": [],
			"name": "requestTAAccess",
			"outputs": [],
			"stateMutability": "nonpayable",
			"type": "function"
		},
		{
			"inputs": [
				{
					"internalType": "uint256",
					"name": "",
					"type": "uint256"
				},
				{
					"internalType": "string",
					"name": "",
					"type": "string"
				}
			],
			"name": "scores",
			"outputs": [
				{
					"internalType": "uint256",
					"name": "",
					"type": "uint256"
				}
			],
			"stateMutability": "view",
			"type": "function"
		},
		{
			"inputs": [
				{
					"internalType": "bytes4",
					"name": "interfaceId",
					"type": "bytes4"
				}
			],
			"name": "supportsInterface",
			"outputs": [
				{
					"internalType": "bool",
					"name": "",
					"type": "bool"
				}
			],
			"stateMutability": "pure",
			"type": "function"
		},
		{
			"inputs": [
				{
					"internalType": "address",
					"name": "",
					"type": "address"
				}
			],
			"name": "tas",
			"outputs": [
				{
					"internalType": "bool",
					"name": "",
					"type": "bool"
				}
			],
			"stateMutability": "view",
			"type": "function"
		}
	]
}